{
  "_format": "hh-sol-artifact-1",
  "contractName": "MockERC20",
  "sourceName": "contracts/MockERC20.sol",
  "abi": [
    {
      "inputs": [
        {
          "internalType": "string",
          "name": "name",
          "type": "string"
        },
        {
          "internalType": "string",
          "name": "symbol",
          "type": "string"
        },
        {
          "internalType": "uint256",
          "name": "initialSupply",
          "type": "uint256"
        }
      ],
      "stateMutability": "nonpayable",
      "type": "constructor"
    },
    {
      "inputs": [
        {
          "internalType": "address",
          "name": "spender",
          "type": "address"
        },
        {
          "internalType": "uint256",
          "name": "allowance",
          "type": "uint256"
        },
        {
          "internalType": "uint256",
          "name": "needed",
          "type": "uint256"
        }
      ],
      "name": "ERC20InsufficientAllowance",
      "type": "error"
    },
    {
      "inputs": [
        {
          "internalType": "address",
          "name": "sender",
          "type": "address"
        },
        {
          "internalType": "uint256",
          "name": "balance",
          "type": "uint256"
        },
        {
          "internalType": "uint256",
          "name": "needed",
          "type": "uint256"
        }
      ],
      "name": "ERC20InsufficientBalance",
      "type": "error"
    },
    {
      "inputs": [
        {
          "internalType": "address",
          "name": "approver",
          "type": "address"
        }
      ],
      "name": "ERC20InvalidApprover",
      "type": "error"
    },
    {
      "inputs": [
        {
          "internalType": "address",
          "name": "receiver",
          "type": "address"
        }
      ],
      "name": "ERC20InvalidReceiver",
      "type": "error"
    },
    {
      "inputs": [
        {
          "internalType": "address",
          "name": "sender",
          "type": "address"
        }
      ],
      "name": "ERC20InvalidSender",
      "type": "error"
    },
    {
      "inputs": [
        {
          "internalType": "address",
          "name": "spender",
          "type": "address"
        }
      ],
      "name": "ERC20InvalidSpender",
      "type": "error"
    },
    {
      "inputs": [],
      "name": "InvalidProtocol",
      "type": "error"
    },
    {
      "inputs": [],
      "name": "NotProtocol",
      "type": "error"
    },
    {
      "inputs": [
        {
          "internalType": "address",
          "name": "owner",
          "type": "address"
        }
      ],
      "name": "OwnableInvalidOwner",
      "type": "error"
    },
    {
      "inputs": [
        {
          "internalType": "address",
          "name": "account",
          "type": "address"
        }
      ],
      "name": "OwnableUnauthorizedAccount",
      "type": "error"
    },
    {
      "anonymous": false,
      "inputs": [
        {
          "indexed": true,
          "internalType": "address",
          "name": "owner",
          "type": "address"
        },
        {
          "indexed": true,
          "internalType": "address",
          "name": "spender",
          "type": "address"
        },
        {
          "indexed": false,
          "internalType": "uint256",
          "name": "value",
          "type": "uint256"
        }
      ],
      "name": "Approval",
      "type": "event"
    },
    {
      "anonymous": false,
      "inputs": [
        {
          "indexed": true,
          "internalType": "address",
          "name": "previousOwner",
          "type": "address"
        },
        {
          "indexed": true,
          "internalType": "address",
          "name": "newOwner",
          "type": "address"
        }
      ],
      "name": "OwnershipTransferred",
      "type": "event"
    },
    {
      "anonymous": false,
      "inputs": [
        {
          "indexed": true,
          "internalType": "address",
          "name": "from",
          "type": "address"
        },
        {
          "indexed": true,
          "internalType": "address",
          "name": "to",
          "type": "address"
        },
        {
          "indexed": false,
          "internalType": "uint256",
          "name": "value",
          "type": "uint256"
        }
      ],
      "name": "Transfer",
      "type": "event"
    },
    {
      "inputs": [
        {
          "internalType": "address",
          "name": "owner",
          "type": "address"
        },
        {
          "internalType": "address",
          "name": "spender",
          "type": "address"
        }
      ],
      "name": "allowance",
      "outputs": [
        {
          "internalType": "uint256",
          "name": "",
          "type": "uint256"
        }
      ],
      "stateMutability": "view",
      "type": "function"
    },
    {
      "inputs": [
        {
          "internalType": "address",
          "name": "spender",
          "type": "address"
        },
        {
          "internalType": "uint256",
          "name": "value",
          "type": "uint256"
        }
      ],
      "name": "approve",
      "outputs": [
        {
          "internalType": "bool",
          "name": "",
          "type": "bool"
        }
      ],
      "stateMutability": "nonpayable",
      "type": "function"
    },
    {
      "inputs": [
        {
          "internalType": "address",
          "name": "account",
          "type": "address"
        }
      ],
      "name": "balanceOf",
      "outputs": [
        {
          "internalType": "uint256",
          "name": "",
          "type": "uint256"
        }
      ],
      "stateMutability": "view",
      "type": "function"
    },
    {
      "inputs": [
        {
          "internalType": "uint256",
          "name": "value",
          "type": "uint256"
        }
      ],
      "name": "burn",
      "outputs": [],
      "stateMutability": "nonpayable",
      "type": "function"
    },
    {
      "inputs": [
        {
          "internalType": "address",
          "name": "from",
          "type": "address"
        },
        {
          "internalType": "uint256",
          "name": "amount",
          "type": "uint256"
        }
      ],
      "name": "burn",
      "outputs": [],
      "stateMutability": "nonpayable",
      "type": "function"
    },
    {
      "inputs": [
        {
          "internalType": "address",
          "name": "account",
          "type": "address"
        },
        {
          "internalType": "uint256",
          "name": "value",
          "type": "uint256"
        }
      ],
      "name": "burnFrom",
      "outputs": [],
      "stateMutability": "nonpayable",
      "type": "function"
    },
    {
      "inputs": [
        {
          "internalType": "address",
          "name": "",
          "type": "address"
        }
      ],
      "name": "credibilityScore",
      "outputs": [
        {
          "internalType": "uint256",
          "name": "",
          "type": "uint256"
        }
      ],
      "stateMutability": "view",
      "type": "function"
    },
    {
      "inputs": [],
      "name": "decimals",
      "outputs": [
        {
          "internalType": "uint8",
          "name": "",
          "type": "uint8"
        }
      ],
      "stateMutability": "view",
      "type": "function"
    },
    {
      "inputs": [
        {
          "internalType": "address",
          "name": "to",
          "type": "address"
        },
        {
          "internalType": "uint256",
          "name": "amount",
          "type": "uint256"
        }
      ],
      "name": "mint",
      "outputs": [],
      "stateMutability": "nonpayable",
      "type": "function"
    },
    {
      "inputs": [],
      "name": "name",
      "outputs": [
        {
          "internalType": "string",
          "name": "",
          "type": "string"
        }
      ],
      "stateMutability": "view",
      "type": "function"
    },
    {
      "inputs": [],
      "name": "owner",
      "outputs": [
        {
          "internalType": "address",
          "name": "",
          "type": "address"
        }
      ],
      "stateMutability": "view",
      "type": "function"
    },
    {
      "inputs": [],
      "name": "protocol",
      "outputs": [
        {
          "internalType": "address",
          "name": "",
          "type": "address"
        }
      ],
      "stateMutability": "view",
      "type": "function"
    },
    {
      "inputs": [],
      "name": "renounceOwnership",
      "outputs": [],
      "stateMutability": "nonpayable",
      "type": "function"
    },
    {
      "inputs": [
        {
          "internalType": "address",
          "name": "holder",
          "type": "address"
        },
        {
          "internalType": "uint256",
          "name": "newScore",
          "type": "uint256"
        }
      ],
      "name": "seedCredibilityScore",
      "outputs": [],
      "stateMutability": "nonpayable",
      "type": "function"
    },
    {
      "inputs": [
        {
          "internalType": "address",
          "name": "newProtocol",
          "type": "address"
        }
      ],
      "name": "setProtocol",
      "outputs": [],
      "stateMutability": "nonpayable",
      "type": "function"
    },
    {
      "inputs": [],
      "name": "symbol",
      "outputs": [
        {
          "internalType": "string",
          "name": "",
          "type": "string"
        }
      ],
      "stateMutability": "view",
      "type": "function"
    },
    {
      "inputs": [],
      "name": "totalSupply",
      "outputs": [
        {
          "internalType": "uint256",
          "name": "",
          "type": "uint256"
        }
      ],
      "stateMutability": "view",
      "type": "function"
    },
    {
      "inputs": [
        {
          "internalType": "address",
          "name": "to",
          "type": "address"
        },
        {
          "internalType": "uint256",
          "name": "value",
          "type": "uint256"
        }
      ],
      "name": "transfer",
      "outputs": [
        {
          "internalType": "bool",
          "name": "",
          "type": "bool"
        }
      ],
      "stateMutability": "nonpayable",
      "type": "function"
    },
    {
      "inputs": [
        {
          "internalType": "address",
          "name": "from",
          "type": "address"
        },
        {
          "internalType": "address",
          "name": "to",
          "type": "address"
        },
        {
          "internalType": "uint256",
          "name": "value",
          "type": "uint256"
        }
      ],
      "name": "transferFrom",
      "outputs": [
        {
          "internalType": "bool",
          "name": "",
          "type": "bool"
        }
      ],
      "stateMutability": "nonpayable",
      "type": "function"
    },
    {
      "inputs": [
        {
          "internalType": "address",
          "name": "newOwner",
          "type": "address"
        }
      ],
      "name": "transferOwnership",
      "outputs": [],
      "stateMutability": "nonpayable",
      "type": "function"
    },
    {
      "inputs": [
        {
          "internalType": "address",
          "name": "holder",
          "type": "address"
        },
        {
          "internalType": "uint256",
          "name": "newScore",
          "type": "uint256"
        }
      ],
      "name": "updateCredibilityScore",
      "outputs": [],
      "stateMutability": "nonpayable",
      "type": "function"
    }
  ],
  "bytecode": "0x608060405234801561001057600080fd5b5060405161101138038061101183398101604081905261002f91610308565b338383600361003e8382610403565b50600461004b8282610403565b5050506001600160a01b03811661007d57604051631e4fbdf760e01b8152600060048201526024015b60405180910390fd5b61008681610099565b5061009133826100eb565b5050506104e8565b600580546001600160a01b038381166001600160a01b0319831681179093556040519116919082907f8be0079c531659141344cd1fd0a4f28419497f9722a3daafe3b4186f6b6457e090600090a35050565b6001600160a01b0382166101155760405163ec442f0560e01b815260006004820152602401610074565b61012160008383610125565b5050565b6001600160a01b03831661015057806002600082825461014591906104c1565b909155506101c29050565b6001600160a01b038316600090815260208190526040902054818110156101a35760405163391434e360e21b81526001600160a01b03851660048201526024810182905260448101839052606401610074565b6001600160a01b03841660009081526020819052604090209082900390555b6001600160a01b0382166101de576002805482900390556101fd565b6001600160a01b03821660009081526020819052604090208054820190555b816001600160a01b0316836001600160a01b03167fddf252ad1be2c89b69c2b068fc378daa952ba7f163c4a11628f55a4df523b3ef8360405161024291815260200190565b60405180910390a3505050565b634e487b7160e01b600052604160045260246000fd5b600082601f83011261027657600080fd5b81516001600160401b0381111561028f5761028f61024f565b604051601f8201601f19908116603f011681016001600160401b03811182821017156102bd576102bd61024f565b6040528181528382016020018510156102d557600080fd5b60005b828110156102f4576020818601810151838301820152016102d8565b506000918101602001919091529392505050565b60008060006060848603121561031d57600080fd5b83516001600160401b0381111561033357600080fd5b61033f86828701610265565b602086015190945090506001600160401b0381111561035d57600080fd5b61036986828701610265565b925050604084015190509250925092565b600181811c9082168061038e57607f821691505b6020821081036103ae57634e487b7160e01b600052602260045260246000fd5b50919050565b601f8211156103fe57806000526020600020601f840160051c810160208510156103db5750805b601f840160051c820191505b818110156103fb57600081556001016103e7565b50505b505050565b81516001600160401b0381111561041c5761041c61024f565b6104308161042a845461037a565b846103b4565b6020601f821160018114610464576000831561044c5750848201515b600019600385901b1c1916600184901b1784556103fb565b600084815260208120601f198516915b828110156104945787850151825560209485019460019092019101610474565b50848210156104b25786840151600019600387901b60f8161c191681555b50505050600190811b01905550565b808201808211156104e257634e487b7160e01b600052601160045260246000fd5b92915050565b610b1a806104f76000396000f3fe608060405234801561001057600080fd5b50600436106101375760003560e01c806379cc6790116100b8578063a9059cbb1161007c578063a9059cbb14610287578063aaac37a11461029a578063ce76b95a146102ba578063dd62ed3e146102cd578063de50a79514610306578063f2fde38b1461031957600080fd5b806379cc67901461021d5780638ce74426146102305780638da5cb5b1461025b57806395d89b411461026c5780639dc29fac1461027457600080fd5b8063313ce567116100ff578063313ce567146101b757806340c10f19146101c657806342966c68146101d957806370a08231146101ec578063715018a61461021557600080fd5b806306fdde031461013c578063095ea7b31461015a5780630a9d793d1461017d57806318160ddd1461019257806323b872dd146101a4575b600080fd5b61014461032c565b604051610151919061094a565b60405180910390f35b61016d6101683660046109b4565b6103be565b6040519015158152602001610151565b61019061018b3660046109de565b6103d8565b005b6002545b604051908152602001610151565b61016d6101b2366004610a00565b610429565b60405160128152602001610151565b6101906101d43660046109b4565b61044d565b6101906101e7366004610a3d565b610463565b6101966101fa3660046109de565b6001600160a01b031660009081526020819052604090205490565b610190610470565b61019061022b3660046109b4565b610484565b600654610243906001600160a01b031681565b6040516001600160a01b039091168152602001610151565b6005546001600160a01b0316610243565b610144610499565b6101906102823660046109b4565b6104a8565b61016d6102953660046109b4565b6104d3565b6101966102a83660046109de565b60076020526000908152604090205481565b6101906102c83660046109b4565b6104e1565b6101966102db366004610a56565b6001600160a01b03918216600090815260016020908152604080832093909416825291909152205490565b6101906103143660046109b4565b610505565b6101906103273660046109de565b610530565b60606003805461033b90610a89565b80601f016020809104026020016040519081016040528092919081815260200182805461036790610a89565b80156103b45780601f10610389576101008083540402835291602001916103b4565b820191906000526020600020905b81548152906001019060200180831161039757829003601f168201915b5050505050905090565b6000336103cc818585610570565b60019150505b92915050565b6103e0610582565b6001600160a01b038116610407576040516301fc71f560e21b815260040160405180910390fd5b600680546001600160a01b0319166001600160a01b0392909216919091179055565b6000336104378582856105af565b61044285858561062e565b506001949350505050565b610455610582565b61045f828261068d565b5050565b61046d33826106c3565b50565b610478610582565b61048260006106f9565b565b61048f8233836105af565b61045f82826106c3565b60606004805461033b90610a89565b6006546001600160a01b0316331461048f5760405163d1a5e0c360e01b815260040160405180910390fd5b6000336103cc81858561062e565b6104e9610582565b6001600160a01b03909116600090815260076020526040902055565b6006546001600160a01b031633146104e95760405163d1a5e0c360e01b815260040160405180910390fd5b610538610582565b6001600160a01b03811661056757604051631e4fbdf760e01b8152600060048201526024015b60405180910390fd5b61046d816106f9565b61057d838383600161074b565b505050565b6005546001600160a01b031633146104825760405163118cdaa760e01b815233600482015260240161055e565b6001600160a01b03838116600090815260016020908152604080832093861683529290522054600019811015610628578181101561061957604051637dc7a0d960e11b81526001600160a01b0384166004820152602481018290526044810183905260640161055e565b6106288484848403600061074b565b50505050565b6001600160a01b03831661065857604051634b637e8f60e11b81526000600482015260240161055e565b6001600160a01b0382166106825760405163ec442f0560e01b81526000600482015260240161055e565b61057d838383610820565b6001600160a01b0382166106b75760405163ec442f0560e01b81526000600482015260240161055e565b61045f60008383610820565b6001600160a01b0382166106ed57604051634b637e8f60e11b81526000600482015260240161055e565b61045f82600083610820565b600580546001600160a01b038381166001600160a01b0319831681179093556040519116919082907f8be0079c531659141344cd1fd0a4f28419497f9722a3daafe3b4186f6b6457e090600090a35050565b6001600160a01b0384166107755760405163e602df0560e01b81526000600482015260240161055e565b6001600160a01b03831661079f57604051634a1406b160e11b81526000600482015260240161055e565b6001600160a01b038085166000908152600160209081526040808320938716835292905220829055801561062857826001600160a01b0316846001600160a01b03167f8c5be1e5ebec7d5bd14f71427d1e84f3dd0314c0f7b2291e5b200ac8c7c3b9258460405161081291815260200190565b60405180910390a350505050565b6001600160a01b03831661084b5780600260008282546108409190610ac3565b909155506108bd9050565b6001600160a01b0383166000908152602081905260409020548181101561089e5760405163391434e360e21b81526001600160a01b0385166004820152602481018290526044810183905260640161055e565b6001600160a01b03841660009081526020819052604090209082900390555b6001600160a01b0382166108d9576002805482900390556108f8565b6001600160a01b03821660009081526020819052604090208054820190555b816001600160a01b0316836001600160a01b03167fddf252ad1be2c89b69c2b068fc378daa952ba7f163c4a11628f55a4df523b3ef8360405161093d91815260200190565b60405180910390a3505050565b602081526000825180602084015260005b81811015610978576020818601810151604086840101520161095b565b506000604082850101526040601f19601f83011684010191505092915050565b80356001600160a01b03811681146109af57600080fd5b919050565b600080604083850312156109c757600080fd5b6109d083610998565b946020939093013593505050565b6000602082840312156109f057600080fd5b6109f982610998565b9392505050565b600080600060608486031215610a1557600080fd5b610a1e84610998565b9250610a2c60208501610998565b929592945050506040919091013590565b600060208284031215610a4f57600080fd5b5035919050565b60008060408385031215610a6957600080fd5b610a7283610998565b9150610a8060208401610998565b90509250929050565b600181811c90821680610a9d57607f821691505b602082108103610abd57634e487b7160e01b600052602260045260246000fd5b50919050565b808201808211156103d257634e487b7160e01b600052601160045260246000fdfea26469706673582212209729ff6baa1e0cd282668729592265c84739499cee32f2fdd0efdce62a77664864736f6c634300081e0033",
  "linkReferences": {},
  "deployedLinkReferences": {}
}