{"contracts/GhostProtocol.sol":{"GhostProtocol":{"abi":[{"inputs":[{"internalType":"address","name":"ghostedTokenAddress","type":"address"},{"internalType":"address","name":"treasuryAddress","type":"address"},{"internalType":"address","name":"oracleAddress","type":"address"}],"stateMutability":"nonpayable","type":"constructor"},{"inputs":[],"name":"AlreadyResolved","type":"error"},{"inputs":[],"name":"AlreadyUnlocked","type":"error"},{"inputs":[],"name":"ContractPaused","type":"error"},{"inputs":[],"name":"EvidenceAlreadyExists","type":"error"},{"inputs":[{"internalType":"uint256","name":"currentCredibility","type":"uint256"},{"internalType":"uint256","name":"requiredCredibility","type":"uint256"}],"name":"InsufficientCredibility","type":"error"},{"inputs":[{"internalType":"uint256","name":"requiredAmount","type":"uint256"},{"internalType":"uint256","name":"receivedAmount","type":"uint256"}],"name":"InsufficientEth","type":"error"},{"inputs":[{"internalType":"uint256","name":"availableAmount","type":"uint256"},{"internalType":"uint256","name":"requestedAmount","type":"uint256"}],"name":"InsufficientProtocolEth","type":"error"},{"inputs":[],"name":"InvalidAddress","type":"error"},{"inputs":[],"name":"InvalidAssertionIndex","type":"error"},{"inputs":[],"name":"InvalidProofHash","type":"error"},{"inputs":[],"name":"InvalidQuoteAmount","type":"error"},{"inputs":[],"name":"InvalidSeverity","type":"error"},{"inputs":[],"name":"NotOracle","type":"error"},{"inputs":[],"name":"NotOwner","type":"error"},{"inputs":[],"name":"NotPendingOwner","type":"error"},{"inputs":[],"name":"NotPricingOracle","type":"error"},{"inputs":[],"name":"OnlySubmitter","type":"error"},{"inputs":[],"name":"ReentrancyGuardReentrantCall","type":"error"},{"inputs":[{"internalType":"address","name":"token","type":"address"}],"name":"SafeERC20FailedOperation","type":"error"},{"inputs":[{"internalType":"uint256","name":"lastUpdatedAt","type":"uint256"},{"internalType":"uint256","name":"maxAge","type":"uint256"}],"name":"StaleUnlockPriceQuote","type":"error"},{"inputs":[],"name":"StoryAlreadyPublic","type":"error"},{"inputs":[],"name":"StoryDoesNotExist","type":"error"},{"inputs":[],"name":"StoryIsPublic","type":"error"},{"inputs":[],"name":"SubmitterNotRecorded","type":"error"},{"inputs":[],"name":"TokenTransferFailed","type":"error"},{"inputs":[],"name":"UnlockPriceQuoteNotSet","type":"error"},{"anonymous":false,"inputs":[{"indexed":true,"internalType":"bytes32","name":"proofHash","type":"bytes32"},{"indexed":true,"internalType":"address","name":"submitter","type":"address"},{"indexed":false,"internalType":"uint256","name":"severity","type":"uint256"},{"indexed":false,"internalType":"bool","name":"isProxy","type":"bool"},{"indexed":false,"internalType":"uint256","name":"ghostedRewarded","type":"uint256"},{"indexed":false,"internalType":"string","name":"dramaType","type":"string"}],"name":"EvidenceSubmitted","type":"event"},{"anonymous":false,"inputs":[{"indexed":true,"internalType":"address","name":"submitter","type":"address"},{"indexed":true,"internalType":"bytes32","name":"proofHash","type":"bytes32"},{"indexed":false,"internalType":"uint256","name":"feePaid","type":"uint256"},{"indexed":false,"internalType":"uint256","name":"treasuryCut","type":"uint256"},{"indexed":false,"internalType":"uint256","name":"protocolCut","type":"uint256"}],"name":"GhostingReceiptSubmitted","type":"event"},{"anonymous":false,"inputs":[{"indexed":true,"internalType":"address","name":"previousOracle","type":"address"},{"indexed":true,"internalType":"address","name":"newOracle","type":"address"}],"name":"OracleUpdated","type":"event"},{"anonymous":false,"inputs":[{"indexed":true,"internalType":"address","name":"previousOwner","type":"address"},{"indexed":true,"internalType":"address","name":"pendingOwner","type":"address"}],"name":"OwnershipTransferStarted","type":"event"},{"anonymous":false,"inputs":[{"indexed":true,"internalType":"address","name":"previousOwner","type":"address"},{"indexed":true,"internalType":"address","name":"newOwner","type":"address"}],"name":"OwnershipTransferred","type":"event"},{"anonymous":false,"inputs":[{"indexed":false,"internalType":"bool","name":"paused","type":"bool"}],"name":"PauseStateUpdated","type":"event"},{"anonymous":false,"inputs":[{"indexed":true,"internalType":"address","name":"previousPricingOracle","type":"address"},{"indexed":true,"internalType":"address","name":"newPricingOracle","type":"address"}],"name":"PricingOracleUpdated","type":"event"},{"anonymous":false,"inputs":[{"indexed":true,"internalType":"address","name":"account","type":"address"},{"indexed":false,"internalType":"uint256","name":"previousScore","type":"uint256"},{"indexed":false,"internalType":"uint256","name":"newScore","type":"uint256"},{"indexed":false,"internalType":"string","name":"reason","type":"string"}],"name":"ProtocolCredibilityUpdated","type":"event"},{"anonymous":false,"inputs":[{"indexed":true,"internalType":"address","name":"sender","type":"address"},{"indexed":false,"internalType":"uint256","name":"amount","type":"uint256"}],"name":"ProtocolFunded","type":"event"},{"anonymous":false,"inputs":[{"indexed":true,"internalType":"address","name":"treasury","type":"address"},{"indexed":false,"internalType":"uint256","name":"amount","type":"uint256"}],"name":"ProtocolRevenueWithdrawn","type":"event"},{"anonymous":false,"inputs":[{"indexed":true,"internalType":"address","name":"treasury","type":"address"},{"indexed":false,"internalType":"uint256","name":"amount","type":"uint256"}],"name":"ProtocolTokensWithdrawn","type":"event"},{"anonymous":false,"inputs":[{"indexed":true,"internalType":"bytes32","name":"proofHash","type":"bytes32"},{"indexed":true,"internalType":"address","name":"submitter","type":"address"}],"name":"StoryMadePublic","type":"event"},{"anonymous":false,"inputs":[{"indexed":true,"internalType":"bytes32","name":"proofHash","type":"bytes32"},{"indexed":true,"internalType":"address","name":"unlocker","type":"address"},{"indexed":false,"internalType":"uint256","name":"cost","type":"uint256"},{"indexed":false,"internalType":"string","name":"method","type":"string"}],"name":"StoryUnlocked","type":"event"},{"anonymous":false,"inputs":[{"indexed":true,"internalType":"address","name":"previousTreasury","type":"address"},{"indexed":true,"internalType":"address","name":"newTreasury","type":"address"}],"name":"TreasuryUpdated","type":"event"},{"anonymous":false,"inputs":[{"indexed":true,"internalType":"bytes32","name":"proofHash","type":"bytes32"},{"indexed":true,"internalType":"address","name":"assertor","type":"address"},{"indexed":false,"internalType":"bool","name":"believesReal","type":"bool"},{"indexed":false,"internalType":"uint256","name":"stake","type":"uint256"}],"name":"TruthAsserted","type":"event"},{"anonymous":false,"inputs":[{"indexed":true,"internalType":"bytes32","name":"proofHash","type":"bytes32"},{"indexed":true,"internalType":"address","name":"assertor","type":"address"},{"indexed":false,"internalType":"bool","name":"wasCorrect","type":"bool"},{"indexed":false,"internalType":"uint256","name":"reward","type":"uint256"}],"name":"TruthResolved","type":"event"},{"anonymous":false,"inputs":[{"indexed":false,"internalType":"uint256","name":"previousQuoteWeiPerToken","type":"uint256"},{"indexed":false,"internalType":"uint256","name":"newQuoteWeiPerToken","type":"uint256"},{"indexed":false,"internalType":"uint256","name":"updatedAt","type":"uint256"}],"name":"UnlockPriceQuoteUpdated","type":"event"},{"anonymous":false,"inputs":[{"indexed":true,"internalType":"bytes32","name":"proofHash","type":"bytes32"},{"indexed":false,"internalType":"uint256","name":"newPrice","type":"uint256"}],"name":"UnlockPriceUpdated","type":"event"},{"inputs":[],"name":"BASE_UNLOCK_PRICE","outputs":[{"internalType":"uint256","name":"","type":"uint256"}],"stateMutability":"view","type":"function"},{"inputs":[],"name":"BPS_DENOMINATOR","outputs":[{"internalType":"uint256","name":"","type":"uint256"}],"stateMutability":"view","type":"function"},{"inputs":[],"name":"CREDIBILITY_UNLOCK_THRESHOLD","outputs":[{"internalType":"uint256","name":"","type":"uint256"}],"stateMutability":"view","type":"function"},{"inputs":[],"name":"GHOSTING_RECEIPT_FEE","outputs":[{"internalType":"uint256","name":"","type":"uint256"}],"stateMutability":"view","type":"function"},{"inputs":[],"name":"MAX_GHOSTED_PER_SUBMISSION","outputs":[{"internalType":"uint256","name":"","type":"uint256"}],"stateMutability":"view","type":"function"},{"inputs":[],"name":"MAX_UNLOCK_PRICE","outputs":[{"internalType":"uint256","name":"","type":"uint256"}],"stateMutability":"view","type":"function"},{"inputs":[],"name":"MAX_UNLOCK_PRICE_QUOTE_AGE","outputs":[{"internalType":"uint256","name":"","type":"uint256"}],"stateMutability":"view","type":"function"},{"inputs":[],"name":"TREASURY_SPLIT_BPS","outputs":[{"internalType":"uint256","name":"","type":"uint256"}],"stateMutability":"view","type":"function"},{"inputs":[],"name":"TRUTH_ASSERTION_STAKE","outputs":[{"internalType":"uint256","name":"","type":"uint256"}],"stateMutability":"view","type":"function"},{"inputs":[],"name":"TRUTH_WIN_REWARD","outputs":[{"internalType":"uint256","name":"","type":"uint256"}],"stateMutability":"view","type":"function"},{"inputs":[],"name":"UNLOCK_PRICE_STEP","outputs":[{"internalType":"uint256","name":"","type":"uint256"}],"stateMutability":"view","type":"function"},{"inputs":[],"name":"acceptOwnership","outputs":[],"stateMutability":"nonpayable","type":"function"},{"inputs":[{"internalType":"bytes32","name":"proofHash","type":"bytes32"},{"internalType":"bool","name":"believesReal","type":"bool"}],"name":"assertTruth","outputs":[],"stateMutability":"nonpayable","type":"function"},{"inputs":[{"internalType":"bytes32","name":"proofHash","type":"bytes32"},{"internalType":"address","name":"user","type":"address"}],"name":"canUserAccessStory","outputs":[{"internalType":"bool","name":"","type":"bool"}],"stateMutability":"view","type":"function"},{"inputs":[],"name":"directEvidenceCount","outputs":[{"internalType":"uint256","name":"","type":"uint256"}],"stateMutability":"view","type":"function"},{"inputs":[],"name":"evidenceCounter","outputs":[{"internalType":"uint256","name":"","type":"uint256"}],"stateMutability":"view","type":"function"},{"inputs":[{"internalType":"bytes32","name":"","type":"bytes32"}],"name":"evidenceSubmitter","outputs":[{"internalType":"address","name":"","type":"address"}],"stateMutability":"view","type":"function"},{"inputs":[{"internalType":"bytes32","name":"proofHash","type":"bytes32"}],"name":"getEvidence","outputs":[{"internalType":"uint256","name":"timestamp","type":"uint256"},{"internalType":"uint256","name":"weight","type":"uint256"},{"internalType":"bool","name":"isProxy","type":"bool"},{"internalType":"bytes32","name":"descriptionHash","type":"bytes32"},{"internalType":"string","name":"dramaType","type":"string"},{"internalType":"string","name":"contentCid","type":"string"},{"internalType":"address","name":"submitter","type":"address"},{"internalType":"uint256","name":"ghostedRewarded","type":"uint256"}],"stateMutability":"view","type":"function"},{"inputs":[],"name":"getProtocolStats","outputs":[{"internalType":"uint256","name":"totalEvidence","type":"uint256"},{"internalType":"uint256","name":"directEvidence","type":"uint256"},{"internalType":"uint256","name":"proxyEvidence","type":"uint256"},{"internalType":"uint256","name":"totalTruthAssertions","type":"uint256"},{"internalType":"uint256","name":"rewardedGhosted","type":"uint256"},{"internalType":"uint256","name":"burnedGhosted","type":"uint256"},{"internalType":"uint256","name":"revenueCollected","type":"uint256"},{"internalType":"uint256","name":"treasuryDistributed","type":"uint256"},{"internalType":"uint256","name":"protocolRetainedRevenue","type":"uint256"},{"internalType":"uint256","name":"protocolWithdrawn","type":"uint256"},{"internalType":"uint256","name":"protocolBalance","type":"uint256"},{"internalType":"bool","name":"gaslightUnlocked","type":"bool"},{"internalType":"bool","name":"isPaused","type":"bool"}],"stateMutability":"view","type":"function"},{"inputs":[{"internalType":"bytes32","name":"proofHash","type":"bytes32"}],"name":"getStoryPayoutInfo","outputs":[{"internalType":"uint256","name":"tokenPayouts","type":"uint256"},{"internalType":"uint256","name":"ethPayouts","type":"uint256"},{"internalType":"uint256","name":"currentEthUnlockPrice","type":"uint256"}],"stateMutability":"view","type":"function"},{"inputs":[{"internalType":"bytes32","name":"proofHash","type":"bytes32"}],"name":"getStoryUnlockInfo","outputs":[{"internalType":"uint256","name":"unlockPriceTokens","type":"uint256"},{"internalType":"uint256","name":"timesUnlocked","type":"uint256"},{"internalType":"bool","name":"isPublic","type":"bool"},{"internalType":"uint256","name":"totalEarned","type":"uint256"},{"internalType":"address","name":"submitter","type":"address"},{"internalType":"uint256","name":"severity","type":"uint256"}],"stateMutability":"view","type":"function"},{"inputs":[{"internalType":"uint256","name":"cursor","type":"uint256"},{"internalType":"uint256","name":"limit","type":"uint256"}],"name":"getSubmittedProofHashes","outputs":[{"internalType":"bytes32[]","name":"proofHashes","type":"bytes32[]"}],"stateMutability":"view","type":"function"},{"inputs":[{"internalType":"bytes32","name":"proofHash","type":"bytes32"},{"internalType":"uint256","name":"assertionIndex","type":"uint256"}],"name":"getTruthAssertion","outputs":[{"internalType":"bytes32","name":"assertionProofHash","type":"bytes32"},{"internalType":"address","name":"assertor","type":"address"},{"internalType":"bool","name":"believesReal","type":"bool"},{"internalType":"uint256","name":"stakeAmount","type":"uint256"},{"internalType":"uint256","name":"timestamp","type":"uint256"},{"internalType":"bool","name":"resolved","type":"bool"},{"internalType":"bool","name":"wasCorrect","type":"bool"}],"stateMutability":"view","type":"function"},{"inputs":[{"internalType":"bytes32","name":"proofHash","type":"bytes32"}],"name":"getTruthAssertionCount","outputs":[{"internalType":"uint256","name":"","type":"uint256"}],"stateMutability":"view","type":"function"},{"inputs":[{"internalType":"address","name":"account","type":"address"}],"name":"getUserCredibility","outputs":[{"internalType":"uint256","name":"tokenCredibility","type":"uint256"},{"internalType":"uint256","name":"protocolCredibility","type":"uint256"},{"internalType":"uint256","name":"effectiveCredibility","type":"uint256"}],"stateMutability":"view","type":"function"},{"inputs":[],"name":"ghostedToken","outputs":[{"internalType":"contract IGhostedToken","name":"","type":"address"}],"stateMutability":"view","type":"function"},{"inputs":[{"internalType":"bytes32","name":"","type":"bytes32"},{"internalType":"address","name":"","type":"address"}],"name":"hasUnlockedStory","outputs":[{"internalType":"bool","name":"","type":"bool"}],"stateMutability":"view","type":"function"},{"inputs":[{"internalType":"bytes32","name":"proofHash","type":"bytes32"},{"internalType":"address","name":"user","type":"address"}],"name":"hasUserUnlockedStory","outputs":[{"internalType":"bool","name":"","type":"bool"}],"stateMutability":"view","type":"function"},{"inputs":[{"internalType":"bytes32","name":"","type":"bytes32"}],"name":"lockedStories","outputs":[{"internalType":"bytes32","name":"proofHash","type":"bytes32"},{"internalType":"address","name":"submitter","type":"address"},{"internalType":"uint256","name":"severity","type":"uint256"},{"internalType":"uint256","name":"unlockPrice","type":"uint256"},{"internalType":"uint256","name":"timesUnlocked","type":"uint256"},{"internalType":"bool","name":"isPublic","type":"bool"},{"internalType":"uint256","name":"totalEarnedFromUnlocks","type":"uint256"}],"stateMutability":"view","type":"function"},{"inputs":[{"internalType":"bytes32","name":"proofHash","type":"bytes32"}],"name":"makeStoryPublic","outputs":[],"stateMutability":"nonpayable","type":"function"},{"inputs":[],"name":"oracle","outputs":[{"internalType":"address","name":"","type":"address"}],"stateMutability":"view","type":"function"},{"inputs":[],"name":"owner","outputs":[{"internalType":"address","name":"","type":"address"}],"stateMutability":"view","type":"function"},{"inputs":[],"name":"paused","outputs":[{"internalType":"bool","name":"","type":"bool"}],"stateMutability":"view","type":"function"},{"inputs":[],"name":"pendingOwner","outputs":[{"internalType":"address","name":"","type":"address"}],"stateMutability":"view","type":"function"},{"inputs":[{"internalType":"bytes32","name":"proofHash","type":"bytes32"}],"name":"previewUnlockPriceInEth","outputs":[{"internalType":"uint256","name":"","type":"uint256"}],"stateMutability":"view","type":"function"},{"inputs":[],"name":"pricingOracle","outputs":[{"internalType":"address","name":"","type":"address"}],"stateMutability":"view","type":"function"},{"inputs":[{"internalType":"address","name":"","type":"address"}],"name":"protocolCredibilityScore","outputs":[{"internalType":"uint256","name":"","type":"uint256"}],"stateMutability":"view","type":"function"},{"inputs":[],"name":"proxyEvidenceCount","outputs":[{"internalType":"uint256","name":"","type":"uint256"}],"stateMutability":"view","type":"function"},{"inputs":[{"internalType":"bytes32","name":"proofHash","type":"bytes32"},{"internalType":"uint256","name":"assertionIndex","type":"uint256"},{"internalType":"bool","name":"isActuallyReal","type":"bool"}],"name":"resolveTruth","outputs":[],"stateMutability":"nonpayable","type":"function"},{"inputs":[{"internalType":"address","name":"newOracle","type":"address"}],"name":"setOracle","outputs":[],"stateMutability":"nonpayable","type":"function"},{"inputs":[{"internalType":"bool","name":"nextPaused","type":"bool"}],"name":"setPaused","outputs":[],"stateMutability":"nonpayable","type":"function"},{"inputs":[{"internalType":"address","name":"newPricingOracle","type":"address"}],"name":"setPricingOracle","outputs":[],"stateMutability":"nonpayable","type":"function"},{"inputs":[{"internalType":"address","name":"newTreasury","type":"address"}],"name":"setTreasury","outputs":[],"stateMutability":"nonpayable","type":"function"},{"inputs":[{"internalType":"uint256","name":"quoteWeiPerToken","type":"uint256"}],"name":"setUnlockPriceQuote","outputs":[],"stateMutability":"nonpayable","type":"function"},{"inputs":[{"internalType":"bytes32","name":"","type":"bytes32"}],"name":"storyEthEarnings","outputs":[{"internalType":"uint256","name":"","type":"uint256"}],"stateMutability":"view","type":"function"},{"inputs":[{"internalType":"bytes32","name":"proofHash","type":"bytes32"},{"internalType":"uint256","name":"severity","type":"uint256"},{"internalType":"string","name":"description","type":"string"},{"internalType":"string","name":"dramaType","type":"string"},{"internalType":"string","name":"contentCid","type":"string"},{"internalType":"bool","name":"isProxy","type":"bool"}],"name":"submitEvidence","outputs":[],"stateMutability":"payable","type":"function"},{"inputs":[],"name":"submittedProofHashesCount","outputs":[{"internalType":"uint256","name":"","type":"uint256"}],"stateMutability":"view","type":"function"},{"inputs":[],"name":"totalGhostedBurned","outputs":[{"internalType":"uint256","name":"","type":"uint256"}],"stateMutability":"view","type":"function"},{"inputs":[],"name":"totalGhostedRewarded","outputs":[{"internalType":"uint256","name":"","type":"uint256"}],"stateMutability":"view","type":"function"},{"inputs":[],"name":"totalProtocolRevenue","outputs":[{"internalType":"uint256","name":"","type":"uint256"}],"stateMutability":"view","type":"function"},{"inputs":[],"name":"totalProtocolWithdrawn","outputs":[{"internalType":"uint256","name":"","type":"uint256"}],"stateMutability":"view","type":"function"},{"inputs":[],"name":"totalRevenueCollected","outputs":[{"internalType":"uint256","name":"","type":"uint256"}],"stateMutability":"view","type":"function"},{"inputs":[],"name":"totalTreasuryDistributed","outputs":[{"internalType":"uint256","name":"","type":"uint256"}],"stateMutability":"view","type":"function"},{"inputs":[{"internalType":"address","name":"","type":"address"}],"name":"totalTruthWins","outputs":[{"internalType":"uint256","name":"","type":"uint256"}],"stateMutability":"view","type":"function"},{"inputs":[{"internalType":"address","name":"newOwner","type":"address"}],"name":"transferOwnership","outputs":[],"stateMutability":"nonpayable","type":"function"},{"inputs":[],"name":"treasury","outputs":[{"internalType":"address","name":"","type":"address"}],"stateMutability":"view","type":"function"},{"inputs":[],"name":"truthAssertionCount","outputs":[{"internalType":"uint256","name":"","type":"uint256"}],"stateMutability":"view","type":"function"},{"inputs":[{"internalType":"address","name":"","type":"address"}],"name":"truthWinStreak","outputs":[{"internalType":"uint256","name":"","type":"uint256"}],"stateMutability":"view","type":"function"},{"inputs":[],"name":"unlockPriceQuoteUpdatedAt","outputs":[{"internalType":"uint256","name":"","type":"uint256"}],"stateMutability":"view","type":"function"},{"inputs":[],"name":"unlockPriceQuoteWeiPerToken","outputs":[{"internalType":"uint256","name":"","type":"uint256"}],"stateMutability":"view","type":"function"},{"inputs":[{"internalType":"bytes32","name":"proofHash","type":"bytes32"}],"name":"unlockStoryByBurn","outputs":[],"stateMutability":"nonpayable","type":"function"},{"inputs":[{"internalType":"bytes32","name":"proofHash","type":"bytes32"}],"name":"unlockStoryByCredibility","outputs":[],"stateMutability":"nonpayable","type":"function"},{"inputs":[{"internalType":"bytes32","name":"proofHash","type":"bytes32"}],"name":"unlockStoryWithETH","outputs":[],"stateMutability":"payable","type":"function"},{"inputs":[{"internalType":"uint256","name":"amount","type":"uint256"}],"name":"withdrawProtocolETH","outputs":[],"stateMutability":"nonpayable","type":"function"},{"inputs":[{"internalType":"uint256","name":"amount","type":"uint256"}],"name":"withdrawProtocolTokens","outputs":[],"stateMutability":"nonpayable","type":"function"},{"stateMutability":"payable","type":"receive"}],"evm":{"bytecode":{"linkReferences":{},"object":"60a060405234801561001057600080fd5b50604051613b69380380613b6983398101604081905261002f91610110565b60017f9b779b17422d0df92223018b32b4d1fa46e071723d6817e2486d003becc55f00556001600160a01b038316158061007057506001600160a01b038216155b8061008257506001600160a01b038116155b156100a05760405163e6c4247b60e01b815260040160405180910390fd5b6001600160a01b0392831660805260008054336001600160a01b0319918216179091556004805482169385169390931790925560028054831691909316908117909255600380549091169091179055610153565b80516001600160a01b038116811461010b57600080fd5b919050565b60008060006060848603121561012557600080fd5b61012e846100f4565b925061013c602085016100f4565b915061014a604085016100f4565b90509250925092565b6080516139ca61019f6000396000818161084d015281816115790152818161250c01528181612b0001528181612d1401528181612e5f01528181612f6b01526130bb01526139ca6000f3fe6080604052600436106103d25760003560e01c80638c1a60b2116101fd578063c69ab50111610118578063dbd8c057116100ab578063e332305d1161007a578063e332305d14610d41578063f0f4426014610d5e578063f2fde38b14610d7e578063f4dceacd14610d9e578063f99156cb14610dbe57600080fd5b8063dbd8c05714610cdf578063e1a4521814610cf5578063e30c397814610d0b578063e319c8d114610d2b57600080fd5b8063d0f6581b116100e7578063d0f6581b14610c6b578063d365d09414610c82578063d4ade87514610caf578063d73848cc14610cc257600080fd5b8063c69ab50114610be1578063c89e74fb14610bfe578063c9ab713014610c2b578063cb3399e814610c4b57600080fd5b8063a60051ae11610190578063b690d8a11161015f578063b690d8a114610b7f578063b87c111414610b95578063b9fa45da14610bab578063bf813d8214610bc157600080fd5b8063a60051ae14610b0b578063a6d2fcd914610b21578063af414d4114610b4e578063b3dfbcf814610b6957600080fd5b8063938a8bca116101cc578063938a8bca14610a1157806398933e3a14610a275780639e33bb8614610a3a578063a4fa95bf14610ade57600080fd5b80638c1a60b2146109a05780638c37f11d146109bd5780638da5cb5b146109d3578063924d3f56146109f357600080fd5b806353093093116102ed5780636a65eaa61161028057806379ba50971161024f57806379ba50971461092b5780637adbf973146109405780637dc0d1d0146109605780638748c6b91461098057600080fd5b80636a65eaa6146108255780636bccc7531461083b578063771aceef1461086f57806378f88d671461090e57600080fd5b806365137dd0116102bc57806365137dd01461072f57806367310b5a1461079457806368f5c663146107cf5780636a01a775146107ef57600080fd5b8063530930931461069e5780635bdf5621146106ce5780635c975abb146106ee57806361d027b31461070f57600080fd5b80631a868c40116103655780632cad2f65116103345780632cad2f65146106175780632ce13a031461063757806338902fdb146106545780634a7221a01461066a57600080fd5b80631a868c40146105a157806321026950146105c15780632666185a146105e157806329ff0d931461060157600080fd5b806313b781ab116103a157806313b781ab146104d75780631433219c146104f957806316c38b3c1461052657806319b881e41461054657600080fd5b8063056962c31461041357806308104069146104535780630efd66e214610472578063139ab0e71461049f57600080fd5b3661040e5760405134815233907f719feb717c187001672aa98b85a51988a7fab410c32ed1d724838c8377bf90af9060200160405180910390a2005b600080fd5b34801561041f57600080fd5b5061043361042e3660046132be565b610dd4565b604080519384526020840192909252908201526060015b60405180910390f35b34801561045f57600080fd5b506013545b60405190815260200161044a565b34801561047e57600080fd5b5061046461048d3660046132f3565b601a6020526000908152604090205481565b3480156104ab57600080fd5b506003546104bf906001600160a01b031681565b6040516001600160a01b03909116815260200161044a565b3480156104e357600080fd5b506104f76104f23660046132be565b610e66565b005b34801561050557600080fd5b506104646105143660046132be565b60176020526000908152604090205481565b34801561053257600080fd5b506104f761054136600461331e565b610f04565b34801561055257600080fd5b506105666105613660046132be565b610f87565b6040805196875260208701959095529215159385019390935260608401526001600160a01b03909116608083015260a082015260c00161044a565b3480156105ad57600080fd5b506104f76105bc3660046132be565b611086565b3480156105cd57600080fd5b506104646105dc3660046132be565b611174565b3480156105ed57600080fd5b506104f76105fc3660046132be565b6111ed565b34801561060d57600080fd5b5061046460065481565b34801561062357600080fd5b506104f76106323660046132be565b61128f565b34801561064357600080fd5b5061046468878678326eac90000081565b34801561066057600080fd5b50610464600b5481565b34801561067657600080fd5b5061068a6106853660046132be565b611389565b60405161044a98979695949392919061337f565b3480156106aa57600080fd5b506106be6106b93660046133e1565b611526565b604051901515815260200161044a565b3480156106da57600080fd5b506104336106e93660046132f3565b611553565b3480156106fa57600080fd5b506004546106be90600160a01b900460ff1681565b34801561071b57600080fd5b506004546104bf906001600160a01b031681565b34801561073b57600080fd5b5061074f61074a36600461340d565b611616565b604080519788526001600160a01b039096166020880152931515948601949094526060850191909152608084015290151560a0830152151560c082015260e00161044a565b3480156107a057600080fd5b506106be6107af3660046133e1565b601660209081526000928352604080842090915290825290205460ff1681565b3480156107db57600080fd5b506104f76107ea3660046132be565b6116ce565b3480156107fb57600080fd5b506104bf61080a3660046132be565b6015602052600090815260409020546001600160a01b031681565b34801561083157600080fd5b5061046460085481565b34801561084757600080fd5b506104bf7f000000000000000000000000000000000000000000000000000000000000000081565b34801561087b57600080fd5b50600754600854600954600a8054600b54600c54600d54600e54600f54601054600454604080518d8152602081019c909c528b019990995260608a0196909652608089019490945260a088019290925260c087015260e08601526101008501526101208401524761014084015290921015610160820152600160a01b90910460ff1615156101808201526101a00161044a565b34801561091a57600080fd5b50610464681b1ae4d6e2ef50000081565b34801561093757600080fd5b506104f76118bc565b34801561094c57600080fd5b506104f761095b3660046132f3565b61193e565b34801561096c57600080fd5b506002546104bf906001600160a01b031681565b34801561098c57600080fd5b506104f761099b36600461342f565b6119e2565b3480156109ac57600080fd5b50610464680ad78ebc5ac620000081565b3480156109c957600080fd5b50610464600f5481565b3480156109df57600080fd5b506000546104bf906001600160a01b031681565b3480156109ff57600080fd5b5061046469010f0cf064dd5920000081565b348015610a1d57600080fd5b50610464600e5481565b6104f7610a3536600461349b565b611ba0565b348015610a4657600080fd5b50610a9f610a553660046132be565b601460205260009081526040902080546001820154600283015460038401546004850154600586015460069096015494956001600160a01b039094169492939192909160ff169087565b604080519788526001600160a01b0390961660208801529486019390935260608501919091526080840152151560a083015260c082015260e00161044a565b348015610aea57600080fd5b50610afe610af936600461340d565b612094565b60405161044a9190613564565b348015610b1757600080fd5b50610464610bb881565b348015610b2d57600080fd5b50610464610b3c3660046132f3565b60196020526000908152604090205481565b348015610b5a57600080fd5b506104646621c0331d5dc00081565b348015610b7557600080fd5b5061046460095481565b348015610b8b57600080fd5b5061046460055481565b348015610ba157600080fd5b5061046460075481565b348015610bb757600080fd5b50610464600a5481565b348015610bcd57600080fd5b506104f7610bdc3660046132f3565b612189565b348015610bed57600080fd5b50610464683635c9adc5dea0000081565b348015610c0a57600080fd5b50610464610c193660046132f3565b60186020526000908152604090205481565b348015610c3757600080fd5b506106be610c463660046133e1565b61222d565b348015610c5757600080fd5b506104f7610c663660046135a7565b6122a2565b348015610c7757600080fd5b506104646201518081565b348015610c8e57600080fd5b50610464610c9d3660046132be565b60009081526012602052604090205490565b6104f7610cbd3660046132be565b612637565b348015610cce57600080fd5b5061046468056bc75e2d6310000081565b348015610ceb57600080fd5b50610464600d5481565b348015610d0157600080fd5b5061046461271081565b348015610d1757600080fd5b506001546104bf906001600160a01b031681565b348015610d3757600080fd5b5061046460105481565b348015610d4d57600080fd5b506104646802b5e3af16b188000081565b348015610d6a57600080fd5b506104f7610d793660046132f3565b6128a0565b348015610d8a57600080fd5b506104f7610d993660046132f3565b612944565b348015610daa57600080fd5b506104f7610db93660046132be565b6129e7565b348015610dca57600080fd5b50610464600c5481565b600081815260116020526040812054819081908103610e06576040516303d4572d60e51b815260040160405180910390fd5b6000848152601460205260408120600381015490919015610e2b578160030154610e36565b681b1ae4d6e2ef5000005b600683015460008881526017602052604090205491925090610e5783612cb1565b94509450945050509193909250565b6003546001600160a01b03163314610e9157604051631dc610a960e21b815260040160405180910390fd5b80600003610eb257604051637f1402d560e11b815260040160405180910390fd5b6006805490829055426005819055604080518381526020810185905280820192909252517fd9c9c767abc8174b594a5a15dd708b5629ab3a49044a597f8f3c8510dec766899181900360600190a15050565b6000546001600160a01b03163314610f2f576040516330cd747160e01b815260040160405180910390fd5b60048054821515600160a01b0260ff60a01b199091161790556040517fb31006682779d0ac02864bee834675baf4592a679bfe75edd5e5847b52ef6f6e90610f7c90831515815260200190565b60405180910390a150565b600081815260116020526040812054819081908190819081908103610fbf576040516303d4572d60e51b815260040160405180910390fd5b600087815260146020526040812060018101549091906001600160a01b0316610fff576000898152601560205260409020546001600160a01b031661100e565b60018201546001600160a01b03165b9050600082600201546000036110355760008a81526011602052604090206001015461103b565b82600201545b9050826003015460001461105357826003015461105e565b681b1ae4d6e2ef5000005b60048401546005850154600690950154919c909b5060ff909416995097509095509350915050565b6000546001600160a01b031633146110b1576040516330cd747160e01b815260040160405180910390fd5b6110b9612dc2565b47808211156110ea5760405163f8db689560e01b815260048101829052602481018390526044015b60405180910390fd5b81601060008282546110fc91906135f2565b9091555050600454611117906001600160a01b031683612dde565b6004546040518381526001600160a01b03909116907ff7595c4fd7fa675e456dd9520ac8266c06d237d52900fc573bccc85b7c177c9e9060200160405180910390a250611171600160008051602061397583398151915255565b50565b60008181526011602052604081205481036111a2576040516303d4572d60e51b815260040160405180910390fd5b600082815260146020526040812060030154156111d0576000838152601460205260409020600301546111db565b681b1ae4d6e2ef5000005b90506111e681612cb1565b9392505050565b6000546001600160a01b03163314611218576040516330cd747160e01b815260040160405180910390fd5b611220612dc2565b600454611236906001600160a01b031682612e52565b6004546040518281526001600160a01b03909116907fdc28230e59577914a436cfb62db26b700e51bf8f88a5ee37cb632984f058e7fc9060200160405180910390a2611171600160008051602061397583398151915255565b600454600160a01b900460ff16156112ba5760405163ab35696f60e01b815260040160405180910390fd5b60008181526011602052604081205490036112e8576040516303d4572d60e51b815260040160405180910390fd5b60006112f382612e86565b60018101549091506001600160a01b0316331461132357604051632731809760e11b815260040160405180910390fd5b600581015460ff161561134957604051635d51ae1160e11b815260040160405180910390fd5b60058101805460ff19166001179055604051339083907f4fc8ba7f4f3c695895c779eb7fde668149b9eed94bfc8e5dda5899c40eca973b90600090a35050565b6000806000806060806000806000601160008b81526020019081526020016000209050806000015481600101548260020160009054906101000a900460ff16836003015484600401856005018660060160009054906101000a90046001600160a01b031687600701548380546113fe90613605565b80601f016020809104026020016040519081016040528092919081815260200182805461142a90613605565b80156114775780601f1061144c57610100808354040283529160200191611477565b820191906000526020600020905b81548152906001019060200180831161145a57829003601f168201915b5050505050935082805461148a90613605565b80601f01602080910402602001604051908101604052809291908181526020018280546114b690613605565b80156115035780601f106114d857610100808354040283529160200191611503565b820191906000526020600020905b8154815290600101906020018083116114e657829003601f168201915b505050505092509850985098509850985098509850985050919395975091939597565b60008281526016602090815260408083206001600160a01b038516845290915290205460ff165b92915050565b60405163aaac37a160e01b81526001600160a01b038281166004830152600091829182917f00000000000000000000000000000000000000000000000000000000000000009091169063aaac37a190602401602060405180830381865afa1580156115c2573d6000803e3d6000fd5b505050506040513d601f19601f820116820180604052508101906115e6919061363f565b6001600160a01b038516600090815260186020526040902054909350915061160e82846135f2565b929491935050565b600082815260126020526040812054819081908190819081908190881061165057604051635878ae8560e11b815260040160405180910390fd5b600089815260126020526040812080548a90811061167057611670613658565b600091825260209091206005909102018054600182015460028301546003840154600490940154929e6001600160a01b0383169e5060ff600160a01b90930483169d50909b5092995080821698506101009091041695509350505050565b600454600160a01b900460ff16156116f95760405163ab35696f60e01b815260040160405180910390fd5b6000818152601160205260408120549003611727576040516303d4572d60e51b815260040160405180910390fd5b600081815260166020908152604080832033845290915290205460ff1615611762576040516328486b6360e11b815260040160405180910390fd5b600061176d82612e86565b600581015490915060ff161561179657604051632444f8b760e11b815260040160405180910390fd5b60006117a133612f36565b905060006117ae84612fe2565b9050808210156117db576040516320200bc560e01b815260048101839052602481018290526044016110e1565b60008481526016602090815260408083203384529091528120805460ff19166001179055606461180c83600561366e565b6118169190613685565b905061184d338260405180604001604052806012815260200171435245444942494c4954595f554e4c4f434b60701b815250613028565b336001600160a01b0316857f2ee8d21874599264c54876b79bf25eae1b396c3771a178e683a9e038b634f1d760006040516118ad918152604060208201819052600b908201526a435245444942494c49545960a81b606082015260800190565b60405180910390a35050505050565b6001546001600160a01b031633146118e757604051630614e5c760e21b815260040160405180910390fd5b60008054336001600160a01b0319808316821784556001805490911690556040516001600160a01b0390921692909183917f8be0079c531659141344cd1fd0a4f28419497f9722a3daafe3b4186f6b6457e091a350565b6000546001600160a01b03163314611969576040516330cd747160e01b815260040160405180910390fd5b6001600160a01b0381166119905760405163e6c4247b60e01b815260040160405180910390fd5b600280546001600160a01b038381166001600160a01b0319831681179093556040519116919082907f078c3b417dadf69374a59793b829c52001247130433427049317bde56607b1b790600090a35050565b600454600160a01b900460ff1615611a0d5760405163ab35696f60e01b815260040160405180910390fd5b611a15612dc2565b6000828152601160205260408120549003611a43576040516303d4572d60e51b815260040160405180910390fd5b611a57333068056bc75e2d631000006130ae565b6001600a6000828254611a6a91906135f2565b90915550506000828152601260209081526040808320815160e0810183528681523381850181815287151583860181815268056bc75e2d6310000060608601818152426080880190815260a088018c815260c089018d81528a5460018082018d559b8f529d8d902099516005909e029099019c8d559551988c01805494511515600160a01b026001600160a81b03199095166001600160a01b03909a169990991793909317909755955160028a0155516003890155905160049097018054935115156101000261ff00199815159890981661ffff199094169390931796909617909155825194855292840152909184917fa04181c550a5111ebee021519f1381f122b78eb4e9b9194a64cd6c9de7737351910160405180910390a3611b9c600160008051602061397583398151915255565b5050565b600454600160a01b900460ff1615611bcb5760405163ab35696f60e01b815260040160405180910390fd5b611bd3612dc2565b88611bf15760405163b780d61f60e01b815260040160405180910390fd5b871580611bfe5750606488115b15611c1c57604051630f7fcb2960e21b815260040160405180910390fd5b60008981526011602052604090205415611c4957604051635665e77960e11b815260040160405180910390fd5b6621c0331d5dc000341015611c8057604051633ebbc33760e01b81526621c0331d5dc00060048201523460248201526044016110e1565b6000611c936621c0331d5dc000346136a7565b90506000612710611cad610bb86621c0331d5dc00061366e565b611cb79190613685565b90506000611ccc826621c0331d5dc0006136a7565b905060006621c0331d5dc000600d6000828254611ce991906135f2565b9250508190555082600e6000828254611d0291906135f2565b9250508190555081600f6000828254611d1b91906135f2565b92505081905550600160076000828254611d3591906135f2565b90915550859050611dbe57600160086000828254611d5391906135f2565b90915550611d6490508c603261366e565b611d7690670de0b6b3a764000061366e565b905069010f0cf064dd59200000811115611d97575069010f0cf064dd592000005b80600b6000828254611da991906135f2565b90915550611db990503382612e52565b611dd7565b600160096000828254611dd191906135f2565b90915550505b6040518061010001604052804281526020018d815260200186151581526020018c8c604051611e079291906136ba565b604051809103902081526020018a8a8080601f016020809104026020016040519081016040528093929190818152602001838380828437600092019190915250505090825250604080516020601f8b0181900481028201810190925289815291810191908a908a9081908401838280828437600081840152601f19601f820116905080830192505050505050508152602001336001600160a01b0316815260200182815250601160008f8152602001908152602001600020600082015181600001556020820151816001015560408201518160020160006101000a81548160ff021916908315150217905550606082015181600301556080820151816004019081611f12919061372e565b5060a08201516005820190611f27908261372e565b5060c08201516006820180546001600160a01b039092166001600160a01b031992831617905560e09092015160079091015560008e8152601560205260408120805490921633179091556013805460018101825591527f66de8ffda797e3de9c05e8fc57b3bf0ec28a930d40b0d285d93c06501cf6a090018d9055611fab8d612e86565b508215611fc857600454611fc8906001600160a01b031684612dde565b8315611fd857611fd83385612dde565b336001600160a01b03168d7f356e37b4b3a3dbbf61e05450c7d74955350550a659bd8792d406b6c27133a0e18e88858e8e60405161201a9594939291906137ed565b60405180910390a3604080516621c0331d5dc0008152602081018590529081018390528d9033907fd381803faab74092aedc8de24231e595cfd3af1a0997ead17e7bcd54d9777c109060600160405180910390a350505050612089600160008051602061397583398151915255565b505050505050505050565b60135460609080841015806120a7575082155b156120c257505060408051600081526020810190915261154d565b60006120ce85836136a7565b905060008482106120df57846120e1565b815b90508067ffffffffffffffff8111156120fc576120fc6136ca565b604051908082528060200260200182016040528015612125578160200160208202803683370190505b50935060005b8181101561217f57601361213f82896135f2565b8154811061214f5761214f613658565b906000526020600020015485828151811061216c5761216c613658565b602090810291909101015260010161212b565b5050505092915050565b6000546001600160a01b031633146121b4576040516330cd747160e01b815260040160405180910390fd5b6001600160a01b0381166121db5760405163e6c4247b60e01b815260040160405180910390fd5b600380546001600160a01b038381166001600160a01b0319831681179093556040519116919082907f038f89ec725a3bc1b18bf38a625bf2ff0407764bd3489886a60cf1d506c7e3a290600090a35050565b600082815260116020526040812054810361225b576040516303d4572d60e51b815260040160405180910390fd5b60008381526014602052604090206005015460ff16806111e657505060009182526016602090815260408084206001600160a01b0393909316845291905290205460ff1690565b6002546001600160a01b031633146122cd57604051631bc2178f60e01b815260040160405180910390fd5b600454600160a01b900460ff16156122f85760405163ab35696f60e01b815260040160405180910390fd5b612300612dc2565b600083815260126020526040902054821061232e57604051635878ae8560e11b815260040160405180910390fd5b600083815260126020526040812080548490811061234e5761234e613658565b60009182526020909120600590910201600481015490915060ff1615612387576040516336ab81e160e11b815260040160405180910390fd5b600481018054600183810154600160a01b900460ff90811615158615151461010090810261ffff199094169390931790911792839055910416156124b25760018101546123e6906001600160a01b0316680ad78ebc5ac6200000612e52565b680ad78ebc5ac6200000600b600082825461240191906135f2565b90915550506001818101546001600160a01b03166000908152601a6020526040812080549091906124339084906135f2565b90915550506001818101546001600160a01b0316600090815260196020526040812080549091906124659084906135f2565b909155505060018101546040805180820190915260098152682a292aaa242faba4a760b91b60208201526124ad916001600160a01b03169068056bc75e2d6310000090613028565b6125a7565b60006124bd85612e86565b905060006124d5600268056bc75e2d63100000613685565b60018301549091506124f0906001600160a01b031682612e52565b604051632770a7eb60e21b8152306004820152602481018290527f00000000000000000000000000000000000000000000000000000000000000006001600160a01b031690639dc29fac90604401600060405180830381600087803b15801561255857600080fd5b505af115801561256c573d6000803e3d6000fd5b5050505080600c600082825461258291906135f2565b90915550505060018201546001600160a01b03166000908152601a6020526040812055505b600181015460048201546001600160a01b039091169085907f8aa1336152b005ddd3ccc39b5a66ed207555053dd23bc9cff1aab405f6348ea590610100900460ff16806125f5576000612600565b680ad78ebc5ac62000005b60408051921515835260208301919091520160405180910390a350612632600160008051602061397583398151915255565b505050565b600454600160a01b900460ff16156126625760405163ab35696f60e01b815260040160405180910390fd5b61266a612dc2565b6000818152601160205260408120549003612698576040516303d4572d60e51b815260040160405180910390fd5b600081815260166020908152604080832033845290915290205460ff16156126d3576040516328486b6360e11b815260040160405180910390fd5b60006126de82612e86565b600581015490915060ff161561270757604051632444f8b760e11b815260040160405180910390fd5b6003810154600061271784611174565b90508034101561274357604051633ebbc33760e01b8152600481018290523460248201526044016110e1565b60008481526016602090815260408083203384529091528120805460ff191660019081179091556004850180549192909161277f9084906135f2565b9091555061278e9050826130e3565b6003840155600084815260176020526040812080548392906127b19084906135f2565b909155505060018301546127ce906001600160a01b031682612dde565b803411156127e9576127e9336127e483346136a7565b612dde565b336001600160a01b0316847f2ee8d21874599264c54876b79bf25eae1b396c3771a178e683a9e038b634f1d7846040516128409181526040602082018190526003908201526208aa8960eb1b606082015260800190565b60405180910390a3837f68520cf07e2f785cba8f9601c758232191b84e9f0a8ec7b3049d2dcc197b67fe846003015460405161287e91815260200190565b60405180910390a2505050611171600160008051602061397583398151915255565b6000546001600160a01b031633146128cb576040516330cd747160e01b815260040160405180910390fd5b6001600160a01b0381166128f25760405163e6c4247b60e01b815260040160405180910390fd5b600480546001600160a01b038381166001600160a01b0319831681179093556040519116919082907f4ab5be82436d353e61ca18726e984e561f5c1cc7c6d38b29d2553c790434705a90600090a35050565b6000546001600160a01b0316331461296f576040516330cd747160e01b815260040160405180910390fd5b6001600160a01b0381166129965760405163e6c4247b60e01b815260040160405180910390fd5b600180546001600160a01b0319166001600160a01b0383811691821790925560008054604051929316917f38d16b8cac22d99fc7c124b9cd0de2d3fa1faef420bfe791d8c362d765e227009190a350565b600454600160a01b900460ff1615612a125760405163ab35696f60e01b815260040160405180910390fd5b612a1a612dc2565b6000818152601160205260408120549003612a48576040516303d4572d60e51b815260040160405180910390fd5b600081815260166020908152604080832033845290915290205460ff1615612a83576040516328486b6360e11b815260040160405180910390fd5b6000612a8e82612e86565b600581015490915060ff1615612ab757604051632444f8b760e11b815260040160405180910390fd5b60038101546000612ac9600283613685565b90506000612ad782846136a7565b9050612ae43330856130ae565b604051632770a7eb60e21b8152306004820152602481018390527f00000000000000000000000000000000000000000000000000000000000000006001600160a01b031690639dc29fac90604401600060405180830381600087803b158015612b4c57600080fd5b505af1158015612b60573d6000803e3d6000fd5b5050505081600c6000828254612b7691906135f2565b90915550506001840154612b93906001600160a01b031682612e52565b60008581526016602090815260408083203384529091528120805460ff1916600190811790915560048601805491929091612bcf9084906135f2565b9250508190555080846006016000828254612bea91906135f2565b90915550612bf99050836130e3565b6003850155604051339086907f2ee8d21874599264c54876b79bf25eae1b396c3771a178e683a9e038b634f1d790612c509087815260406020820181905260049082015263212aa92760e11b606082015260800190565b60405180910390a3847f68520cf07e2f785cba8f9601c758232191b84e9f0a8ec7b3049d2dcc197b67fe8560030154604051612c8e91815260200190565b60405180910390a250505050611171600160008051602061397583398151915255565b600554600090808203612cd757604051630b73274760e11b815260040160405180910390fd5b612ce462015180826135f2565b421115612d1057604051634487756760e11b8152600481018290526201518060248201526044016110e1565b60007f00000000000000000000000000000000000000000000000000000000000000006001600160a01b031663313ce5676040518163ffffffff1660e01b8152600401602060405180830381865afa158015612d70573d6000803e3d6000fd5b505050506040513d601f19601f82011682018060405250810190612d949190613833565b612d9f90600a61393d565b90508060065485612db0919061366e565b612dba9190613685565b949350505050565b612dca613143565b600260008051602061397583398151915255565b6000826001600160a01b03168260405160006040518083038185875af1925050503d8060008114612e2b576040519150601f19603f3d011682016040523d82523d6000602084013e612e30565b606091505b50509050806126325760405163022e258160e11b815260040160405180910390fd5b611b9c6001600160a01b037f0000000000000000000000000000000000000000000000000000000000000000168383613175565b6000818152601460205260409020600381015415612ea357919050565b6000828152601560205260409020546001600160a01b031680612ed9576040516361f2aa0160e11b815260040160405180910390fd5b828255600180830180546001600160a01b0319166001600160a01b039390931692909217909155600092835260116020526040909220909101546002820155681b1ae4d6e2ef500000600382015560058101805460ff1916905590565b6001600160a01b0381811660008181526018602052604080822054905163aaac37a160e01b81526004810193909352909290917f00000000000000000000000000000000000000000000000000000000000000009091169063aaac37a190602401602060405180830381865afa158015612fb4573d6000803e3d6000fd5b505050506040513d601f19601f82011682018060405250810190612fd8919061363f565b61154d91906135f2565b600081815260116020526040812060010154819061300790662386f26fc1000061366e565b9050683635c9adc5dea00000811161154d57683635c9adc5dea000006111e6565b6001600160a01b0383166000908152601860205260408120549061304c84836135f2565b6001600160a01b0386166000818152601860205260409081902083905551919250907f7b750b6736ccb837fea530571f55e8e43f7eeb7bf7f2aadca5b698bd6be22d7a9061309f9085908590889061394c565b60405180910390a25050505050565b6126326001600160a01b037f0000000000000000000000000000000000000000000000000000000000000000168484846131aa565b600068878678326eac9000008210613105575068878678326eac900000919050565b600061311a6802b5e3af16b1880000846135f2565b905068878678326eac900000811161313257806111e6565b68878678326eac9000009392505050565b6000805160206139758339815191525460020361317357604051633ee5aeb560e01b815260040160405180910390fd5b565b61318283838360016131e6565b61263257604051635274afe760e01b81526001600160a01b03841660048201526024016110e1565b6131b884848484600161324c565b6131e057604051635274afe760e01b81526001600160a01b03851660048201526024016110e1565b50505050565b60405163a9059cbb60e01b60008181526001600160a01b038616600452602485905291602083604481808b5af192506001600051148316613240578383151615613233573d6000823e3d81fd5b6000873b113d1516831692505b60405250949350505050565b6040516323b872dd60e01b60008181526001600160a01b038781166004528616602452604485905291602083606481808c5af1925060016000511483166132ac57838315161561329f573d6000823e3d81fd5b6000883b113d1516831692505b60405250600060605295945050505050565b6000602082840312156132d057600080fd5b5035919050565b80356001600160a01b03811681146132ee57600080fd5b919050565b60006020828403121561330557600080fd5b6111e6826132d7565b803580151581146132ee57600080fd5b60006020828403121561333057600080fd5b6111e68261330e565b6000815180845260005b8181101561335f57602081850181015186830182015201613343565b506000602082860101526020601f19601f83011685010191505092915050565b8881528760208201528615156040820152856060820152610100608082015260006133ae610100830187613339565b82810360a08401526133c08187613339565b6001600160a01b039590951660c0840152505060e001529695505050505050565b600080604083850312156133f457600080fd5b82359150613404602084016132d7565b90509250929050565b6000806040838503121561342057600080fd5b50508035926020909101359150565b6000806040838503121561344257600080fd5b823591506134046020840161330e565b60008083601f84011261346457600080fd5b50813567ffffffffffffffff81111561347c57600080fd5b60208301915083602082850101111561349457600080fd5b9250929050565b600080600080600080600080600060c08a8c0312156134b957600080fd5b8935985060208a0135975060408a013567ffffffffffffffff8111156134de57600080fd5b6134ea8c828d01613452565b90985096505060608a013567ffffffffffffffff81111561350a57600080fd5b6135168c828d01613452565b90965094505060808a013567ffffffffffffffff81111561353657600080fd5b6135428c828d01613452565b9094509250613555905060a08b0161330e565b90509295985092959850929598565b602080825282518282018190526000918401906040840190835b8181101561359c57835183526020938401939092019160010161357e565b509095945050505050565b6000806000606084860312156135bc57600080fd5b83359250602084013591506135d36040850161330e565b90509250925092565b634e487b7160e01b600052601160045260246000fd5b8082018082111561154d5761154d6135dc565b600181811c9082168061361957607f821691505b60208210810361363957634e487b7160e01b600052602260045260246000fd5b50919050565b60006020828403121561365157600080fd5b5051919050565b634e487b7160e01b600052603260045260246000fd5b808202811582820484141761154d5761154d6135dc565b6000826136a257634e487b7160e01b600052601260045260246000fd5b500490565b8181038181111561154d5761154d6135dc565b8183823760009101908152919050565b634e487b7160e01b600052604160045260246000fd5b601f82111561263257806000526020600020601f840160051c810160208510156137075750805b601f840160051c820191505b818110156137275760008155600101613713565b5050505050565b815167ffffffffffffffff811115613748576137486136ca565b61375c816137568454613605565b846136e0565b6020601f82116001811461379057600083156137785750848201515b600019600385901b1c1916600184901b178455613727565b600084815260208120601f198516915b828110156137c057878501518255602094850194600190920191016137a0565b50848210156137de5786840151600019600387901b60f8161c191681555b50505050600190811b01905550565b858152841515602082015283604082015260806060820152816080820152818360a0830137600081830160a090810191909152601f909201601f19160101949350505050565b60006020828403121561384557600080fd5b815160ff811681146111e657600080fd5b6001815b600184111561389157808504811115613875576138756135dc565b600184161561388357908102905b60019390931c92800261385a565b935093915050565b6000826138a85750600161154d565b816138b55750600061154d565b81600181146138cb57600281146138d5576138f1565b600191505061154d565b60ff8411156138e6576138e66135dc565b50506001821b61154d565b5060208310610133831016604e8410600b8410161715613914575081810a61154d565b6139216000198484613856565b8060001904821115613935576139356135dc565b029392505050565b60006111e660ff841683613899565b83815282602082015260606040820152600061396b6060830184613339565b9594505050505056fe9b779b17422d0df92223018b32b4d1fa46e071723d6817e2486d003becc55f00a26469706673582212206cf9f13628a35e260bd9aa0d10cc26e4b8764200fcafd99d0350b1305719f63964736f6c634300081e0033","opcodes":"PUSH1 0xA0 PUSH1 0x40 MSTORE CALLVALUE DUP1 ISZERO PUSH2 0x10 JUMPI PUSH1 0x0 DUP1 REVERT JUMPDEST POP PUSH1 0x40 MLOAD PUSH2 0x3B69 CODESIZE SUB DUP1 PUSH2 0x3B69 DUP4 CODECOPY DUP2 ADD PUSH1 0x40 DUP2 SWAP1 MSTORE PUSH2 0x2F SWAP2 PUSH2 0x110 JUMP JUMPDEST PUSH1 0x1 PUSH32 0x9B779B17422D0DF92223018B32B4D1FA46E071723D6817E2486D003BECC55F00 SSTORE PUSH1 0x1 PUSH1 0x1 PUSH1 0xA0 SHL SUB DUP4 AND ISZERO DUP1 PUSH2 0x70 JUMPI POP PUSH1 0x1 PUSH1 0x1 PUSH1 0xA0 SHL SUB DUP3 AND ISZERO JUMPDEST DUP1 PUSH2 0x82 JUMPI POP PUSH1 0x1 PUSH1 0x1 PUSH1 0xA0 SHL SUB DUP2 AND ISZERO JUMPDEST ISZERO PUSH2 0xA0 JUMPI PUSH1 0x40 MLOAD PUSH4 0xE6C4247B PUSH1 0xE0 SHL DUP2 MSTORE PUSH1 0x4 ADD PUSH1 0x40 MLOAD DUP1 SWAP2 SUB SWAP1 REVERT JUMPDEST PUSH1 0x1 PUSH1 0x1 PUSH1 0xA0 SHL SUB SWAP3 DUP4 AND PUSH1 0x80 MSTORE PUSH1 0x0 DUP1 SLOAD CALLER PUSH1 0x1 PUSH1 0x1 PUSH1 0xA0 SHL SUB NOT SWAP2 DUP3 AND OR SWAP1 SWAP2 SSTORE PUSH1 0x4 DUP1 SLOAD DUP3 AND SWAP4 DUP6 AND SWAP4 SWAP1 SWAP4 OR SWAP1 SWAP3 SSTORE PUSH1 0x2 DUP1 SLOAD DUP4 AND SWAP2 SWAP1 SWAP4 AND SWAP1 DUP2 OR SWAP1 SWAP3 SSTORE PUSH1 0x3 DUP1 SLOAD SWAP1 SWAP2 AND SWAP1 SWAP2 OR SWAP1 SSTORE PUSH2 0x153 JUMP JUMPDEST DUP1 MLOAD PUSH1 0x1 PUSH1 0x1 PUSH1 0xA0 SHL SUB DUP2 AND DUP2 EQ PUSH2 0x10B JUMPI PUSH1 0x0 DUP1 REVERT JUMPDEST SWAP2 SWAP1 POP JUMP JUMPDEST PUSH1 0x0 DUP1 PUSH1 0x0 PUSH1 0x60 DUP5 DUP7 SUB SLT ISZERO PUSH2 0x125 JUMPI PUSH1 0x0 DUP1 REVERT JUMPDEST PUSH2 0x12E DUP5 PUSH2 0xF4 JUMP JUMPDEST SWAP3 POP PUSH2 0x13C PUSH1 0x20 DUP6 ADD PUSH2 0xF4 JUMP JUMPDEST SWAP2 POP PUSH2 0x14A PUSH1 0x40 DUP6 ADD PUSH2 0xF4 JUMP JUMPDEST SWAP1 POP SWAP3 POP SWAP3 POP SWAP3 JUMP JUMPDEST PUSH1 0x80 MLOAD PUSH2 0x39CA PUSH2 0x19F PUSH1 0x0 CODECOPY PUSH1 0x0 DUP2 DUP2 PUSH2 0x84D ADD MSTORE DUP2 DUP2 PUSH2 0x1579 ADD MSTORE DUP2 DUP2 PUSH2 0x250C ADD MSTORE DUP2 DUP2 PUSH2 0x2B00 ADD MSTORE DUP2 DUP2 PUSH2 0x2D14 ADD MSTORE DUP2 DUP2 PUSH2 0x2E5F ADD MSTORE DUP2 DUP2 PUSH2 0x2F6B ADD MSTORE PUSH2 0x30BB ADD MSTORE PUSH2 0x39CA PUSH1 0x0 RETURN INVALID PUSH1 0x80 PUSH1 0x40 MSTORE PUSH1 0x4 CALLDATASIZE LT PUSH2 0x3D2 JUMPI PUSH1 0x0 CALLDATALOAD PUSH1 0xE0 SHR DUP1 PUSH4 0x8C1A60B2 GT PUSH2 0x1FD JUMPI DUP1 PUSH4 0xC69AB501 GT PUSH2 0x118 JUMPI DUP1 PUSH4 0xDBD8C057 GT PUSH2 0xAB JUMPI DUP1 PUSH4 0xE332305D GT PUSH2 0x7A JUMPI DUP1 PUSH4 0xE332305D EQ PUSH2 0xD41 JUMPI DUP1 PUSH4 0xF0F44260 EQ PUSH2 0xD5E JUMPI DUP1 PUSH4 0xF2FDE38B EQ PUSH2 0xD7E JUMPI DUP1 PUSH4 0xF4DCEACD EQ PUSH2 0xD9E JUMPI DUP1 PUSH4 0xF99156CB EQ PUSH2 0xDBE JUMPI PUSH1 0x0 DUP1 REVERT JUMPDEST DUP1 PUSH4 0xDBD8C057 EQ PUSH2 0xCDF JUMPI DUP1 PUSH4 0xE1A45218 EQ PUSH2 0xCF5 JUMPI DUP1 PUSH4 0xE30C3978 EQ PUSH2 0xD0B JUMPI DUP1 PUSH4 0xE319C8D1 EQ PUSH2 0xD2B JUMPI PUSH1 0x0 DUP1 REVERT JUMPDEST DUP1 PUSH4 0xD0F6581B GT PUSH2 0xE7 JUMPI DUP1 PUSH4 0xD0F6581B EQ PUSH2 0xC6B JUMPI DUP1 PUSH4 0xD365D094 EQ PUSH2 0xC82 JUMPI DUP1 PUSH4 0xD4ADE875 EQ PUSH2 0xCAF JUMPI DUP1 PUSH4 0xD73848CC EQ PUSH2 0xCC2 JUMPI PUSH1 0x0 DUP1 REVERT JUMPDEST DUP1 PUSH4 0xC69AB501 EQ PUSH2 0xBE1 JUMPI DUP1 PUSH4 0xC89E74FB EQ PUSH2 0xBFE JUMPI DUP1 PUSH4 0xC9AB7130 EQ PUSH2 0xC2B JUMPI DUP1 PUSH4 0xCB3399E8 EQ PUSH2 0xC4B JUMPI PUSH1 0x0 DUP1 REVERT JUMPDEST DUP1 PUSH4 0xA60051AE GT PUSH2 0x190 JUMPI DUP1 PUSH4 0xB690D8A1 GT PUSH2 0x15F JUMPI DUP1 PUSH4 0xB690D8A1 EQ PUSH2 0xB7F JUMPI DUP1 PUSH4 0xB87C1114 EQ PUSH2 0xB95 JUMPI DUP1 PUSH4 0xB9FA45DA EQ PUSH2 0xBAB JUMPI DUP1 PUSH4 0xBF813D82 EQ PUSH2 0xBC1 JUMPI PUSH1 0x0 DUP1 REVERT JUMPDEST DUP1 PUSH4 0xA60051AE EQ PUSH2 0xB0B JUMPI DUP1 PUSH4 0xA6D2FCD9 EQ PUSH2 0xB21 JUMPI DUP1 PUSH4 0xAF414D41 EQ PUSH2 0xB4E JUMPI DUP1 PUSH4 0xB3DFBCF8 EQ PUSH2 0xB69 JUMPI PUSH1 0x0 DUP1 REVERT JUMPDEST DUP1 PUSH4 0x938A8BCA GT PUSH2 0x1CC JUMPI DUP1 PUSH4 0x938A8BCA EQ PUSH2 0xA11 JUMPI DUP1 PUSH4 0x98933E3A EQ PUSH2 0xA27 JUMPI DUP1 PUSH4 0x9E33BB86 EQ PUSH2 0xA3A JUMPI DUP1 PUSH4 0xA4FA95BF EQ PUSH2 0xADE JUMPI PUSH1 0x0 DUP1 REVERT JUMPDEST DUP1 PUSH4 0x8C1A60B2 EQ PUSH2 0x9A0 JUMPI DUP1 PUSH4 0x8C37F11D EQ PUSH2 0x9BD JUMPI DUP1 PUSH4 0x8DA5CB5B EQ PUSH2 0x9D3 JUMPI DUP1 PUSH4 0x924D3F56 EQ PUSH2 0x9F3 JUMPI PUSH1 0x0 DUP1 REVERT JUMPDEST DUP1 PUSH4 0x53093093 GT PUSH2 0x2ED JUMPI DUP1 PUSH4 0x6A65EAA6 GT PUSH2 0x280 JUMPI DUP1 PUSH4 0x79BA5097 GT PUSH2 0x24F JUMPI DUP1 PUSH4 0x79BA5097 EQ PUSH2 0x92B JUMPI DUP1 PUSH4 0x7ADBF973 EQ PUSH2 0x940 JUMPI DUP1 PUSH4 0x7DC0D1D0 EQ PUSH2 0x960 JUMPI DUP1 PUSH4 0x8748C6B9 EQ PUSH2 0x980 JUMPI PUSH1 0x0 DUP1 REVERT JUMPDEST DUP1 PUSH4 0x6A65EAA6 EQ PUSH2 0x825 JUMPI DUP1 PUSH4 0x6BCCC753 EQ PUSH2 0x83B JUMPI DUP1 PUSH4 0x771ACEEF EQ PUSH2 0x86F JUMPI DUP1 PUSH4 0x78F88D67 EQ PUSH2 0x90E JUMPI PUSH1 0x0 DUP1 REVERT JUMPDEST DUP1 PUSH4 0x65137DD0 GT PUSH2 0x2BC JUMPI DUP1 PUSH4 0x65137DD0 EQ PUSH2 0x72F JUMPI DUP1 PUSH4 0x67310B5A EQ PUSH2 0x794 JUMPI DUP1 PUSH4 0x68F5C663 EQ PUSH2 0x7CF JUMPI DUP1 PUSH4 0x6A01A775 EQ PUSH2 0x7EF JUMPI PUSH1 0x0 DUP1 REVERT JUMPDEST DUP1 PUSH4 0x53093093 EQ PUSH2 0x69E JUMPI DUP1 PUSH4 0x5BDF5621 EQ PUSH2 0x6CE JUMPI DUP1 PUSH4 0x5C975ABB EQ PUSH2 0x6EE JUMPI DUP1 PUSH4 0x61D027B3 EQ PUSH2 0x70F JUMPI PUSH1 0x0 DUP1 REVERT JUMPDEST DUP1 PUSH4 0x1A868C40 GT PUSH2 0x365 JUMPI DUP1 PUSH4 0x2CAD2F65 GT PUSH2 0x334 JUMPI DUP1 PUSH4 0x2CAD2F65 EQ PUSH2 0x617 JUMPI DUP1 PUSH4 0x2CE13A03 EQ PUSH2 0x637 JUMPI DUP1 PUSH4 0x38902FDB EQ PUSH2 0x654 JUMPI DUP1 PUSH4 0x4A7221A0 EQ PUSH2 0x66A JUMPI PUSH1 0x0 DUP1 REVERT JUMPDEST DUP1 PUSH4 0x1A868C40 EQ PUSH2 0x5A1 JUMPI DUP1 PUSH4 0x21026950 EQ PUSH2 0x5C1 JUMPI DUP1 PUSH4 0x2666185A EQ PUSH2 0x5E1 JUMPI DUP1 PUSH4 0x29FF0D93 EQ PUSH2 0x601 JUMPI PUSH1 0x0 DUP1 REVERT JUMPDEST DUP1 PUSH4 0x13B781AB GT PUSH2 0x3A1 JUMPI DUP1 PUSH4 0x13B781AB EQ PUSH2 0x4D7 JUMPI DUP1 PUSH4 0x1433219C EQ PUSH2 0x4F9 JUMPI DUP1 PUSH4 0x16C38B3C EQ PUSH2 0x526 JUMPI DUP1 PUSH4 0x19B881E4 EQ PUSH2 0x546 JUMPI PUSH1 0x0 DUP1 REVERT JUMPDEST DUP1 PUSH4 0x56962C3 EQ PUSH2 0x413 JUMPI DUP1 PUSH4 0x8104069 EQ PUSH2 0x453 JUMPI DUP1 PUSH4 0xEFD66E2 EQ PUSH2 0x472 JUMPI DUP1 PUSH4 0x139AB0E7 EQ PUSH2 0x49F JUMPI PUSH1 0x0 DUP1 REVERT JUMPDEST CALLDATASIZE PUSH2 0x40E JUMPI PUSH1 0x40 MLOAD CALLVALUE DUP2 MSTORE CALLER SWAP1 PUSH32 0x719FEB717C187001672AA98B85A51988A7FAB410C32ED1D724838C8377BF90AF SWAP1 PUSH1 0x20 ADD PUSH1 0x40 MLOAD DUP1 SWAP2 SUB SWAP1 LOG2 STOP JUMPDEST PUSH1 0x0 DUP1 REVERT JUMPDEST CALLVALUE DUP1 ISZERO PUSH2 0x41F JUMPI PUSH1 0x0 DUP1 REVERT JUMPDEST POP PUSH2 0x433 PUSH2 0x42E CALLDATASIZE PUSH1 0x4 PUSH2 0x32BE JUMP JUMPDEST PUSH2 0xDD4 JUMP JUMPDEST PUSH1 0x40 DUP1 MLOAD SWAP4 DUP5 MSTORE PUSH1 0x20 DUP5 ADD SWAP3 SWAP1 SWAP3 MSTORE SWAP1 DUP3 ADD MSTORE PUSH1 0x60 ADD JUMPDEST PUSH1 0x40 MLOAD DUP1 SWAP2 SUB SWAP1 RETURN JUMPDEST CALLVALUE DUP1 ISZERO PUSH2 0x45F JUMPI PUSH1 0x0 DUP1 REVERT JUMPDEST POP PUSH1 0x13 SLOAD JUMPDEST PUSH1 0x40 MLOAD SWAP1 DUP2 MSTORE PUSH1 0x20 ADD PUSH2 0x44A JUMP JUMPDEST CALLVALUE DUP1 ISZERO PUSH2 0x47E JUMPI PUSH1 0x0 DUP1 REVERT JUMPDEST POP PUSH2 0x464 PUSH2 0x48D CALLDATASIZE PUSH1 0x4 PUSH2 0x32F3 JUMP JUMPDEST PUSH1 0x1A PUSH1 0x20 MSTORE PUSH1 0x0 SWAP1 DUP2 MSTORE PUSH1 0x40 SWAP1 KECCAK256 SLOAD DUP2 JUMP JUMPDEST CALLVALUE DUP1 ISZERO PUSH2 0x4AB JUMPI PUSH1 0x0 DUP1 REVERT JUMPDEST POP PUSH1 0x3 SLOAD PUSH2 0x4BF SWAP1 PUSH1 0x1 PUSH1 0x1 PUSH1 0xA0 SHL SUB AND DUP2 JUMP JUMPDEST PUSH1 0x40 MLOAD PUSH1 0x1 PUSH1 0x1 PUSH1 0xA0 SHL SUB SWAP1 SWAP2 AND DUP2 MSTORE PUSH1 0x20 ADD PUSH2 0x44A JUMP JUMPDEST CALLVALUE DUP1 ISZERO PUSH2 0x4E3 JUMPI PUSH1 0x0 DUP1 REVERT JUMPDEST POP PUSH2 0x4F7 PUSH2 0x4F2 CALLDATASIZE PUSH1 0x4 PUSH2 0x32BE JUMP JUMPDEST PUSH2 0xE66 JUMP JUMPDEST STOP JUMPDEST CALLVALUE DUP1 ISZERO PUSH2 0x505 JUMPI PUSH1 0x0 DUP1 REVERT JUMPDEST POP PUSH2 0x464 PUSH2 0x514 CALLDATASIZE PUSH1 0x4 PUSH2 0x32BE JUMP JUMPDEST PUSH1 0x17 PUSH1 0x20 MSTORE PUSH1 0x0 SWAP1 DUP2 MSTORE PUSH1 0x40 SWAP1 KECCAK256 SLOAD DUP2 JUMP JUMPDEST CALLVALUE DUP1 ISZERO PUSH2 0x532 JUMPI PUSH1 0x0 DUP1 REVERT JUMPDEST POP PUSH2 0x4F7 PUSH2 0x541 CALLDATASIZE PUSH1 0x4 PUSH2 0x331E JUMP JUMPDEST PUSH2 0xF04 JUMP JUMPDEST CALLVALUE DUP1 ISZERO PUSH2 0x552 JUMPI PUSH1 0x0 DUP1 REVERT JUMPDEST POP PUSH2 0x566 PUSH2 0x561 CALLDATASIZE PUSH1 0x4 PUSH2 0x32BE JUMP JUMPDEST PUSH2 0xF87 JUMP JUMPDEST PUSH1 0x40 DUP1 MLOAD SWAP7 DUP8 MSTORE PUSH1 0x20 DUP8 ADD SWAP6 SWAP1 SWAP6 MSTORE SWAP3 ISZERO ISZERO SWAP4 DUP6 ADD SWAP4 SWAP1 SWAP4 MSTORE PUSH1 0x60 DUP5 ADD MSTORE PUSH1 0x1 PUSH1 0x1 PUSH1 0xA0 SHL SUB SWAP1 SWAP2 AND PUSH1 0x80 DUP4 ADD MSTORE PUSH1 0xA0 DUP3 ADD MSTORE PUSH1 0xC0 ADD PUSH2 0x44A JUMP JUMPDEST CALLVALUE DUP1 ISZERO PUSH2 0x5AD JUMPI PUSH1 0x0 DUP1 REVERT JUMPDEST POP PUSH2 0x4F7 PUSH2 0x5BC CALLDATASIZE PUSH1 0x4 PUSH2 0x32BE JUMP JUMPDEST PUSH2 0x1086 JUMP JUMPDEST CALLVALUE DUP1 ISZERO PUSH2 0x5CD JUMPI PUSH1 0x0 DUP1 REVERT JUMPDEST POP PUSH2 0x464 PUSH2 0x5DC CALLDATASIZE PUSH1 0x4 PUSH2 0x32BE JUMP JUMPDEST PUSH2 0x1174 JUMP JUMPDEST CALLVALUE DUP1 ISZERO PUSH2 0x5ED JUMPI PUSH1 0x0 DUP1 REVERT JUMPDEST POP PUSH2 0x4F7 PUSH2 0x5FC CALLDATASIZE PUSH1 0x4 PUSH2 0x32BE JUMP JUMPDEST PUSH2 0x11ED JUMP JUMPDEST CALLVALUE DUP1 ISZERO PUSH2 0x60D JUMPI PUSH1 0x0 DUP1 REVERT JUMPDEST POP PUSH2 0x464 PUSH1 0x6 SLOAD DUP2 JUMP JUMPDEST CALLVALUE DUP1 ISZERO PUSH2 0x623 JUMPI PUSH1 0x0 DUP1 REVERT JUMPDEST POP PUSH2 0x4F7 PUSH2 0x632 CALLDATASIZE PUSH1 0x4 PUSH2 0x32BE JUMP JUMPDEST PUSH2 0x128F JUMP JUMPDEST CALLVALUE DUP1 ISZERO PUSH2 0x643 JUMPI PUSH1 0x0 DUP1 REVERT JUMPDEST POP PUSH2 0x464 PUSH9 0x878678326EAC900000 DUP2 JUMP JUMPDEST CALLVALUE DUP1 ISZERO PUSH2 0x660 JUMPI PUSH1 0x0 DUP1 REVERT JUMPDEST POP PUSH2 0x464 PUSH1 0xB SLOAD DUP2 JUMP JUMPDEST CALLVALUE DUP1 ISZERO PUSH2 0x676 JUMPI PUSH1 0x0 DUP1 REVERT JUMPDEST POP PUSH2 0x68A PUSH2 0x685 CALLDATASIZE PUSH1 0x4 PUSH2 0x32BE JUMP JUMPDEST PUSH2 0x1389 JUMP JUMPDEST PUSH1 0x40 MLOAD PUSH2 0x44A SWAP9 SWAP8 SWAP7 SWAP6 SWAP5 SWAP4 SWAP3 SWAP2 SWAP1 PUSH2 0x337F JUMP JUMPDEST CALLVALUE DUP1 ISZERO PUSH2 0x6AA JUMPI PUSH1 0x0 DUP1 REVERT JUMPDEST POP PUSH2 0x6BE PUSH2 0x6B9 CALLDATASIZE PUSH1 0x4 PUSH2 0x33E1 JUMP JUMPDEST PUSH2 0x1526 JUMP JUMPDEST PUSH1 0x40 MLOAD SWAP1 ISZERO ISZERO DUP2 MSTORE PUSH1 0x20 ADD PUSH2 0x44A JUMP JUMPDEST CALLVALUE DUP1 ISZERO PUSH2 0x6DA JUMPI PUSH1 0x0 DUP1 REVERT JUMPDEST POP PUSH2 0x433 PUSH2 0x6E9 CALLDATASIZE PUSH1 0x4 PUSH2 0x32F3 JUMP JUMPDEST PUSH2 0x1553 JUMP JUMPDEST CALLVALUE DUP1 ISZERO PUSH2 0x6FA JUMPI PUSH1 0x0 DUP1 REVERT JUMPDEST POP PUSH1 0x4 SLOAD PUSH2 0x6BE SWAP1 PUSH1 0x1 PUSH1 0xA0 SHL SWAP1 DIV PUSH1 0xFF AND DUP2 JUMP JUMPDEST CALLVALUE DUP1 ISZERO PUSH2 0x71B JUMPI PUSH1 0x0 DUP1 REVERT JUMPDEST POP PUSH1 0x4 SLOAD PUSH2 0x4BF SWAP1 PUSH1 0x1 PUSH1 0x1 PUSH1 0xA0 SHL SUB AND DUP2 JUMP JUMPDEST CALLVALUE DUP1 ISZERO PUSH2 0x73B JUMPI PUSH1 0x0 DUP1 REVERT JUMPDEST POP PUSH2 0x74F PUSH2 0x74A CALLDATASIZE PUSH1 0x4 PUSH2 0x340D JUMP JUMPDEST PUSH2 0x1616 JUMP JUMPDEST PUSH1 0x40 DUP1 MLOAD SWAP8 DUP9 MSTORE PUSH1 0x1 PUSH1 0x1 PUSH1 0xA0 SHL SUB SWAP1 SWAP7 AND PUSH1 0x20 DUP9 ADD MSTORE SWAP4 ISZERO ISZERO SWAP5 DUP7 ADD SWAP5 SWAP1 SWAP5 MSTORE PUSH1 0x60 DUP6 ADD SWAP2 SWAP1 SWAP2 MSTORE PUSH1 0x80 DUP5 ADD MSTORE SWAP1 ISZERO ISZERO PUSH1 0xA0 DUP4 ADD MSTORE ISZERO ISZERO PUSH1 0xC0 DUP3 ADD MSTORE PUSH1 0xE0 ADD PUSH2 0x44A JUMP JUMPDEST CALLVALUE DUP1 ISZERO PUSH2 0x7A0 JUMPI PUSH1 0x0 DUP1 REVERT JUMPDEST POP PUSH2 0x6BE PUSH2 0x7AF CALLDATASIZE PUSH1 0x4 PUSH2 0x33E1 JUMP JUMPDEST PUSH1 0x16 PUSH1 0x20 SWAP1 DUP2 MSTORE PUSH1 0x0 SWAP3 DUP4 MSTORE PUSH1 0x40 DUP1 DUP5 KECCAK256 SWAP1 SWAP2 MSTORE SWAP1 DUP3 MSTORE SWAP1 KECCAK256 SLOAD PUSH1 0xFF AND DUP2 JUMP JUMPDEST CALLVALUE DUP1 ISZERO PUSH2 0x7DB JUMPI PUSH1 0x0 DUP1 REVERT JUMPDEST POP PUSH2 0x4F7 PUSH2 0x7EA CALLDATASIZE PUSH1 0x4 PUSH2 0x32BE JUMP JUMPDEST PUSH2 0x16CE JUMP JUMPDEST CALLVALUE DUP1 ISZERO PUSH2 0x7FB JUMPI PUSH1 0x0 DUP1 REVERT JUMPDEST POP PUSH2 0x4BF PUSH2 0x80A CALLDATASIZE PUSH1 0x4 PUSH2 0x32BE JUMP JUMPDEST PUSH1 0x15 PUSH1 0x20 MSTORE PUSH1 0x0 SWAP1 DUP2 MSTORE PUSH1 0x40 SWAP1 KECCAK256 SLOAD PUSH1 0x1 PUSH1 0x1 PUSH1 0xA0 SHL SUB AND DUP2 JUMP JUMPDEST CALLVALUE DUP1 ISZERO PUSH2 0x831 JUMPI PUSH1 0x0 DUP1 REVERT JUMPDEST POP PUSH2 0x464 PUSH1 0x8 SLOAD DUP2 JUMP JUMPDEST CALLVALUE DUP1 ISZERO PUSH2 0x847 JUMPI PUSH1 0x0 DUP1 REVERT JUMPDEST POP PUSH2 0x4BF PUSH32 0x0 DUP2 JUMP JUMPDEST CALLVALUE DUP1 ISZERO PUSH2 0x87B JUMPI PUSH1 0x0 DUP1 REVERT JUMPDEST POP PUSH1 0x7 SLOAD PUSH1 0x8 SLOAD PUSH1 0x9 SLOAD PUSH1 0xA DUP1 SLOAD PUSH1 0xB SLOAD PUSH1 0xC SLOAD PUSH1 0xD SLOAD PUSH1 0xE SLOAD PUSH1 0xF SLOAD PUSH1 0x10 SLOAD PUSH1 0x4 SLOAD PUSH1 0x40 DUP1 MLOAD DUP14 DUP2 MSTORE PUSH1 0x20 DUP2 ADD SWAP13 SWAP1 SWAP13 MSTORE DUP12 ADD SWAP10 SWAP1 SWAP10 MSTORE PUSH1 0x60 DUP11 ADD SWAP7 SWAP1 SWAP7 MSTORE PUSH1 0x80 DUP10 ADD SWAP5 SWAP1 SWAP5 MSTORE PUSH1 0xA0 DUP9 ADD SWAP3 SWAP1 SWAP3 MSTORE PUSH1 0xC0 DUP8 ADD MSTORE PUSH1 0xE0 DUP7 ADD MSTORE PUSH2 0x100 DUP6 ADD MSTORE PUSH2 0x120 DUP5 ADD MSTORE SELFBALANCE PUSH2 0x140 DUP5 ADD MSTORE SWAP1 SWAP3 LT ISZERO PUSH2 0x160 DUP3 ADD MSTORE PUSH1 0x1 PUSH1 0xA0 SHL SWAP1 SWAP2 DIV PUSH1 0xFF AND ISZERO ISZERO PUSH2 0x180 DUP3 ADD MSTORE PUSH2 0x1A0 ADD PUSH2 0x44A JUMP JUMPDEST CALLVALUE DUP1 ISZERO PUSH2 0x91A JUMPI PUSH1 0x0 DUP1 REVERT JUMPDEST POP PUSH2 0x464 PUSH9 0x1B1AE4D6E2EF500000 DUP2 JUMP JUMPDEST CALLVALUE DUP1 ISZERO PUSH2 0x937 JUMPI PUSH1 0x0 DUP1 REVERT JUMPDEST POP PUSH2 0x4F7 PUSH2 0x18BC JUMP JUMPDEST CALLVALUE DUP1 ISZERO PUSH2 0x94C JUMPI PUSH1 0x0 DUP1 REVERT JUMPDEST POP PUSH2 0x4F7 PUSH2 0x95B CALLDATASIZE PUSH1 0x4 PUSH2 0x32F3 JUMP JUMPDEST PUSH2 0x193E JUMP JUMPDEST CALLVALUE DUP1 ISZERO PUSH2 0x96C JUMPI PUSH1 0x0 DUP1 REVERT JUMPDEST POP PUSH1 0x2 SLOAD PUSH2 0x4BF SWAP1 PUSH1 0x1 PUSH1 0x1 PUSH1 0xA0 SHL SUB AND DUP2 JUMP JUMPDEST CALLVALUE DUP1 ISZERO PUSH2 0x98C JUMPI PUSH1 0x0 DUP1 REVERT JUMPDEST POP PUSH2 0x4F7 PUSH2 0x99B CALLDATASIZE PUSH1 0x4 PUSH2 0x342F JUMP JUMPDEST PUSH2 0x19E2 JUMP JUMPDEST CALLVALUE DUP1 ISZERO PUSH2 0x9AC JUMPI PUSH1 0x0 DUP1 REVERT JUMPDEST POP PUSH2 0x464 PUSH9 0xAD78EBC5AC6200000 DUP2 JUMP JUMPDEST CALLVALUE DUP1 ISZERO PUSH2 0x9C9 JUMPI PUSH1 0x0 DUP1 REVERT JUMPDEST POP PUSH2 0x464 PUSH1 0xF SLOAD DUP2 JUMP JUMPDEST CALLVALUE DUP1 ISZERO PUSH2 0x9DF JUMPI PUSH1 0x0 DUP1 REVERT JUMPDEST POP PUSH1 0x0 SLOAD PUSH2 0x4BF SWAP1 PUSH1 0x1 PUSH1 0x1 PUSH1 0xA0 SHL SUB AND DUP2 JUMP JUMPDEST CALLVALUE DUP1 ISZERO PUSH2 0x9FF JUMPI PUSH1 0x0 DUP1 REVERT JUMPDEST POP PUSH2 0x464 PUSH10 0x10F0CF064DD59200000 DUP2 JUMP JUMPDEST CALLVALUE DUP1 ISZERO PUSH2 0xA1D JUMPI PUSH1 0x0 DUP1 REVERT JUMPDEST POP PUSH2 0x464 PUSH1 0xE SLOAD DUP2 JUMP JUMPDEST PUSH2 0x4F7 PUSH2 0xA35 CALLDATASIZE PUSH1 0x4 PUSH2 0x349B JUMP JUMPDEST PUSH2 0x1BA0 JUMP JUMPDEST CALLVALUE DUP1 ISZERO PUSH2 0xA46 JUMPI PUSH1 0x0 DUP1 REVERT JUMPDEST POP PUSH2 0xA9F PUSH2 0xA55 CALLDATASIZE PUSH1 0x4 PUSH2 0x32BE JUMP JUMPDEST PUSH1 0x14 PUSH1 0x20 MSTORE PUSH1 0x0 SWAP1 DUP2 MSTORE PUSH1 0x40 SWAP1 KECCAK256 DUP1 SLOAD PUSH1 0x1 DUP3 ADD SLOAD PUSH1 0x2 DUP4 ADD SLOAD PUSH1 0x3 DUP5 ADD SLOAD PUSH1 0x4 DUP6 ADD SLOAD PUSH1 0x5 DUP7 ADD SLOAD PUSH1 0x6 SWAP1 SWAP7 ADD SLOAD SWAP5 SWAP6 PUSH1 0x1 PUSH1 0x1 PUSH1 0xA0 SHL SUB SWAP1 SWAP5 AND SWAP5 SWAP3 SWAP4 SWAP2 SWAP3 SWAP1 SWAP2 PUSH1 0xFF AND SWAP1 DUP8 JUMP JUMPDEST PUSH1 0x40 DUP1 MLOAD SWAP8 DUP9 MSTORE PUSH1 0x1 PUSH1 0x1 PUSH1 0xA0 SHL SUB SWAP1 SWAP7 AND PUSH1 0x20 DUP9 ADD MSTORE SWAP5 DUP7 ADD SWAP4 SWAP1 SWAP4 MSTORE PUSH1 0x60 DUP6 ADD SWAP2 SWAP1 SWAP2 MSTORE PUSH1 0x80 DUP5 ADD MSTORE ISZERO ISZERO PUSH1 0xA0 DUP4 ADD MSTORE PUSH1 0xC0 DUP3 ADD MSTORE PUSH1 0xE0 ADD PUSH2 0x44A JUMP JUMPDEST CALLVALUE DUP1 ISZERO PUSH2 0xAEA JUMPI PUSH1 0x0 DUP1 REVERT JUMPDEST POP PUSH2 0xAFE PUSH2 0xAF9 CALLDATASIZE PUSH1 0x4 PUSH2 0x340D JUMP JUMPDEST PUSH2 0x2094 JUMP JUMPDEST PUSH1 0x40 MLOAD PUSH2 0x44A SWAP2 SWAP1 PUSH2 0x3564 JUMP JUMPDEST CALLVALUE DUP1 ISZERO PUSH2 0xB17 JUMPI PUSH1 0x0 DUP1 REVERT JUMPDEST POP PUSH2 0x464 PUSH2 0xBB8 DUP2 JUMP JUMPDEST CALLVALUE DUP1 ISZERO PUSH2 0xB2D JUMPI PUSH1 0x0 DUP1 REVERT JUMPDEST POP PUSH2 0x464 PUSH2 0xB3C CALLDATASIZE PUSH1 0x4 PUSH2 0x32F3 JUMP JUMPDEST PUSH1 0x19 PUSH1 0x20 MSTORE PUSH1 0x0 SWAP1 DUP2 MSTORE PUSH1 0x40 SWAP1 KECCAK256 SLOAD DUP2 JUMP JUMPDEST CALLVALUE DUP1 ISZERO PUSH2 0xB5A JUMPI PUSH1 0x0 DUP1 REVERT JUMPDEST POP PUSH2 0x464 PUSH7 0x21C0331D5DC000 DUP2 JUMP JUMPDEST CALLVALUE DUP1 ISZERO PUSH2 0xB75 JUMPI PUSH1 0x0 DUP1 REVERT JUMPDEST POP PUSH2 0x464 PUSH1 0x9 SLOAD DUP2 JUMP JUMPDEST CALLVALUE DUP1 ISZERO PUSH2 0xB8B JUMPI PUSH1 0x0 DUP1 REVERT JUMPDEST POP PUSH2 0x464 PUSH1 0x5 SLOAD DUP2 JUMP JUMPDEST CALLVALUE DUP1 ISZERO PUSH2 0xBA1 JUMPI PUSH1 0x0 DUP1 REVERT JUMPDEST POP PUSH2 0x464 PUSH1 0x7 SLOAD DUP2 JUMP JUMPDEST CALLVALUE DUP1 ISZERO PUSH2 0xBB7 JUMPI PUSH1 0x0 DUP1 REVERT JUMPDEST POP PUSH2 0x464 PUSH1 0xA SLOAD DUP2 JUMP JUMPDEST CALLVALUE DUP1 ISZERO PUSH2 0xBCD JUMPI PUSH1 0x0 DUP1 REVERT JUMPDEST POP PUSH2 0x4F7 PUSH2 0xBDC CALLDATASIZE PUSH1 0x4 PUSH2 0x32F3 JUMP JUMPDEST PUSH2 0x2189 JUMP JUMPDEST CALLVALUE DUP1 ISZERO PUSH2 0xBED JUMPI PUSH1 0x0 DUP1 REVERT JUMPDEST POP PUSH2 0x464 PUSH9 0x3635C9ADC5DEA00000 DUP2 JUMP JUMPDEST CALLVALUE DUP1 ISZERO PUSH2 0xC0A JUMPI PUSH1 0x0 DUP1 REVERT JUMPDEST POP PUSH2 0x464 PUSH2 0xC19 CALLDATASIZE PUSH1 0x4 PUSH2 0x32F3 JUMP JUMPDEST PUSH1 0x18 PUSH1 0x20 MSTORE PUSH1 0x0 SWAP1 DUP2 MSTORE PUSH1 0x40 SWAP1 KECCAK256 SLOAD DUP2 JUMP JUMPDEST CALLVALUE DUP1 ISZERO PUSH2 0xC37 JUMPI PUSH1 0x0 DUP1 REVERT JUMPDEST POP PUSH2 0x6BE PUSH2 0xC46 CALLDATASIZE PUSH1 0x4 PUSH2 0x33E1 JUMP JUMPDEST PUSH2 0x222D JUMP JUMPDEST CALLVALUE DUP1 ISZERO PUSH2 0xC57 JUMPI PUSH1 0x0 DUP1 REVERT JUMPDEST POP PUSH2 0x4F7 PUSH2 0xC66 CALLDATASIZE PUSH1 0x4 PUSH2 0x35A7 JUMP JUMPDEST PUSH2 0x22A2 JUMP JUMPDEST CALLVALUE DUP1 ISZERO PUSH2 0xC77 JUMPI PUSH1 0x0 DUP1 REVERT JUMPDEST POP PUSH2 0x464 PUSH3 0x15180 DUP2 JUMP JUMPDEST CALLVALUE DUP1 ISZERO PUSH2 0xC8E JUMPI PUSH1 0x0 DUP1 REVERT JUMPDEST POP PUSH2 0x464 PUSH2 0xC9D CALLDATASIZE PUSH1 0x4 PUSH2 0x32BE JUMP JUMPDEST PUSH1 0x0 SWAP1 DUP2 MSTORE PUSH1 0x12 PUSH1 0x20 MSTORE PUSH1 0x40 SWAP1 KECCAK256 SLOAD SWAP1 JUMP JUMPDEST PUSH2 0x4F7 PUSH2 0xCBD CALLDATASIZE PUSH1 0x4 PUSH2 0x32BE JUMP JUMPDEST PUSH2 0x2637 JUMP JUMPDEST CALLVALUE DUP1 ISZERO PUSH2 0xCCE JUMPI PUSH1 0x0 DUP1 REVERT JUMPDEST POP PUSH2 0x464 PUSH9 0x56BC75E2D63100000 DUP2 JUMP JUMPDEST CALLVALUE DUP1 ISZERO PUSH2 0xCEB JUMPI PUSH1 0x0 DUP1 REVERT JUMPDEST POP PUSH2 0x464 PUSH1 0xD SLOAD DUP2 JUMP JUMPDEST CALLVALUE DUP1 ISZERO PUSH2 0xD01 JUMPI PUSH1 0x0 DUP1 REVERT JUMPDEST POP PUSH2 0x464 PUSH2 0x2710 DUP2 JUMP JUMPDEST CALLVALUE DUP1 ISZERO PUSH2 0xD17 JUMPI PUSH1 0x0 DUP1 REVERT JUMPDEST POP PUSH1 0x1 SLOAD PUSH2 0x4BF SWAP1 PUSH1 0x1 PUSH1 0x1 PUSH1 0xA0 SHL SUB AND DUP2 JUMP JUMPDEST CALLVALUE DUP1 ISZERO PUSH2 0xD37 JUMPI PUSH1 0x0 DUP1 REVERT JUMPDEST POP PUSH2 0x464 PUSH1 0x10 SLOAD DUP2 JUMP JUMPDEST CALLVALUE DUP1 ISZERO PUSH2 0xD4D JUMPI PUSH1 0x0 DUP1 REVERT JUMPDEST POP PUSH2 0x464 PUSH9 0x2B5E3AF16B1880000 DUP2 JUMP JUMPDEST CALLVALUE DUP1 ISZERO PUSH2 0xD6A JUMPI PUSH1 0x0 DUP1 REVERT JUMPDEST POP PUSH2 0x4F7 PUSH2 0xD79 CALLDATASIZE PUSH1 0x4 PUSH2 0x32F3 JUMP JUMPDEST PUSH2 0x28A0 JUMP JUMPDEST CALLVALUE DUP1 ISZERO PUSH2 0xD8A JUMPI PUSH1 0x0 DUP1 REVERT JUMPDEST POP PUSH2 0x4F7 PUSH2 0xD99 CALLDATASIZE PUSH1 0x4 PUSH2 0x32F3 JUMP JUMPDEST PUSH2 0x2944 JUMP JUMPDEST CALLVALUE DUP1 ISZERO PUSH2 0xDAA JUMPI PUSH1 0x0 DUP1 REVERT JUMPDEST POP PUSH2 0x4F7 PUSH2 0xDB9 CALLDATASIZE PUSH1 0x4 PUSH2 0x32BE JUMP JUMPDEST PUSH2 0x29E7 JUMP JUMPDEST CALLVALUE DUP1 ISZERO PUSH2 0xDCA JUMPI PUSH1 0x0 DUP1 REVERT JUMPDEST POP PUSH2 0x464 PUSH1 0xC SLOAD DUP2 JUMP JUMPDEST PUSH1 0x0 DUP2 DUP2 MSTORE PUSH1 0x11 PUSH1 0x20 MSTORE PUSH1 0x40 DUP2 KECCAK256 SLOAD DUP2 SWAP1 DUP2 SWAP1 DUP2 SUB PUSH2 0xE06 JUMPI PUSH1 0x40 MLOAD PUSH4 0x3D4572D PUSH1 0xE5 SHL DUP2 MSTORE PUSH1 0x4 ADD PUSH1 0x40 MLOAD DUP1 SWAP2 SUB SWAP1 REVERT JUMPDEST PUSH1 0x0 DUP5 DUP2 MSTORE PUSH1 0x14 PUSH1 0x20 MSTORE PUSH1 0x40 DUP2 KECCAK256 PUSH1 0x3 DUP2 ADD SLOAD SWAP1 SWAP2 SWAP1 ISZERO PUSH2 0xE2B JUMPI DUP2 PUSH1 0x3 ADD SLOAD PUSH2 0xE36 JUMP JUMPDEST PUSH9 0x1B1AE4D6E2EF500000 JUMPDEST PUSH1 0x6 DUP4 ADD SLOAD PUSH1 0x0 DUP9 DUP2 MSTORE PUSH1 0x17 PUSH1 0x20 MSTORE PUSH1 0x40 SWAP1 KECCAK256 SLOAD SWAP2 SWAP3 POP SWAP1 PUSH2 0xE57 DUP4 PUSH2 0x2CB1 JUMP JUMPDEST SWAP5 POP SWAP5 POP SWAP5 POP POP POP SWAP2 SWAP4 SWAP1 SWAP3 POP JUMP JUMPDEST PUSH1 0x3 SLOAD PUSH1 0x1 PUSH1 0x1 PUSH1 0xA0 SHL SUB AND CALLER EQ PUSH2 0xE91 JUMPI PUSH1 0x40 MLOAD PUSH4 0x1DC610A9 PUSH1 0xE2 SHL DUP2 MSTORE PUSH1 0x4 ADD PUSH1 0x40 MLOAD DUP1 SWAP2 SUB SWAP1 REVERT JUMPDEST DUP1 PUSH1 0x0 SUB PUSH2 0xEB2 JUMPI PUSH1 0x40 MLOAD PUSH4 0x7F1402D5 PUSH1 0xE1 SHL DUP2 MSTORE PUSH1 0x4 ADD PUSH1 0x40 MLOAD DUP1 SWAP2 SUB SWAP1 REVERT JUMPDEST PUSH1 0x6 DUP1 SLOAD SWAP1 DUP3 SWAP1 SSTORE TIMESTAMP PUSH1 0x5 DUP2 SWAP1 SSTORE PUSH1 0x40 DUP1 MLOAD DUP4 DUP2 MSTORE PUSH1 0x20 DUP2 ADD DUP6 SWAP1 MSTORE DUP1 DUP3 ADD SWAP3 SWAP1 SWAP3 MSTORE MLOAD PUSH32 0xD9C9C767ABC8174B594A5A15DD708B5629AB3A49044A597F8F3C8510DEC76689 SWAP2 DUP2 SWAP1 SUB PUSH1 0x60 ADD SWAP1 LOG1 POP POP JUMP JUMPDEST PUSH1 0x0 SLOAD PUSH1 0x1 PUSH1 0x1 PUSH1 0xA0 SHL SUB AND CALLER EQ PUSH2 0xF2F JUMPI PUSH1 0x40 MLOAD PUSH4 0x30CD7471 PUSH1 0xE0 SHL DUP2 MSTORE PUSH1 0x4 ADD PUSH1 0x40 MLOAD DUP1 SWAP2 SUB SWAP1 REVERT JUMPDEST PUSH1 0x4 DUP1 SLOAD DUP3 ISZERO ISZERO PUSH1 0x1 PUSH1 0xA0 SHL MUL PUSH1 0xFF PUSH1 0xA0 SHL NOT SWAP1 SWAP2 AND OR SWAP1 SSTORE PUSH1 0x40 MLOAD PUSH32 0xB31006682779D0AC02864BEE834675BAF4592A679BFE75EDD5E5847B52EF6F6E SWAP1 PUSH2 0xF7C SWAP1 DUP4 ISZERO ISZERO DUP2 MSTORE PUSH1 0x20 ADD SWAP1 JUMP JUMPDEST PUSH1 0x40 MLOAD DUP1 SWAP2 SUB SWAP1 LOG1 POP JUMP JUMPDEST PUSH1 0x0 DUP2 DUP2 MSTORE PUSH1 0x11 PUSH1 0x20 MSTORE PUSH1 0x40 DUP2 KECCAK256 SLOAD DUP2 SWAP1 DUP2 SWAP1 DUP2 SWAP1 DUP2 SWAP1 DUP2 SWAP1 DUP2 SUB PUSH2 0xFBF JUMPI PUSH1 0x40 MLOAD PUSH4 0x3D4572D PUSH1 0xE5 SHL DUP2 MSTORE PUSH1 0x4 ADD PUSH1 0x40 MLOAD DUP1 SWAP2 SUB SWAP1 REVERT JUMPDEST PUSH1 0x0 DUP8 DUP2 MSTORE PUSH1 0x14 PUSH1 0x20 MSTORE PUSH1 0x40 DUP2 KECCAK256 PUSH1 0x1 DUP2 ADD SLOAD SWAP1 SWAP2 SWAP1 PUSH1 0x1 PUSH1 0x1 PUSH1 0xA0 SHL SUB AND PUSH2 0xFFF JUMPI PUSH1 0x0 DUP10 DUP2 MSTORE PUSH1 0x15 PUSH1 0x20 MSTORE PUSH1 0x40 SWAP1 KECCAK256 SLOAD PUSH1 0x1 PUSH1 0x1 PUSH1 0xA0 SHL SUB AND PUSH2 0x100E JUMP JUMPDEST PUSH1 0x1 DUP3 ADD SLOAD PUSH1 0x1 PUSH1 0x1 PUSH1 0xA0 SHL SUB AND JUMPDEST SWAP1 POP PUSH1 0x0 DUP3 PUSH1 0x2 ADD SLOAD PUSH1 0x0 SUB PUSH2 0x1035 JUMPI PUSH1 0x0 DUP11 DUP2 MSTORE PUSH1 0x11 PUSH1 0x20 MSTORE PUSH1 0x40 SWAP1 KECCAK256 PUSH1 0x1 ADD SLOAD PUSH2 0x103B JUMP JUMPDEST DUP3 PUSH1 0x2 ADD SLOAD JUMPDEST SWAP1 POP DUP3 PUSH1 0x3 ADD SLOAD PUSH1 0x0 EQ PUSH2 0x1053 JUMPI DUP3 PUSH1 0x3 ADD SLOAD PUSH2 0x105E JUMP JUMPDEST PUSH9 0x1B1AE4D6E2EF500000 JUMPDEST PUSH1 0x4 DUP5 ADD SLOAD PUSH1 0x5 DUP6 ADD SLOAD PUSH1 0x6 SWAP1 SWAP6 ADD SLOAD SWAP2 SWAP13 SWAP1 SWAP12 POP PUSH1 0xFF SWAP1 SWAP5 AND SWAP10 POP SWAP8 POP SWAP1 SWAP6 POP SWAP4 POP SWAP2 POP POP JUMP JUMPDEST PUSH1 0x0 SLOAD PUSH1 0x1 PUSH1 0x1 PUSH1 0xA0 SHL SUB AND CALLER EQ PUSH2 0x10B1 JUMPI PUSH1 0x40 MLOAD PUSH4 0x30CD7471 PUSH1 0xE0 SHL DUP2 MSTORE PUSH1 0x4 ADD PUSH1 0x40 MLOAD DUP1 SWAP2 SUB SWAP1 REVERT JUMPDEST PUSH2 0x10B9 PUSH2 0x2DC2 JUMP JUMPDEST SELFBALANCE DUP1 DUP3 GT ISZERO PUSH2 0x10EA JUMPI PUSH1 0x40 MLOAD PUSH4 0xF8DB6895 PUSH1 0xE0 SHL DUP2 MSTORE PUSH1 0x4 DUP2 ADD DUP3 SWAP1 MSTORE PUSH1 0x24 DUP2 ADD DUP4 SWAP1 MSTORE PUSH1 0x44 ADD JUMPDEST PUSH1 0x40 MLOAD DUP1 SWAP2 SUB SWAP1 REVERT JUMPDEST DUP2 PUSH1 0x10 PUSH1 0x0 DUP3 DUP3 SLOAD PUSH2 0x10FC SWAP2 SWAP1 PUSH2 0x35F2 JUMP JUMPDEST SWAP1 SWAP2 SSTORE POP POP PUSH1 0x4 SLOAD PUSH2 0x1117 SWAP1 PUSH1 0x1 PUSH1 0x1 PUSH1 0xA0 SHL SUB AND DUP4 PUSH2 0x2DDE JUMP JUMPDEST PUSH1 0x4 SLOAD PUSH1 0x40 MLOAD DUP4 DUP2 MSTORE PUSH1 0x1 PUSH1 0x1 PUSH1 0xA0 SHL SUB SWAP1 SWAP2 AND SWAP1 PUSH32 0xF7595C4FD7FA675E456DD9520AC8266C06D237D52900FC573BCCC85B7C177C9E SWAP1 PUSH1 0x20 ADD PUSH1 0x40 MLOAD DUP1 SWAP2 SUB SWAP1 LOG2 POP PUSH2 0x1171 PUSH1 0x1 PUSH1 0x0 DUP1 MLOAD PUSH1 0x20 PUSH2 0x3975 DUP4 CODECOPY DUP2 MLOAD SWAP2 MSTORE SSTORE JUMP JUMPDEST POP JUMP JUMPDEST PUSH1 0x0 DUP2 DUP2 MSTORE PUSH1 0x11 PUSH1 0x20 MSTORE PUSH1 0x40 DUP2 KECCAK256 SLOAD DUP2 SUB PUSH2 0x11A2 JUMPI PUSH1 0x40 MLOAD PUSH4 0x3D4572D PUSH1 0xE5 SHL DUP2 MSTORE PUSH1 0x4 ADD PUSH1 0x40 MLOAD DUP1 SWAP2 SUB SWAP1 REVERT JUMPDEST PUSH1 0x0 DUP3 DUP2 MSTORE PUSH1 0x14 PUSH1 0x20 MSTORE PUSH1 0x40 DUP2 KECCAK256 PUSH1 0x3 ADD SLOAD ISZERO PUSH2 0x11D0 JUMPI PUSH1 0x0 DUP4 DUP2 MSTORE PUSH1 0x14 PUSH1 0x20 MSTORE PUSH1 0x40 SWAP1 KECCAK256 PUSH1 0x3 ADD SLOAD PUSH2 0x11DB JUMP JUMPDEST PUSH9 0x1B1AE4D6E2EF500000 JUMPDEST SWAP1 POP PUSH2 0x11E6 DUP2 PUSH2 0x2CB1 JUMP JUMPDEST SWAP4 SWAP3 POP POP POP JUMP JUMPDEST PUSH1 0x0 SLOAD PUSH1 0x1 PUSH1 0x1 PUSH1 0xA0 SHL SUB AND CALLER EQ PUSH2 0x1218 JUMPI PUSH1 0x40 MLOAD PUSH4 0x30CD7471 PUSH1 0xE0 SHL DUP2 MSTORE PUSH1 0x4 ADD PUSH1 0x40 MLOAD DUP1 SWAP2 SUB SWAP1 REVERT JUMPDEST PUSH2 0x1220 PUSH2 0x2DC2 JUMP JUMPDEST PUSH1 0x4 SLOAD PUSH2 0x1236 SWAP1 PUSH1 0x1 PUSH1 0x1 PUSH1 0xA0 SHL SUB AND DUP3 PUSH2 0x2E52 JUMP JUMPDEST PUSH1 0x4 SLOAD PUSH1 0x40 MLOAD DUP3 DUP2 MSTORE PUSH1 0x1 PUSH1 0x1 PUSH1 0xA0 SHL SUB SWAP1 SWAP2 AND SWAP1 PUSH32 0xDC28230E59577914A436CFB62DB26B700E51BF8F88A5EE37CB632984F058E7FC SWAP1 PUSH1 0x20 ADD PUSH1 0x40 MLOAD DUP1 SWAP2 SUB SWAP1 LOG2 PUSH2 0x1171 PUSH1 0x1 PUSH1 0x0 DUP1 MLOAD PUSH1 0x20 PUSH2 0x3975 DUP4 CODECOPY DUP2 MLOAD SWAP2 MSTORE SSTORE JUMP JUMPDEST PUSH1 0x4 SLOAD PUSH1 0x1 PUSH1 0xA0 SHL SWAP1 DIV PUSH1 0xFF AND ISZERO PUSH2 0x12BA JUMPI PUSH1 0x40 MLOAD PUSH4 0xAB35696F PUSH1 0xE0 SHL DUP2 MSTORE PUSH1 0x4 ADD PUSH1 0x40 MLOAD DUP1 SWAP2 SUB SWAP1 REVERT JUMPDEST PUSH1 0x0 DUP2 DUP2 MSTORE PUSH1 0x11 PUSH1 0x20 MSTORE PUSH1 0x40 DUP2 KECCAK256 SLOAD SWAP1 SUB PUSH2 0x12E8 JUMPI PUSH1 0x40 MLOAD PUSH4 0x3D4572D PUSH1 0xE5 SHL DUP2 MSTORE PUSH1 0x4 ADD PUSH1 0x40 MLOAD DUP1 SWAP2 SUB SWAP1 REVERT JUMPDEST PUSH1 0x0 PUSH2 0x12F3 DUP3 PUSH2 0x2E86 JUMP JUMPDEST PUSH1 0x1 DUP2 ADD SLOAD SWAP1 SWAP2 POP PUSH1 0x1 PUSH1 0x1 PUSH1 0xA0 SHL SUB AND CALLER EQ PUSH2 0x1323 JUMPI PUSH1 0x40 MLOAD PUSH4 0x27318097 PUSH1 0xE1 SHL DUP2 MSTORE PUSH1 0x4 ADD PUSH1 0x40 MLOAD DUP1 SWAP2 SUB SWAP1 REVERT JUMPDEST PUSH1 0x5 DUP2 ADD SLOAD PUSH1 0xFF AND ISZERO PUSH2 0x1349 JUMPI PUSH1 0x40 MLOAD PUSH4 0x5D51AE11 PUSH1 0xE1 SHL DUP2 MSTORE PUSH1 0x4 ADD PUSH1 0x40 MLOAD DUP1 SWAP2 SUB SWAP1 REVERT JUMPDEST PUSH1 0x5 DUP2 ADD DUP1 SLOAD PUSH1 0xFF NOT AND PUSH1 0x1 OR SWAP1 SSTORE PUSH1 0x40 MLOAD CALLER SWAP1 DUP4 SWAP1 PUSH32 0x4FC8BA7F4F3C695895C779EB7FDE668149B9EED94BFC8E5DDA5899C40ECA973B SWAP1 PUSH1 0x0 SWAP1 LOG3 POP POP JUMP JUMPDEST PUSH1 0x0 DUP1 PUSH1 0x0 DUP1 PUSH1 0x60 DUP1 PUSH1 0x0 DUP1 PUSH1 0x0 PUSH1 0x11 PUSH1 0x0 DUP12 DUP2 MSTORE PUSH1 0x20 ADD SWAP1 DUP2 MSTORE PUSH1 0x20 ADD PUSH1 0x0 KECCAK256 SWAP1 POP DUP1 PUSH1 0x0 ADD SLOAD DUP2 PUSH1 0x1 ADD SLOAD DUP3 PUSH1 0x2 ADD PUSH1 0x0 SWAP1 SLOAD SWAP1 PUSH2 0x100 EXP SWAP1 DIV PUSH1 0xFF AND DUP4 PUSH1 0x3 ADD SLOAD DUP5 PUSH1 0x4 ADD DUP6 PUSH1 0x5 ADD DUP7 PUSH1 0x6 ADD PUSH1 0x0 SWAP1 SLOAD SWAP1 PUSH2 0x100 EXP SWAP1 DIV PUSH1 0x1 PUSH1 0x1 PUSH1 0xA0 SHL SUB AND DUP8 PUSH1 0x7 ADD SLOAD DUP4 DUP1 SLOAD PUSH2 0x13FE SWAP1 PUSH2 0x3605 JUMP JUMPDEST DUP1 PUSH1 0x1F ADD PUSH1 0x20 DUP1 SWAP2 DIV MUL PUSH1 0x20 ADD PUSH1 0x40 MLOAD SWAP1 DUP2 ADD PUSH1 0x40 MSTORE DUP1 SWAP3 SWAP2 SWAP1 DUP2 DUP2 MSTORE PUSH1 0x20 ADD DUP3 DUP1 SLOAD PUSH2 0x142A SWAP1 PUSH2 0x3605 JUMP JUMPDEST DUP1 ISZERO PUSH2 0x1477 JUMPI DUP1 PUSH1 0x1F LT PUSH2 0x144C JUMPI PUSH2 0x100 DUP1 DUP4 SLOAD DIV MUL DUP4 MSTORE SWAP2 PUSH1 0x20 ADD SWAP2 PUSH2 0x1477 JUMP JUMPDEST DUP3 ADD SWAP2 SWAP1 PUSH1 0x0 MSTORE PUSH1 0x20 PUSH1 0x0 KECCAK256 SWAP1 JUMPDEST DUP2 SLOAD DUP2 MSTORE SWAP1 PUSH1 0x1 ADD SWAP1 PUSH1 0x20 ADD DUP1 DUP4 GT PUSH2 0x145A JUMPI DUP3 SWAP1 SUB PUSH1 0x1F AND DUP3 ADD SWAP2 JUMPDEST POP POP POP POP POP SWAP4 POP DUP3 DUP1 SLOAD PUSH2 0x148A SWAP1 PUSH2 0x3605 JUMP JUMPDEST DUP1 PUSH1 0x1F ADD PUSH1 0x20 DUP1 SWAP2 DIV MUL PUSH1 0x20 ADD PUSH1 0x40 MLOAD SWAP1 DUP2 ADD PUSH1 0x40 MSTORE DUP1 SWAP3 SWAP2 SWAP1 DUP2 DUP2 MSTORE PUSH1 0x20 ADD DUP3 DUP1 SLOAD PUSH2 0x14B6 SWAP1 PUSH2 0x3605 JUMP JUMPDEST DUP1 ISZERO PUSH2 0x1503 JUMPI DUP1 PUSH1 0x1F LT PUSH2 0x14D8 JUMPI PUSH2 0x100 DUP1 DUP4 SLOAD DIV MUL DUP4 MSTORE SWAP2 PUSH1 0x20 ADD SWAP2 PUSH2 0x1503 JUMP JUMPDEST DUP3 ADD SWAP2 SWAP1 PUSH1 0x0 MSTORE PUSH1 0x20 PUSH1 0x0 KECCAK256 SWAP1 JUMPDEST DUP2 SLOAD DUP2 MSTORE SWAP1 PUSH1 0x1 ADD SWAP1 PUSH1 0x20 ADD DUP1 DUP4 GT PUSH2 0x14E6 JUMPI DUP3 SWAP1 SUB PUSH1 0x1F AND DUP3 ADD SWAP2 JUMPDEST POP POP POP POP POP SWAP3 POP SWAP9 POP SWAP9 POP SWAP9 POP SWAP9 POP SWAP9 POP SWAP9 POP SWAP9 POP SWAP9 POP POP SWAP2 SWAP4 SWAP6 SWAP8 POP SWAP2 SWAP4 SWAP6 SWAP8 JUMP JUMPDEST PUSH1 0x0 DUP3 DUP2 MSTORE PUSH1 0x16 PUSH1 0x20 SWAP1 DUP2 MSTORE PUSH1 0x40 DUP1 DUP4 KECCAK256 PUSH1 0x1 PUSH1 0x1 PUSH1 0xA0 SHL SUB DUP6 AND DUP5 MSTORE SWAP1 SWAP2 MSTORE SWAP1 KECCAK256 SLOAD PUSH1 0xFF AND JUMPDEST SWAP3 SWAP2 POP POP JUMP JUMPDEST PUSH1 0x40 MLOAD PUSH4 0xAAAC37A1 PUSH1 0xE0 SHL DUP2 MSTORE PUSH1 0x1 PUSH1 0x1 PUSH1 0xA0 SHL SUB DUP3 DUP2 AND PUSH1 0x4 DUP4 ADD MSTORE PUSH1 0x0 SWAP2 DUP3 SWAP2 DUP3 SWAP2 PUSH32 0x0 SWAP1 SWAP2 AND SWAP1 PUSH4 0xAAAC37A1 SWAP1 PUSH1 0x24 ADD PUSH1 0x20 PUSH1 0x40 MLOAD DUP1 DUP4 SUB DUP2 DUP7 GAS STATICCALL ISZERO DUP1 ISZERO PUSH2 0x15C2 JUMPI RETURNDATASIZE PUSH1 0x0 DUP1 RETURNDATACOPY RETURNDATASIZE PUSH1 0x0 REVERT JUMPDEST POP POP POP POP PUSH1 0x40 MLOAD RETURNDATASIZE PUSH1 0x1F NOT PUSH1 0x1F DUP3 ADD AND DUP3 ADD DUP1 PUSH1 0x40 MSTORE POP DUP2 ADD SWAP1 PUSH2 0x15E6 SWAP2 SWAP1 PUSH2 0x363F JUMP JUMPDEST PUSH1 0x1 PUSH1 0x1 PUSH1 0xA0 SHL SUB DUP6 AND PUSH1 0x0 SWAP1 DUP2 MSTORE PUSH1 0x18 PUSH1 0x20 MSTORE PUSH1 0x40 SWAP1 KECCAK256 SLOAD SWAP1 SWAP4 POP SWAP2 POP PUSH2 0x160E DUP3 DUP5 PUSH2 0x35F2 JUMP JUMPDEST SWAP3 SWAP5 SWAP2 SWAP4 POP POP JUMP JUMPDEST PUSH1 0x0 DUP3 DUP2 MSTORE PUSH1 0x12 PUSH1 0x20 MSTORE PUSH1 0x40 DUP2 KECCAK256 SLOAD DUP2 SWAP1 DUP2 SWAP1 DUP2 SWAP1 DUP2 SWAP1 DUP2 SWAP1 DUP2 SWAP1 DUP9 LT PUSH2 0x1650 JUMPI PUSH1 0x40 MLOAD PUSH4 0x5878AE85 PUSH1 0xE1 SHL DUP2 MSTORE PUSH1 0x4 ADD PUSH1 0x40 MLOAD DUP1 SWAP2 SUB SWAP1 REVERT JUMPDEST PUSH1 0x0 DUP10 DUP2 MSTORE PUSH1 0x12 PUSH1 0x20 MSTORE PUSH1 0x40 DUP2 KECCAK256 DUP1 SLOAD DUP11 SWAP1 DUP2 LT PUSH2 0x1670 JUMPI PUSH2 0x1670 PUSH2 0x3658 JUMP JUMPDEST PUSH1 0x0 SWAP2 DUP3 MSTORE PUSH1 0x20 SWAP1 SWAP2 KECCAK256 PUSH1 0x5 SWAP1 SWAP2 MUL ADD DUP1 SLOAD PUSH1 0x1 DUP3 ADD SLOAD PUSH1 0x2 DUP4 ADD SLOAD PUSH1 0x3 DUP5 ADD SLOAD PUSH1 0x4 SWAP1 SWAP5 ADD SLOAD SWAP3 SWAP15 PUSH1 0x1 PUSH1 0x1 PUSH1 0xA0 SHL SUB DUP4 AND SWAP15 POP PUSH1 0xFF PUSH1 0x1 PUSH1 0xA0 SHL SWAP1 SWAP4 DIV DUP4 AND SWAP14 POP SWAP1 SWAP12 POP SWAP3 SWAP10 POP DUP1 DUP3 AND SWAP9 POP PUSH2 0x100 SWAP1 SWAP2 DIV AND SWAP6 POP SWAP4 POP POP POP POP JUMP JUMPDEST PUSH1 0x4 SLOAD PUSH1 0x1 PUSH1 0xA0 SHL SWAP1 DIV PUSH1 0xFF AND ISZERO PUSH2 0x16F9 JUMPI PUSH1 0x40 MLOAD PUSH4 0xAB35696F PUSH1 0xE0 SHL DUP2 MSTORE PUSH1 0x4 ADD PUSH1 0x40 MLOAD DUP1 SWAP2 SUB SWAP1 REVERT JUMPDEST PUSH1 0x0 DUP2 DUP2 MSTORE PUSH1 0x11 PUSH1 0x20 MSTORE PUSH1 0x40 DUP2 KECCAK256 SLOAD SWAP1 SUB PUSH2 0x1727 JUMPI PUSH1 0x40 MLOAD PUSH4 0x3D4572D PUSH1 0xE5 SHL DUP2 MSTORE PUSH1 0x4 ADD PUSH1 0x40 MLOAD DUP1 SWAP2 SUB SWAP1 REVERT JUMPDEST PUSH1 0x0 DUP2 DUP2 MSTORE PUSH1 0x16 PUSH1 0x20 SWAP1 DUP2 MSTORE PUSH1 0x40 DUP1 DUP4 KECCAK256 CALLER DUP5 MSTORE SWAP1 SWAP2 MSTORE SWAP1 KECCAK256 SLOAD PUSH1 0xFF AND ISZERO PUSH2 0x1762 JUMPI PUSH1 0x40 MLOAD PUSH4 0x28486B63 PUSH1 0xE1 SHL DUP2 MSTORE PUSH1 0x4 ADD PUSH1 0x40 MLOAD DUP1 SWAP2 SUB SWAP1 REVERT JUMPDEST PUSH1 0x0 PUSH2 0x176D DUP3 PUSH2 0x2E86 JUMP JUMPDEST PUSH1 0x5 DUP2 ADD SLOAD SWAP1 SWAP2 POP PUSH1 0xFF AND ISZERO PUSH2 0x1796 JUMPI PUSH1 0x40 MLOAD PUSH4 0x2444F8B7 PUSH1 0xE1 SHL DUP2 MSTORE PUSH1 0x4 ADD PUSH1 0x40 MLOAD DUP1 SWAP2 SUB SWAP1 REVERT JUMPDEST PUSH1 0x0 PUSH2 0x17A1 CALLER PUSH2 0x2F36 JUMP JUMPDEST SWAP1 POP PUSH1 0x0 PUSH2 0x17AE DUP5 PUSH2 0x2FE2 JUMP JUMPDEST SWAP1 POP DUP1 DUP3 LT ISZERO PUSH2 0x17DB JUMPI PUSH1 0x40 MLOAD PUSH4 0x20200BC5 PUSH1 0xE0 SHL DUP2 MSTORE PUSH1 0x4 DUP2 ADD DUP4 SWAP1 MSTORE PUSH1 0x24 DUP2 ADD DUP3 SWAP1 MSTORE PUSH1 0x44 ADD PUSH2 0x10E1 JUMP JUMPDEST PUSH1 0x0 DUP5 DUP2 MSTORE PUSH1 0x16 PUSH1 0x20 SWAP1 DUP2 MSTORE PUSH1 0x40 DUP1 DUP4 KECCAK256 CALLER DUP5 MSTORE SWAP1 SWAP2 MSTORE DUP2 KECCAK256 DUP1 SLOAD PUSH1 0xFF NOT AND PUSH1 0x1 OR SWAP1 SSTORE PUSH1 0x64 PUSH2 0x180C DUP4 PUSH1 0x5 PUSH2 0x366E JUMP JUMPDEST PUSH2 0x1816 SWAP2 SWAP1 PUSH2 0x3685 JUMP JUMPDEST SWAP1 POP PUSH2 0x184D CALLER DUP3 PUSH1 0x40 MLOAD DUP1 PUSH1 0x40 ADD PUSH1 0x40 MSTORE DUP1 PUSH1 0x12 DUP2 MSTORE PUSH1 0x20 ADD PUSH18 0x435245444942494C4954595F554E4C4F434B PUSH1 0x70 SHL DUP2 MSTORE POP PUSH2 0x3028 JUMP JUMPDEST CALLER PUSH1 0x1 PUSH1 0x1 PUSH1 0xA0 SHL SUB AND DUP6 PUSH32 0x2EE8D21874599264C54876B79BF25EAE1B396C3771A178E683A9E038B634F1D7 PUSH1 0x0 PUSH1 0x40 MLOAD PUSH2 0x18AD SWAP2 DUP2 MSTORE PUSH1 0x40 PUSH1 0x20 DUP3 ADD DUP2 SWAP1 MSTORE PUSH1 0xB SWAP1 DUP3 ADD MSTORE PUSH11 0x435245444942494C495459 PUSH1 0xA8 SHL PUSH1 0x60 DUP3 ADD MSTORE PUSH1 0x80 ADD SWAP1 JUMP JUMPDEST PUSH1 0x40 MLOAD DUP1 SWAP2 SUB SWAP1 LOG3 POP POP POP POP POP JUMP JUMPDEST PUSH1 0x1 SLOAD PUSH1 0x1 PUSH1 0x1 PUSH1 0xA0 SHL SUB AND CALLER EQ PUSH2 0x18E7 JUMPI PUSH1 0x40 MLOAD PUSH4 0x614E5C7 PUSH1 0xE2 SHL DUP2 MSTORE PUSH1 0x4 ADD PUSH1 0x40 MLOAD DUP1 SWAP2 SUB SWAP1 REVERT JUMPDEST PUSH1 0x0 DUP1 SLOAD CALLER PUSH1 0x1 PUSH1 0x1 PUSH1 0xA0 SHL SUB NOT DUP1 DUP4 AND DUP3 OR DUP5 SSTORE PUSH1 0x1 DUP1 SLOAD SWAP1 SWAP2 AND SWAP1 SSTORE PUSH1 0x40 MLOAD PUSH1 0x1 PUSH1 0x1 PUSH1 0xA0 SHL SUB SWAP1 SWAP3 AND SWAP3 SWAP1 SWAP2 DUP4 SWAP2 PUSH32 0x8BE0079C531659141344CD1FD0A4F28419497F9722A3DAAFE3B4186F6B6457E0 SWAP2 LOG3 POP JUMP JUMPDEST PUSH1 0x0 SLOAD PUSH1 0x1 PUSH1 0x1 PUSH1 0xA0 SHL SUB AND CALLER EQ PUSH2 0x1969 JUMPI PUSH1 0x40 MLOAD PUSH4 0x30CD7471 PUSH1 0xE0 SHL DUP2 MSTORE PUSH1 0x4 ADD PUSH1 0x40 MLOAD DUP1 SWAP2 SUB SWAP1 REVERT JUMPDEST PUSH1 0x1 PUSH1 0x1 PUSH1 0xA0 SHL SUB DUP2 AND PUSH2 0x1990 JUMPI PUSH1 0x40 MLOAD PUSH4 0xE6C4247B PUSH1 0xE0 SHL DUP2 MSTORE PUSH1 0x4 ADD PUSH1 0x40 MLOAD DUP1 SWAP2 SUB SWAP1 REVERT JUMPDEST PUSH1 0x2 DUP1 SLOAD PUSH1 0x1 PUSH1 0x1 PUSH1 0xA0 SHL SUB DUP4 DUP2 AND PUSH1 0x1 PUSH1 0x1 PUSH1 0xA0 SHL SUB NOT DUP4 AND DUP2 OR SWAP1 SWAP4 SSTORE PUSH1 0x40 MLOAD SWAP2 AND SWAP2 SWAP1 DUP3 SWAP1 PUSH32 0x78C3B417DADF69374A59793B829C52001247130433427049317BDE56607B1B7 SWAP1 PUSH1 0x0 SWAP1 LOG3 POP POP JUMP JUMPDEST PUSH1 0x4 SLOAD PUSH1 0x1 PUSH1 0xA0 SHL SWAP1 DIV PUSH1 0xFF AND ISZERO PUSH2 0x1A0D JUMPI PUSH1 0x40 MLOAD PUSH4 0xAB35696F PUSH1 0xE0 SHL DUP2 MSTORE PUSH1 0x4 ADD PUSH1 0x40 MLOAD DUP1 SWAP2 SUB SWAP1 REVERT JUMPDEST PUSH2 0x1A15 PUSH2 0x2DC2 JUMP JUMPDEST PUSH1 0x0 DUP3 DUP2 MSTORE PUSH1 0x11 PUSH1 0x20 MSTORE PUSH1 0x40 DUP2 KECCAK256 SLOAD SWAP1 SUB PUSH2 0x1A43 JUMPI PUSH1 0x40 MLOAD PUSH4 0x3D4572D PUSH1 0xE5 SHL DUP2 MSTORE PUSH1 0x4 ADD PUSH1 0x40 MLOAD DUP1 SWAP2 SUB SWAP1 REVERT JUMPDEST PUSH2 0x1A57 CALLER ADDRESS PUSH9 0x56BC75E2D63100000 PUSH2 0x30AE JUMP JUMPDEST PUSH1 0x1 PUSH1 0xA PUSH1 0x0 DUP3 DUP3 SLOAD PUSH2 0x1A6A SWAP2 SWAP1 PUSH2 0x35F2 JUMP JUMPDEST SWAP1 SWAP2 SSTORE POP POP PUSH1 0x0 DUP3 DUP2 MSTORE PUSH1 0x12 PUSH1 0x20 SWAP1 DUP2 MSTORE PUSH1 0x40 DUP1 DUP4 KECCAK256 DUP2 MLOAD PUSH1 0xE0 DUP2 ADD DUP4 MSTORE DUP7 DUP2 MSTORE CALLER DUP2 DUP6 ADD DUP2 DUP2 MSTORE DUP8 ISZERO ISZERO DUP4 DUP7 ADD DUP2 DUP2 MSTORE PUSH9 0x56BC75E2D63100000 PUSH1 0x60 DUP7 ADD DUP2 DUP2 MSTORE TIMESTAMP PUSH1 0x80 DUP9 ADD SWAP1 DUP2 MSTORE PUSH1 0xA0 DUP9 ADD DUP13 DUP2 MSTORE PUSH1 0xC0 DUP10 ADD DUP14 DUP2 MSTORE DUP11 SLOAD PUSH1 0x1 DUP1 DUP3 ADD DUP14 SSTORE SWAP12 DUP16 MSTORE SWAP14 DUP14 SWAP1 KECCAK256 SWAP10 MLOAD PUSH1 0x5 SWAP1 SWAP15 MUL SWAP1 SWAP10 ADD SWAP13 DUP14 SSTORE SWAP6 MLOAD SWAP9 DUP13 ADD DUP1 SLOAD SWAP5 MLOAD ISZERO ISZERO PUSH1 0x1 PUSH1 0xA0 SHL MUL PUSH1 0x1 PUSH1 0x1 PUSH1 0xA8 SHL SUB NOT SWAP1 SWAP6 AND PUSH1 0x1 PUSH1 0x1 PUSH1 0xA0 SHL SUB SWAP1 SWAP11 AND SWAP10 SWAP1 SWAP10 OR SWAP4 SWAP1 SWAP4 OR SWAP1 SWAP8 SSTORE SWAP6 MLOAD PUSH1 0x2 DUP11 ADD SSTORE MLOAD PUSH1 0x3 DUP10 ADD SSTORE SWAP1 MLOAD PUSH1 0x4 SWAP1 SWAP8 ADD DUP1 SLOAD SWAP4 MLOAD ISZERO ISZERO PUSH2 0x100 MUL PUSH2 0xFF00 NOT SWAP9 ISZERO ISZERO SWAP9 SWAP1 SWAP9 AND PUSH2 0xFFFF NOT SWAP1 SWAP5 AND SWAP4 SWAP1 SWAP4 OR SWAP7 SWAP1 SWAP7 OR SWAP1 SWAP2 SSTORE DUP3 MLOAD SWAP5 DUP6 MSTORE SWAP3 DUP5 ADD MSTORE SWAP1 SWAP2 DUP5 SWAP2 PUSH32 0xA04181C550A5111EBEE021519F1381F122B78EB4E9B9194A64CD6C9DE7737351 SWAP2 ADD PUSH1 0x40 MLOAD DUP1 SWAP2 SUB SWAP1 LOG3 PUSH2 0x1B9C PUSH1 0x1 PUSH1 0x0 DUP1 MLOAD PUSH1 0x20 PUSH2 0x3975 DUP4 CODECOPY DUP2 MLOAD SWAP2 MSTORE SSTORE JUMP JUMPDEST POP POP JUMP JUMPDEST PUSH1 0x4 SLOAD PUSH1 0x1 PUSH1 0xA0 SHL SWAP1 DIV PUSH1 0xFF AND ISZERO PUSH2 0x1BCB JUMPI PUSH1 0x40 MLOAD PUSH4 0xAB35696F PUSH1 0xE0 SHL DUP2 MSTORE PUSH1 0x4 ADD PUSH1 0x40 MLOAD DUP1 SWAP2 SUB SWAP1 REVERT JUMPDEST PUSH2 0x1BD3 PUSH2 0x2DC2 JUMP JUMPDEST DUP9 PUSH2 0x1BF1 JUMPI PUSH1 0x40 MLOAD PUSH4 0xB780D61F PUSH1 0xE0 SHL DUP2 MSTORE PUSH1 0x4 ADD PUSH1 0x40 MLOAD DUP1 SWAP2 SUB SWAP1 REVERT JUMPDEST DUP8 ISZERO DUP1 PUSH2 0x1BFE JUMPI POP PUSH1 0x64 DUP9 GT JUMPDEST ISZERO PUSH2 0x1C1C JUMPI PUSH1 0x40 MLOAD PUSH4 0xF7FCB29 PUSH1 0xE2 SHL DUP2 MSTORE PUSH1 0x4 ADD PUSH1 0x40 MLOAD DUP1 SWAP2 SUB SWAP1 REVERT JUMPDEST PUSH1 0x0 DUP10 DUP2 MSTORE PUSH1 0x11 PUSH1 0x20 MSTORE PUSH1 0x40 SWAP1 KECCAK256 SLOAD ISZERO PUSH2 0x1C49 JUMPI PUSH1 0x40 MLOAD PUSH4 0x5665E779 PUSH1 0xE1 SHL DUP2 MSTORE PUSH1 0x4 ADD PUSH1 0x40 MLOAD DUP1 SWAP2 SUB SWAP1 REVERT JUMPDEST PUSH7 0x21C0331D5DC000 CALLVALUE LT ISZERO PUSH2 0x1C80 JUMPI PUSH1 0x40 MLOAD PUSH4 0x3EBBC337 PUSH1 0xE0 SHL DUP2 MSTORE PUSH7 0x21C0331D5DC000 PUSH1 0x4 DUP3 ADD MSTORE CALLVALUE PUSH1 0x24 DUP3 ADD MSTORE PUSH1 0x44 ADD PUSH2 0x10E1 JUMP JUMPDEST PUSH1 0x0 PUSH2 0x1C93 PUSH7 0x21C0331D5DC000 CALLVALUE PUSH2 0x36A7 JUMP JUMPDEST SWAP1 POP PUSH1 0x0 PUSH2 0x2710 PUSH2 0x1CAD PUSH2 0xBB8 PUSH7 0x21C0331D5DC000 PUSH2 0x366E JUMP JUMPDEST PUSH2 0x1CB7 SWAP2 SWAP1 PUSH2 0x3685 JUMP JUMPDEST SWAP1 POP PUSH1 0x0 PUSH2 0x1CCC DUP3 PUSH7 0x21C0331D5DC000 PUSH2 0x36A7 JUMP JUMPDEST SWAP1 POP PUSH1 0x0 PUSH7 0x21C0331D5DC000 PUSH1 0xD PUSH1 0x0 DUP3 DUP3 SLOAD PUSH2 0x1CE9 SWAP2 SWAP1 PUSH2 0x35F2 JUMP JUMPDEST SWAP3 POP POP DUP2 SWAP1 SSTORE POP DUP3 PUSH1 0xE PUSH1 0x0 DUP3 DUP3 SLOAD PUSH2 0x1D02 SWAP2 SWAP1 PUSH2 0x35F2 JUMP JUMPDEST SWAP3 POP POP DUP2 SWAP1 SSTORE POP DUP2 PUSH1 0xF PUSH1 0x0 DUP3 DUP3 SLOAD PUSH2 0x1D1B SWAP2 SWAP1 PUSH2 0x35F2 JUMP JUMPDEST SWAP3 POP POP DUP2 SWAP1 SSTORE POP PUSH1 0x1 PUSH1 0x7 PUSH1 0x0 DUP3 DUP3 SLOAD PUSH2 0x1D35 SWAP2 SWAP1 PUSH2 0x35F2 JUMP JUMPDEST SWAP1 SWAP2 SSTORE POP DUP6 SWAP1 POP PUSH2 0x1DBE JUMPI PUSH1 0x1 PUSH1 0x8 PUSH1 0x0 DUP3 DUP3 SLOAD PUSH2 0x1D53 SWAP2 SWAP1 PUSH2 0x35F2 JUMP JUMPDEST SWAP1 SWAP2 SSTORE POP PUSH2 0x1D64 SWAP1 POP DUP13 PUSH1 0x32 PUSH2 0x366E JUMP JUMPDEST PUSH2 0x1D76 SWAP1 PUSH8 0xDE0B6B3A7640000 PUSH2 0x366E JUMP JUMPDEST SWAP1 POP PUSH10 0x10F0CF064DD59200000 DUP2 GT ISZERO PUSH2 0x1D97 JUMPI POP PUSH10 0x10F0CF064DD59200000 JUMPDEST DUP1 PUSH1 0xB PUSH1 0x0 DUP3 DUP3 SLOAD PUSH2 0x1DA9 SWAP2 SWAP1 PUSH2 0x35F2 JUMP JUMPDEST SWAP1 SWAP2 SSTORE POP PUSH2 0x1DB9 SWAP1 POP CALLER DUP3 PUSH2 0x2E52 JUMP JUMPDEST PUSH2 0x1DD7 JUMP JUMPDEST PUSH1 0x1 PUSH1 0x9 PUSH1 0x0 DUP3 DUP3 SLOAD PUSH2 0x1DD1 SWAP2 SWAP1 PUSH2 0x35F2 JUMP JUMPDEST SWAP1 SWAP2 SSTORE POP POP JUMPDEST PUSH1 0x40 MLOAD DUP1 PUSH2 0x100 ADD PUSH1 0x40 MSTORE DUP1 TIMESTAMP DUP2 MSTORE PUSH1 0x20 ADD DUP14 DUP2 MSTORE PUSH1 0x20 ADD DUP7 ISZERO ISZERO DUP2 MSTORE PUSH1 0x20 ADD DUP13 DUP13 PUSH1 0x40 MLOAD PUSH2 0x1E07 SWAP3 SWAP2 SWAP1 PUSH2 0x36BA JUMP JUMPDEST PUSH1 0x40 MLOAD DUP1 SWAP2 SUB SWAP1 KECCAK256 DUP2 MSTORE PUSH1 0x20 ADD DUP11 DUP11 DUP1 DUP1 PUSH1 0x1F ADD PUSH1 0x20 DUP1 SWAP2 DIV MUL PUSH1 0x20 ADD PUSH1 0x40 MLOAD SWAP1 DUP2 ADD PUSH1 0x40 MSTORE DUP1 SWAP4 SWAP3 SWAP2 SWAP1 DUP2 DUP2 MSTORE PUSH1 0x20 ADD DUP4 DUP4 DUP1 DUP3 DUP5 CALLDATACOPY PUSH1 0x0 SWAP3 ADD SWAP2 SWAP1 SWAP2 MSTORE POP POP POP SWAP1 DUP3 MSTORE POP PUSH1 0x40 DUP1 MLOAD PUSH1 0x20 PUSH1 0x1F DUP12 ADD DUP2 SWAP1 DIV DUP2 MUL DUP3 ADD DUP2 ADD SWAP1 SWAP3 MSTORE DUP10 DUP2 MSTORE SWAP2 DUP2 ADD SWAP2 SWAP1 DUP11 SWAP1 DUP11 SWAP1 DUP2 SWAP1 DUP5 ADD DUP4 DUP3 DUP1 DUP3 DUP5 CALLDATACOPY PUSH1 0x0 DUP2 DUP5 ADD MSTORE PUSH1 0x1F NOT PUSH1 0x1F DUP3 ADD AND SWAP1 POP DUP1 DUP4 ADD SWAP3 POP POP POP POP POP POP POP DUP2 MSTORE PUSH1 0x20 ADD CALLER PUSH1 0x1 PUSH1 0x1 PUSH1 0xA0 SHL SUB AND DUP2 MSTORE PUSH1 0x20 ADD DUP3 DUP2 MSTORE POP PUSH1 0x11 PUSH1 0x0 DUP16 DUP2 MSTORE PUSH1 0x20 ADD SWAP1 DUP2 MSTORE PUSH1 0x20 ADD PUSH1 0x0 KECCAK256 PUSH1 0x0 DUP3 ADD MLOAD DUP2 PUSH1 0x0 ADD SSTORE PUSH1 0x20 DUP3 ADD MLOAD DUP2 PUSH1 0x1 ADD SSTORE PUSH1 0x40 DUP3 ADD MLOAD DUP2 PUSH1 0x2 ADD PUSH1 0x0 PUSH2 0x100 EXP DUP2 SLOAD DUP2 PUSH1 0xFF MUL NOT AND SWAP1 DUP4 ISZERO ISZERO MUL OR SWAP1 SSTORE POP PUSH1 0x60 DUP3 ADD MLOAD DUP2 PUSH1 0x3 ADD SSTORE PUSH1 0x80 DUP3 ADD MLOAD DUP2 PUSH1 0x4 ADD SWAP1 DUP2 PUSH2 0x1F12 SWAP2 SWAP1 PUSH2 0x372E JUMP JUMPDEST POP PUSH1 0xA0 DUP3 ADD MLOAD PUSH1 0x5 DUP3 ADD SWAP1 PUSH2 0x1F27 SWAP1 DUP3 PUSH2 0x372E JUMP JUMPDEST POP PUSH1 0xC0 DUP3 ADD MLOAD PUSH1 0x6 DUP3 ADD DUP1 SLOAD PUSH1 0x1 PUSH1 0x1 PUSH1 0xA0 SHL SUB SWAP1 SWAP3 AND PUSH1 0x1 PUSH1 0x1 PUSH1 0xA0 SHL SUB NOT SWAP3 DUP4 AND OR SWAP1 SSTORE PUSH1 0xE0 SWAP1 SWAP3 ADD MLOAD PUSH1 0x7 SWAP1 SWAP2 ADD SSTORE PUSH1 0x0 DUP15 DUP2 MSTORE PUSH1 0x15 PUSH1 0x20 MSTORE PUSH1 0x40 DUP2 KECCAK256 DUP1 SLOAD SWAP1 SWAP3 AND CALLER OR SWAP1 SWAP2 SSTORE PUSH1 0x13 DUP1 SLOAD PUSH1 0x1 DUP2 ADD DUP3 SSTORE SWAP2 MSTORE PUSH32 0x66DE8FFDA797E3DE9C05E8FC57B3BF0EC28A930D40B0D285D93C06501CF6A090 ADD DUP14 SWAP1 SSTORE PUSH2 0x1FAB DUP14 PUSH2 0x2E86 JUMP JUMPDEST POP DUP3 ISZERO PUSH2 0x1FC8 JUMPI PUSH1 0x4 SLOAD PUSH2 0x1FC8 SWAP1 PUSH1 0x1 PUSH1 0x1 PUSH1 0xA0 SHL SUB AND DUP5 PUSH2 0x2DDE JUMP JUMPDEST DUP4 ISZERO PUSH2 0x1FD8 JUMPI PUSH2 0x1FD8 CALLER DUP6 PUSH2 0x2DDE JUMP JUMPDEST CALLER PUSH1 0x1 PUSH1 0x1 PUSH1 0xA0 SHL SUB AND DUP14 PUSH32 0x356E37B4B3A3DBBF61E05450C7D74955350550A659BD8792D406B6C27133A0E1 DUP15 DUP9 DUP6 DUP15 DUP15 PUSH1 0x40 MLOAD PUSH2 0x201A SWAP6 SWAP5 SWAP4 SWAP3 SWAP2 SWAP1 PUSH2 0x37ED JUMP JUMPDEST PUSH1 0x40 MLOAD DUP1 SWAP2 SUB SWAP1 LOG3 PUSH1 0x40 DUP1 MLOAD PUSH7 0x21C0331D5DC000 DUP2 MSTORE PUSH1 0x20 DUP2 ADD DUP6 SWAP1 MSTORE SWAP1 DUP2 ADD DUP4 SWAP1 MSTORE DUP14 SWAP1 CALLER SWAP1 PUSH32 0xD381803FAAB74092AEDC8DE24231E595CFD3AF1A0997EAD17E7BCD54D9777C10 SWAP1 PUSH1 0x60 ADD PUSH1 0x40 MLOAD DUP1 SWAP2 SUB SWAP1 LOG3 POP POP POP POP PUSH2 0x2089 PUSH1 0x1 PUSH1 0x0 DUP1 MLOAD PUSH1 0x20 PUSH2 0x3975 DUP4 CODECOPY DUP2 MLOAD SWAP2 MSTORE SSTORE JUMP JUMPDEST POP POP POP POP POP POP POP POP POP JUMP JUMPDEST PUSH1 0x13 SLOAD PUSH1 0x60 SWAP1 DUP1 DUP5 LT ISZERO DUP1 PUSH2 0x20A7 JUMPI POP DUP3 ISZERO JUMPDEST ISZERO PUSH2 0x20C2 JUMPI POP POP PUSH1 0x40 DUP1 MLOAD PUSH1 0x0 DUP2 MSTORE PUSH1 0x20 DUP2 ADD SWAP1 SWAP2 MSTORE PUSH2 0x154D JUMP JUMPDEST PUSH1 0x0 PUSH2 0x20CE DUP6 DUP4 PUSH2 0x36A7 JUMP JUMPDEST SWAP1 POP PUSH1 0x0 DUP5 DUP3 LT PUSH2 0x20DF JUMPI DUP5 PUSH2 0x20E1 JUMP JUMPDEST DUP2 JUMPDEST SWAP1 POP DUP1 PUSH8 0xFFFFFFFFFFFFFFFF DUP2 GT ISZERO PUSH2 0x20FC JUMPI PUSH2 0x20FC PUSH2 0x36CA JUMP JUMPDEST PUSH1 0x40 MLOAD SWAP1 DUP1 DUP3 MSTORE DUP1 PUSH1 0x20 MUL PUSH1 0x20 ADD DUP3 ADD PUSH1 0x40 MSTORE DUP1 ISZERO PUSH2 0x2125 JUMPI DUP2 PUSH1 0x20 ADD PUSH1 0x20 DUP3 MUL DUP1 CALLDATASIZE DUP4 CALLDATACOPY ADD SWAP1 POP JUMPDEST POP SWAP4 POP PUSH1 0x0 JUMPDEST DUP2 DUP2 LT ISZERO PUSH2 0x217F JUMPI PUSH1 0x13 PUSH2 0x213F DUP3 DUP10 PUSH2 0x35F2 JUMP JUMPDEST DUP2 SLOAD DUP2 LT PUSH2 0x214F JUMPI PUSH2 0x214F PUSH2 0x3658 JUMP JUMPDEST SWAP1 PUSH1 0x0 MSTORE PUSH1 0x20 PUSH1 0x0 KECCAK256 ADD SLOAD DUP6 DUP3 DUP2 MLOAD DUP2 LT PUSH2 0x216C JUMPI PUSH2 0x216C PUSH2 0x3658 JUMP JUMPDEST PUSH1 0x20 SWAP1 DUP2 MUL SWAP2 SWAP1 SWAP2 ADD ADD MSTORE PUSH1 0x1 ADD PUSH2 0x212B JUMP JUMPDEST POP POP POP POP SWAP3 SWAP2 POP POP JUMP JUMPDEST PUSH1 0x0 SLOAD PUSH1 0x1 PUSH1 0x1 PUSH1 0xA0 SHL SUB AND CALLER EQ PUSH2 0x21B4 JUMPI PUSH1 0x40 MLOAD PUSH4 0x30CD7471 PUSH1 0xE0 SHL DUP2 MSTORE PUSH1 0x4 ADD PUSH1 0x40 MLOAD DUP1 SWAP2 SUB SWAP1 REVERT JUMPDEST PUSH1 0x1 PUSH1 0x1 PUSH1 0xA0 SHL SUB DUP2 AND PUSH2 0x21DB JUMPI PUSH1 0x40 MLOAD PUSH4 0xE6C4247B PUSH1 0xE0 SHL DUP2 MSTORE PUSH1 0x4 ADD PUSH1 0x40 MLOAD DUP1 SWAP2 SUB SWAP1 REVERT JUMPDEST PUSH1 0x3 DUP1 SLOAD PUSH1 0x1 PUSH1 0x1 PUSH1 0xA0 SHL SUB DUP4 DUP2 AND PUSH1 0x1 PUSH1 0x1 PUSH1 0xA0 SHL SUB NOT DUP4 AND DUP2 OR SWAP1 SWAP4 SSTORE PUSH1 0x40 MLOAD SWAP2 AND SWAP2 SWAP1 DUP3 SWAP1 PUSH32 0x38F89EC725A3BC1B18BF38A625BF2FF0407764BD3489886A60CF1D506C7E3A2 SWAP1 PUSH1 0x0 SWAP1 LOG3 POP POP JUMP JUMPDEST PUSH1 0x0 DUP3 DUP2 MSTORE PUSH1 0x11 PUSH1 0x20 MSTORE PUSH1 0x40 DUP2 KECCAK256 SLOAD DUP2 SUB PUSH2 0x225B JUMPI PUSH1 0x40 MLOAD PUSH4 0x3D4572D PUSH1 0xE5 SHL DUP2 MSTORE PUSH1 0x4 ADD PUSH1 0x40 MLOAD DUP1 SWAP2 SUB SWAP1 REVERT JUMPDEST PUSH1 0x0 DUP4 DUP2 MSTORE PUSH1 0x14 PUSH1 0x20 MSTORE PUSH1 0x40 SWAP1 KECCAK256 PUSH1 0x5 ADD SLOAD PUSH1 0xFF AND DUP1 PUSH2 0x11E6 JUMPI POP POP PUSH1 0x0 SWAP2 DUP3 MSTORE PUSH1 0x16 PUSH1 0x20 SWAP1 DUP2 MSTORE PUSH1 0x40 DUP1 DUP5 KECCAK256 PUSH1 0x1 PUSH1 0x1 PUSH1 0xA0 SHL SUB SWAP4 SWAP1 SWAP4 AND DUP5 MSTORE SWAP2 SWAP1 MSTORE SWAP1 KECCAK256 SLOAD PUSH1 0xFF AND SWAP1 JUMP JUMPDEST PUSH1 0x2 SLOAD PUSH1 0x1 PUSH1 0x1 PUSH1 0xA0 SHL SUB AND CALLER EQ PUSH2 0x22CD JUMPI PUSH1 0x40 MLOAD PUSH4 0x1BC2178F PUSH1 0xE0 SHL DUP2 MSTORE PUSH1 0x4 ADD PUSH1 0x40 MLOAD DUP1 SWAP2 SUB SWAP1 REVERT JUMPDEST PUSH1 0x4 SLOAD PUSH1 0x1 PUSH1 0xA0 SHL SWAP1 DIV PUSH1 0xFF AND ISZERO PUSH2 0x22F8 JUMPI PUSH1 0x40 MLOAD PUSH4 0xAB35696F PUSH1 0xE0 SHL DUP2 MSTORE PUSH1 0x4 ADD PUSH1 0x40 MLOAD DUP1 SWAP2 SUB SWAP1 REVERT JUMPDEST PUSH2 0x2300 PUSH2 0x2DC2 JUMP JUMPDEST PUSH1 0x0 DUP4 DUP2 MSTORE PUSH1 0x12 PUSH1 0x20 MSTORE PUSH1 0x40 SWAP1 KECCAK256 SLOAD DUP3 LT PUSH2 0x232E JUMPI PUSH1 0x40 MLOAD PUSH4 0x5878AE85 PUSH1 0xE1 SHL DUP2 MSTORE PUSH1 0x4 ADD PUSH1 0x40 MLOAD DUP1 SWAP2 SUB SWAP1 REVERT JUMPDEST PUSH1 0x0 DUP4 DUP2 MSTORE PUSH1 0x12 PUSH1 0x20 MSTORE PUSH1 0x40 DUP2 KECCAK256 DUP1 SLOAD DUP5 SWAP1 DUP2 LT PUSH2 0x234E JUMPI PUSH2 0x234E PUSH2 0x3658 JUMP JUMPDEST PUSH1 0x0 SWAP2 DUP3 MSTORE PUSH1 0x20 SWAP1 SWAP2 KECCAK256 PUSH1 0x5 SWAP1 SWAP2 MUL ADD PUSH1 0x4 DUP2 ADD SLOAD SWAP1 SWAP2 POP PUSH1 0xFF AND ISZERO PUSH2 0x2387 JUMPI PUSH1 0x40 MLOAD PUSH4 0x36AB81E1 PUSH1 0xE1 SHL DUP2 MSTORE PUSH1 0x4 ADD PUSH1 0x40 MLOAD DUP1 SWAP2 SUB SWAP1 REVERT JUMPDEST PUSH1 0x4 DUP2 ADD DUP1 SLOAD PUSH1 0x1 DUP4 DUP2 ADD SLOAD PUSH1 0x1 PUSH1 0xA0 SHL SWAP1 DIV PUSH1 0xFF SWAP1 DUP2 AND ISZERO ISZERO DUP7 ISZERO ISZERO EQ PUSH2 0x100 SWAP1 DUP2 MUL PUSH2 0xFFFF NOT SWAP1 SWAP5 AND SWAP4 SWAP1 SWAP4 OR SWAP1 SWAP2 OR SWAP3 DUP4 SWAP1 SSTORE SWAP2 DIV AND ISZERO PUSH2 0x24B2 JUMPI PUSH1 0x1 DUP2 ADD SLOAD PUSH2 0x23E6 SWAP1 PUSH1 0x1 PUSH1 0x1 PUSH1 0xA0 SHL SUB AND PUSH9 0xAD78EBC5AC6200000 PUSH2 0x2E52 JUMP JUMPDEST PUSH9 0xAD78EBC5AC6200000 PUSH1 0xB PUSH1 0x0 DUP3 DUP3 SLOAD PUSH2 0x2401 SWAP2 SWAP1 PUSH2 0x35F2 JUMP JUMPDEST SWAP1 SWAP2 SSTORE POP POP PUSH1 0x1 DUP2 DUP2 ADD SLOAD PUSH1 0x1 PUSH1 0x1 PUSH1 0xA0 SHL SUB AND PUSH1 0x0 SWAP1 DUP2 MSTORE PUSH1 0x1A PUSH1 0x20 MSTORE PUSH1 0x40 DUP2 KECCAK256 DUP1 SLOAD SWAP1 SWAP2 SWAP1 PUSH2 0x2433 SWAP1 DUP5 SWAP1 PUSH2 0x35F2 JUMP JUMPDEST SWAP1 SWAP2 SSTORE POP POP PUSH1 0x1 DUP2 DUP2 ADD SLOAD PUSH1 0x1 PUSH1 0x1 PUSH1 0xA0 SHL SUB AND PUSH1 0x0 SWAP1 DUP2 MSTORE PUSH1 0x19 PUSH1 0x20 MSTORE PUSH1 0x40 DUP2 KECCAK256 DUP1 SLOAD SWAP1 SWAP2 SWAP1 PUSH2 0x2465 SWAP1 DUP5 SWAP1 PUSH2 0x35F2 JUMP JUMPDEST SWAP1 SWAP2 SSTORE POP POP PUSH1 0x1 DUP2 ADD SLOAD PUSH1 0x40 DUP1 MLOAD DUP1 DUP3 ADD SWAP1 SWAP2 MSTORE PUSH1 0x9 DUP2 MSTORE PUSH9 0x2A292AAA242FABA4A7 PUSH1 0xB9 SHL PUSH1 0x20 DUP3 ADD MSTORE PUSH2 0x24AD SWAP2 PUSH1 0x1 PUSH1 0x1 PUSH1 0xA0 SHL SUB AND SWAP1 PUSH9 0x56BC75E2D63100000 SWAP1 PUSH2 0x3028 JUMP JUMPDEST PUSH2 0x25A7 JUMP JUMPDEST PUSH1 0x0 PUSH2 0x24BD DUP6 PUSH2 0x2E86 JUMP JUMPDEST SWAP1 POP PUSH1 0x0 PUSH2 0x24D5 PUSH1 0x2 PUSH9 0x56BC75E2D63100000 PUSH2 0x3685 JUMP JUMPDEST PUSH1 0x1 DUP4 ADD SLOAD SWAP1 SWAP2 POP PUSH2 0x24F0 SWAP1 PUSH1 0x1 PUSH1 0x1 PUSH1 0xA0 SHL SUB AND DUP3 PUSH2 0x2E52 JUMP JUMPDEST PUSH1 0x40 MLOAD PUSH4 0x2770A7EB PUSH1 0xE2 SHL DUP2 MSTORE ADDRESS PUSH1 0x4 DUP3 ADD MSTORE PUSH1 0x24 DUP2 ADD DUP3 SWAP1 MSTORE PUSH32 0x0 PUSH1 0x1 PUSH1 0x1 PUSH1 0xA0 SHL SUB AND SWAP1 PUSH4 0x9DC29FAC SWAP1 PUSH1 0x44 ADD PUSH1 0x0 PUSH1 0x40 MLOAD DUP1 DUP4 SUB DUP2 PUSH1 0x0 DUP8 DUP1 EXTCODESIZE ISZERO DUP1 ISZERO PUSH2 0x2558 JUMPI PUSH1 0x0 DUP1 REVERT JUMPDEST POP GAS CALL ISZERO DUP1 ISZERO PUSH2 0x256C JUMPI RETURNDATASIZE PUSH1 0x0 DUP1 RETURNDATACOPY RETURNDATASIZE PUSH1 0x0 REVERT JUMPDEST POP POP POP POP DUP1 PUSH1 0xC PUSH1 0x0 DUP3 DUP3 SLOAD PUSH2 0x2582 SWAP2 SWAP1 PUSH2 0x35F2 JUMP JUMPDEST SWAP1 SWAP2 SSTORE POP POP POP PUSH1 0x1 DUP3 ADD SLOAD PUSH1 0x1 PUSH1 0x1 PUSH1 0xA0 SHL SUB AND PUSH1 0x0 SWAP1 DUP2 MSTORE PUSH1 0x1A PUSH1 0x20 MSTORE PUSH1 0x40 DUP2 KECCAK256 SSTORE POP JUMPDEST PUSH1 0x1 DUP2 ADD SLOAD PUSH1 0x4 DUP3 ADD SLOAD PUSH1 0x1 PUSH1 0x1 PUSH1 0xA0 SHL SUB SWAP1 SWAP2 AND SWAP1 DUP6 SWAP1 PUSH32 0x8AA1336152B005DDD3CCC39B5A66ED207555053DD23BC9CFF1AAB405F6348EA5 SWAP1 PUSH2 0x100 SWAP1 DIV PUSH1 0xFF AND DUP1 PUSH2 0x25F5 JUMPI PUSH1 0x0 PUSH2 0x2600 JUMP JUMPDEST PUSH9 0xAD78EBC5AC6200000 JUMPDEST PUSH1 0x40 DUP1 MLOAD SWAP3 ISZERO ISZERO DUP4 MSTORE PUSH1 0x20 DUP4 ADD SWAP2 SWAP1 SWAP2 MSTORE ADD PUSH1 0x40 MLOAD DUP1 SWAP2 SUB SWAP1 LOG3 POP PUSH2 0x2632 PUSH1 0x1 PUSH1 0x0 DUP1 MLOAD PUSH1 0x20 PUSH2 0x3975 DUP4 CODECOPY DUP2 MLOAD SWAP2 MSTORE SSTORE JUMP JUMPDEST POP POP POP JUMP JUMPDEST PUSH1 0x4 SLOAD PUSH1 0x1 PUSH1 0xA0 SHL SWAP1 DIV PUSH1 0xFF AND ISZERO PUSH2 0x2662 JUMPI PUSH1 0x40 MLOAD PUSH4 0xAB35696F PUSH1 0xE0 SHL DUP2 MSTORE PUSH1 0x4 ADD PUSH1 0x40 MLOAD DUP1 SWAP2 SUB SWAP1 REVERT JUMPDEST PUSH2 0x266A PUSH2 0x2DC2 JUMP JUMPDEST PUSH1 0x0 DUP2 DUP2 MSTORE PUSH1 0x11 PUSH1 0x20 MSTORE PUSH1 0x40 DUP2 KECCAK256 SLOAD SWAP1 SUB PUSH2 0x2698 JUMPI PUSH1 0x40 MLOAD PUSH4 0x3D4572D PUSH1 0xE5 SHL DUP2 MSTORE PUSH1 0x4 ADD PUSH1 0x40 MLOAD DUP1 SWAP2 SUB SWAP1 REVERT JUMPDEST PUSH1 0x0 DUP2 DUP2 MSTORE PUSH1 0x16 PUSH1 0x20 SWAP1 DUP2 MSTORE PUSH1 0x40 DUP1 DUP4 KECCAK256 CALLER DUP5 MSTORE SWAP1 SWAP2 MSTORE SWAP1 KECCAK256 SLOAD PUSH1 0xFF AND ISZERO PUSH2 0x26D3 JUMPI PUSH1 0x40 MLOAD PUSH4 0x28486B63 PUSH1 0xE1 SHL DUP2 MSTORE PUSH1 0x4 ADD PUSH1 0x40 MLOAD DUP1 SWAP2 SUB SWAP1 REVERT JUMPDEST PUSH1 0x0 PUSH2 0x26DE DUP3 PUSH2 0x2E86 JUMP JUMPDEST PUSH1 0x5 DUP2 ADD SLOAD SWAP1 SWAP2 POP PUSH1 0xFF AND ISZERO PUSH2 0x2707 JUMPI PUSH1 0x40 MLOAD PUSH4 0x2444F8B7 PUSH1 0xE1 SHL DUP2 MSTORE PUSH1 0x4 ADD PUSH1 0x40 MLOAD DUP1 SWAP2 SUB SWAP1 REVERT JUMPDEST PUSH1 0x3 DUP2 ADD SLOAD PUSH1 0x0 PUSH2 0x2717 DUP5 PUSH2 0x1174 JUMP JUMPDEST SWAP1 POP DUP1 CALLVALUE LT ISZERO PUSH2 0x2743 JUMPI PUSH1 0x40 MLOAD PUSH4 0x3EBBC337 PUSH1 0xE0 SHL DUP2 MSTORE PUSH1 0x4 DUP2 ADD DUP3 SWAP1 MSTORE CALLVALUE PUSH1 0x24 DUP3 ADD MSTORE PUSH1 0x44 ADD PUSH2 0x10E1 JUMP JUMPDEST PUSH1 0x0 DUP5 DUP2 MSTORE PUSH1 0x16 PUSH1 0x20 SWAP1 DUP2 MSTORE PUSH1 0x40 DUP1 DUP4 KECCAK256 CALLER DUP5 MSTORE SWAP1 SWAP2 MSTORE DUP2 KECCAK256 DUP1 SLOAD PUSH1 0xFF NOT AND PUSH1 0x1 SWAP1 DUP2 OR SWAP1 SWAP2 SSTORE PUSH1 0x4 DUP6 ADD DUP1 SLOAD SWAP2 SWAP3 SWAP1 SWAP2 PUSH2 0x277F SWAP1 DUP5 SWAP1 PUSH2 0x35F2 JUMP JUMPDEST SWAP1 SWAP2 SSTORE POP PUSH2 0x278E SWAP1 POP DUP3 PUSH2 0x30E3 JUMP JUMPDEST PUSH1 0x3 DUP5 ADD SSTORE PUSH1 0x0 DUP5 DUP2 MSTORE PUSH1 0x17 PUSH1 0x20 MSTORE PUSH1 0x40 DUP2 KECCAK256 DUP1 SLOAD DUP4 SWAP3 SWAP1 PUSH2 0x27B1 SWAP1 DUP5 SWAP1 PUSH2 0x35F2 JUMP JUMPDEST SWAP1 SWAP2 SSTORE POP POP PUSH1 0x1 DUP4 ADD SLOAD PUSH2 0x27CE SWAP1 PUSH1 0x1 PUSH1 0x1 PUSH1 0xA0 SHL SUB AND DUP3 PUSH2 0x2DDE JUMP JUMPDEST DUP1 CALLVALUE GT ISZERO PUSH2 0x27E9 JUMPI PUSH2 0x27E9 CALLER PUSH2 0x27E4 DUP4 CALLVALUE PUSH2 0x36A7 JUMP JUMPDEST PUSH2 0x2DDE JUMP JUMPDEST CALLER PUSH1 0x1 PUSH1 0x1 PUSH1 0xA0 SHL SUB AND DUP5 PUSH32 0x2EE8D21874599264C54876B79BF25EAE1B396C3771A178E683A9E038B634F1D7 DUP5 PUSH1 0x40 MLOAD PUSH2 0x2840 SWAP2 DUP2 MSTORE PUSH1 0x40 PUSH1 0x20 DUP3 ADD DUP2 SWAP1 MSTORE PUSH1 0x3 SWAP1 DUP3 ADD MSTORE PUSH3 0x8AA89 PUSH1 0xEB SHL PUSH1 0x60 DUP3 ADD MSTORE PUSH1 0x80 ADD SWAP1 JUMP JUMPDEST PUSH1 0x40 MLOAD DUP1 SWAP2 SUB SWAP1 LOG3 DUP4 PUSH32 0x68520CF07E2F785CBA8F9601C758232191B84E9F0A8EC7B3049D2DCC197B67FE DUP5 PUSH1 0x3 ADD SLOAD PUSH1 0x40 MLOAD PUSH2 0x287E SWAP2 DUP2 MSTORE PUSH1 0x20 ADD SWAP1 JUMP JUMPDEST PUSH1 0x40 MLOAD DUP1 SWAP2 SUB SWAP1 LOG2 POP POP POP PUSH2 0x1171 PUSH1 0x1 PUSH1 0x0 DUP1 MLOAD PUSH1 0x20 PUSH2 0x3975 DUP4 CODECOPY DUP2 MLOAD SWAP2 MSTORE SSTORE JUMP JUMPDEST PUSH1 0x0 SLOAD PUSH1 0x1 PUSH1 0x1 PUSH1 0xA0 SHL SUB AND CALLER EQ PUSH2 0x28CB JUMPI PUSH1 0x40 MLOAD PUSH4 0x30CD7471 PUSH1 0xE0 SHL DUP2 MSTORE PUSH1 0x4 ADD PUSH1 0x40 MLOAD DUP1 SWAP2 SUB SWAP1 REVERT JUMPDEST PUSH1 0x1 PUSH1 0x1 PUSH1 0xA0 SHL SUB DUP2 AND PUSH2 0x28F2 JUMPI PUSH1 0x40 MLOAD PUSH4 0xE6C4247B PUSH1 0xE0 SHL DUP2 MSTORE PUSH1 0x4 ADD PUSH1 0x40 MLOAD DUP1 SWAP2 SUB SWAP1 REVERT JUMPDEST PUSH1 0x4 DUP1 SLOAD PUSH1 0x1 PUSH1 0x1 PUSH1 0xA0 SHL SUB DUP4 DUP2 AND PUSH1 0x1 PUSH1 0x1 PUSH1 0xA0 SHL SUB NOT DUP4 AND DUP2 OR SWAP1 SWAP4 SSTORE PUSH1 0x40 MLOAD SWAP2 AND SWAP2 SWAP1 DUP3 SWAP1 PUSH32 0x4AB5BE82436D353E61CA18726E984E561F5C1CC7C6D38B29D2553C790434705A SWAP1 PUSH1 0x0 SWAP1 LOG3 POP POP JUMP JUMPDEST PUSH1 0x0 SLOAD PUSH1 0x1 PUSH1 0x1 PUSH1 0xA0 SHL SUB AND CALLER EQ PUSH2 0x296F JUMPI PUSH1 0x40 MLOAD PUSH4 0x30CD7471 PUSH1 0xE0 SHL DUP2 MSTORE PUSH1 0x4 ADD PUSH1 0x40 MLOAD DUP1 SWAP2 SUB SWAP1 REVERT JUMPDEST PUSH1 0x1 PUSH1 0x1 PUSH1 0xA0 SHL SUB DUP2 AND PUSH2 0x2996 JUMPI PUSH1 0x40 MLOAD PUSH4 0xE6C4247B PUSH1 0xE0 SHL DUP2 MSTORE PUSH1 0x4 ADD PUSH1 0x40 MLOAD DUP1 SWAP2 SUB SWAP1 REVERT JUMPDEST PUSH1 0x1 DUP1 SLOAD PUSH1 0x1 PUSH1 0x1 PUSH1 0xA0 SHL SUB NOT AND PUSH1 0x1 PUSH1 0x1 PUSH1 0xA0 SHL SUB DUP4 DUP2 AND SWAP2 DUP3 OR SWAP1 SWAP3 SSTORE PUSH1 0x0 DUP1 SLOAD PUSH1 0x40 MLOAD SWAP3 SWAP4 AND SWAP2 PUSH32 0x38D16B8CAC22D99FC7C124B9CD0DE2D3FA1FAEF420BFE791D8C362D765E22700 SWAP2 SWAP1 LOG3 POP JUMP JUMPDEST PUSH1 0x4 SLOAD PUSH1 0x1 PUSH1 0xA0 SHL SWAP1 DIV PUSH1 0xFF AND ISZERO PUSH2 0x2A12 JUMPI PUSH1 0x40 MLOAD PUSH4 0xAB35696F PUSH1 0xE0 SHL DUP2 MSTORE PUSH1 0x4 ADD PUSH1 0x40 MLOAD DUP1 SWAP2 SUB SWAP1 REVERT JUMPDEST PUSH2 0x2A1A PUSH2 0x2DC2 JUMP JUMPDEST PUSH1 0x0 DUP2 DUP2 MSTORE PUSH1 0x11 PUSH1 0x20 MSTORE PUSH1 0x40 DUP2 KECCAK256 SLOAD SWAP1 SUB PUSH2 0x2A48 JUMPI PUSH1 0x40 MLOAD PUSH4 0x3D4572D PUSH1 0xE5 SHL DUP2 MSTORE PUSH1 0x4 ADD PUSH1 0x40 MLOAD DUP1 SWAP2 SUB SWAP1 REVERT JUMPDEST PUSH1 0x0 DUP2 DUP2 MSTORE PUSH1 0x16 PUSH1 0x20 SWAP1 DUP2 MSTORE PUSH1 0x40 DUP1 DUP4 KECCAK256 CALLER DUP5 MSTORE SWAP1 SWAP2 MSTORE SWAP1 KECCAK256 SLOAD PUSH1 0xFF AND ISZERO PUSH2 0x2A83 JUMPI PUSH1 0x40 MLOAD PUSH4 0x28486B63 PUSH1 0xE1 SHL DUP2 MSTORE PUSH1 0x4 ADD PUSH1 0x40 MLOAD DUP1 SWAP2 SUB SWAP1 REVERT JUMPDEST PUSH1 0x0 PUSH2 0x2A8E DUP3 PUSH2 0x2E86 JUMP JUMPDEST PUSH1 0x5 DUP2 ADD SLOAD SWAP1 SWAP2 POP PUSH1 0xFF AND ISZERO PUSH2 0x2AB7 JUMPI PUSH1 0x40 MLOAD PUSH4 0x2444F8B7 PUSH1 0xE1 SHL DUP2 MSTORE PUSH1 0x4 ADD PUSH1 0x40 MLOAD DUP1 SWAP2 SUB SWAP1 REVERT JUMPDEST PUSH1 0x3 DUP2 ADD SLOAD PUSH1 0x0 PUSH2 0x2AC9 PUSH1 0x2 DUP4 PUSH2 0x3685 JUMP JUMPDEST SWAP1 POP PUSH1 0x0 PUSH2 0x2AD7 DUP3 DUP5 PUSH2 0x36A7 JUMP JUMPDEST SWAP1 POP PUSH2 0x2AE4 CALLER ADDRESS DUP6 PUSH2 0x30AE JUMP JUMPDEST PUSH1 0x40 MLOAD PUSH4 0x2770A7EB PUSH1 0xE2 SHL DUP2 MSTORE ADDRESS PUSH1 0x4 DUP3 ADD MSTORE PUSH1 0x24 DUP2 ADD DUP4 SWAP1 MSTORE PUSH32 0x0 PUSH1 0x1 PUSH1 0x1 PUSH1 0xA0 SHL SUB AND SWAP1 PUSH4 0x9DC29FAC SWAP1 PUSH1 0x44 ADD PUSH1 0x0 PUSH1 0x40 MLOAD DUP1 DUP4 SUB DUP2 PUSH1 0x0 DUP8 DUP1 EXTCODESIZE ISZERO DUP1 ISZERO PUSH2 0x2B4C JUMPI PUSH1 0x0 DUP1 REVERT JUMPDEST POP GAS CALL ISZERO DUP1 ISZERO PUSH2 0x2B60 JUMPI RETURNDATASIZE PUSH1 0x0 DUP1 RETURNDATACOPY RETURNDATASIZE PUSH1 0x0 REVERT JUMPDEST POP POP POP POP DUP2 PUSH1 0xC PUSH1 0x0 DUP3 DUP3 SLOAD PUSH2 0x2B76 SWAP2 SWAP1 PUSH2 0x35F2 JUMP JUMPDEST SWAP1 SWAP2 SSTORE POP POP PUSH1 0x1 DUP5 ADD SLOAD PUSH2 0x2B93 SWAP1 PUSH1 0x1 PUSH1 0x1 PUSH1 0xA0 SHL SUB AND DUP3 PUSH2 0x2E52 JUMP JUMPDEST PUSH1 0x0 DUP6 DUP2 MSTORE PUSH1 0x16 PUSH1 0x20 SWAP1 DUP2 MSTORE PUSH1 0x40 DUP1 DUP4 KECCAK256 CALLER DUP5 MSTORE SWAP1 SWAP2 MSTORE DUP2 KECCAK256 DUP1 SLOAD PUSH1 0xFF NOT AND PUSH1 0x1 SWAP1 DUP2 OR SWAP1 SWAP2 SSTORE PUSH1 0x4 DUP7 ADD DUP1 SLOAD SWAP2 SWAP3 SWAP1 SWAP2 PUSH2 0x2BCF SWAP1 DUP5 SWAP1 PUSH2 0x35F2 JUMP JUMPDEST SWAP3 POP POP DUP2 SWAP1 SSTORE POP DUP1 DUP5 PUSH1 0x6 ADD PUSH1 0x0 DUP3 DUP3 SLOAD PUSH2 0x2BEA SWAP2 SWAP1 PUSH2 0x35F2 JUMP JUMPDEST SWAP1 SWAP2 SSTORE POP PUSH2 0x2BF9 SWAP1 POP DUP4 PUSH2 0x30E3 JUMP JUMPDEST PUSH1 0x3 DUP6 ADD SSTORE PUSH1 0x40 MLOAD CALLER SWAP1 DUP7 SWAP1 PUSH32 0x2EE8D21874599264C54876B79BF25EAE1B396C3771A178E683A9E038B634F1D7 SWAP1 PUSH2 0x2C50 SWAP1 DUP8 DUP2 MSTORE PUSH1 0x40 PUSH1 0x20 DUP3 ADD DUP2 SWAP1 MSTORE PUSH1 0x4 SWAP1 DUP3 ADD MSTORE PUSH4 0x212AA927 PUSH1 0xE1 SHL PUSH1 0x60 DUP3 ADD MSTORE PUSH1 0x80 ADD SWAP1 JUMP JUMPDEST PUSH1 0x40 MLOAD DUP1 SWAP2 SUB SWAP1 LOG3 DUP5 PUSH32 0x68520CF07E2F785CBA8F9601C758232191B84E9F0A8EC7B3049D2DCC197B67FE DUP6 PUSH1 0x3 ADD SLOAD PUSH1 0x40 MLOAD PUSH2 0x2C8E SWAP2 DUP2 MSTORE PUSH1 0x20 ADD SWAP1 JUMP JUMPDEST PUSH1 0x40 MLOAD DUP1 SWAP2 SUB SWAP1 LOG2 POP POP POP POP PUSH2 0x1171 PUSH1 0x1 PUSH1 0x0 DUP1 MLOAD PUSH1 0x20 PUSH2 0x3975 DUP4 CODECOPY DUP2 MLOAD SWAP2 MSTORE SSTORE JUMP JUMPDEST PUSH1 0x5 SLOAD PUSH1 0x0 SWAP1 DUP1 DUP3 SUB PUSH2 0x2CD7 JUMPI PUSH1 0x40 MLOAD PUSH4 0xB732747 PUSH1 0xE1 SHL DUP2 MSTORE PUSH1 0x4 ADD PUSH1 0x40 MLOAD DUP1 SWAP2 SUB SWAP1 REVERT JUMPDEST PUSH2 0x2CE4 PUSH3 0x15180 DUP3 PUSH2 0x35F2 JUMP JUMPDEST TIMESTAMP GT ISZERO PUSH2 0x2D10 JUMPI PUSH1 0x40 MLOAD PUSH4 0x44877567 PUSH1 0xE1 SHL DUP2 MSTORE PUSH1 0x4 DUP2 ADD DUP3 SWAP1 MSTORE PUSH3 0x15180 PUSH1 0x24 DUP3 ADD MSTORE PUSH1 0x44 ADD PUSH2 0x10E1 JUMP JUMPDEST PUSH1 0x0 PUSH32 0x0 PUSH1 0x1 PUSH1 0x1 PUSH1 0xA0 SHL SUB AND PUSH4 0x313CE567 PUSH1 0x40 MLOAD DUP2 PUSH4 0xFFFFFFFF AND PUSH1 0xE0 SHL DUP2 MSTORE PUSH1 0x4 ADD PUSH1 0x20 PUSH1 0x40 MLOAD DUP1 DUP4 SUB DUP2 DUP7 GAS STATICCALL ISZERO DUP1 ISZERO PUSH2 0x2D70 JUMPI RETURNDATASIZE PUSH1 0x0 DUP1 RETURNDATACOPY RETURNDATASIZE PUSH1 0x0 REVERT JUMPDEST POP POP POP POP PUSH1 0x40 MLOAD RETURNDATASIZE PUSH1 0x1F NOT PUSH1 0x1F DUP3 ADD AND DUP3 ADD DUP1 PUSH1 0x40 MSTORE POP DUP2 ADD SWAP1 PUSH2 0x2D94 SWAP2 SWAP1 PUSH2 0x3833 JUMP JUMPDEST PUSH2 0x2D9F SWAP1 PUSH1 0xA PUSH2 0x393D JUMP JUMPDEST SWAP1 POP DUP1 PUSH1 0x6 SLOAD DUP6 PUSH2 0x2DB0 SWAP2 SWAP1 PUSH2 0x366E JUMP JUMPDEST PUSH2 0x2DBA SWAP2 SWAP1 PUSH2 0x3685 JUMP JUMPDEST SWAP5 SWAP4 POP POP POP POP JUMP JUMPDEST PUSH2 0x2DCA PUSH2 0x3143 JUMP JUMPDEST PUSH1 0x2 PUSH1 0x0 DUP1 MLOAD PUSH1 0x20 PUSH2 0x3975 DUP4 CODECOPY DUP2 MLOAD SWAP2 MSTORE SSTORE JUMP JUMPDEST PUSH1 0x0 DUP3 PUSH1 0x1 PUSH1 0x1 PUSH1 0xA0 SHL SUB AND DUP3 PUSH1 0x40 MLOAD PUSH1 0x0 PUSH1 0x40 MLOAD DUP1 DUP4 SUB DUP2 DUP6 DUP8 GAS CALL SWAP3 POP POP POP RETURNDATASIZE DUP1 PUSH1 0x0 DUP2 EQ PUSH2 0x2E2B JUMPI PUSH1 0x40 MLOAD SWAP2 POP PUSH1 0x1F NOT PUSH1 0x3F RETURNDATASIZE ADD AND DUP3 ADD PUSH1 0x40 MSTORE RETURNDATASIZE DUP3 MSTORE RETURNDATASIZE PUSH1 0x0 PUSH1 0x20 DUP5 ADD RETURNDATACOPY PUSH2 0x2E30 JUMP JUMPDEST PUSH1 0x60 SWAP2 POP JUMPDEST POP POP SWAP1 POP DUP1 PUSH2 0x2632 JUMPI PUSH1 0x40 MLOAD PUSH4 0x22E2581 PUSH1 0xE1 SHL DUP2 MSTORE PUSH1 0x4 ADD PUSH1 0x40 MLOAD DUP1 SWAP2 SUB SWAP1 REVERT JUMPDEST PUSH2 0x1B9C PUSH1 0x1 PUSH1 0x1 PUSH1 0xA0 SHL SUB PUSH32 0x0 AND DUP4 DUP4 PUSH2 0x3175 JUMP JUMPDEST PUSH1 0x0 DUP2 DUP2 MSTORE PUSH1 0x14 PUSH1 0x20 MSTORE PUSH1 0x40 SWAP1 KECCAK256 PUSH1 0x3 DUP2 ADD SLOAD ISZERO PUSH2 0x2EA3 JUMPI SWAP2 SWAP1 POP JUMP JUMPDEST PUSH1 0x0 DUP3 DUP2 MSTORE PUSH1 0x15 PUSH1 0x20 MSTORE PUSH1 0x40 SWAP1 KECCAK256 SLOAD PUSH1 0x1 PUSH1 0x1 PUSH1 0xA0 SHL SUB AND DUP1 PUSH2 0x2ED9 JUMPI PUSH1 0x40 MLOAD PUSH4 0x61F2AA01 PUSH1 0xE1 SHL DUP2 MSTORE PUSH1 0x4 ADD PUSH1 0x40 MLOAD DUP1 SWAP2 SUB SWAP1 REVERT JUMPDEST DUP3 DUP3 SSTORE PUSH1 0x1 DUP1 DUP4 ADD DUP1 SLOAD PUSH1 0x1 PUSH1 0x1 PUSH1 0xA0 SHL SUB NOT AND PUSH1 0x1 PUSH1 0x1 PUSH1 0xA0 SHL SUB SWAP4 SWAP1 SWAP4 AND SWAP3 SWAP1 SWAP3 OR SWAP1 SWAP2 SSTORE PUSH1 0x0 SWAP3 DUP4 MSTORE PUSH1 0x11 PUSH1 0x20 MSTORE PUSH1 0x40 SWAP1 SWAP3 KECCAK256 SWAP1 SWAP2 ADD SLOAD PUSH1 0x2 DUP3 ADD SSTORE PUSH9 0x1B1AE4D6E2EF500000 PUSH1 0x3 DUP3 ADD SSTORE PUSH1 0x5 DUP2 ADD DUP1 SLOAD PUSH1 0xFF NOT AND SWAP1 SSTORE SWAP1 JUMP JUMPDEST PUSH1 0x1 PUSH1 0x1 PUSH1 0xA0 SHL SUB DUP2 DUP2 AND PUSH1 0x0 DUP2 DUP2 MSTORE PUSH1 0x18 PUSH1 0x20 MSTORE PUSH1 0x40 DUP1 DUP3 KECCAK256 SLOAD SWAP1 MLOAD PUSH4 0xAAAC37A1 PUSH1 0xE0 SHL DUP2 MSTORE PUSH1 0x4 DUP2 ADD SWAP4 SWAP1 SWAP4 MSTORE SWAP1 SWAP3 SWAP1 SWAP2 PUSH32 0x0 SWAP1 SWAP2 AND SWAP1 PUSH4 0xAAAC37A1 SWAP1 PUSH1 0x24 ADD PUSH1 0x20 PUSH1 0x40 MLOAD DUP1 DUP4 SUB DUP2 DUP7 GAS STATICCALL ISZERO DUP1 ISZERO PUSH2 0x2FB4 JUMPI RETURNDATASIZE PUSH1 0x0 DUP1 RETURNDATACOPY RETURNDATASIZE PUSH1 0x0 REVERT JUMPDEST POP POP POP POP PUSH1 0x40 MLOAD RETURNDATASIZE PUSH1 0x1F NOT PUSH1 0x1F DUP3 ADD AND DUP3 ADD DUP1 PUSH1 0x40 MSTORE POP DUP2 ADD SWAP1 PUSH2 0x2FD8 SWAP2 SWAP1 PUSH2 0x363F JUMP JUMPDEST PUSH2 0x154D SWAP2 SWAP1 PUSH2 0x35F2 JUMP JUMPDEST PUSH1 0x0 DUP2 DUP2 MSTORE PUSH1 0x11 PUSH1 0x20 MSTORE PUSH1 0x40 DUP2 KECCAK256 PUSH1 0x1 ADD SLOAD DUP2 SWAP1 PUSH2 0x3007 SWAP1 PUSH7 0x2386F26FC10000 PUSH2 0x366E JUMP JUMPDEST SWAP1 POP PUSH9 0x3635C9ADC5DEA00000 DUP2 GT PUSH2 0x154D JUMPI PUSH9 0x3635C9ADC5DEA00000 PUSH2 0x11E6 JUMP JUMPDEST PUSH1 0x1 PUSH1 0x1 PUSH1 0xA0 SHL SUB DUP4 AND PUSH1 0x0 SWAP1 DUP2 MSTORE PUSH1 0x18 PUSH1 0x20 MSTORE PUSH1 0x40 DUP2 KECCAK256 SLOAD SWAP1 PUSH2 0x304C DUP5 DUP4 PUSH2 0x35F2 JUMP JUMPDEST PUSH1 0x1 PUSH1 0x1 PUSH1 0xA0 SHL SUB DUP7 AND PUSH1 0x0 DUP2 DUP2 MSTORE PUSH1 0x18 PUSH1 0x20 MSTORE PUSH1 0x40 SWAP1 DUP2 SWAP1 KECCAK256 DUP4 SWAP1 SSTORE MLOAD SWAP2 SWAP3 POP SWAP1 PUSH32 0x7B750B6736CCB837FEA530571F55E8E43F7EEB7BF7F2AADCA5B698BD6BE22D7A SWAP1 PUSH2 0x309F SWAP1 DUP6 SWAP1 DUP6 SWAP1 DUP9 SWAP1 PUSH2 0x394C JUMP JUMPDEST PUSH1 0x40 MLOAD DUP1 SWAP2 SUB SWAP1 LOG2 POP POP POP POP POP JUMP JUMPDEST PUSH2 0x2632 PUSH1 0x1 PUSH1 0x1 PUSH1 0xA0 SHL SUB PUSH32 0x0 AND DUP5 DUP5 DUP5 PUSH2 0x31AA JUMP JUMPDEST PUSH1 0x0 PUSH9 0x878678326EAC900000 DUP3 LT PUSH2 0x3105 JUMPI POP PUSH9 0x878678326EAC900000 SWAP2 SWAP1 POP JUMP JUMPDEST PUSH1 0x0 PUSH2 0x311A PUSH9 0x2B5E3AF16B1880000 DUP5 PUSH2 0x35F2 JUMP JUMPDEST SWAP1 POP PUSH9 0x878678326EAC900000 DUP2 GT PUSH2 0x3132 JUMPI DUP1 PUSH2 0x11E6 JUMP JUMPDEST PUSH9 0x878678326EAC900000 SWAP4 SWAP3 POP POP POP JUMP JUMPDEST PUSH1 0x0 DUP1 MLOAD PUSH1 0x20 PUSH2 0x3975 DUP4 CODECOPY DUP2 MLOAD SWAP2 MSTORE SLOAD PUSH1 0x2 SUB PUSH2 0x3173 JUMPI PUSH1 0x40 MLOAD PUSH4 0x3EE5AEB5 PUSH1 0xE0 SHL DUP2 MSTORE PUSH1 0x4 ADD PUSH1 0x40 MLOAD DUP1 SWAP2 SUB SWAP1 REVERT JUMPDEST JUMP JUMPDEST PUSH2 0x3182 DUP4 DUP4 DUP4 PUSH1 0x1 PUSH2 0x31E6 JUMP JUMPDEST PUSH2 0x2632 JUMPI PUSH1 0x40 MLOAD PUSH4 0x5274AFE7 PUSH1 0xE0 SHL DUP2 MSTORE PUSH1 0x1 PUSH1 0x1 PUSH1 0xA0 SHL SUB DUP5 AND PUSH1 0x4 DUP3 ADD MSTORE PUSH1 0x24 ADD PUSH2 0x10E1 JUMP JUMPDEST PUSH2 0x31B8 DUP5 DUP5 DUP5 DUP5 PUSH1 0x1 PUSH2 0x324C JUMP JUMPDEST PUSH2 0x31E0 JUMPI PUSH1 0x40 MLOAD PUSH4 0x5274AFE7 PUSH1 0xE0 SHL DUP2 MSTORE PUSH1 0x1 PUSH1 0x1 PUSH1 0xA0 SHL SUB DUP6 AND PUSH1 0x4 DUP3 ADD MSTORE PUSH1 0x24 ADD PUSH2 0x10E1 JUMP JUMPDEST POP POP POP POP JUMP JUMPDEST PUSH1 0x40 MLOAD PUSH4 0xA9059CBB PUSH1 0xE0 SHL PUSH1 0x0 DUP2 DUP2 MSTORE PUSH1 0x1 PUSH1 0x1 PUSH1 0xA0 SHL SUB DUP7 AND PUSH1 0x4 MSTORE PUSH1 0x24 DUP6 SWAP1 MSTORE SWAP2 PUSH1 0x20 DUP4 PUSH1 0x44 DUP2 DUP1 DUP12 GAS CALL SWAP3 POP PUSH1 0x1 PUSH1 0x0 MLOAD EQ DUP4 AND PUSH2 0x3240 JUMPI DUP4 DUP4 ISZERO AND ISZERO PUSH2 0x3233 JUMPI RETURNDATASIZE PUSH1 0x0 DUP3 RETURNDATACOPY RETURNDATASIZE DUP2 REVERT JUMPDEST PUSH1 0x0 DUP8 EXTCODESIZE GT RETURNDATASIZE ISZERO AND DUP4 AND SWAP3 POP JUMPDEST PUSH1 0x40 MSTORE POP SWAP5 SWAP4 POP POP POP POP JUMP JUMPDEST PUSH1 0x40 MLOAD PUSH4 0x23B872DD PUSH1 0xE0 SHL PUSH1 0x0 DUP2 DUP2 MSTORE PUSH1 0x1 PUSH1 0x1 PUSH1 0xA0 SHL SUB DUP8 DUP2 AND PUSH1 0x4 MSTORE DUP7 AND PUSH1 0x24 MSTORE PUSH1 0x44 DUP6 SWAP1 MSTORE SWAP2 PUSH1 0x20 DUP4 PUSH1 0x64 DUP2 DUP1 DUP13 GAS CALL SWAP3 POP PUSH1 0x1 PUSH1 0x0 MLOAD EQ DUP4 AND PUSH2 0x32AC JUMPI DUP4 DUP4 ISZERO AND ISZERO PUSH2 0x329F JUMPI RETURNDATASIZE PUSH1 0x0 DUP3 RETURNDATACOPY RETURNDATASIZE DUP2 REVERT JUMPDEST PUSH1 0x0 DUP9 EXTCODESIZE GT RETURNDATASIZE ISZERO AND DUP4 AND SWAP3 POP JUMPDEST PUSH1 0x40 MSTORE POP PUSH1 0x0 PUSH1 0x60 MSTORE SWAP6 SWAP5 POP POP POP POP POP JUMP JUMPDEST PUSH1 0x0 PUSH1 0x20 DUP3 DUP5 SUB SLT ISZERO PUSH2 0x32D0 JUMPI PUSH1 0x0 DUP1 REVERT JUMPDEST POP CALLDATALOAD SWAP2 SWAP1 POP JUMP JUMPDEST DUP1 CALLDATALOAD PUSH1 0x1 PUSH1 0x1 PUSH1 0xA0 SHL SUB DUP2 AND DUP2 EQ PUSH2 0x32EE JUMPI PUSH1 0x0 DUP1 REVERT JUMPDEST SWAP2 SWAP1 POP JUMP JUMPDEST PUSH1 0x0 PUSH1 0x20 DUP3 DUP5 SUB SLT ISZERO PUSH2 0x3305 JUMPI PUSH1 0x0 DUP1 REVERT JUMPDEST PUSH2 0x11E6 DUP3 PUSH2 0x32D7 JUMP JUMPDEST DUP1 CALLDATALOAD DUP1 ISZERO ISZERO DUP2 EQ PUSH2 0x32EE JUMPI PUSH1 0x0 DUP1 REVERT JUMPDEST PUSH1 0x0 PUSH1 0x20 DUP3 DUP5 SUB SLT ISZERO PUSH2 0x3330 JUMPI PUSH1 0x0 DUP1 REVERT JUMPDEST PUSH2 0x11E6 DUP3 PUSH2 0x330E JUMP JUMPDEST PUSH1 0x0 DUP2 MLOAD DUP1 DUP5 MSTORE PUSH1 0x0 JUMPDEST DUP2 DUP2 LT ISZERO PUSH2 0x335F JUMPI PUSH1 0x20 DUP2 DUP6 ADD DUP2 ADD MLOAD DUP7 DUP4 ADD DUP3 ADD MSTORE ADD PUSH2 0x3343 JUMP JUMPDEST POP PUSH1 0x0 PUSH1 0x20 DUP3 DUP7 ADD ADD MSTORE PUSH1 0x20 PUSH1 0x1F NOT PUSH1 0x1F DUP4 ADD AND DUP6 ADD ADD SWAP2 POP POP SWAP3 SWAP2 POP POP JUMP JUMPDEST DUP9 DUP2 MSTORE DUP8 PUSH1 0x20 DUP3 ADD MSTORE DUP7 ISZERO ISZERO PUSH1 0x40 DUP3 ADD MSTORE DUP6 PUSH1 0x60 DUP3 ADD MSTORE PUSH2 0x100 PUSH1 0x80 DUP3 ADD MSTORE PUSH1 0x0 PUSH2 0x33AE PUSH2 0x100 DUP4 ADD DUP8 PUSH2 0x3339 JUMP JUMPDEST DUP3 DUP2 SUB PUSH1 0xA0 DUP5 ADD MSTORE PUSH2 0x33C0 DUP2 DUP8 PUSH2 0x3339 JUMP JUMPDEST PUSH1 0x1 PUSH1 0x1 PUSH1 0xA0 SHL SUB SWAP6 SWAP1 SWAP6 AND PUSH1 0xC0 DUP5 ADD MSTORE POP POP PUSH1 0xE0 ADD MSTORE SWAP7 SWAP6 POP POP POP POP POP POP JUMP JUMPDEST PUSH1 0x0 DUP1 PUSH1 0x40 DUP4 DUP6 SUB SLT ISZERO PUSH2 0x33F4 JUMPI PUSH1 0x0 DUP1 REVERT JUMPDEST DUP3 CALLDATALOAD SWAP2 POP PUSH2 0x3404 PUSH1 0x20 DUP5 ADD PUSH2 0x32D7 JUMP JUMPDEST SWAP1 POP SWAP3 POP SWAP3 SWAP1 POP JUMP JUMPDEST PUSH1 0x0 DUP1 PUSH1 0x40 DUP4 DUP6 SUB SLT ISZERO PUSH2 0x3420 JUMPI PUSH1 0x0 DUP1 REVERT JUMPDEST POP POP DUP1 CALLDATALOAD SWAP3 PUSH1 0x20 SWAP1 SWAP2 ADD CALLDATALOAD SWAP2 POP JUMP JUMPDEST PUSH1 0x0 DUP1 PUSH1 0x40 DUP4 DUP6 SUB SLT ISZERO PUSH2 0x3442 JUMPI PUSH1 0x0 DUP1 REVERT JUMPDEST DUP3 CALLDATALOAD SWAP2 POP PUSH2 0x3404 PUSH1 0x20 DUP5 ADD PUSH2 0x330E JUMP JUMPDEST PUSH1 0x0 DUP1 DUP4 PUSH1 0x1F DUP5 ADD SLT PUSH2 0x3464 JUMPI PUSH1 0x0 DUP1 REVERT JUMPDEST POP DUP2 CALLDATALOAD PUSH8 0xFFFFFFFFFFFFFFFF DUP2 GT ISZERO PUSH2 0x347C JUMPI PUSH1 0x0 DUP1 REVERT JUMPDEST PUSH1 0x20 DUP4 ADD SWAP2 POP DUP4 PUSH1 0x20 DUP3 DUP6 ADD ADD GT ISZERO PUSH2 0x3494 JUMPI PUSH1 0x0 DUP1 REVERT JUMPDEST SWAP3 POP SWAP3 SWAP1 POP JUMP JUMPDEST PUSH1 0x0 DUP1 PUSH1 0x0 DUP1 PUSH1 0x0 DUP1 PUSH1 0x0 DUP1 PUSH1 0x0 PUSH1 0xC0 DUP11 DUP13 SUB SLT ISZERO PUSH2 0x34B9 JUMPI PUSH1 0x0 DUP1 REVERT JUMPDEST DUP10 CALLDATALOAD SWAP9 POP PUSH1 0x20 DUP11 ADD CALLDATALOAD SWAP8 POP PUSH1 0x40 DUP11 ADD CALLDATALOAD PUSH8 0xFFFFFFFFFFFFFFFF DUP2 GT ISZERO PUSH2 0x34DE JUMPI PUSH1 0x0 DUP1 REVERT JUMPDEST PUSH2 0x34EA DUP13 DUP3 DUP14 ADD PUSH2 0x3452 JUMP JUMPDEST SWAP1 SWAP9 POP SWAP7 POP POP PUSH1 0x60 DUP11 ADD CALLDATALOAD PUSH8 0xFFFFFFFFFFFFFFFF DUP2 GT ISZERO PUSH2 0x350A JUMPI PUSH1 0x0 DUP1 REVERT JUMPDEST PUSH2 0x3516 DUP13 DUP3 DUP14 ADD PUSH2 0x3452 JUMP JUMPDEST SWAP1 SWAP7 POP SWAP5 POP POP PUSH1 0x80 DUP11 ADD CALLDATALOAD PUSH8 0xFFFFFFFFFFFFFFFF DUP2 GT ISZERO PUSH2 0x3536 JUMPI PUSH1 0x0 DUP1 REVERT JUMPDEST PUSH2 0x3542 DUP13 DUP3 DUP14 ADD PUSH2 0x3452 JUMP JUMPDEST SWAP1 SWAP5 POP SWAP3 POP PUSH2 0x3555 SWAP1 POP PUSH1 0xA0 DUP12 ADD PUSH2 0x330E JUMP JUMPDEST SWAP1 POP SWAP3 SWAP6 SWAP9 POP SWAP3 SWAP6 SWAP9 POP SWAP3 SWAP6 SWAP9 JUMP JUMPDEST PUSH1 0x20 DUP1 DUP3 MSTORE DUP3 MLOAD DUP3 DUP3 ADD DUP2 SWAP1 MSTORE PUSH1 0x0 SWAP2 DUP5 ADD SWAP1 PUSH1 0x40 DUP5 ADD SWAP1 DUP4 JUMPDEST DUP2 DUP2 LT ISZERO PUSH2 0x359C JUMPI DUP4 MLOAD DUP4 MSTORE PUSH1 0x20 SWAP4 DUP5 ADD SWAP4 SWAP1 SWAP3 ADD SWAP2 PUSH1 0x1 ADD PUSH2 0x357E JUMP JUMPDEST POP SWAP1 SWAP6 SWAP5 POP POP POP POP POP JUMP JUMPDEST PUSH1 0x0 DUP1 PUSH1 0x0 PUSH1 0x60 DUP5 DUP7 SUB SLT ISZERO PUSH2 0x35BC JUMPI PUSH1 0x0 DUP1 REVERT JUMPDEST DUP4 CALLDATALOAD SWAP3 POP PUSH1 0x20 DUP5 ADD CALLDATALOAD SWAP2 POP PUSH2 0x35D3 PUSH1 0x40 DUP6 ADD PUSH2 0x330E JUMP JUMPDEST SWAP1 POP SWAP3 POP SWAP3 POP SWAP3 JUMP JUMPDEST PUSH4 0x4E487B71 PUSH1 0xE0 SHL PUSH1 0x0 MSTORE PUSH1 0x11 PUSH1 0x4 MSTORE PUSH1 0x24 PUSH1 0x0 REVERT JUMPDEST DUP1 DUP3 ADD DUP1 DUP3 GT ISZERO PUSH2 0x154D JUMPI PUSH2 0x154D PUSH2 0x35DC JUMP JUMPDEST PUSH1 0x1 DUP2 DUP2 SHR SWAP1 DUP3 AND DUP1 PUSH2 0x3619 JUMPI PUSH1 0x7F DUP3 AND SWAP2 POP JUMPDEST PUSH1 0x20 DUP3 LT DUP2 SUB PUSH2 0x3639 JUMPI PUSH4 0x4E487B71 PUSH1 0xE0 SHL PUSH1 0x0 MSTORE PUSH1 0x22 PUSH1 0x4 MSTORE PUSH1 0x24 PUSH1 0x0 REVERT JUMPDEST POP SWAP2 SWAP1 POP JUMP JUMPDEST PUSH1 0x0 PUSH1 0x20 DUP3 DUP5 SUB SLT ISZERO PUSH2 0x3651 JUMPI PUSH1 0x0 DUP1 REVERT JUMPDEST POP MLOAD SWAP2 SWAP1 POP JUMP JUMPDEST PUSH4 0x4E487B71 PUSH1 0xE0 SHL PUSH1 0x0 MSTORE PUSH1 0x32 PUSH1 0x4 MSTORE PUSH1 0x24 PUSH1 0x0 REVERT JUMPDEST DUP1 DUP3 MUL DUP2 ISZERO DUP3 DUP3 DIV DUP5 EQ OR PUSH2 0x154D JUMPI PUSH2 0x154D PUSH2 0x35DC JUMP JUMPDEST PUSH1 0x0 DUP3 PUSH2 0x36A2 JUMPI PUSH4 0x4E487B71 PUSH1 0xE0 SHL PUSH1 0x0 MSTORE PUSH1 0x12 PUSH1 0x4 MSTORE PUSH1 0x24 PUSH1 0x0 REVERT JUMPDEST POP DIV SWAP1 JUMP JUMPDEST DUP2 DUP2 SUB DUP2 DUP2 GT ISZERO PUSH2 0x154D JUMPI PUSH2 0x154D PUSH2 0x35DC JUMP JUMPDEST DUP2 DUP4 DUP3 CALLDATACOPY PUSH1 0x0 SWAP2 ADD SWAP1 DUP2 MSTORE SWAP2 SWAP1 POP JUMP JUMPDEST PUSH4 0x4E487B71 PUSH1 0xE0 SHL PUSH1 0x0 MSTORE PUSH1 0x41 PUSH1 0x4 MSTORE PUSH1 0x24 PUSH1 0x0 REVERT JUMPDEST PUSH1 0x1F DUP3 GT ISZERO PUSH2 0x2632 JUMPI DUP1 PUSH1 0x0 MSTORE PUSH1 0x20 PUSH1 0x0 KECCAK256 PUSH1 0x1F DUP5 ADD PUSH1 0x5 SHR DUP2 ADD PUSH1 0x20 DUP6 LT ISZERO PUSH2 0x3707 JUMPI POP DUP1 JUMPDEST PUSH1 0x1F DUP5 ADD PUSH1 0x5 SHR DUP3 ADD SWAP2 POP JUMPDEST DUP2 DUP2 LT ISZERO PUSH2 0x3727 JUMPI PUSH1 0x0 DUP2 SSTORE PUSH1 0x1 ADD PUSH2 0x3713 JUMP JUMPDEST POP POP POP POP POP JUMP JUMPDEST DUP2 MLOAD PUSH8 0xFFFFFFFFFFFFFFFF DUP2 GT ISZERO PUSH2 0x3748 JUMPI PUSH2 0x3748 PUSH2 0x36CA JUMP JUMPDEST PUSH2 0x375C DUP2 PUSH2 0x3756 DUP5 SLOAD PUSH2 0x3605 JUMP JUMPDEST DUP5 PUSH2 0x36E0 JUMP JUMPDEST PUSH1 0x20 PUSH1 0x1F DUP3 GT PUSH1 0x1 DUP2 EQ PUSH2 0x3790 JUMPI PUSH1 0x0 DUP4 ISZERO PUSH2 0x3778 JUMPI POP DUP5 DUP3 ADD MLOAD JUMPDEST PUSH1 0x0 NOT PUSH1 0x3 DUP6 SWAP1 SHL SHR NOT AND PUSH1 0x1 DUP5 SWAP1 SHL OR DUP5 SSTORE PUSH2 0x3727 JUMP JUMPDEST PUSH1 0x0 DUP5 DUP2 MSTORE PUSH1 0x20 DUP2 KECCAK256 PUSH1 0x1F NOT DUP6 AND SWAP2 JUMPDEST DUP3 DUP2 LT ISZERO PUSH2 0x37C0 JUMPI DUP8 DUP6 ADD MLOAD DUP3 SSTORE PUSH1 0x20 SWAP5 DUP6 ADD SWAP5 PUSH1 0x1 SWAP1 SWAP3 ADD SWAP2 ADD PUSH2 0x37A0 JUMP JUMPDEST POP DUP5 DUP3 LT ISZERO PUSH2 0x37DE JUMPI DUP7 DUP5 ADD MLOAD PUSH1 0x0 NOT PUSH1 0x3 DUP8 SWAP1 SHL PUSH1 0xF8 AND SHR NOT AND DUP2 SSTORE JUMPDEST POP POP POP POP PUSH1 0x1 SWAP1 DUP2 SHL ADD SWAP1 SSTORE POP JUMP JUMPDEST DUP6 DUP2 MSTORE DUP5 ISZERO ISZERO PUSH1 0x20 DUP3 ADD MSTORE DUP4 PUSH1 0x40 DUP3 ADD MSTORE PUSH1 0x80 PUSH1 0x60 DUP3 ADD MSTORE DUP2 PUSH1 0x80 DUP3 ADD MSTORE DUP2 DUP4 PUSH1 0xA0 DUP4 ADD CALLDATACOPY PUSH1 0x0 DUP2 DUP4 ADD PUSH1 0xA0 SWAP1 DUP2 ADD SWAP2 SWAP1 SWAP2 MSTORE PUSH1 0x1F SWAP1 SWAP3 ADD PUSH1 0x1F NOT AND ADD ADD SWAP5 SWAP4 POP POP POP POP JUMP JUMPDEST PUSH1 0x0 PUSH1 0x20 DUP3 DUP5 SUB SLT ISZERO PUSH2 0x3845 JUMPI PUSH1 0x0 DUP1 REVERT JUMPDEST DUP2 MLOAD PUSH1 0xFF DUP2 AND DUP2 EQ PUSH2 0x11E6 JUMPI PUSH1 0x0 DUP1 REVERT JUMPDEST PUSH1 0x1 DUP2 JUMPDEST PUSH1 0x1 DUP5 GT ISZERO PUSH2 0x3891 JUMPI DUP1 DUP6 DIV DUP2 GT ISZERO PUSH2 0x3875 JUMPI PUSH2 0x3875 PUSH2 0x35DC JUMP JUMPDEST PUSH1 0x1 DUP5 AND ISZERO PUSH2 0x3883 JUMPI SWAP1 DUP2 MUL SWAP1 JUMPDEST PUSH1 0x1 SWAP4 SWAP1 SWAP4 SHR SWAP3 DUP1 MUL PUSH2 0x385A JUMP JUMPDEST SWAP4 POP SWAP4 SWAP2 POP POP JUMP JUMPDEST PUSH1 0x0 DUP3 PUSH2 0x38A8 JUMPI POP PUSH1 0x1 PUSH2 0x154D JUMP JUMPDEST DUP2 PUSH2 0x38B5 JUMPI POP PUSH1 0x0 PUSH2 0x154D JUMP JUMPDEST DUP2 PUSH1 0x1 DUP2 EQ PUSH2 0x38CB JUMPI PUSH1 0x2 DUP2 EQ PUSH2 0x38D5 JUMPI PUSH2 0x38F1 JUMP JUMPDEST PUSH1 0x1 SWAP2 POP POP PUSH2 0x154D JUMP JUMPDEST PUSH1 0xFF DUP5 GT ISZERO PUSH2 0x38E6 JUMPI PUSH2 0x38E6 PUSH2 0x35DC JUMP JUMPDEST POP POP PUSH1 0x1 DUP3 SHL PUSH2 0x154D JUMP JUMPDEST POP PUSH1 0x20 DUP4 LT PUSH2 0x133 DUP4 LT AND PUSH1 0x4E DUP5 LT PUSH1 0xB DUP5 LT AND OR ISZERO PUSH2 0x3914 JUMPI POP DUP2 DUP2 EXP PUSH2 0x154D JUMP JUMPDEST PUSH2 0x3921 PUSH1 0x0 NOT DUP5 DUP5 PUSH2 0x3856 JUMP JUMPDEST DUP1 PUSH1 0x0 NOT DIV DUP3 GT ISZERO PUSH2 0x3935 JUMPI PUSH2 0x3935 PUSH2 0x35DC JUMP JUMPDEST MUL SWAP4 SWAP3 POP POP POP JUMP JUMPDEST PUSH1 0x0 PUSH2 0x11E6 PUSH1 0xFF DUP5 AND DUP4 PUSH2 0x3899 JUMP JUMPDEST DUP4 DUP2 MSTORE DUP3 PUSH1 0x20 DUP3 ADD MSTORE PUSH1 0x60 PUSH1 0x40 DUP3 ADD MSTORE PUSH1 0x0 PUSH2 0x396B PUSH1 0x60 DUP4 ADD DUP5 PUSH2 0x3339 JUMP JUMPDEST SWAP6 SWAP5 POP POP POP POP POP JUMP INVALID SWAP12 PUSH24 0x9B17422D0DF92223018B32B4D1FA46E071723D6817E2486D STOP EXTCODESIZE EOFCREATE 0xC5 PUSH0 STOP LOG2 PUSH5 0x6970667358 0x22 SLT KECCAK256 PUSH13 0xF9F13628A35E260BD9AA0D10CC 0x26 RETF 0xB8 PUSH23 0x4200FCAFD99D0350B1305719F63964736F6C634300081E STOP CALLER "},"methodIdentifiers":{"BASE_UNLOCK_PRICE()":"78f88d67","BPS_DENOMINATOR()":"e1a45218","CREDIBILITY_UNLOCK_THRESHOLD()":"c69ab501","GHOSTING_RECEIPT_FEE()":"af414d41","MAX_GHOSTED_PER_SUBMISSION()":"924d3f56","MAX_UNLOCK_PRICE()":"2ce13a03","MAX_UNLOCK_PRICE_QUOTE_AGE()":"d0f6581b","TREASURY_SPLIT_BPS()":"a60051ae","TRUTH_ASSERTION_STAKE()":"d73848cc","TRUTH_WIN_REWARD()":"8c1a60b2","UNLOCK_PRICE_STEP()":"e332305d","acceptOwnership()":"79ba5097","assertTruth(bytes32,bool)":"8748c6b9","canUserAccessStory(bytes32,address)":"c9ab7130","directEvidenceCount()":"6a65eaa6","evidenceCounter()":"b87c1114","evidenceSubmitter(bytes32)":"6a01a775","getEvidence(bytes32)":"4a7221a0","getProtocolStats()":"771aceef","getStoryPayoutInfo(bytes32)":"056962c3","getStoryUnlockInfo(bytes32)":"19b881e4","getSubmittedProofHashes(uint256,uint256)":"a4fa95bf","getTruthAssertion(bytes32,uint256)":"65137dd0","getTruthAssertionCount(bytes32)":"d365d094","getUserCredibility(address)":"5bdf5621","ghostedToken()":"6bccc753","hasUnlockedStory(bytes32,address)":"67310b5a","hasUserUnlockedStory(bytes32,address)":"53093093","lockedStories(bytes32)":"9e33bb86","makeStoryPublic(bytes32)":"2cad2f65","oracle()":"7dc0d1d0","owner()":"8da5cb5b","paused()":"5c975abb","pendingOwner()":"e30c3978","previewUnlockPriceInEth(bytes32)":"21026950","pricingOracle()":"139ab0e7","protocolCredibilityScore(address)":"c89e74fb","proxyEvidenceCount()":"b3dfbcf8","resolveTruth(bytes32,uint256,bool)":"cb3399e8","setOracle(address)":"7adbf973","setPaused(bool)":"16c38b3c","setPricingOracle(address)":"bf813d82","setTreasury(address)":"f0f44260","setUnlockPriceQuote(uint256)":"13b781ab","storyEthEarnings(bytes32)":"1433219c","submitEvidence(bytes32,uint256,string,string,string,bool)":"98933e3a","submittedProofHashesCount()":"08104069","totalGhostedBurned()":"f99156cb","totalGhostedRewarded()":"38902fdb","totalProtocolRevenue()":"8c37f11d","totalProtocolWithdrawn()":"e319c8d1","totalRevenueCollected()":"dbd8c057","totalTreasuryDistributed()":"938a8bca","totalTruthWins(address)":"a6d2fcd9","transferOwnership(address)":"f2fde38b","treasury()":"61d027b3","truthAssertionCount()":"b9fa45da","truthWinStreak(address)":"0efd66e2","unlockPriceQuoteUpdatedAt()":"b690d8a1","unlockPriceQuoteWeiPerToken()":"29ff0d93","unlockStoryByBurn(bytes32)":"f4dceacd","unlockStoryByCredibility(bytes32)":"68f5c663","unlockStoryWithETH(bytes32)":"d4ade875","withdrawProtocolETH(uint256)":"1a868c40","withdrawProtocolTokens(uint256)":"2666185a"}}}}}