{"contracts/GhostProtocol.sol":{"GhostProtocol":{"abi":[{"inputs":[{"internalType":"address","name":"ghostedTokenAddress","type":"address"},{"internalType":"address","name":"treasuryAddress","type":"address"},{"internalType":"address","name":"oracleAddress","type":"address"}],"stateMutability":"nonpayable","type":"constructor"},{"inputs":[],"name":"AlreadyResolved","type":"error"},{"inputs":[],"name":"AlreadyUnlocked","type":"error"},{"inputs":[],"name":"ContractPaused","type":"error"},{"inputs":[],"name":"EvidenceAlreadyExists","type":"error"},{"inputs":[{"internalType":"uint256","name":"currentCredibility","type":"uint256"},{"internalType":"uint256","name":"requiredCredibility","type":"uint256"}],"name":"InsufficientCredibility","type":"error"},{"inputs":[{"internalType":"uint256","name":"requiredAmount","type":"uint256"},{"internalType":"uint256","name":"receivedAmount","type":"uint256"}],"name":"InsufficientEth","type":"error"},{"inputs":[],"name":"InvalidAddress","type":"error"},{"inputs":[],"name":"InvalidAssertionIndex","type":"error"},{"inputs":[],"name":"InvalidProofHash","type":"error"},{"inputs":[],"name":"InvalidSeverity","type":"error"},{"inputs":[],"name":"NotOracle","type":"error"},{"inputs":[],"name":"NotOwner","type":"error"},{"inputs":[],"name":"NotPendingOwner","type":"error"},{"inputs":[],"name":"OnlySubmitter","type":"error"},{"inputs":[],"name":"ReentrancyGuardActive","type":"error"},{"inputs":[{"internalType":"address","name":"token","type":"address"}],"name":"SafeERC20FailedOperation","type":"error"},{"inputs":[],"name":"StoryAlreadyPublic","type":"error"},{"inputs":[],"name":"StoryDoesNotExist","type":"error"},{"inputs":[],"name":"StoryIsPublic","type":"error"},{"inputs":[],"name":"SubmitterNotRecorded","type":"error"},{"inputs":[],"name":"TokenTransferFailed","type":"error"},{"anonymous":false,"inputs":[{"indexed":true,"internalType":"bytes32","name":"proofHash","type":"bytes32"},{"indexed":true,"internalType":"address","name":"submitter","type":"address"},{"indexed":false,"internalType":"uint256","name":"severity","type":"uint256"},{"indexed":false,"internalType":"bool","name":"isProxy","type":"bool"},{"indexed":false,"internalType":"uint256","name":"ghostedRewarded","type":"uint256"},{"indexed":false,"internalType":"string","name":"dramaType","type":"string"}],"name":"EvidenceSubmitted","type":"event"},{"anonymous":false,"inputs":[{"indexed":true,"internalType":"address","name":"submitter","type":"address"},{"indexed":true,"internalType":"bytes32","name":"proofHash","type":"bytes32"},{"indexed":false,"internalType":"uint256","name":"feePaid","type":"uint256"},{"indexed":false,"internalType":"uint256","name":"treasuryCut","type":"uint256"},{"indexed":false,"internalType":"uint256","name":"protocolCut","type":"uint256"}],"name":"GhostingReceiptSubmitted","type":"event"},{"anonymous":false,"inputs":[{"indexed":true,"internalType":"address","name":"previousOracle","type":"address"},{"indexed":true,"internalType":"address","name":"newOracle","type":"address"}],"name":"OracleUpdated","type":"event"},{"anonymous":false,"inputs":[{"indexed":true,"internalType":"address","name":"previousOwner","type":"address"},{"indexed":true,"internalType":"address","name":"pendingOwner","type":"address"}],"name":"OwnershipTransferStarted","type":"event"},{"anonymous":false,"inputs":[{"indexed":true,"internalType":"address","name":"previousOwner","type":"address"},{"indexed":true,"internalType":"address","name":"newOwner","type":"address"}],"name":"OwnershipTransferred","type":"event"},{"anonymous":false,"inputs":[{"indexed":false,"internalType":"bool","name":"paused","type":"bool"}],"name":"PauseStateUpdated","type":"event"},{"anonymous":false,"inputs":[{"indexed":true,"internalType":"address","name":"sender","type":"address"},{"indexed":false,"internalType":"uint256","name":"amount","type":"uint256"}],"name":"ProtocolFunded","type":"event"},{"anonymous":false,"inputs":[{"indexed":true,"internalType":"bytes32","name":"proofHash","type":"bytes32"},{"indexed":true,"internalType":"address","name":"submitter","type":"address"}],"name":"StoryMadePublic","type":"event"},{"anonymous":false,"inputs":[{"indexed":true,"internalType":"bytes32","name":"proofHash","type":"bytes32"},{"indexed":true,"internalType":"address","name":"unlocker","type":"address"},{"indexed":false,"internalType":"uint256","name":"cost","type":"uint256"},{"indexed":false,"internalType":"string","name":"method","type":"string"}],"name":"StoryUnlocked","type":"event"},{"anonymous":false,"inputs":[{"indexed":true,"internalType":"address","name":"previousTreasury","type":"address"},{"indexed":true,"internalType":"address","name":"newTreasury","type":"address"}],"name":"TreasuryUpdated","type":"event"},{"anonymous":false,"inputs":[{"indexed":true,"internalType":"bytes32","name":"proofHash","type":"bytes32"},{"indexed":true,"internalType":"address","name":"assertor","type":"address"},{"indexed":false,"internalType":"bool","name":"believesReal","type":"bool"},{"indexed":false,"internalType":"uint256","name":"stake","type":"uint256"}],"name":"TruthAsserted","type":"event"},{"anonymous":false,"inputs":[{"indexed":true,"internalType":"bytes32","name":"proofHash","type":"bytes32"},{"indexed":true,"internalType":"address","name":"assertor","type":"address"},{"indexed":false,"internalType":"bool","name":"wasCorrect","type":"bool"},{"indexed":false,"internalType":"uint256","name":"reward","type":"uint256"}],"name":"TruthResolved","type":"event"},{"anonymous":false,"inputs":[{"indexed":true,"internalType":"bytes32","name":"proofHash","type":"bytes32"},{"indexed":false,"internalType":"uint256","name":"newPrice","type":"uint256"}],"name":"UnlockPriceUpdated","type":"event"},{"inputs":[],"name":"BASE_UNLOCK_PRICE","outputs":[{"internalType":"uint256","name":"","type":"uint256"}],"stateMutability":"view","type":"function"},{"inputs":[],"name":"BPS_DENOMINATOR","outputs":[{"internalType":"uint256","name":"","type":"uint256"}],"stateMutability":"view","type":"function"},{"inputs":[],"name":"CREDIBILITY_UNLOCK_THRESHOLD","outputs":[{"internalType":"uint256","name":"","type":"uint256"}],"stateMutability":"view","type":"function"},{"inputs":[],"name":"GHOSTING_RECEIPT_FEE","outputs":[{"internalType":"uint256","name":"","type":"uint256"}],"stateMutability":"view","type":"function"},{"inputs":[],"name":"MAX_GHOSTED_PER_SUBMISSION","outputs":[{"internalType":"uint256","name":"","type":"uint256"}],"stateMutability":"view","type":"function"},{"inputs":[],"name":"TREASURY_SPLIT_BPS","outputs":[{"internalType":"uint256","name":"","type":"uint256"}],"stateMutability":"view","type":"function"},{"inputs":[],"name":"TRUTH_ASSERTION_STAKE","outputs":[{"internalType":"uint256","name":"","type":"uint256"}],"stateMutability":"view","type":"function"},{"inputs":[],"name":"TRUTH_WIN_REWARD","outputs":[{"internalType":"uint256","name":"","type":"uint256"}],"stateMutability":"view","type":"function"},{"inputs":[],"name":"acceptOwnership","outputs":[],"stateMutability":"nonpayable","type":"function"},{"inputs":[{"internalType":"bytes32","name":"proofHash","type":"bytes32"},{"internalType":"bool","name":"believesReal","type":"bool"}],"name":"assertTruth","outputs":[],"stateMutability":"nonpayable","type":"function"},{"inputs":[{"internalType":"bytes32","name":"proofHash","type":"bytes32"},{"internalType":"address","name":"user","type":"address"}],"name":"canUserAccessStory","outputs":[{"internalType":"bool","name":"","type":"bool"}],"stateMutability":"view","type":"function"},{"inputs":[],"name":"directEvidenceCount","outputs":[{"internalType":"uint256","name":"","type":"uint256"}],"stateMutability":"view","type":"function"},{"inputs":[],"name":"evidenceCounter","outputs":[{"internalType":"uint256","name":"","type":"uint256"}],"stateMutability":"view","type":"function"},{"inputs":[{"internalType":"bytes32","name":"","type":"bytes32"}],"name":"evidenceSubmitter","outputs":[{"internalType":"address","name":"","type":"address"}],"stateMutability":"view","type":"function"},{"inputs":[{"internalType":"bytes32","name":"proofHash","type":"bytes32"}],"name":"getEvidence","outputs":[{"internalType":"uint256","name":"timestamp","type":"uint256"},{"internalType":"uint256","name":"weight","type":"uint256"},{"internalType":"bool","name":"isProxy","type":"bool"},{"internalType":"bytes32","name":"descriptionHash","type":"bytes32"},{"internalType":"string","name":"dramaType","type":"string"},{"internalType":"address","name":"submitter","type":"address"},{"internalType":"uint256","name":"ghostedRewarded","type":"uint256"}],"stateMutability":"view","type":"function"},{"inputs":[],"name":"getProtocolStats","outputs":[{"internalType":"uint256","name":"totalEvidence","type":"uint256"},{"internalType":"uint256","name":"directEvidence","type":"uint256"},{"internalType":"uint256","name":"proxyEvidence","type":"uint256"},{"internalType":"uint256","name":"totalTruthAssertions","type":"uint256"},{"internalType":"uint256","name":"rewardedGhosted","type":"uint256"},{"internalType":"uint256","name":"burnedGhosted","type":"uint256"},{"internalType":"uint256","name":"revenueCollected","type":"uint256"},{"internalType":"uint256","name":"treasuryDistributed","type":"uint256"},{"internalType":"uint256","name":"protocolRevenue","type":"uint256"},{"internalType":"bool","name":"gaslightUnlocked","type":"bool"},{"internalType":"bool","name":"isPaused","type":"bool"}],"stateMutability":"view","type":"function"},{"inputs":[{"internalType":"bytes32","name":"proofHash","type":"bytes32"}],"name":"getStoryPayoutInfo","outputs":[{"internalType":"uint256","name":"tokenPayouts","type":"uint256"},{"internalType":"uint256","name":"ethPayouts","type":"uint256"},{"internalType":"uint256","name":"currentEthUnlockPrice","type":"uint256"}],"stateMutability":"view","type":"function"},{"inputs":[{"internalType":"bytes32","name":"proofHash","type":"bytes32"}],"name":"getStoryUnlockInfo","outputs":[{"internalType":"uint256","name":"unlockPriceTokens","type":"uint256"},{"internalType":"uint256","name":"timesUnlocked","type":"uint256"},{"internalType":"bool","name":"isPublic","type":"bool"},{"internalType":"uint256","name":"totalEarned","type":"uint256"},{"internalType":"address","name":"submitter","type":"address"},{"internalType":"uint256","name":"severity","type":"uint256"}],"stateMutability":"view","type":"function"},{"inputs":[{"internalType":"uint256","name":"cursor","type":"uint256"},{"internalType":"uint256","name":"limit","type":"uint256"}],"name":"getSubmittedProofHashes","outputs":[{"internalType":"bytes32[]","name":"proofHashes","type":"bytes32[]"}],"stateMutability":"view","type":"function"},{"inputs":[{"internalType":"bytes32","name":"proofHash","type":"bytes32"},{"internalType":"uint256","name":"assertionIndex","type":"uint256"}],"name":"getTruthAssertion","outputs":[{"internalType":"bytes32","name":"assertionProofHash","type":"bytes32"},{"internalType":"address","name":"assertor","type":"address"},{"internalType":"bool","name":"believesReal","type":"bool"},{"internalType":"uint256","name":"stakeAmount","type":"uint256"},{"internalType":"uint256","name":"timestamp","type":"uint256"},{"internalType":"bool","name":"resolved","type":"bool"},{"internalType":"bool","name":"wasCorrect","type":"bool"}],"stateMutability":"view","type":"function"},{"inputs":[{"internalType":"bytes32","name":"proofHash","type":"bytes32"}],"name":"getTruthAssertionCount","outputs":[{"internalType":"uint256","name":"","type":"uint256"}],"stateMutability":"view","type":"function"},{"inputs":[],"name":"ghostedToken","outputs":[{"internalType":"contract IGhostedToken","name":"","type":"address"}],"stateMutability":"view","type":"function"},{"inputs":[{"internalType":"bytes32","name":"","type":"bytes32"},{"internalType":"address","name":"","type":"address"}],"name":"hasUnlockedStory","outputs":[{"internalType":"bool","name":"","type":"bool"}],"stateMutability":"view","type":"function"},{"inputs":[{"internalType":"bytes32","name":"proofHash","type":"bytes32"},{"internalType":"address","name":"user","type":"address"}],"name":"hasUserUnlockedStory","outputs":[{"internalType":"bool","name":"","type":"bool"}],"stateMutability":"view","type":"function"},{"inputs":[{"internalType":"bytes32","name":"","type":"bytes32"}],"name":"lockedStories","outputs":[{"internalType":"bytes32","name":"proofHash","type":"bytes32"},{"internalType":"address","name":"submitter","type":"address"},{"internalType":"uint256","name":"severity","type":"uint256"},{"internalType":"uint256","name":"unlockPrice","type":"uint256"},{"internalType":"uint256","name":"timesUnlocked","type":"uint256"},{"internalType":"bool","name":"isPublic","type":"bool"},{"internalType":"uint256","name":"totalEarnedFromUnlocks","type":"uint256"}],"stateMutability":"view","type":"function"},{"inputs":[{"internalType":"bytes32","name":"proofHash","type":"bytes32"}],"name":"makeStoryPublic","outputs":[],"stateMutability":"nonpayable","type":"function"},{"inputs":[],"name":"oracle","outputs":[{"internalType":"address","name":"","type":"address"}],"stateMutability":"view","type":"function"},{"inputs":[],"name":"owner","outputs":[{"internalType":"address","name":"","type":"address"}],"stateMutability":"view","type":"function"},{"inputs":[],"name":"paused","outputs":[{"internalType":"bool","name":"","type":"bool"}],"stateMutability":"view","type":"function"},{"inputs":[],"name":"pendingOwner","outputs":[{"internalType":"address","name":"","type":"address"}],"stateMutability":"view","type":"function"},{"inputs":[{"internalType":"bytes32","name":"proofHash","type":"bytes32"}],"name":"previewUnlockPriceInEth","outputs":[{"internalType":"uint256","name":"","type":"uint256"}],"stateMutability":"view","type":"function"},{"inputs":[],"name":"proxyEvidenceCount","outputs":[{"internalType":"uint256","name":"","type":"uint256"}],"stateMutability":"view","type":"function"},{"inputs":[{"internalType":"bytes32","name":"proofHash","type":"bytes32"},{"internalType":"uint256","name":"assertionIndex","type":"uint256"},{"internalType":"bool","name":"isActuallyReal","type":"bool"}],"name":"resolveTruth","outputs":[],"stateMutability":"nonpayable","type":"function"},{"inputs":[{"internalType":"address","name":"newOracle","type":"address"}],"name":"setOracle","outputs":[],"stateMutability":"nonpayable","type":"function"},{"inputs":[{"internalType":"bool","name":"nextPaused","type":"bool"}],"name":"setPaused","outputs":[],"stateMutability":"nonpayable","type":"function"},{"inputs":[{"internalType":"address","name":"newTreasury","type":"address"}],"name":"setTreasury","outputs":[],"stateMutability":"nonpayable","type":"function"},{"inputs":[{"internalType":"bytes32","name":"","type":"bytes32"}],"name":"storyEthEarnings","outputs":[{"internalType":"uint256","name":"","type":"uint256"}],"stateMutability":"view","type":"function"},{"inputs":[{"internalType":"bytes32","name":"proofHash","type":"bytes32"},{"internalType":"uint256","name":"severity","type":"uint256"},{"internalType":"string","name":"description","type":"string"},{"internalType":"string","name":"dramaType","type":"string"},{"internalType":"bool","name":"isProxy","type":"bool"}],"name":"submitEvidence","outputs":[],"stateMutability":"payable","type":"function"},{"inputs":[],"name":"submittedProofHashesCount","outputs":[{"internalType":"uint256","name":"","type":"uint256"}],"stateMutability":"view","type":"function"},{"inputs":[],"name":"totalGhostedBurned","outputs":[{"internalType":"uint256","name":"","type":"uint256"}],"stateMutability":"view","type":"function"},{"inputs":[],"name":"totalGhostedRewarded","outputs":[{"internalType":"uint256","name":"","type":"uint256"}],"stateMutability":"view","type":"function"},{"inputs":[],"name":"totalProtocolRevenue","outputs":[{"internalType":"uint256","name":"","type":"uint256"}],"stateMutability":"view","type":"function"},{"inputs":[],"name":"totalRevenueCollected","outputs":[{"internalType":"uint256","name":"","type":"uint256"}],"stateMutability":"view","type":"function"},{"inputs":[],"name":"totalTreasuryDistributed","outputs":[{"internalType":"uint256","name":"","type":"uint256"}],"stateMutability":"view","type":"function"},{"inputs":[{"internalType":"address","name":"","type":"address"}],"name":"totalTruthWins","outputs":[{"internalType":"uint256","name":"","type":"uint256"}],"stateMutability":"view","type":"function"},{"inputs":[{"internalType":"address","name":"newOwner","type":"address"}],"name":"transferOwnership","outputs":[],"stateMutability":"nonpayable","type":"function"},{"inputs":[],"name":"treasury","outputs":[{"internalType":"address","name":"","type":"address"}],"stateMutability":"view","type":"function"},{"inputs":[],"name":"truthAssertionCount","outputs":[{"internalType":"uint256","name":"","type":"uint256"}],"stateMutability":"view","type":"function"},{"inputs":[{"internalType":"address","name":"","type":"address"}],"name":"truthWinStreak","outputs":[{"internalType":"uint256","name":"","type":"uint256"}],"stateMutability":"view","type":"function"},{"inputs":[{"internalType":"bytes32","name":"proofHash","type":"bytes32"}],"name":"unlockStoryByBurn","outputs":[],"stateMutability":"nonpayable","type":"function"},{"inputs":[{"internalType":"bytes32","name":"proofHash","type":"bytes32"}],"name":"unlockStoryByCredibility","outputs":[],"stateMutability":"nonpayable","type":"function"},{"inputs":[{"internalType":"bytes32","name":"proofHash","type":"bytes32"}],"name":"unlockStoryWithETH","outputs":[],"stateMutability":"payable","type":"function"},{"stateMutability":"payable","type":"receive"}],"evm":{"bytecode":{"linkReferences":{},"object":"60a0604052600160165534801561001557600080fd5b506040516133e83803806133e8833981016040819052610034916100e3565b6001600160a01b038316158061005157506001600160a01b038216155b8061006357506001600160a01b038116155b156100815760405163e6c4247b60e01b815260040160405180910390fd5b6001600160a01b03928316608052600080546001600160a01b03199081163317909155600380549385169382169390931790925560028054919093169116179055610126565b80516001600160a01b03811681146100de57600080fd5b919050565b6000806000606084860312156100f857600080fd5b610101846100c7565b925061010f602085016100c7565b915061011d604085016100c7565b90509250925092565b608051613268610180600039600081816106bd01528181611665015281816117af01528181611eff01528181611f7c01528181612076015281816126a60152818161286a015281816129ce0152612a7f01526132686000f3fe6080604052600436106103035760003560e01c80638c1a60b211610190578063c69ab501116100dc578063dbd8c05711610095578063f0f442601161006f578063f0f4426014610b06578063f2fde38b14610b26578063f4dceacd14610b46578063f99156cb14610b6657600080fd5b8063dbd8c05714610aba578063e1a4521814610ad0578063e30c397814610ae657600080fd5b8063c69ab50114610a00578063c9ab713014610a1d578063cb3399e814610a3d578063d365d09414610a5d578063d4ade87514610a8a578063d73848cc14610a9d57600080fd5b8063a4fa95bf11610149578063af414d4111610123578063af414d41146109a3578063b3dfbcf8146109be578063b87c1114146109d4578063b9fa45da146109ea57600080fd5b8063a4fa95bf14610933578063a60051ae14610960578063a6d2fcd91461097657600080fd5b80638c1a60b2146108085780638c37f11d146108255780638da5cb5b1461083b578063924d3f561461085b578063938a8bca146108795780639e33bb861461088f57600080fd5b806361d027b31161024f5780636bccc7531161020857806379ba5097116101e257806379ba5097146107935780637adbf973146107a85780637dc0d1d0146107c85780638748c6b9146107e857600080fd5b80636bccc753146106ab578063771aceef146106df57806378f88d671461077657600080fd5b806361d027b31461056757806365137dd01461059f57806367310b5a1461060457806368f5c6631461063f5780636a01a7751461065f5780636a65eaa61461069557600080fd5b806321026950116102bc5780634a7221a0116102965780634a7221a0146104d05780635191e4671461050357806353093093146105165780635c975abb1461054657600080fd5b8063210269501461047a5780632cad2f651461049a57806338902fdb146104ba57600080fd5b8063056962c31461034457806308104069146103845780630efd66e2146103a35780631433219c146103d057806316c38b3c146103fd57806319b881e41461041f57600080fd5b3661033f5760405134815233907f719feb717c187001672aa98b85a51988a7fab410c32ed1d724838c8377bf90af9060200160405180910390a2005b600080fd5b34801561035057600080fd5b5061036461035f366004612bf0565b610b7c565b604080519384526020840192909252908201526060015b60405180910390f35b34801561039057600080fd5b50600f545b60405190815260200161037b565b3480156103af57600080fd5b506103956103be366004612c25565b60156020526000908152604090205481565b3480156103dc57600080fd5b506103956103eb366004612bf0565b60136020526000908152604090205481565b34801561040957600080fd5b5061041d610418366004612c50565b610c0e565b005b34801561042b57600080fd5b5061043f61043a366004612bf0565b610c91565b6040805196875260208701959095529215159385019390935260608401526001600160a01b03909116608083015260a082015260c00161037b565b34801561048657600080fd5b50610395610495366004612bf0565b610d90565b3480156104a657600080fd5b5061041d6104b5366004612bf0565b610e09565b3480156104c657600080fd5b5061039560085481565b3480156104dc57600080fd5b506104f06104eb366004612bf0565b610f03565b60405161037b9796959493929190612c6b565b61041d610511366004612d40565b610ffe565b34801561052257600080fd5b50610536610531366004612dd9565b6114a0565b604051901515815260200161037b565b34801561055257600080fd5b5060035461053690600160a01b900460ff1681565b34801561057357600080fd5b50600354610587906001600160a01b031681565b6040516001600160a01b03909116815260200161037b565b3480156105ab57600080fd5b506105bf6105ba366004612e05565b6114cd565b604080519788526001600160a01b039096166020880152931515948601949094526060850191909152608084015290151560a0830152151560c082015260e00161037b565b34801561061057600080fd5b5061053661061f366004612dd9565b601260209081526000928352604080842090915290825290205460ff1681565b34801561064b57600080fd5b5061041d61065a366004612bf0565b611585565b34801561066b57600080fd5b5061058761067a366004612bf0565b6011602052600090815260409020546001600160a01b031681565b3480156106a157600080fd5b5061039560055481565b3480156106b757600080fd5b506105877f000000000000000000000000000000000000000000000000000000000000000081565b3480156106eb57600080fd5b50600454600554600654600754600854600954600a8054600b54600c546003549293919290918a101590600160a01b900460ff16604080519b8c5260208c019a909a52988a01979097526060890195909552608088019390935260a087019190915260c086015260e0850152610100840152151561012083015215156101408201526101600161037b565b34801561078257600080fd5b50610395681b1ae4d6e2ef50000081565b34801561079f57600080fd5b5061041d6118ac565b3480156107b457600080fd5b5061041d6107c3366004612c25565b61192e565b3480156107d457600080fd5b50600254610587906001600160a01b031681565b3480156107f457600080fd5b5061041d610803366004612e27565b6119d2565b34801561081457600080fd5b50610395680ad78ebc5ac620000081565b34801561083157600080fd5b50610395600c5481565b34801561084757600080fd5b50600054610587906001600160a01b031681565b34801561086757600080fd5b5061039569010f0cf064dd5920000081565b34801561088557600080fd5b50610395600b5481565b34801561089b57600080fd5b506108f46108aa366004612bf0565b601060205260009081526040902080546001820154600283015460038401546004850154600586015460069096015494956001600160a01b039094169492939192909160ff169087565b604080519788526001600160a01b0390961660208801529486019390935260608501919091526080840152151560a083015260c082015260e00161037b565b34801561093f57600080fd5b5061095361094e366004612e05565b611b86565b60405161037b9190612e4a565b34801561096c57600080fd5b50610395610bb881565b34801561098257600080fd5b50610395610991366004612c25565b60146020526000908152604090205481565b3480156109af57600080fd5b506103956621c0331d5dc00081565b3480156109ca57600080fd5b5061039560065481565b3480156109e057600080fd5b5061039560045481565b3480156109f657600080fd5b5061039560075481565b348015610a0c57600080fd5b50610395683635c9adc5dea0000081565b348015610a2957600080fd5b50610536610a38366004612dd9565b611c7b565b348015610a4957600080fd5b5061041d610a58366004612e8d565b611cf0565b348015610a6957600080fd5b50610395610a78366004612bf0565b6000908152600e602052604090205490565b61041d610a98366004612bf0565b61218f565b348015610aa957600080fd5b5061039568056bc75e2d6310000081565b348015610ac657600080fd5b50610395600a5481565b348015610adc57600080fd5b5061039561271081565b348015610af257600080fd5b50600154610587906001600160a01b031681565b348015610b1257600080fd5b5061041d610b21366004612c25565b612426565b348015610b3257600080fd5b5061041d610b41366004612c25565b6124ca565b348015610b5257600080fd5b5061041d610b61366004612bf0565b61256d565b348015610b7257600080fd5b5061039560095481565b6000818152600d6020526040812054819081908103610bae576040516303d4572d60e51b815260040160405180910390fd5b6000848152601060205260408120600381015490919015610bd3578160030154610bde565b681b1ae4d6e2ef5000005b600683015460008881526013602052604090205491925090610bff83612865565b94509450945050509193909250565b6000546001600160a01b03163314610c39576040516330cd747160e01b815260040160405180910390fd5b60038054821515600160a01b0260ff60a01b199091161790556040517fb31006682779d0ac02864bee834675baf4592a679bfe75edd5e5847b52ef6f6e90610c8690831515815260200190565b60405180910390a150565b6000818152600d6020526040812054819081908190819081908103610cc9576040516303d4572d60e51b815260040160405180910390fd5b600087815260106020526040812060018101549091906001600160a01b0316610d09576000898152601160205260409020546001600160a01b0316610d18565b60018201546001600160a01b03165b905060008260020154600003610d3f5760008a8152600d6020526040902060010154610d45565b82600201545b90508260030154600014610d5d578260030154610d68565b681b1ae4d6e2ef5000005b60048401546005850154600690950154919c909b5060ff909416995097509095509350915050565b6000818152600d60205260408120548103610dbe576040516303d4572d60e51b815260040160405180910390fd5b60008281526010602052604081206003015415610dec57600083815260106020526040902060030154610df7565b681b1ae4d6e2ef5000005b9050610e0281612865565b9392505050565b600354600160a01b900460ff1615610e345760405163ab35696f60e01b815260040160405180910390fd5b6000818152600d60205260408120549003610e62576040516303d4572d60e51b815260040160405180910390fd5b6000610e6d82612911565b60018101549091506001600160a01b03163314610e9d57604051632731809760e11b815260040160405180910390fd5b600581015460ff1615610ec357604051635d51ae1160e11b815260040160405180910390fd5b60058101805460ff19166001179055604051339083907f4fc8ba7f4f3c695895c779eb7fde668149b9eed94bfc8e5dda5899c40eca973b90600090a35050565b6000818152600d602052604081208054600182015460028301546003840154600585015460068601546004870180548998899889986060988a98899894979396929560ff9092169490936001600160a01b03909116918390610f6490612ec2565b80601f0160208091040260200160405190810160405280929190818152602001828054610f9090612ec2565b8015610fdd5780601f10610fb257610100808354040283529160200191610fdd565b820191906000526020600020905b815481529060010190602001808311610fc057829003601f168201915b50505050509250975097509750975097509750975050919395979092949650565b600354600160a01b900460ff16156110295760405163ab35696f60e01b815260040160405180910390fd5b60165460011461104c57604051631762c6f360e01b815260040160405180910390fd5b60026016558661106f5760405163b780d61f60e01b815260040160405180910390fd5b85158061107c5750606486115b1561109a57604051630f7fcb2960e21b815260040160405180910390fd5b6000878152600d6020526040902054156110c757604051635665e77960e11b815260040160405180910390fd5b6621c0331d5dc00034101561110357604051633ebbc33760e01b81526621c0331d5dc00060048201523460248201526044015b60405180910390fd5b60006111166621c0331d5dc00034612f12565b90506000612710611130610bb86621c0331d5dc000612f25565b61113a9190612f3c565b9050600061114f826621c0331d5dc000612f12565b905060006621c0331d5dc000600a600082825461116c9190612f5e565b9250508190555082600b60008282546111859190612f5e565b9250508190555081600c600082825461119e9190612f5e565b925050819055506001600460008282546111b89190612f5e565b9091555085905061125b576001600560008282546111d69190612f5e565b925050819055506001600760008282546111f09190612f5e565b9091555061120190508a6032612f25565b61121390670de0b6b3a7640000612f25565b905069010f0cf064dd59200000811115611234575069010f0cf064dd592000005b80600860008282546112469190612f5e565b90915550611256905033826129c1565b611274565b60016006600082825461126e9190612f5e565b90915550505b6040518060e001604052804281526020018b815260200186151581526020018a8a6040516112a3929190612f71565b6040518091039020815260200188888080601f016020809104026020016040519081016040528093929190818152602001838380828437600092018290525093855250503360208085019190915260409384018690528f8352600d81529183902084518155918401516001830155509082015160028201805460ff191691151591909117905560608201516003820155608082015160048201906113479082612fe5565b5060a08201516005820180546001600160a01b039092166001600160a01b031992831617905560c09092015160069091015560008c815260116020526040812080549092163317909155600f805460018101825591527f8d1108e10bcb7c27dddfc02ed9d693a074039d026cf4ea4240b40f7d581ac802018b90556113cb8b612911565b5082156113e8576003546113e8906001600160a01b0316846129f9565b83156113f8576113f833856129f9565b336001600160a01b03168b7f356e37b4b3a3dbbf61e05450c7d74955350550a659bd8792d406b6c27133a0e18c88858c8c60405161143a9594939291906130a4565b60405180910390a3604080516621c0331d5dc0008152602081018590529081018390528b9033907fd381803faab74092aedc8de24231e595cfd3af1a0997ead17e7bcd54d9777c109060600160405180910390a350506001601655505050505050505050565b60008281526012602090815260408083206001600160a01b038516845290915290205460ff165b92915050565b6000828152600e6020526040812054819081908190819081908190881061150757604051635878ae8560e11b815260040160405180910390fd5b6000898152600e6020526040812080548a908110611527576115276130ea565b600091825260209091206005909102018054600182015460028301546003840154600490940154929e6001600160a01b0383169e5060ff600160a01b90930483169d50909b5092995080821698506101009091041695509350505050565b600354600160a01b900460ff16156115b05760405163ab35696f60e01b815260040160405180910390fd5b6000818152600d602052604081205490036115de576040516303d4572d60e51b815260040160405180910390fd5b600081815260126020908152604080832033845290915290205460ff1615611619576040516328486b6360e11b815260040160405180910390fd5b600061162482612911565b600581015490915060ff161561164d57604051632444f8b760e11b815260040160405180910390fd5b60405163aaac37a160e01b81523360048201526000907f00000000000000000000000000000000000000000000000000000000000000006001600160a01b03169063aaac37a190602401602060405180830381865afa1580156116b4573d6000803e3d6000fd5b505050506040513d601f19601f820116820180604052508101906116d89190613100565b6000848152600d6020526040812060010154919250906116ff90662386f26fc10000612f25565b90508082101561172c576040516320200bc560e01b815260048101839052602481018290526044016110fa565b683635c9adc5dea00000821015611768576040516320200bc560e01b815260048101839052683635c9adc5dea0000060248201526044016110fa565b60008481526012602090815260408083203384529091528120805460ff191660011790556064611799836005612f25565b6117a39190612f3c565b90506001600160a01b037f00000000000000000000000000000000000000000000000000000000000000001663de50a795336117df8487612f5e565b6040516001600160e01b031960e085901b1681526001600160a01b0390921660048301526024820152604401600060405180830381600087803b15801561182557600080fd5b505af1158015611839573d6000803e3d6000fd5b50505050336001600160a01b0316857f2ee8d21874599264c54876b79bf25eae1b396c3771a178e683a9e038b634f1d7600060405161189d918152604060208201819052600b908201526a435245444942494c49545960a81b606082015260800190565b60405180910390a35050505050565b6001546001600160a01b031633146118d757604051630614e5c760e21b815260040160405180910390fd5b60008054336001600160a01b0319808316821784556001805490911690556040516001600160a01b0390921692909183917f8be0079c531659141344cd1fd0a4f28419497f9722a3daafe3b4186f6b6457e091a350565b6000546001600160a01b03163314611959576040516330cd747160e01b815260040160405180910390fd5b6001600160a01b0381166119805760405163e6c4247b60e01b815260040160405180910390fd5b600280546001600160a01b038381166001600160a01b0319831681179093556040519116919082907f078c3b417dadf69374a59793b829c52001247130433427049317bde56607b1b790600090a35050565b600354600160a01b900460ff16156119fd5760405163ab35696f60e01b815260040160405180910390fd5b601654600114611a2057604051631762c6f360e01b815260040160405180910390fd5b60026016556000828152600d60205260408120549003611a53576040516303d4572d60e51b815260040160405180910390fd5b611a67333068056bc75e2d63100000612a72565b6000828152600e60209081526040808320815160e0810183528681523381850181815287151583860181815268056bc75e2d6310000060608601818152426080880190815260a088018c815260c089018d81528a5460018082018d559b8f529d8d902099516005909e029099019c8d559551988c01805494511515600160a01b026001600160a81b03199095166001600160a01b03909a169990991793909317909755955160028a0155516003890155905160049097018054935115156101000261ff00199815159890981661ffff199094169390931796909617909155825194855292840152909184917fa04181c550a5111ebee021519f1381f122b78eb4e9b9194a64cd6c9de7737351910160405180910390a350506001601655565b600f546060908084101580611b99575082155b15611bb45750506040805160008152602081019091526114c7565b6000611bc08583612f12565b90506000848210611bd15784611bd3565b815b90508067ffffffffffffffff811115611bee57611bee612f81565b604051908082528060200260200182016040528015611c17578160200160208202803683370190505b50935060005b81811015611c7157600f611c318289612f5e565b81548110611c4157611c416130ea565b9060005260206000200154858281518110611c5e57611c5e6130ea565b6020908102919091010152600101611c1d565b5050505092915050565b6000828152600d60205260408120548103611ca9576040516303d4572d60e51b815260040160405180910390fd5b60008381526010602052604090206005015460ff1680610e0257505060009182526012602090815260408084206001600160a01b0393909316845291905290205460ff1690565b6002546001600160a01b03163314611d1b57604051631bc2178f60e01b815260040160405180910390fd5b600354600160a01b900460ff1615611d465760405163ab35696f60e01b815260040160405180910390fd5b601654600114611d6957604051631762c6f360e01b815260040160405180910390fd5b60026016556000838152600e60205260409020548210611d9c57604051635878ae8560e11b815260040160405180910390fd5b6000838152600e60205260408120805484908110611dbc57611dbc6130ea565b60009182526020909120600590910201600481015490915060ff1615611df5576040516336ab81e160e11b815260040160405180910390fd5b600481018054600183810154600160a01b900460ff90811615158615151461010090810261ffff1990941693909317909117928390559104161561201c576001810154611e54906001600160a01b0316680ad78ebc5ac62000006129c1565b680ad78ebc5ac620000060086000828254611e6f9190612f5e565b90915550506001818101546001600160a01b031660009081526015602052604081208054909190611ea1908490612f5e565b90915550506001818101546001600160a01b031660009081526014602052604081208054909190611ed3908490612f5e565b9091555050600181015460405163aaac37a160e01b81526001600160a01b0391821660048201526000917f0000000000000000000000000000000000000000000000000000000000000000169063aaac37a190602401602060405180830381865afa158015611f46573d6000803e3d6000fd5b505050506040513d601f19601f82011682018060405250810190611f6a9190613100565b60018301549091506001600160a01b037f000000000000000000000000000000000000000000000000000000000000000081169163de50a7959116611fb88468056bc75e2d63100000612f5e565b6040516001600160e01b031960e085901b1681526001600160a01b0390921660048301526024820152604401600060405180830381600087803b158015611ffe57600080fd5b505af1158015612012573d6000803e3d6000fd5b5050505050612111565b600061202785612911565b9050600061203f600268056bc75e2d63100000612f3c565b600183015490915061205a906001600160a01b0316826129c1565b604051632770a7eb60e21b8152306004820152602481018290527f00000000000000000000000000000000000000000000000000000000000000006001600160a01b031690639dc29fac90604401600060405180830381600087803b1580156120c257600080fd5b505af11580156120d6573d6000803e3d6000fd5b5050505080600960008282546120ec9190612f5e565b90915550505060018201546001600160a01b0316600090815260156020526040812055505b600181015460048201546001600160a01b039091169085907f8aa1336152b005ddd3ccc39b5a66ed207555053dd23bc9cff1aab405f6348ea590610100900460ff168061215f57600061216a565b680ad78ebc5ac62000005b60408051921515835260208301919091520160405180910390a3505060016016555050565b600354600160a01b900460ff16156121ba5760405163ab35696f60e01b815260040160405180910390fd5b6016546001146121dd57604051631762c6f360e01b815260040160405180910390fd5b60026016556000818152600d60205260408120549003612210576040516303d4572d60e51b815260040160405180910390fd5b600081815260126020908152604080832033845290915290205460ff161561224b576040516328486b6360e11b815260040160405180910390fd5b600061225682612911565b600581015490915060ff161561227f57604051632444f8b760e11b815260040160405180910390fd5b6003810154600061228f84610d90565b9050803410156122bb57604051633ebbc33760e01b8152600481018290523460248201526044016110fa565b60008481526012602090815260408083203384529091528120805460ff19166001908117909155600485018054919290916122f7908490612f5e565b909155505060048301546103e89061230f9084612f25565b6123199190612f3c565b6123239083612f5e565b600384015560008481526013602052604081208054839290612346908490612f5e565b90915550506001830154612363906001600160a01b0316826129f9565b8034111561237e5761237e336123798334612f12565b6129f9565b336001600160a01b0316847f2ee8d21874599264c54876b79bf25eae1b396c3771a178e683a9e038b634f1d7846040516123d59181526040602082018190526003908201526208aa8960eb1b606082015260800190565b60405180910390a3837f68520cf07e2f785cba8f9601c758232191b84e9f0a8ec7b3049d2dcc197b67fe846003015460405161241391815260200190565b60405180910390a2505060016016555050565b6000546001600160a01b03163314612451576040516330cd747160e01b815260040160405180910390fd5b6001600160a01b0381166124785760405163e6c4247b60e01b815260040160405180910390fd5b600380546001600160a01b038381166001600160a01b0319831681179093556040519116919082907f4ab5be82436d353e61ca18726e984e561f5c1cc7c6d38b29d2553c790434705a90600090a35050565b6000546001600160a01b031633146124f5576040516330cd747160e01b815260040160405180910390fd5b6001600160a01b03811661251c5760405163e6c4247b60e01b815260040160405180910390fd5b600180546001600160a01b0319166001600160a01b0383811691821790925560008054604051929316917f38d16b8cac22d99fc7c124b9cd0de2d3fa1faef420bfe791d8c362d765e227009190a350565b600354600160a01b900460ff16156125985760405163ab35696f60e01b815260040160405180910390fd5b6016546001146125bb57604051631762c6f360e01b815260040160405180910390fd5b60026016556000818152600d602052604081205490036125ee576040516303d4572d60e51b815260040160405180910390fd5b600081815260126020908152604080832033845290915290205460ff1615612629576040516328486b6360e11b815260040160405180910390fd5b600061263482612911565b600581015490915060ff161561265d57604051632444f8b760e11b815260040160405180910390fd5b6003810154600061266f600283612f3c565b9050600061267d8284612f12565b905061268a333085612a72565b604051632770a7eb60e21b8152306004820152602481018390527f00000000000000000000000000000000000000000000000000000000000000006001600160a01b031690639dc29fac90604401600060405180830381600087803b1580156126f257600080fd5b505af1158015612706573d6000803e3d6000fd5b50505050816009600082825461271c9190612f5e565b90915550506001840154612739906001600160a01b0316826129c1565b60008581526012602090815260408083203384529091528120805460ff1916600190811790915560048601805491929091612775908490612f5e565b92505081905550808460060160008282546127909190612f5e565b909155505060048401546103e8906127a89085612f25565b6127b29190612f3c565b6127bc9084612f5e565b6003850155604051339086907f2ee8d21874599264c54876b79bf25eae1b396c3771a178e683a9e038b634f1d7906128139087815260406020820181905260049082015263212aa92760e11b606082015260800190565b60405180910390a3847f68520cf07e2f785cba8f9601c758232191b84e9f0a8ec7b3049d2dcc197b67fe856003015460405161285191815260200190565b60405180910390a250506001601655505050565b6000807f00000000000000000000000000000000000000000000000000000000000000006001600160a01b031663313ce5676040518163ffffffff1660e01b8152600401602060405180830381865afa1580156128c6573d6000803e3d6000fd5b505050506040513d601f19601f820116820180604052508101906128ea9190613119565b6128f590600a613223565b9050806129078464e8d4a51000612f25565b610e029190612f3c565b600081815260106020526040902060038101541561292e57919050565b6000828152601160205260409020546001600160a01b031680612964576040516361f2aa0160e11b815260040160405180910390fd5b828255600180830180546001600160a01b0319166001600160a01b0393909316929092179091556000928352600d6020526040909220909101546002820155681b1ae4d6e2ef500000600382015560058101805460ff1916905590565b6129f56001600160a01b037f0000000000000000000000000000000000000000000000000000000000000000168383612aa7565b5050565b6000826001600160a01b03168260405160006040518083038185875af1925050503d8060008114612a46576040519150601f19603f3d011682016040523d82523d6000602084013e612a4b565b606091505b5050905080612a6d5760405163022e258160e11b815260040160405180910390fd5b505050565b612a6d6001600160a01b037f000000000000000000000000000000000000000000000000000000000000000016848484612adc565b612ab48383836001612b18565b612a6d57604051635274afe760e01b81526001600160a01b03841660048201526024016110fa565b612aea848484846001612b7e565b612b1257604051635274afe760e01b81526001600160a01b03851660048201526024016110fa565b50505050565b60405163a9059cbb60e01b60008181526001600160a01b038616600452602485905291602083604481808b5af192506001600051148316612b72578383151615612b65573d6000823e3d81fd5b6000873b113d1516831692505b60405250949350505050565b6040516323b872dd60e01b60008181526001600160a01b038781166004528616602452604485905291602083606481808c5af192506001600051148316612bde578383151615612bd1573d6000823e3d81fd5b6000883b113d1516831692505b60405250600060605295945050505050565b600060208284031215612c0257600080fd5b5035919050565b80356001600160a01b0381168114612c2057600080fd5b919050565b600060208284031215612c3757600080fd5b610e0282612c09565b80358015158114612c2057600080fd5b600060208284031215612c6257600080fd5b610e0282612c40565b878152866020820152851515604082015284606082015260e06080820152600084518060e084015260005b81811015612cb4576020818801810151610100868401015201612c96565b5060006101008285010152610100601f19601f830116840101915050612ce560a08301856001600160a01b03169052565b8260c083015298975050505050505050565b60008083601f840112612d0957600080fd5b50813567ffffffffffffffff811115612d2157600080fd5b602083019150836020828501011115612d3957600080fd5b9250929050565b600080600080600080600060a0888a031215612d5b57600080fd5b8735965060208801359550604088013567ffffffffffffffff811115612d8057600080fd5b612d8c8a828b01612cf7565b909650945050606088013567ffffffffffffffff811115612dac57600080fd5b612db88a828b01612cf7565b9094509250612dcb905060808901612c40565b905092959891949750929550565b60008060408385031215612dec57600080fd5b82359150612dfc60208401612c09565b90509250929050565b60008060408385031215612e1857600080fd5b50508035926020909101359150565b60008060408385031215612e3a57600080fd5b82359150612dfc60208401612c40565b602080825282518282018190526000918401906040840190835b81811015612e82578351835260209384019390920191600101612e64565b509095945050505050565b600080600060608486031215612ea257600080fd5b8335925060208401359150612eb960408501612c40565b90509250925092565b600181811c90821680612ed657607f821691505b602082108103612ef657634e487b7160e01b600052602260045260246000fd5b50919050565b634e487b7160e01b600052601160045260246000fd5b818103818111156114c7576114c7612efc565b80820281158282048414176114c7576114c7612efc565b600082612f5957634e487b7160e01b600052601260045260246000fd5b500490565b808201808211156114c7576114c7612efc565b8183823760009101908152919050565b634e487b7160e01b600052604160045260246000fd5b601f821115612a6d57806000526020600020601f840160051c81016020851015612fbe5750805b601f840160051c820191505b81811015612fde5760008155600101612fca565b5050505050565b815167ffffffffffffffff811115612fff57612fff612f81565b6130138161300d8454612ec2565b84612f97565b6020601f821160018114613047576000831561302f5750848201515b600019600385901b1c1916600184901b178455612fde565b600084815260208120601f198516915b828110156130775787850151825560209485019460019092019101613057565b50848210156130955786840151600019600387901b60f8161c191681555b50505050600190811b01905550565b858152841515602082015283604082015260806060820152816080820152818360a0830137600081830160a090810191909152601f909201601f19160101949350505050565b634e487b7160e01b600052603260045260246000fd5b60006020828403121561311257600080fd5b5051919050565b60006020828403121561312b57600080fd5b815160ff81168114610e0257600080fd5b6001815b60018411156131775780850481111561315b5761315b612efc565b600184161561316957908102905b60019390931c928002613140565b935093915050565b60008261318e575060016114c7565b8161319b575060006114c7565b81600181146131b157600281146131bb576131d7565b60019150506114c7565b60ff8411156131cc576131cc612efc565b50506001821b6114c7565b5060208310610133831016604e8410600b84101617156131fa575081810a6114c7565b613207600019848461313c565b806000190482111561321b5761321b612efc565b029392505050565b6000610e0260ff84168361317f56fea2646970667358221220925eb38f1718b5da4d99d1543cbfa4c195c7e34a1ac033552e75ca112f2be09f64736f6c634300081e0033","opcodes":"PUSH1 0xA0 PUSH1 0x40 MSTORE PUSH1 0x1 PUSH1 0x16 SSTORE CALLVALUE DUP1 ISZERO PUSH2 0x15 JUMPI PUSH1 0x0 DUP1 REVERT JUMPDEST POP PUSH1 0x40 MLOAD PUSH2 0x33E8 CODESIZE SUB DUP1 PUSH2 0x33E8 DUP4 CODECOPY DUP2 ADD PUSH1 0x40 DUP2 SWAP1 MSTORE PUSH2 0x34 SWAP2 PUSH2 0xE3 JUMP JUMPDEST PUSH1 0x1 PUSH1 0x1 PUSH1 0xA0 SHL SUB DUP4 AND ISZERO DUP1 PUSH2 0x51 JUMPI POP PUSH1 0x1 PUSH1 0x1 PUSH1 0xA0 SHL SUB DUP3 AND ISZERO JUMPDEST DUP1 PUSH2 0x63 JUMPI POP PUSH1 0x1 PUSH1 0x1 PUSH1 0xA0 SHL SUB DUP2 AND ISZERO JUMPDEST ISZERO PUSH2 0x81 JUMPI PUSH1 0x40 MLOAD PUSH4 0xE6C4247B PUSH1 0xE0 SHL DUP2 MSTORE PUSH1 0x4 ADD PUSH1 0x40 MLOAD DUP1 SWAP2 SUB SWAP1 REVERT JUMPDEST PUSH1 0x1 PUSH1 0x1 PUSH1 0xA0 SHL SUB SWAP3 DUP4 AND PUSH1 0x80 MSTORE PUSH1 0x0 DUP1 SLOAD PUSH1 0x1 PUSH1 0x1 PUSH1 0xA0 SHL SUB NOT SWAP1 DUP2 AND CALLER OR SWAP1 SWAP2 SSTORE PUSH1 0x3 DUP1 SLOAD SWAP4 DUP6 AND SWAP4 DUP3 AND SWAP4 SWAP1 SWAP4 OR SWAP1 SWAP3 SSTORE PUSH1 0x2 DUP1 SLOAD SWAP2 SWAP1 SWAP4 AND SWAP2 AND OR SWAP1 SSTORE PUSH2 0x126 JUMP JUMPDEST DUP1 MLOAD PUSH1 0x1 PUSH1 0x1 PUSH1 0xA0 SHL SUB DUP2 AND DUP2 EQ PUSH2 0xDE JUMPI PUSH1 0x0 DUP1 REVERT JUMPDEST SWAP2 SWAP1 POP JUMP JUMPDEST PUSH1 0x0 DUP1 PUSH1 0x0 PUSH1 0x60 DUP5 DUP7 SUB SLT ISZERO PUSH2 0xF8 JUMPI PUSH1 0x0 DUP1 REVERT JUMPDEST PUSH2 0x101 DUP5 PUSH2 0xC7 JUMP JUMPDEST SWAP3 POP PUSH2 0x10F PUSH1 0x20 DUP6 ADD PUSH2 0xC7 JUMP JUMPDEST SWAP2 POP PUSH2 0x11D PUSH1 0x40 DUP6 ADD PUSH2 0xC7 JUMP JUMPDEST SWAP1 POP SWAP3 POP SWAP3 POP SWAP3 JUMP JUMPDEST PUSH1 0x80 MLOAD PUSH2 0x3268 PUSH2 0x180 PUSH1 0x0 CODECOPY PUSH1 0x0 DUP2 DUP2 PUSH2 0x6BD ADD MSTORE DUP2 DUP2 PUSH2 0x1665 ADD MSTORE DUP2 DUP2 PUSH2 0x17AF ADD MSTORE DUP2 DUP2 PUSH2 0x1EFF ADD MSTORE DUP2 DUP2 PUSH2 0x1F7C ADD MSTORE DUP2 DUP2 PUSH2 0x2076 ADD MSTORE DUP2 DUP2 PUSH2 0x26A6 ADD MSTORE DUP2 DUP2 PUSH2 0x286A ADD MSTORE DUP2 DUP2 PUSH2 0x29CE ADD MSTORE PUSH2 0x2A7F ADD MSTORE PUSH2 0x3268 PUSH1 0x0 RETURN INVALID PUSH1 0x80 PUSH1 0x40 MSTORE PUSH1 0x4 CALLDATASIZE LT PUSH2 0x303 JUMPI PUSH1 0x0 CALLDATALOAD PUSH1 0xE0 SHR DUP1 PUSH4 0x8C1A60B2 GT PUSH2 0x190 JUMPI DUP1 PUSH4 0xC69AB501 GT PUSH2 0xDC JUMPI DUP1 PUSH4 0xDBD8C057 GT PUSH2 0x95 JUMPI DUP1 PUSH4 0xF0F44260 GT PUSH2 0x6F JUMPI DUP1 PUSH4 0xF0F44260 EQ PUSH2 0xB06 JUMPI DUP1 PUSH4 0xF2FDE38B EQ PUSH2 0xB26 JUMPI DUP1 PUSH4 0xF4DCEACD EQ PUSH2 0xB46 JUMPI DUP1 PUSH4 0xF99156CB EQ PUSH2 0xB66 JUMPI PUSH1 0x0 DUP1 REVERT JUMPDEST DUP1 PUSH4 0xDBD8C057 EQ PUSH2 0xABA JUMPI DUP1 PUSH4 0xE1A45218 EQ PUSH2 0xAD0 JUMPI DUP1 PUSH4 0xE30C3978 EQ PUSH2 0xAE6 JUMPI PUSH1 0x0 DUP1 REVERT JUMPDEST DUP1 PUSH4 0xC69AB501 EQ PUSH2 0xA00 JUMPI DUP1 PUSH4 0xC9AB7130 EQ PUSH2 0xA1D JUMPI DUP1 PUSH4 0xCB3399E8 EQ PUSH2 0xA3D JUMPI DUP1 PUSH4 0xD365D094 EQ PUSH2 0xA5D JUMPI DUP1 PUSH4 0xD4ADE875 EQ PUSH2 0xA8A JUMPI DUP1 PUSH4 0xD73848CC EQ PUSH2 0xA9D JUMPI PUSH1 0x0 DUP1 REVERT JUMPDEST DUP1 PUSH4 0xA4FA95BF GT PUSH2 0x149 JUMPI DUP1 PUSH4 0xAF414D41 GT PUSH2 0x123 JUMPI DUP1 PUSH4 0xAF414D41 EQ PUSH2 0x9A3 JUMPI DUP1 PUSH4 0xB3DFBCF8 EQ PUSH2 0x9BE JUMPI DUP1 PUSH4 0xB87C1114 EQ PUSH2 0x9D4 JUMPI DUP1 PUSH4 0xB9FA45DA EQ PUSH2 0x9EA JUMPI PUSH1 0x0 DUP1 REVERT JUMPDEST DUP1 PUSH4 0xA4FA95BF EQ PUSH2 0x933 JUMPI DUP1 PUSH4 0xA60051AE EQ PUSH2 0x960 JUMPI DUP1 PUSH4 0xA6D2FCD9 EQ PUSH2 0x976 JUMPI PUSH1 0x0 DUP1 REVERT JUMPDEST DUP1 PUSH4 0x8C1A60B2 EQ PUSH2 0x808 JUMPI DUP1 PUSH4 0x8C37F11D EQ PUSH2 0x825 JUMPI DUP1 PUSH4 0x8DA5CB5B EQ PUSH2 0x83B JUMPI DUP1 PUSH4 0x924D3F56 EQ PUSH2 0x85B JUMPI DUP1 PUSH4 0x938A8BCA EQ PUSH2 0x879 JUMPI DUP1 PUSH4 0x9E33BB86 EQ PUSH2 0x88F JUMPI PUSH1 0x0 DUP1 REVERT JUMPDEST DUP1 PUSH4 0x61D027B3 GT PUSH2 0x24F JUMPI DUP1 PUSH4 0x6BCCC753 GT PUSH2 0x208 JUMPI DUP1 PUSH4 0x79BA5097 GT PUSH2 0x1E2 JUMPI DUP1 PUSH4 0x79BA5097 EQ PUSH2 0x793 JUMPI DUP1 PUSH4 0x7ADBF973 EQ PUSH2 0x7A8 JUMPI DUP1 PUSH4 0x7DC0D1D0 EQ PUSH2 0x7C8 JUMPI DUP1 PUSH4 0x8748C6B9 EQ PUSH2 0x7E8 JUMPI PUSH1 0x0 DUP1 REVERT JUMPDEST DUP1 PUSH4 0x6BCCC753 EQ PUSH2 0x6AB JUMPI DUP1 PUSH4 0x771ACEEF EQ PUSH2 0x6DF JUMPI DUP1 PUSH4 0x78F88D67 EQ PUSH2 0x776 JUMPI PUSH1 0x0 DUP1 REVERT JUMPDEST DUP1 PUSH4 0x61D027B3 EQ PUSH2 0x567 JUMPI DUP1 PUSH4 0x65137DD0 EQ PUSH2 0x59F JUMPI DUP1 PUSH4 0x67310B5A EQ PUSH2 0x604 JUMPI DUP1 PUSH4 0x68F5C663 EQ PUSH2 0x63F JUMPI DUP1 PUSH4 0x6A01A775 EQ PUSH2 0x65F JUMPI DUP1 PUSH4 0x6A65EAA6 EQ PUSH2 0x695 JUMPI PUSH1 0x0 DUP1 REVERT JUMPDEST DUP1 PUSH4 0x21026950 GT PUSH2 0x2BC JUMPI DUP1 PUSH4 0x4A7221A0 GT PUSH2 0x296 JUMPI DUP1 PUSH4 0x4A7221A0 EQ PUSH2 0x4D0 JUMPI DUP1 PUSH4 0x5191E467 EQ PUSH2 0x503 JUMPI DUP1 PUSH4 0x53093093 EQ PUSH2 0x516 JUMPI DUP1 PUSH4 0x5C975ABB EQ PUSH2 0x546 JUMPI PUSH1 0x0 DUP1 REVERT JUMPDEST DUP1 PUSH4 0x21026950 EQ PUSH2 0x47A JUMPI DUP1 PUSH4 0x2CAD2F65 EQ PUSH2 0x49A JUMPI DUP1 PUSH4 0x38902FDB EQ PUSH2 0x4BA JUMPI PUSH1 0x0 DUP1 REVERT JUMPDEST DUP1 PUSH4 0x56962C3 EQ PUSH2 0x344 JUMPI DUP1 PUSH4 0x8104069 EQ PUSH2 0x384 JUMPI DUP1 PUSH4 0xEFD66E2 EQ PUSH2 0x3A3 JUMPI DUP1 PUSH4 0x1433219C EQ PUSH2 0x3D0 JUMPI DUP1 PUSH4 0x16C38B3C EQ PUSH2 0x3FD JUMPI DUP1 PUSH4 0x19B881E4 EQ PUSH2 0x41F JUMPI PUSH1 0x0 DUP1 REVERT JUMPDEST CALLDATASIZE PUSH2 0x33F JUMPI PUSH1 0x40 MLOAD CALLVALUE DUP2 MSTORE CALLER SWAP1 PUSH32 0x719FEB717C187001672AA98B85A51988A7FAB410C32ED1D724838C8377BF90AF SWAP1 PUSH1 0x20 ADD PUSH1 0x40 MLOAD DUP1 SWAP2 SUB SWAP1 LOG2 STOP JUMPDEST PUSH1 0x0 DUP1 REVERT JUMPDEST CALLVALUE DUP1 ISZERO PUSH2 0x350 JUMPI PUSH1 0x0 DUP1 REVERT JUMPDEST POP PUSH2 0x364 PUSH2 0x35F CALLDATASIZE PUSH1 0x4 PUSH2 0x2BF0 JUMP JUMPDEST PUSH2 0xB7C JUMP JUMPDEST PUSH1 0x40 DUP1 MLOAD SWAP4 DUP5 MSTORE PUSH1 0x20 DUP5 ADD SWAP3 SWAP1 SWAP3 MSTORE SWAP1 DUP3 ADD MSTORE PUSH1 0x60 ADD JUMPDEST PUSH1 0x40 MLOAD DUP1 SWAP2 SUB SWAP1 RETURN JUMPDEST CALLVALUE DUP1 ISZERO PUSH2 0x390 JUMPI PUSH1 0x0 DUP1 REVERT JUMPDEST POP PUSH1 0xF SLOAD JUMPDEST PUSH1 0x40 MLOAD SWAP1 DUP2 MSTORE PUSH1 0x20 ADD PUSH2 0x37B JUMP JUMPDEST CALLVALUE DUP1 ISZERO PUSH2 0x3AF JUMPI PUSH1 0x0 DUP1 REVERT JUMPDEST POP PUSH2 0x395 PUSH2 0x3BE CALLDATASIZE PUSH1 0x4 PUSH2 0x2C25 JUMP JUMPDEST PUSH1 0x15 PUSH1 0x20 MSTORE PUSH1 0x0 SWAP1 DUP2 MSTORE PUSH1 0x40 SWAP1 KECCAK256 SLOAD DUP2 JUMP JUMPDEST CALLVALUE DUP1 ISZERO PUSH2 0x3DC JUMPI PUSH1 0x0 DUP1 REVERT JUMPDEST POP PUSH2 0x395 PUSH2 0x3EB CALLDATASIZE PUSH1 0x4 PUSH2 0x2BF0 JUMP JUMPDEST PUSH1 0x13 PUSH1 0x20 MSTORE PUSH1 0x0 SWAP1 DUP2 MSTORE PUSH1 0x40 SWAP1 KECCAK256 SLOAD DUP2 JUMP JUMPDEST CALLVALUE DUP1 ISZERO PUSH2 0x409 JUMPI PUSH1 0x0 DUP1 REVERT JUMPDEST POP PUSH2 0x41D PUSH2 0x418 CALLDATASIZE PUSH1 0x4 PUSH2 0x2C50 JUMP JUMPDEST PUSH2 0xC0E JUMP JUMPDEST STOP JUMPDEST CALLVALUE DUP1 ISZERO PUSH2 0x42B JUMPI PUSH1 0x0 DUP1 REVERT JUMPDEST POP PUSH2 0x43F PUSH2 0x43A CALLDATASIZE PUSH1 0x4 PUSH2 0x2BF0 JUMP JUMPDEST PUSH2 0xC91 JUMP JUMPDEST PUSH1 0x40 DUP1 MLOAD SWAP7 DUP8 MSTORE PUSH1 0x20 DUP8 ADD SWAP6 SWAP1 SWAP6 MSTORE SWAP3 ISZERO ISZERO SWAP4 DUP6 ADD SWAP4 SWAP1 SWAP4 MSTORE PUSH1 0x60 DUP5 ADD MSTORE PUSH1 0x1 PUSH1 0x1 PUSH1 0xA0 SHL SUB SWAP1 SWAP2 AND PUSH1 0x80 DUP4 ADD MSTORE PUSH1 0xA0 DUP3 ADD MSTORE PUSH1 0xC0 ADD PUSH2 0x37B JUMP JUMPDEST CALLVALUE DUP1 ISZERO PUSH2 0x486 JUMPI PUSH1 0x0 DUP1 REVERT JUMPDEST POP PUSH2 0x395 PUSH2 0x495 CALLDATASIZE PUSH1 0x4 PUSH2 0x2BF0 JUMP JUMPDEST PUSH2 0xD90 JUMP JUMPDEST CALLVALUE DUP1 ISZERO PUSH2 0x4A6 JUMPI PUSH1 0x0 DUP1 REVERT JUMPDEST POP PUSH2 0x41D PUSH2 0x4B5 CALLDATASIZE PUSH1 0x4 PUSH2 0x2BF0 JUMP JUMPDEST PUSH2 0xE09 JUMP JUMPDEST CALLVALUE DUP1 ISZERO PUSH2 0x4C6 JUMPI PUSH1 0x0 DUP1 REVERT JUMPDEST POP PUSH2 0x395 PUSH1 0x8 SLOAD DUP2 JUMP JUMPDEST CALLVALUE DUP1 ISZERO PUSH2 0x4DC JUMPI PUSH1 0x0 DUP1 REVERT JUMPDEST POP PUSH2 0x4F0 PUSH2 0x4EB CALLDATASIZE PUSH1 0x4 PUSH2 0x2BF0 JUMP JUMPDEST PUSH2 0xF03 JUMP JUMPDEST PUSH1 0x40 MLOAD PUSH2 0x37B SWAP8 SWAP7 SWAP6 SWAP5 SWAP4 SWAP3 SWAP2 SWAP1 PUSH2 0x2C6B JUMP JUMPDEST PUSH2 0x41D PUSH2 0x511 CALLDATASIZE PUSH1 0x4 PUSH2 0x2D40 JUMP JUMPDEST PUSH2 0xFFE JUMP JUMPDEST CALLVALUE DUP1 ISZERO PUSH2 0x522 JUMPI PUSH1 0x0 DUP1 REVERT JUMPDEST POP PUSH2 0x536 PUSH2 0x531 CALLDATASIZE PUSH1 0x4 PUSH2 0x2DD9 JUMP JUMPDEST PUSH2 0x14A0 JUMP JUMPDEST PUSH1 0x40 MLOAD SWAP1 ISZERO ISZERO DUP2 MSTORE PUSH1 0x20 ADD PUSH2 0x37B JUMP JUMPDEST CALLVALUE DUP1 ISZERO PUSH2 0x552 JUMPI PUSH1 0x0 DUP1 REVERT JUMPDEST POP PUSH1 0x3 SLOAD PUSH2 0x536 SWAP1 PUSH1 0x1 PUSH1 0xA0 SHL SWAP1 DIV PUSH1 0xFF AND DUP2 JUMP JUMPDEST CALLVALUE DUP1 ISZERO PUSH2 0x573 JUMPI PUSH1 0x0 DUP1 REVERT JUMPDEST POP PUSH1 0x3 SLOAD PUSH2 0x587 SWAP1 PUSH1 0x1 PUSH1 0x1 PUSH1 0xA0 SHL SUB AND DUP2 JUMP JUMPDEST PUSH1 0x40 MLOAD PUSH1 0x1 PUSH1 0x1 PUSH1 0xA0 SHL SUB SWAP1 SWAP2 AND DUP2 MSTORE PUSH1 0x20 ADD PUSH2 0x37B JUMP JUMPDEST CALLVALUE DUP1 ISZERO PUSH2 0x5AB JUMPI PUSH1 0x0 DUP1 REVERT JUMPDEST POP PUSH2 0x5BF PUSH2 0x5BA CALLDATASIZE PUSH1 0x4 PUSH2 0x2E05 JUMP JUMPDEST PUSH2 0x14CD JUMP JUMPDEST PUSH1 0x40 DUP1 MLOAD SWAP8 DUP9 MSTORE PUSH1 0x1 PUSH1 0x1 PUSH1 0xA0 SHL SUB SWAP1 SWAP7 AND PUSH1 0x20 DUP9 ADD MSTORE SWAP4 ISZERO ISZERO SWAP5 DUP7 ADD SWAP5 SWAP1 SWAP5 MSTORE PUSH1 0x60 DUP6 ADD SWAP2 SWAP1 SWAP2 MSTORE PUSH1 0x80 DUP5 ADD MSTORE SWAP1 ISZERO ISZERO PUSH1 0xA0 DUP4 ADD MSTORE ISZERO ISZERO PUSH1 0xC0 DUP3 ADD MSTORE PUSH1 0xE0 ADD PUSH2 0x37B JUMP JUMPDEST CALLVALUE DUP1 ISZERO PUSH2 0x610 JUMPI PUSH1 0x0 DUP1 REVERT JUMPDEST POP PUSH2 0x536 PUSH2 0x61F CALLDATASIZE PUSH1 0x4 PUSH2 0x2DD9 JUMP JUMPDEST PUSH1 0x12 PUSH1 0x20 SWAP1 DUP2 MSTORE PUSH1 0x0 SWAP3 DUP4 MSTORE PUSH1 0x40 DUP1 DUP5 KECCAK256 SWAP1 SWAP2 MSTORE SWAP1 DUP3 MSTORE SWAP1 KECCAK256 SLOAD PUSH1 0xFF AND DUP2 JUMP JUMPDEST CALLVALUE DUP1 ISZERO PUSH2 0x64B JUMPI PUSH1 0x0 DUP1 REVERT JUMPDEST POP PUSH2 0x41D PUSH2 0x65A CALLDATASIZE PUSH1 0x4 PUSH2 0x2BF0 JUMP JUMPDEST PUSH2 0x1585 JUMP JUMPDEST CALLVALUE DUP1 ISZERO PUSH2 0x66B JUMPI PUSH1 0x0 DUP1 REVERT JUMPDEST POP PUSH2 0x587 PUSH2 0x67A CALLDATASIZE PUSH1 0x4 PUSH2 0x2BF0 JUMP JUMPDEST PUSH1 0x11 PUSH1 0x20 MSTORE PUSH1 0x0 SWAP1 DUP2 MSTORE PUSH1 0x40 SWAP1 KECCAK256 SLOAD PUSH1 0x1 PUSH1 0x1 PUSH1 0xA0 SHL SUB AND DUP2 JUMP JUMPDEST CALLVALUE DUP1 ISZERO PUSH2 0x6A1 JUMPI PUSH1 0x0 DUP1 REVERT JUMPDEST POP PUSH2 0x395 PUSH1 0x5 SLOAD DUP2 JUMP JUMPDEST CALLVALUE DUP1 ISZERO PUSH2 0x6B7 JUMPI PUSH1 0x0 DUP1 REVERT JUMPDEST POP PUSH2 0x587 PUSH32 0x0 DUP2 JUMP JUMPDEST CALLVALUE DUP1 ISZERO PUSH2 0x6EB JUMPI PUSH1 0x0 DUP1 REVERT JUMPDEST POP PUSH1 0x4 SLOAD PUSH1 0x5 SLOAD PUSH1 0x6 SLOAD PUSH1 0x7 SLOAD PUSH1 0x8 SLOAD PUSH1 0x9 SLOAD PUSH1 0xA DUP1 SLOAD PUSH1 0xB SLOAD PUSH1 0xC SLOAD PUSH1 0x3 SLOAD SWAP3 SWAP4 SWAP2 SWAP3 SWAP1 SWAP2 DUP11 LT ISZERO SWAP1 PUSH1 0x1 PUSH1 0xA0 SHL SWAP1 DIV PUSH1 0xFF AND PUSH1 0x40 DUP1 MLOAD SWAP12 DUP13 MSTORE PUSH1 0x20 DUP13 ADD SWAP11 SWAP1 SWAP11 MSTORE SWAP9 DUP11 ADD SWAP8 SWAP1 SWAP8 MSTORE PUSH1 0x60 DUP10 ADD SWAP6 SWAP1 SWAP6 MSTORE PUSH1 0x80 DUP9 ADD SWAP4 SWAP1 SWAP4 MSTORE PUSH1 0xA0 DUP8 ADD SWAP2 SWAP1 SWAP2 MSTORE PUSH1 0xC0 DUP7 ADD MSTORE PUSH1 0xE0 DUP6 ADD MSTORE PUSH2 0x100 DUP5 ADD MSTORE ISZERO ISZERO PUSH2 0x120 DUP4 ADD MSTORE ISZERO ISZERO PUSH2 0x140 DUP3 ADD MSTORE PUSH2 0x160 ADD PUSH2 0x37B JUMP JUMPDEST CALLVALUE DUP1 ISZERO PUSH2 0x782 JUMPI PUSH1 0x0 DUP1 REVERT JUMPDEST POP PUSH2 0x395 PUSH9 0x1B1AE4D6E2EF500000 DUP2 JUMP JUMPDEST CALLVALUE DUP1 ISZERO PUSH2 0x79F JUMPI PUSH1 0x0 DUP1 REVERT JUMPDEST POP PUSH2 0x41D PUSH2 0x18AC JUMP JUMPDEST CALLVALUE DUP1 ISZERO PUSH2 0x7B4 JUMPI PUSH1 0x0 DUP1 REVERT JUMPDEST POP PUSH2 0x41D PUSH2 0x7C3 CALLDATASIZE PUSH1 0x4 PUSH2 0x2C25 JUMP JUMPDEST PUSH2 0x192E JUMP JUMPDEST CALLVALUE DUP1 ISZERO PUSH2 0x7D4 JUMPI PUSH1 0x0 DUP1 REVERT JUMPDEST POP PUSH1 0x2 SLOAD PUSH2 0x587 SWAP1 PUSH1 0x1 PUSH1 0x1 PUSH1 0xA0 SHL SUB AND DUP2 JUMP JUMPDEST CALLVALUE DUP1 ISZERO PUSH2 0x7F4 JUMPI PUSH1 0x0 DUP1 REVERT JUMPDEST POP PUSH2 0x41D PUSH2 0x803 CALLDATASIZE PUSH1 0x4 PUSH2 0x2E27 JUMP JUMPDEST PUSH2 0x19D2 JUMP JUMPDEST CALLVALUE DUP1 ISZERO PUSH2 0x814 JUMPI PUSH1 0x0 DUP1 REVERT JUMPDEST POP PUSH2 0x395 PUSH9 0xAD78EBC5AC6200000 DUP2 JUMP JUMPDEST CALLVALUE DUP1 ISZERO PUSH2 0x831 JUMPI PUSH1 0x0 DUP1 REVERT JUMPDEST POP PUSH2 0x395 PUSH1 0xC SLOAD DUP2 JUMP JUMPDEST CALLVALUE DUP1 ISZERO PUSH2 0x847 JUMPI PUSH1 0x0 DUP1 REVERT JUMPDEST POP PUSH1 0x0 SLOAD PUSH2 0x587 SWAP1 PUSH1 0x1 PUSH1 0x1 PUSH1 0xA0 SHL SUB AND DUP2 JUMP JUMPDEST CALLVALUE DUP1 ISZERO PUSH2 0x867 JUMPI PUSH1 0x0 DUP1 REVERT JUMPDEST POP PUSH2 0x395 PUSH10 0x10F0CF064DD59200000 DUP2 JUMP JUMPDEST CALLVALUE DUP1 ISZERO PUSH2 0x885 JUMPI PUSH1 0x0 DUP1 REVERT JUMPDEST POP PUSH2 0x395 PUSH1 0xB SLOAD DUP2 JUMP JUMPDEST CALLVALUE DUP1 ISZERO PUSH2 0x89B JUMPI PUSH1 0x0 DUP1 REVERT JUMPDEST POP PUSH2 0x8F4 PUSH2 0x8AA CALLDATASIZE PUSH1 0x4 PUSH2 0x2BF0 JUMP JUMPDEST PUSH1 0x10 PUSH1 0x20 MSTORE PUSH1 0x0 SWAP1 DUP2 MSTORE PUSH1 0x40 SWAP1 KECCAK256 DUP1 SLOAD PUSH1 0x1 DUP3 ADD SLOAD PUSH1 0x2 DUP4 ADD SLOAD PUSH1 0x3 DUP5 ADD SLOAD PUSH1 0x4 DUP6 ADD SLOAD PUSH1 0x5 DUP7 ADD SLOAD PUSH1 0x6 SWAP1 SWAP7 ADD SLOAD SWAP5 SWAP6 PUSH1 0x1 PUSH1 0x1 PUSH1 0xA0 SHL SUB SWAP1 SWAP5 AND SWAP5 SWAP3 SWAP4 SWAP2 SWAP3 SWAP1 SWAP2 PUSH1 0xFF AND SWAP1 DUP8 JUMP JUMPDEST PUSH1 0x40 DUP1 MLOAD SWAP8 DUP9 MSTORE PUSH1 0x1 PUSH1 0x1 PUSH1 0xA0 SHL SUB SWAP1 SWAP7 AND PUSH1 0x20 DUP9 ADD MSTORE SWAP5 DUP7 ADD SWAP4 SWAP1 SWAP4 MSTORE PUSH1 0x60 DUP6 ADD SWAP2 SWAP1 SWAP2 MSTORE PUSH1 0x80 DUP5 ADD MSTORE ISZERO ISZERO PUSH1 0xA0 DUP4 ADD MSTORE PUSH1 0xC0 DUP3 ADD MSTORE PUSH1 0xE0 ADD PUSH2 0x37B JUMP JUMPDEST CALLVALUE DUP1 ISZERO PUSH2 0x93F JUMPI PUSH1 0x0 DUP1 REVERT JUMPDEST POP PUSH2 0x953 PUSH2 0x94E CALLDATASIZE PUSH1 0x4 PUSH2 0x2E05 JUMP JUMPDEST PUSH2 0x1B86 JUMP JUMPDEST PUSH1 0x40 MLOAD PUSH2 0x37B SWAP2 SWAP1 PUSH2 0x2E4A JUMP JUMPDEST CALLVALUE DUP1 ISZERO PUSH2 0x96C JUMPI PUSH1 0x0 DUP1 REVERT JUMPDEST POP PUSH2 0x395 PUSH2 0xBB8 DUP2 JUMP JUMPDEST CALLVALUE DUP1 ISZERO PUSH2 0x982 JUMPI PUSH1 0x0 DUP1 REVERT JUMPDEST POP PUSH2 0x395 PUSH2 0x991 CALLDATASIZE PUSH1 0x4 PUSH2 0x2C25 JUMP JUMPDEST PUSH1 0x14 PUSH1 0x20 MSTORE PUSH1 0x0 SWAP1 DUP2 MSTORE PUSH1 0x40 SWAP1 KECCAK256 SLOAD DUP2 JUMP JUMPDEST CALLVALUE DUP1 ISZERO PUSH2 0x9AF JUMPI PUSH1 0x0 DUP1 REVERT JUMPDEST POP PUSH2 0x395 PUSH7 0x21C0331D5DC000 DUP2 JUMP JUMPDEST CALLVALUE DUP1 ISZERO PUSH2 0x9CA JUMPI PUSH1 0x0 DUP1 REVERT JUMPDEST POP PUSH2 0x395 PUSH1 0x6 SLOAD DUP2 JUMP JUMPDEST CALLVALUE DUP1 ISZERO PUSH2 0x9E0 JUMPI PUSH1 0x0 DUP1 REVERT JUMPDEST POP PUSH2 0x395 PUSH1 0x4 SLOAD DUP2 JUMP JUMPDEST CALLVALUE DUP1 ISZERO PUSH2 0x9F6 JUMPI PUSH1 0x0 DUP1 REVERT JUMPDEST POP PUSH2 0x395 PUSH1 0x7 SLOAD DUP2 JUMP JUMPDEST CALLVALUE DUP1 ISZERO PUSH2 0xA0C JUMPI PUSH1 0x0 DUP1 REVERT JUMPDEST POP PUSH2 0x395 PUSH9 0x3635C9ADC5DEA00000 DUP2 JUMP JUMPDEST CALLVALUE DUP1 ISZERO PUSH2 0xA29 JUMPI PUSH1 0x0 DUP1 REVERT JUMPDEST POP PUSH2 0x536 PUSH2 0xA38 CALLDATASIZE PUSH1 0x4 PUSH2 0x2DD9 JUMP JUMPDEST PUSH2 0x1C7B JUMP JUMPDEST CALLVALUE DUP1 ISZERO PUSH2 0xA49 JUMPI PUSH1 0x0 DUP1 REVERT JUMPDEST POP PUSH2 0x41D PUSH2 0xA58 CALLDATASIZE PUSH1 0x4 PUSH2 0x2E8D JUMP JUMPDEST PUSH2 0x1CF0 JUMP JUMPDEST CALLVALUE DUP1 ISZERO PUSH2 0xA69 JUMPI PUSH1 0x0 DUP1 REVERT JUMPDEST POP PUSH2 0x395 PUSH2 0xA78 CALLDATASIZE PUSH1 0x4 PUSH2 0x2BF0 JUMP JUMPDEST PUSH1 0x0 SWAP1 DUP2 MSTORE PUSH1 0xE PUSH1 0x20 MSTORE PUSH1 0x40 SWAP1 KECCAK256 SLOAD SWAP1 JUMP JUMPDEST PUSH2 0x41D PUSH2 0xA98 CALLDATASIZE PUSH1 0x4 PUSH2 0x2BF0 JUMP JUMPDEST PUSH2 0x218F JUMP JUMPDEST CALLVALUE DUP1 ISZERO PUSH2 0xAA9 JUMPI PUSH1 0x0 DUP1 REVERT JUMPDEST POP PUSH2 0x395 PUSH9 0x56BC75E2D63100000 DUP2 JUMP JUMPDEST CALLVALUE DUP1 ISZERO PUSH2 0xAC6 JUMPI PUSH1 0x0 DUP1 REVERT JUMPDEST POP PUSH2 0x395 PUSH1 0xA SLOAD DUP2 JUMP JUMPDEST CALLVALUE DUP1 ISZERO PUSH2 0xADC JUMPI PUSH1 0x0 DUP1 REVERT JUMPDEST POP PUSH2 0x395 PUSH2 0x2710 DUP2 JUMP JUMPDEST CALLVALUE DUP1 ISZERO PUSH2 0xAF2 JUMPI PUSH1 0x0 DUP1 REVERT JUMPDEST POP PUSH1 0x1 SLOAD PUSH2 0x587 SWAP1 PUSH1 0x1 PUSH1 0x1 PUSH1 0xA0 SHL SUB AND DUP2 JUMP JUMPDEST CALLVALUE DUP1 ISZERO PUSH2 0xB12 JUMPI PUSH1 0x0 DUP1 REVERT JUMPDEST POP PUSH2 0x41D PUSH2 0xB21 CALLDATASIZE PUSH1 0x4 PUSH2 0x2C25 JUMP JUMPDEST PUSH2 0x2426 JUMP JUMPDEST CALLVALUE DUP1 ISZERO PUSH2 0xB32 JUMPI PUSH1 0x0 DUP1 REVERT JUMPDEST POP PUSH2 0x41D PUSH2 0xB41 CALLDATASIZE PUSH1 0x4 PUSH2 0x2C25 JUMP JUMPDEST PUSH2 0x24CA JUMP JUMPDEST CALLVALUE DUP1 ISZERO PUSH2 0xB52 JUMPI PUSH1 0x0 DUP1 REVERT JUMPDEST POP PUSH2 0x41D PUSH2 0xB61 CALLDATASIZE PUSH1 0x4 PUSH2 0x2BF0 JUMP JUMPDEST PUSH2 0x256D JUMP JUMPDEST CALLVALUE DUP1 ISZERO PUSH2 0xB72 JUMPI PUSH1 0x0 DUP1 REVERT JUMPDEST POP PUSH2 0x395 PUSH1 0x9 SLOAD DUP2 JUMP JUMPDEST PUSH1 0x0 DUP2 DUP2 MSTORE PUSH1 0xD PUSH1 0x20 MSTORE PUSH1 0x40 DUP2 KECCAK256 SLOAD DUP2 SWAP1 DUP2 SWAP1 DUP2 SUB PUSH2 0xBAE JUMPI PUSH1 0x40 MLOAD PUSH4 0x3D4572D PUSH1 0xE5 SHL DUP2 MSTORE PUSH1 0x4 ADD PUSH1 0x40 MLOAD DUP1 SWAP2 SUB SWAP1 REVERT JUMPDEST PUSH1 0x0 DUP5 DUP2 MSTORE PUSH1 0x10 PUSH1 0x20 MSTORE PUSH1 0x40 DUP2 KECCAK256 PUSH1 0x3 DUP2 ADD SLOAD SWAP1 SWAP2 SWAP1 ISZERO PUSH2 0xBD3 JUMPI DUP2 PUSH1 0x3 ADD SLOAD PUSH2 0xBDE JUMP JUMPDEST PUSH9 0x1B1AE4D6E2EF500000 JUMPDEST PUSH1 0x6 DUP4 ADD SLOAD PUSH1 0x0 DUP9 DUP2 MSTORE PUSH1 0x13 PUSH1 0x20 MSTORE PUSH1 0x40 SWAP1 KECCAK256 SLOAD SWAP2 SWAP3 POP SWAP1 PUSH2 0xBFF DUP4 PUSH2 0x2865 JUMP JUMPDEST SWAP5 POP SWAP5 POP SWAP5 POP POP POP SWAP2 SWAP4 SWAP1 SWAP3 POP JUMP JUMPDEST PUSH1 0x0 SLOAD PUSH1 0x1 PUSH1 0x1 PUSH1 0xA0 SHL SUB AND CALLER EQ PUSH2 0xC39 JUMPI PUSH1 0x40 MLOAD PUSH4 0x30CD7471 PUSH1 0xE0 SHL DUP2 MSTORE PUSH1 0x4 ADD PUSH1 0x40 MLOAD DUP1 SWAP2 SUB SWAP1 REVERT JUMPDEST PUSH1 0x3 DUP1 SLOAD DUP3 ISZERO ISZERO PUSH1 0x1 PUSH1 0xA0 SHL MUL PUSH1 0xFF PUSH1 0xA0 SHL NOT SWAP1 SWAP2 AND OR SWAP1 SSTORE PUSH1 0x40 MLOAD PUSH32 0xB31006682779D0AC02864BEE834675BAF4592A679BFE75EDD5E5847B52EF6F6E SWAP1 PUSH2 0xC86 SWAP1 DUP4 ISZERO ISZERO DUP2 MSTORE PUSH1 0x20 ADD SWAP1 JUMP JUMPDEST PUSH1 0x40 MLOAD DUP1 SWAP2 SUB SWAP1 LOG1 POP JUMP JUMPDEST PUSH1 0x0 DUP2 DUP2 MSTORE PUSH1 0xD PUSH1 0x20 MSTORE PUSH1 0x40 DUP2 KECCAK256 SLOAD DUP2 SWAP1 DUP2 SWAP1 DUP2 SWAP1 DUP2 SWAP1 DUP2 SWAP1 DUP2 SUB PUSH2 0xCC9 JUMPI PUSH1 0x40 MLOAD PUSH4 0x3D4572D PUSH1 0xE5 SHL DUP2 MSTORE PUSH1 0x4 ADD PUSH1 0x40 MLOAD DUP1 SWAP2 SUB SWAP1 REVERT JUMPDEST PUSH1 0x0 DUP8 DUP2 MSTORE PUSH1 0x10 PUSH1 0x20 MSTORE PUSH1 0x40 DUP2 KECCAK256 PUSH1 0x1 DUP2 ADD SLOAD SWAP1 SWAP2 SWAP1 PUSH1 0x1 PUSH1 0x1 PUSH1 0xA0 SHL SUB AND PUSH2 0xD09 JUMPI PUSH1 0x0 DUP10 DUP2 MSTORE PUSH1 0x11 PUSH1 0x20 MSTORE PUSH1 0x40 SWAP1 KECCAK256 SLOAD PUSH1 0x1 PUSH1 0x1 PUSH1 0xA0 SHL SUB AND PUSH2 0xD18 JUMP JUMPDEST PUSH1 0x1 DUP3 ADD SLOAD PUSH1 0x1 PUSH1 0x1 PUSH1 0xA0 SHL SUB AND JUMPDEST SWAP1 POP PUSH1 0x0 DUP3 PUSH1 0x2 ADD SLOAD PUSH1 0x0 SUB PUSH2 0xD3F JUMPI PUSH1 0x0 DUP11 DUP2 MSTORE PUSH1 0xD PUSH1 0x20 MSTORE PUSH1 0x40 SWAP1 KECCAK256 PUSH1 0x1 ADD SLOAD PUSH2 0xD45 JUMP JUMPDEST DUP3 PUSH1 0x2 ADD SLOAD JUMPDEST SWAP1 POP DUP3 PUSH1 0x3 ADD SLOAD PUSH1 0x0 EQ PUSH2 0xD5D JUMPI DUP3 PUSH1 0x3 ADD SLOAD PUSH2 0xD68 JUMP JUMPDEST PUSH9 0x1B1AE4D6E2EF500000 JUMPDEST PUSH1 0x4 DUP5 ADD SLOAD PUSH1 0x5 DUP6 ADD SLOAD PUSH1 0x6 SWAP1 SWAP6 ADD SLOAD SWAP2 SWAP13 SWAP1 SWAP12 POP PUSH1 0xFF SWAP1 SWAP5 AND SWAP10 POP SWAP8 POP SWAP1 SWAP6 POP SWAP4 POP SWAP2 POP POP JUMP JUMPDEST PUSH1 0x0 DUP2 DUP2 MSTORE PUSH1 0xD PUSH1 0x20 MSTORE PUSH1 0x40 DUP2 KECCAK256 SLOAD DUP2 SUB PUSH2 0xDBE JUMPI PUSH1 0x40 MLOAD PUSH4 0x3D4572D PUSH1 0xE5 SHL DUP2 MSTORE PUSH1 0x4 ADD PUSH1 0x40 MLOAD DUP1 SWAP2 SUB SWAP1 REVERT JUMPDEST PUSH1 0x0 DUP3 DUP2 MSTORE PUSH1 0x10 PUSH1 0x20 MSTORE PUSH1 0x40 DUP2 KECCAK256 PUSH1 0x3 ADD SLOAD ISZERO PUSH2 0xDEC JUMPI PUSH1 0x0 DUP4 DUP2 MSTORE PUSH1 0x10 PUSH1 0x20 MSTORE PUSH1 0x40 SWAP1 KECCAK256 PUSH1 0x3 ADD SLOAD PUSH2 0xDF7 JUMP JUMPDEST PUSH9 0x1B1AE4D6E2EF500000 JUMPDEST SWAP1 POP PUSH2 0xE02 DUP2 PUSH2 0x2865 JUMP JUMPDEST SWAP4 SWAP3 POP POP POP JUMP JUMPDEST PUSH1 0x3 SLOAD PUSH1 0x1 PUSH1 0xA0 SHL SWAP1 DIV PUSH1 0xFF AND ISZERO PUSH2 0xE34 JUMPI PUSH1 0x40 MLOAD PUSH4 0xAB35696F PUSH1 0xE0 SHL DUP2 MSTORE PUSH1 0x4 ADD PUSH1 0x40 MLOAD DUP1 SWAP2 SUB SWAP1 REVERT JUMPDEST PUSH1 0x0 DUP2 DUP2 MSTORE PUSH1 0xD PUSH1 0x20 MSTORE PUSH1 0x40 DUP2 KECCAK256 SLOAD SWAP1 SUB PUSH2 0xE62 JUMPI PUSH1 0x40 MLOAD PUSH4 0x3D4572D PUSH1 0xE5 SHL DUP2 MSTORE PUSH1 0x4 ADD PUSH1 0x40 MLOAD DUP1 SWAP2 SUB SWAP1 REVERT JUMPDEST PUSH1 0x0 PUSH2 0xE6D DUP3 PUSH2 0x2911 JUMP JUMPDEST PUSH1 0x1 DUP2 ADD SLOAD SWAP1 SWAP2 POP PUSH1 0x1 PUSH1 0x1 PUSH1 0xA0 SHL SUB AND CALLER EQ PUSH2 0xE9D JUMPI PUSH1 0x40 MLOAD PUSH4 0x27318097 PUSH1 0xE1 SHL DUP2 MSTORE PUSH1 0x4 ADD PUSH1 0x40 MLOAD DUP1 SWAP2 SUB SWAP1 REVERT JUMPDEST PUSH1 0x5 DUP2 ADD SLOAD PUSH1 0xFF AND ISZERO PUSH2 0xEC3 JUMPI PUSH1 0x40 MLOAD PUSH4 0x5D51AE11 PUSH1 0xE1 SHL DUP2 MSTORE PUSH1 0x4 ADD PUSH1 0x40 MLOAD DUP1 SWAP2 SUB SWAP1 REVERT JUMPDEST PUSH1 0x5 DUP2 ADD DUP1 SLOAD PUSH1 0xFF NOT AND PUSH1 0x1 OR SWAP1 SSTORE PUSH1 0x40 MLOAD CALLER SWAP1 DUP4 SWAP1 PUSH32 0x4FC8BA7F4F3C695895C779EB7FDE668149B9EED94BFC8E5DDA5899C40ECA973B SWAP1 PUSH1 0x0 SWAP1 LOG3 POP POP JUMP JUMPDEST PUSH1 0x0 DUP2 DUP2 MSTORE PUSH1 0xD PUSH1 0x20 MSTORE PUSH1 0x40 DUP2 KECCAK256 DUP1 SLOAD PUSH1 0x1 DUP3 ADD SLOAD PUSH1 0x2 DUP4 ADD SLOAD PUSH1 0x3 DUP5 ADD SLOAD PUSH1 0x5 DUP6 ADD SLOAD PUSH1 0x6 DUP7 ADD SLOAD PUSH1 0x4 DUP8 ADD DUP1 SLOAD DUP10 SWAP9 DUP10 SWAP9 DUP10 SWAP9 PUSH1 0x60 SWAP9 DUP11 SWAP9 DUP10 SWAP9 SWAP5 SWAP8 SWAP4 SWAP7 SWAP3 SWAP6 PUSH1 0xFF SWAP1 SWAP3 AND SWAP5 SWAP1 SWAP4 PUSH1 0x1 PUSH1 0x1 PUSH1 0xA0 SHL SUB SWAP1 SWAP2 AND SWAP2 DUP4 SWAP1 PUSH2 0xF64 SWAP1 PUSH2 0x2EC2 JUMP JUMPDEST DUP1 PUSH1 0x1F ADD PUSH1 0x20 DUP1 SWAP2 DIV MUL PUSH1 0x20 ADD PUSH1 0x40 MLOAD SWAP1 DUP2 ADD PUSH1 0x40 MSTORE DUP1 SWAP3 SWAP2 SWAP1 DUP2 DUP2 MSTORE PUSH1 0x20 ADD DUP3 DUP1 SLOAD PUSH2 0xF90 SWAP1 PUSH2 0x2EC2 JUMP JUMPDEST DUP1 ISZERO PUSH2 0xFDD JUMPI DUP1 PUSH1 0x1F LT PUSH2 0xFB2 JUMPI PUSH2 0x100 DUP1 DUP4 SLOAD DIV MUL DUP4 MSTORE SWAP2 PUSH1 0x20 ADD SWAP2 PUSH2 0xFDD JUMP JUMPDEST DUP3 ADD SWAP2 SWAP1 PUSH1 0x0 MSTORE PUSH1 0x20 PUSH1 0x0 KECCAK256 SWAP1 JUMPDEST DUP2 SLOAD DUP2 MSTORE SWAP1 PUSH1 0x1 ADD SWAP1 PUSH1 0x20 ADD DUP1 DUP4 GT PUSH2 0xFC0 JUMPI DUP3 SWAP1 SUB PUSH1 0x1F AND DUP3 ADD SWAP2 JUMPDEST POP POP POP POP POP SWAP3 POP SWAP8 POP SWAP8 POP SWAP8 POP SWAP8 POP SWAP8 POP SWAP8 POP SWAP8 POP POP SWAP2 SWAP4 SWAP6 SWAP8 SWAP1 SWAP3 SWAP5 SWAP7 POP JUMP JUMPDEST PUSH1 0x3 SLOAD PUSH1 0x1 PUSH1 0xA0 SHL SWAP1 DIV PUSH1 0xFF AND ISZERO PUSH2 0x1029 JUMPI PUSH1 0x40 MLOAD PUSH4 0xAB35696F PUSH1 0xE0 SHL DUP2 MSTORE PUSH1 0x4 ADD PUSH1 0x40 MLOAD DUP1 SWAP2 SUB SWAP1 REVERT JUMPDEST PUSH1 0x16 SLOAD PUSH1 0x1 EQ PUSH2 0x104C JUMPI PUSH1 0x40 MLOAD PUSH4 0x1762C6F3 PUSH1 0xE0 SHL DUP2 MSTORE PUSH1 0x4 ADD PUSH1 0x40 MLOAD DUP1 SWAP2 SUB SWAP1 REVERT JUMPDEST PUSH1 0x2 PUSH1 0x16 SSTORE DUP7 PUSH2 0x106F JUMPI PUSH1 0x40 MLOAD PUSH4 0xB780D61F PUSH1 0xE0 SHL DUP2 MSTORE PUSH1 0x4 ADD PUSH1 0x40 MLOAD DUP1 SWAP2 SUB SWAP1 REVERT JUMPDEST DUP6 ISZERO DUP1 PUSH2 0x107C JUMPI POP PUSH1 0x64 DUP7 GT JUMPDEST ISZERO PUSH2 0x109A JUMPI PUSH1 0x40 MLOAD PUSH4 0xF7FCB29 PUSH1 0xE2 SHL DUP2 MSTORE PUSH1 0x4 ADD PUSH1 0x40 MLOAD DUP1 SWAP2 SUB SWAP1 REVERT JUMPDEST PUSH1 0x0 DUP8 DUP2 MSTORE PUSH1 0xD PUSH1 0x20 MSTORE PUSH1 0x40 SWAP1 KECCAK256 SLOAD ISZERO PUSH2 0x10C7 JUMPI PUSH1 0x40 MLOAD PUSH4 0x5665E779 PUSH1 0xE1 SHL DUP2 MSTORE PUSH1 0x4 ADD PUSH1 0x40 MLOAD DUP1 SWAP2 SUB SWAP1 REVERT JUMPDEST PUSH7 0x21C0331D5DC000 CALLVALUE LT ISZERO PUSH2 0x1103 JUMPI PUSH1 0x40 MLOAD PUSH4 0x3EBBC337 PUSH1 0xE0 SHL DUP2 MSTORE PUSH7 0x21C0331D5DC000 PUSH1 0x4 DUP3 ADD MSTORE CALLVALUE PUSH1 0x24 DUP3 ADD MSTORE PUSH1 0x44 ADD JUMPDEST PUSH1 0x40 MLOAD DUP1 SWAP2 SUB SWAP1 REVERT JUMPDEST PUSH1 0x0 PUSH2 0x1116 PUSH7 0x21C0331D5DC000 CALLVALUE PUSH2 0x2F12 JUMP JUMPDEST SWAP1 POP PUSH1 0x0 PUSH2 0x2710 PUSH2 0x1130 PUSH2 0xBB8 PUSH7 0x21C0331D5DC000 PUSH2 0x2F25 JUMP JUMPDEST PUSH2 0x113A SWAP2 SWAP1 PUSH2 0x2F3C JUMP JUMPDEST SWAP1 POP PUSH1 0x0 PUSH2 0x114F DUP3 PUSH7 0x21C0331D5DC000 PUSH2 0x2F12 JUMP JUMPDEST SWAP1 POP PUSH1 0x0 PUSH7 0x21C0331D5DC000 PUSH1 0xA PUSH1 0x0 DUP3 DUP3 SLOAD PUSH2 0x116C SWAP2 SWAP1 PUSH2 0x2F5E JUMP JUMPDEST SWAP3 POP POP DUP2 SWAP1 SSTORE POP DUP3 PUSH1 0xB PUSH1 0x0 DUP3 DUP3 SLOAD PUSH2 0x1185 SWAP2 SWAP1 PUSH2 0x2F5E JUMP JUMPDEST SWAP3 POP POP DUP2 SWAP1 SSTORE POP DUP2 PUSH1 0xC PUSH1 0x0 DUP3 DUP3 SLOAD PUSH2 0x119E SWAP2 SWAP1 PUSH2 0x2F5E JUMP JUMPDEST SWAP3 POP POP DUP2 SWAP1 SSTORE POP PUSH1 0x1 PUSH1 0x4 PUSH1 0x0 DUP3 DUP3 SLOAD PUSH2 0x11B8 SWAP2 SWAP1 PUSH2 0x2F5E JUMP JUMPDEST SWAP1 SWAP2 SSTORE POP DUP6 SWAP1 POP PUSH2 0x125B JUMPI PUSH1 0x1 PUSH1 0x5 PUSH1 0x0 DUP3 DUP3 SLOAD PUSH2 0x11D6 SWAP2 SWAP1 PUSH2 0x2F5E JUMP JUMPDEST SWAP3 POP POP DUP2 SWAP1 SSTORE POP PUSH1 0x1 PUSH1 0x7 PUSH1 0x0 DUP3 DUP3 SLOAD PUSH2 0x11F0 SWAP2 SWAP1 PUSH2 0x2F5E JUMP JUMPDEST SWAP1 SWAP2 SSTORE POP PUSH2 0x1201 SWAP1 POP DUP11 PUSH1 0x32 PUSH2 0x2F25 JUMP JUMPDEST PUSH2 0x1213 SWAP1 PUSH8 0xDE0B6B3A7640000 PUSH2 0x2F25 JUMP JUMPDEST SWAP1 POP PUSH10 0x10F0CF064DD59200000 DUP2 GT ISZERO PUSH2 0x1234 JUMPI POP PUSH10 0x10F0CF064DD59200000 JUMPDEST DUP1 PUSH1 0x8 PUSH1 0x0 DUP3 DUP3 SLOAD PUSH2 0x1246 SWAP2 SWAP1 PUSH2 0x2F5E JUMP JUMPDEST SWAP1 SWAP2 SSTORE POP PUSH2 0x1256 SWAP1 POP CALLER DUP3 PUSH2 0x29C1 JUMP JUMPDEST PUSH2 0x1274 JUMP JUMPDEST PUSH1 0x1 PUSH1 0x6 PUSH1 0x0 DUP3 DUP3 SLOAD PUSH2 0x126E SWAP2 SWAP1 PUSH2 0x2F5E JUMP JUMPDEST SWAP1 SWAP2 SSTORE POP POP JUMPDEST PUSH1 0x40 MLOAD DUP1 PUSH1 0xE0 ADD PUSH1 0x40 MSTORE DUP1 TIMESTAMP DUP2 MSTORE PUSH1 0x20 ADD DUP12 DUP2 MSTORE PUSH1 0x20 ADD DUP7 ISZERO ISZERO DUP2 MSTORE PUSH1 0x20 ADD DUP11 DUP11 PUSH1 0x40 MLOAD PUSH2 0x12A3 SWAP3 SWAP2 SWAP1 PUSH2 0x2F71 JUMP JUMPDEST PUSH1 0x40 MLOAD DUP1 SWAP2 SUB SWAP1 KECCAK256 DUP2 MSTORE PUSH1 0x20 ADD DUP9 DUP9 DUP1 DUP1 PUSH1 0x1F ADD PUSH1 0x20 DUP1 SWAP2 DIV MUL PUSH1 0x20 ADD PUSH1 0x40 MLOAD SWAP1 DUP2 ADD PUSH1 0x40 MSTORE DUP1 SWAP4 SWAP3 SWAP2 SWAP1 DUP2 DUP2 MSTORE PUSH1 0x20 ADD DUP4 DUP4 DUP1 DUP3 DUP5 CALLDATACOPY PUSH1 0x0 SWAP3 ADD DUP3 SWAP1 MSTORE POP SWAP4 DUP6 MSTORE POP POP CALLER PUSH1 0x20 DUP1 DUP6 ADD SWAP2 SWAP1 SWAP2 MSTORE PUSH1 0x40 SWAP4 DUP5 ADD DUP7 SWAP1 MSTORE DUP16 DUP4 MSTORE PUSH1 0xD DUP2 MSTORE SWAP2 DUP4 SWAP1 KECCAK256 DUP5 MLOAD DUP2 SSTORE SWAP2 DUP5 ADD MLOAD PUSH1 0x1 DUP4 ADD SSTORE POP SWAP1 DUP3 ADD MLOAD PUSH1 0x2 DUP3 ADD DUP1 SLOAD PUSH1 0xFF NOT AND SWAP2 ISZERO ISZERO SWAP2 SWAP1 SWAP2 OR SWAP1 SSTORE PUSH1 0x60 DUP3 ADD MLOAD PUSH1 0x3 DUP3 ADD SSTORE PUSH1 0x80 DUP3 ADD MLOAD PUSH1 0x4 DUP3 ADD SWAP1 PUSH2 0x1347 SWAP1 DUP3 PUSH2 0x2FE5 JUMP JUMPDEST POP PUSH1 0xA0 DUP3 ADD MLOAD PUSH1 0x5 DUP3 ADD DUP1 SLOAD PUSH1 0x1 PUSH1 0x1 PUSH1 0xA0 SHL SUB SWAP1 SWAP3 AND PUSH1 0x1 PUSH1 0x1 PUSH1 0xA0 SHL SUB NOT SWAP3 DUP4 AND OR SWAP1 SSTORE PUSH1 0xC0 SWAP1 SWAP3 ADD MLOAD PUSH1 0x6 SWAP1 SWAP2 ADD SSTORE PUSH1 0x0 DUP13 DUP2 MSTORE PUSH1 0x11 PUSH1 0x20 MSTORE PUSH1 0x40 DUP2 KECCAK256 DUP1 SLOAD SWAP1 SWAP3 AND CALLER OR SWAP1 SWAP2 SSTORE PUSH1 0xF DUP1 SLOAD PUSH1 0x1 DUP2 ADD DUP3 SSTORE SWAP2 MSTORE PUSH32 0x8D1108E10BCB7C27DDDFC02ED9D693A074039D026CF4EA4240B40F7D581AC802 ADD DUP12 SWAP1 SSTORE PUSH2 0x13CB DUP12 PUSH2 0x2911 JUMP JUMPDEST POP DUP3 ISZERO PUSH2 0x13E8 JUMPI PUSH1 0x3 SLOAD PUSH2 0x13E8 SWAP1 PUSH1 0x1 PUSH1 0x1 PUSH1 0xA0 SHL SUB AND DUP5 PUSH2 0x29F9 JUMP JUMPDEST DUP4 ISZERO PUSH2 0x13F8 JUMPI PUSH2 0x13F8 CALLER DUP6 PUSH2 0x29F9 JUMP JUMPDEST CALLER PUSH1 0x1 PUSH1 0x1 PUSH1 0xA0 SHL SUB AND DUP12 PUSH32 0x356E37B4B3A3DBBF61E05450C7D74955350550A659BD8792D406B6C27133A0E1 DUP13 DUP9 DUP6 DUP13 DUP13 PUSH1 0x40 MLOAD PUSH2 0x143A SWAP6 SWAP5 SWAP4 SWAP3 SWAP2 SWAP1 PUSH2 0x30A4 JUMP JUMPDEST PUSH1 0x40 MLOAD DUP1 SWAP2 SUB SWAP1 LOG3 PUSH1 0x40 DUP1 MLOAD PUSH7 0x21C0331D5DC000 DUP2 MSTORE PUSH1 0x20 DUP2 ADD DUP6 SWAP1 MSTORE SWAP1 DUP2 ADD DUP4 SWAP1 MSTORE DUP12 SWAP1 CALLER SWAP1 PUSH32 0xD381803FAAB74092AEDC8DE24231E595CFD3AF1A0997EAD17E7BCD54D9777C10 SWAP1 PUSH1 0x60 ADD PUSH1 0x40 MLOAD DUP1 SWAP2 SUB SWAP1 LOG3 POP POP PUSH1 0x1 PUSH1 0x16 SSTORE POP POP POP POP POP POP POP POP POP JUMP JUMPDEST PUSH1 0x0 DUP3 DUP2 MSTORE PUSH1 0x12 PUSH1 0x20 SWAP1 DUP2 MSTORE PUSH1 0x40 DUP1 DUP4 KECCAK256 PUSH1 0x1 PUSH1 0x1 PUSH1 0xA0 SHL SUB DUP6 AND DUP5 MSTORE SWAP1 SWAP2 MSTORE SWAP1 KECCAK256 SLOAD PUSH1 0xFF AND JUMPDEST SWAP3 SWAP2 POP POP JUMP JUMPDEST PUSH1 0x0 DUP3 DUP2 MSTORE PUSH1 0xE PUSH1 0x20 MSTORE PUSH1 0x40 DUP2 KECCAK256 SLOAD DUP2 SWAP1 DUP2 SWAP1 DUP2 SWAP1 DUP2 SWAP1 DUP2 SWAP1 DUP2 SWAP1 DUP9 LT PUSH2 0x1507 JUMPI PUSH1 0x40 MLOAD PUSH4 0x5878AE85 PUSH1 0xE1 SHL DUP2 MSTORE PUSH1 0x4 ADD PUSH1 0x40 MLOAD DUP1 SWAP2 SUB SWAP1 REVERT JUMPDEST PUSH1 0x0 DUP10 DUP2 MSTORE PUSH1 0xE PUSH1 0x20 MSTORE PUSH1 0x40 DUP2 KECCAK256 DUP1 SLOAD DUP11 SWAP1 DUP2 LT PUSH2 0x1527 JUMPI PUSH2 0x1527 PUSH2 0x30EA JUMP JUMPDEST PUSH1 0x0 SWAP2 DUP3 MSTORE PUSH1 0x20 SWAP1 SWAP2 KECCAK256 PUSH1 0x5 SWAP1 SWAP2 MUL ADD DUP1 SLOAD PUSH1 0x1 DUP3 ADD SLOAD PUSH1 0x2 DUP4 ADD SLOAD PUSH1 0x3 DUP5 ADD SLOAD PUSH1 0x4 SWAP1 SWAP5 ADD SLOAD SWAP3 SWAP15 PUSH1 0x1 PUSH1 0x1 PUSH1 0xA0 SHL SUB DUP4 AND SWAP15 POP PUSH1 0xFF PUSH1 0x1 PUSH1 0xA0 SHL SWAP1 SWAP4 DIV DUP4 AND SWAP14 POP SWAP1 SWAP12 POP SWAP3 SWAP10 POP DUP1 DUP3 AND SWAP9 POP PUSH2 0x100 SWAP1 SWAP2 DIV AND SWAP6 POP SWAP4 POP POP POP POP JUMP JUMPDEST PUSH1 0x3 SLOAD PUSH1 0x1 PUSH1 0xA0 SHL SWAP1 DIV PUSH1 0xFF AND ISZERO PUSH2 0x15B0 JUMPI PUSH1 0x40 MLOAD PUSH4 0xAB35696F PUSH1 0xE0 SHL DUP2 MSTORE PUSH1 0x4 ADD PUSH1 0x40 MLOAD DUP1 SWAP2 SUB SWAP1 REVERT JUMPDEST PUSH1 0x0 DUP2 DUP2 MSTORE PUSH1 0xD PUSH1 0x20 MSTORE PUSH1 0x40 DUP2 KECCAK256 SLOAD SWAP1 SUB PUSH2 0x15DE JUMPI PUSH1 0x40 MLOAD PUSH4 0x3D4572D PUSH1 0xE5 SHL DUP2 MSTORE PUSH1 0x4 ADD PUSH1 0x40 MLOAD DUP1 SWAP2 SUB SWAP1 REVERT JUMPDEST PUSH1 0x0 DUP2 DUP2 MSTORE PUSH1 0x12 PUSH1 0x20 SWAP1 DUP2 MSTORE PUSH1 0x40 DUP1 DUP4 KECCAK256 CALLER DUP5 MSTORE SWAP1 SWAP2 MSTORE SWAP1 KECCAK256 SLOAD PUSH1 0xFF AND ISZERO PUSH2 0x1619 JUMPI PUSH1 0x40 MLOAD PUSH4 0x28486B63 PUSH1 0xE1 SHL DUP2 MSTORE PUSH1 0x4 ADD PUSH1 0x40 MLOAD DUP1 SWAP2 SUB SWAP1 REVERT JUMPDEST PUSH1 0x0 PUSH2 0x1624 DUP3 PUSH2 0x2911 JUMP JUMPDEST PUSH1 0x5 DUP2 ADD SLOAD SWAP1 SWAP2 POP PUSH1 0xFF AND ISZERO PUSH2 0x164D JUMPI PUSH1 0x40 MLOAD PUSH4 0x2444F8B7 PUSH1 0xE1 SHL DUP2 MSTORE PUSH1 0x4 ADD PUSH1 0x40 MLOAD DUP1 SWAP2 SUB SWAP1 REVERT JUMPDEST PUSH1 0x40 MLOAD PUSH4 0xAAAC37A1 PUSH1 0xE0 SHL DUP2 MSTORE CALLER PUSH1 0x4 DUP3 ADD MSTORE PUSH1 0x0 SWAP1 PUSH32 0x0 PUSH1 0x1 PUSH1 0x1 PUSH1 0xA0 SHL SUB AND SWAP1 PUSH4 0xAAAC37A1 SWAP1 PUSH1 0x24 ADD PUSH1 0x20 PUSH1 0x40 MLOAD DUP1 DUP4 SUB DUP2 DUP7 GAS STATICCALL ISZERO DUP1 ISZERO PUSH2 0x16B4 JUMPI RETURNDATASIZE PUSH1 0x0 DUP1 RETURNDATACOPY RETURNDATASIZE PUSH1 0x0 REVERT JUMPDEST POP POP POP POP PUSH1 0x40 MLOAD RETURNDATASIZE PUSH1 0x1F NOT PUSH1 0x1F DUP3 ADD AND DUP3 ADD DUP1 PUSH1 0x40 MSTORE POP DUP2 ADD SWAP1 PUSH2 0x16D8 SWAP2 SWAP1 PUSH2 0x3100 JUMP JUMPDEST PUSH1 0x0 DUP5 DUP2 MSTORE PUSH1 0xD PUSH1 0x20 MSTORE PUSH1 0x40 DUP2 KECCAK256 PUSH1 0x1 ADD SLOAD SWAP2 SWAP3 POP SWAP1 PUSH2 0x16FF SWAP1 PUSH7 0x2386F26FC10000 PUSH2 0x2F25 JUMP JUMPDEST SWAP1 POP DUP1 DUP3 LT ISZERO PUSH2 0x172C JUMPI PUSH1 0x40 MLOAD PUSH4 0x20200BC5 PUSH1 0xE0 SHL DUP2 MSTORE PUSH1 0x4 DUP2 ADD DUP4 SWAP1 MSTORE PUSH1 0x24 DUP2 ADD DUP3 SWAP1 MSTORE PUSH1 0x44 ADD PUSH2 0x10FA JUMP JUMPDEST PUSH9 0x3635C9ADC5DEA00000 DUP3 LT ISZERO PUSH2 0x1768 JUMPI PUSH1 0x40 MLOAD PUSH4 0x20200BC5 PUSH1 0xE0 SHL DUP2 MSTORE PUSH1 0x4 DUP2 ADD DUP4 SWAP1 MSTORE PUSH9 0x3635C9ADC5DEA00000 PUSH1 0x24 DUP3 ADD MSTORE PUSH1 0x44 ADD PUSH2 0x10FA JUMP JUMPDEST PUSH1 0x0 DUP5 DUP2 MSTORE PUSH1 0x12 PUSH1 0x20 SWAP1 DUP2 MSTORE PUSH1 0x40 DUP1 DUP4 KECCAK256 CALLER DUP5 MSTORE SWAP1 SWAP2 MSTORE DUP2 KECCAK256 DUP1 SLOAD PUSH1 0xFF NOT AND PUSH1 0x1 OR SWAP1 SSTORE PUSH1 0x64 PUSH2 0x1799 DUP4 PUSH1 0x5 PUSH2 0x2F25 JUMP JUMPDEST PUSH2 0x17A3 SWAP2 SWAP1 PUSH2 0x2F3C JUMP JUMPDEST SWAP1 POP PUSH1 0x1 PUSH1 0x1 PUSH1 0xA0 SHL SUB PUSH32 0x0 AND PUSH4 0xDE50A795 CALLER PUSH2 0x17DF DUP5 DUP8 PUSH2 0x2F5E JUMP JUMPDEST PUSH1 0x40 MLOAD PUSH1 0x1 PUSH1 0x1 PUSH1 0xE0 SHL SUB NOT PUSH1 0xE0 DUP6 SWAP1 SHL AND DUP2 MSTORE PUSH1 0x1 PUSH1 0x1 PUSH1 0xA0 SHL SUB SWAP1 SWAP3 AND PUSH1 0x4 DUP4 ADD MSTORE PUSH1 0x24 DUP3 ADD MSTORE PUSH1 0x44 ADD PUSH1 0x0 PUSH1 0x40 MLOAD DUP1 DUP4 SUB DUP2 PUSH1 0x0 DUP8 DUP1 EXTCODESIZE ISZERO DUP1 ISZERO PUSH2 0x1825 JUMPI PUSH1 0x0 DUP1 REVERT JUMPDEST POP GAS CALL ISZERO DUP1 ISZERO PUSH2 0x1839 JUMPI RETURNDATASIZE PUSH1 0x0 DUP1 RETURNDATACOPY RETURNDATASIZE PUSH1 0x0 REVERT JUMPDEST POP POP POP POP CALLER PUSH1 0x1 PUSH1 0x1 PUSH1 0xA0 SHL SUB AND DUP6 PUSH32 0x2EE8D21874599264C54876B79BF25EAE1B396C3771A178E683A9E038B634F1D7 PUSH1 0x0 PUSH1 0x40 MLOAD PUSH2 0x189D SWAP2 DUP2 MSTORE PUSH1 0x40 PUSH1 0x20 DUP3 ADD DUP2 SWAP1 MSTORE PUSH1 0xB SWAP1 DUP3 ADD MSTORE PUSH11 0x435245444942494C495459 PUSH1 0xA8 SHL PUSH1 0x60 DUP3 ADD MSTORE PUSH1 0x80 ADD SWAP1 JUMP JUMPDEST PUSH1 0x40 MLOAD DUP1 SWAP2 SUB SWAP1 LOG3 POP POP POP POP POP JUMP JUMPDEST PUSH1 0x1 SLOAD PUSH1 0x1 PUSH1 0x1 PUSH1 0xA0 SHL SUB AND CALLER EQ PUSH2 0x18D7 JUMPI PUSH1 0x40 MLOAD PUSH4 0x614E5C7 PUSH1 0xE2 SHL DUP2 MSTORE PUSH1 0x4 ADD PUSH1 0x40 MLOAD DUP1 SWAP2 SUB SWAP1 REVERT JUMPDEST PUSH1 0x0 DUP1 SLOAD CALLER PUSH1 0x1 PUSH1 0x1 PUSH1 0xA0 SHL SUB NOT DUP1 DUP4 AND DUP3 OR DUP5 SSTORE PUSH1 0x1 DUP1 SLOAD SWAP1 SWAP2 AND SWAP1 SSTORE PUSH1 0x40 MLOAD PUSH1 0x1 PUSH1 0x1 PUSH1 0xA0 SHL SUB SWAP1 SWAP3 AND SWAP3 SWAP1 SWAP2 DUP4 SWAP2 PUSH32 0x8BE0079C531659141344CD1FD0A4F28419497F9722A3DAAFE3B4186F6B6457E0 SWAP2 LOG3 POP JUMP JUMPDEST PUSH1 0x0 SLOAD PUSH1 0x1 PUSH1 0x1 PUSH1 0xA0 SHL SUB AND CALLER EQ PUSH2 0x1959 JUMPI PUSH1 0x40 MLOAD PUSH4 0x30CD7471 PUSH1 0xE0 SHL DUP2 MSTORE PUSH1 0x4 ADD PUSH1 0x40 MLOAD DUP1 SWAP2 SUB SWAP1 REVERT JUMPDEST PUSH1 0x1 PUSH1 0x1 PUSH1 0xA0 SHL SUB DUP2 AND PUSH2 0x1980 JUMPI PUSH1 0x40 MLOAD PUSH4 0xE6C4247B PUSH1 0xE0 SHL DUP2 MSTORE PUSH1 0x4 ADD PUSH1 0x40 MLOAD DUP1 SWAP2 SUB SWAP1 REVERT JUMPDEST PUSH1 0x2 DUP1 SLOAD PUSH1 0x1 PUSH1 0x1 PUSH1 0xA0 SHL SUB DUP4 DUP2 AND PUSH1 0x1 PUSH1 0x1 PUSH1 0xA0 SHL SUB NOT DUP4 AND DUP2 OR SWAP1 SWAP4 SSTORE PUSH1 0x40 MLOAD SWAP2 AND SWAP2 SWAP1 DUP3 SWAP1 PUSH32 0x78C3B417DADF69374A59793B829C52001247130433427049317BDE56607B1B7 SWAP1 PUSH1 0x0 SWAP1 LOG3 POP POP JUMP JUMPDEST PUSH1 0x3 SLOAD PUSH1 0x1 PUSH1 0xA0 SHL SWAP1 DIV PUSH1 0xFF AND ISZERO PUSH2 0x19FD JUMPI PUSH1 0x40 MLOAD PUSH4 0xAB35696F PUSH1 0xE0 SHL DUP2 MSTORE PUSH1 0x4 ADD PUSH1 0x40 MLOAD DUP1 SWAP2 SUB SWAP1 REVERT JUMPDEST PUSH1 0x16 SLOAD PUSH1 0x1 EQ PUSH2 0x1A20 JUMPI PUSH1 0x40 MLOAD PUSH4 0x1762C6F3 PUSH1 0xE0 SHL DUP2 MSTORE PUSH1 0x4 ADD PUSH1 0x40 MLOAD DUP1 SWAP2 SUB SWAP1 REVERT JUMPDEST PUSH1 0x2 PUSH1 0x16 SSTORE PUSH1 0x0 DUP3 DUP2 MSTORE PUSH1 0xD PUSH1 0x20 MSTORE PUSH1 0x40 DUP2 KECCAK256 SLOAD SWAP1 SUB PUSH2 0x1A53 JUMPI PUSH1 0x40 MLOAD PUSH4 0x3D4572D PUSH1 0xE5 SHL DUP2 MSTORE PUSH1 0x4 ADD PUSH1 0x40 MLOAD DUP1 SWAP2 SUB SWAP1 REVERT JUMPDEST PUSH2 0x1A67 CALLER ADDRESS PUSH9 0x56BC75E2D63100000 PUSH2 0x2A72 JUMP JUMPDEST PUSH1 0x0 DUP3 DUP2 MSTORE PUSH1 0xE PUSH1 0x20 SWAP1 DUP2 MSTORE PUSH1 0x40 DUP1 DUP4 KECCAK256 DUP2 MLOAD PUSH1 0xE0 DUP2 ADD DUP4 MSTORE DUP7 DUP2 MSTORE CALLER DUP2 DUP6 ADD DUP2 DUP2 MSTORE DUP8 ISZERO ISZERO DUP4 DUP7 ADD DUP2 DUP2 MSTORE PUSH9 0x56BC75E2D63100000 PUSH1 0x60 DUP7 ADD DUP2 DUP2 MSTORE TIMESTAMP PUSH1 0x80 DUP9 ADD SWAP1 DUP2 MSTORE PUSH1 0xA0 DUP9 ADD DUP13 DUP2 MSTORE PUSH1 0xC0 DUP10 ADD DUP14 DUP2 MSTORE DUP11 SLOAD PUSH1 0x1 DUP1 DUP3 ADD DUP14 SSTORE SWAP12 DUP16 MSTORE SWAP14 DUP14 SWAP1 KECCAK256 SWAP10 MLOAD PUSH1 0x5 SWAP1 SWAP15 MUL SWAP1 SWAP10 ADD SWAP13 DUP14 SSTORE SWAP6 MLOAD SWAP9 DUP13 ADD DUP1 SLOAD SWAP5 MLOAD ISZERO ISZERO PUSH1 0x1 PUSH1 0xA0 SHL MUL PUSH1 0x1 PUSH1 0x1 PUSH1 0xA8 SHL SUB NOT SWAP1 SWAP6 AND PUSH1 0x1 PUSH1 0x1 PUSH1 0xA0 SHL SUB SWAP1 SWAP11 AND SWAP10 SWAP1 SWAP10 OR SWAP4 SWAP1 SWAP4 OR SWAP1 SWAP8 SSTORE SWAP6 MLOAD PUSH1 0x2 DUP11 ADD SSTORE MLOAD PUSH1 0x3 DUP10 ADD SSTORE SWAP1 MLOAD PUSH1 0x4 SWAP1 SWAP8 ADD DUP1 SLOAD SWAP4 MLOAD ISZERO ISZERO PUSH2 0x100 MUL PUSH2 0xFF00 NOT SWAP9 ISZERO ISZERO SWAP9 SWAP1 SWAP9 AND PUSH2 0xFFFF NOT SWAP1 SWAP5 AND SWAP4 SWAP1 SWAP4 OR SWAP7 SWAP1 SWAP7 OR SWAP1 SWAP2 SSTORE DUP3 MLOAD SWAP5 DUP6 MSTORE SWAP3 DUP5 ADD MSTORE SWAP1 SWAP2 DUP5 SWAP2 PUSH32 0xA04181C550A5111EBEE021519F1381F122B78EB4E9B9194A64CD6C9DE7737351 SWAP2 ADD PUSH1 0x40 MLOAD DUP1 SWAP2 SUB SWAP1 LOG3 POP POP PUSH1 0x1 PUSH1 0x16 SSTORE JUMP JUMPDEST PUSH1 0xF SLOAD PUSH1 0x60 SWAP1 DUP1 DUP5 LT ISZERO DUP1 PUSH2 0x1B99 JUMPI POP DUP3 ISZERO JUMPDEST ISZERO PUSH2 0x1BB4 JUMPI POP POP PUSH1 0x40 DUP1 MLOAD PUSH1 0x0 DUP2 MSTORE PUSH1 0x20 DUP2 ADD SWAP1 SWAP2 MSTORE PUSH2 0x14C7 JUMP JUMPDEST PUSH1 0x0 PUSH2 0x1BC0 DUP6 DUP4 PUSH2 0x2F12 JUMP JUMPDEST SWAP1 POP PUSH1 0x0 DUP5 DUP3 LT PUSH2 0x1BD1 JUMPI DUP5 PUSH2 0x1BD3 JUMP JUMPDEST DUP2 JUMPDEST SWAP1 POP DUP1 PUSH8 0xFFFFFFFFFFFFFFFF DUP2 GT ISZERO PUSH2 0x1BEE JUMPI PUSH2 0x1BEE PUSH2 0x2F81 JUMP JUMPDEST PUSH1 0x40 MLOAD SWAP1 DUP1 DUP3 MSTORE DUP1 PUSH1 0x20 MUL PUSH1 0x20 ADD DUP3 ADD PUSH1 0x40 MSTORE DUP1 ISZERO PUSH2 0x1C17 JUMPI DUP2 PUSH1 0x20 ADD PUSH1 0x20 DUP3 MUL DUP1 CALLDATASIZE DUP4 CALLDATACOPY ADD SWAP1 POP JUMPDEST POP SWAP4 POP PUSH1 0x0 JUMPDEST DUP2 DUP2 LT ISZERO PUSH2 0x1C71 JUMPI PUSH1 0xF PUSH2 0x1C31 DUP3 DUP10 PUSH2 0x2F5E JUMP JUMPDEST DUP2 SLOAD DUP2 LT PUSH2 0x1C41 JUMPI PUSH2 0x1C41 PUSH2 0x30EA JUMP JUMPDEST SWAP1 PUSH1 0x0 MSTORE PUSH1 0x20 PUSH1 0x0 KECCAK256 ADD SLOAD DUP6 DUP3 DUP2 MLOAD DUP2 LT PUSH2 0x1C5E JUMPI PUSH2 0x1C5E PUSH2 0x30EA JUMP JUMPDEST PUSH1 0x20 SWAP1 DUP2 MUL SWAP2 SWAP1 SWAP2 ADD ADD MSTORE PUSH1 0x1 ADD PUSH2 0x1C1D JUMP JUMPDEST POP POP POP POP SWAP3 SWAP2 POP POP JUMP JUMPDEST PUSH1 0x0 DUP3 DUP2 MSTORE PUSH1 0xD PUSH1 0x20 MSTORE PUSH1 0x40 DUP2 KECCAK256 SLOAD DUP2 SUB PUSH2 0x1CA9 JUMPI PUSH1 0x40 MLOAD PUSH4 0x3D4572D PUSH1 0xE5 SHL DUP2 MSTORE PUSH1 0x4 ADD PUSH1 0x40 MLOAD DUP1 SWAP2 SUB SWAP1 REVERT JUMPDEST PUSH1 0x0 DUP4 DUP2 MSTORE PUSH1 0x10 PUSH1 0x20 MSTORE PUSH1 0x40 SWAP1 KECCAK256 PUSH1 0x5 ADD SLOAD PUSH1 0xFF AND DUP1 PUSH2 0xE02 JUMPI POP POP PUSH1 0x0 SWAP2 DUP3 MSTORE PUSH1 0x12 PUSH1 0x20 SWAP1 DUP2 MSTORE PUSH1 0x40 DUP1 DUP5 KECCAK256 PUSH1 0x1 PUSH1 0x1 PUSH1 0xA0 SHL SUB SWAP4 SWAP1 SWAP4 AND DUP5 MSTORE SWAP2 SWAP1 MSTORE SWAP1 KECCAK256 SLOAD PUSH1 0xFF AND SWAP1 JUMP JUMPDEST PUSH1 0x2 SLOAD PUSH1 0x1 PUSH1 0x1 PUSH1 0xA0 SHL SUB AND CALLER EQ PUSH2 0x1D1B JUMPI PUSH1 0x40 MLOAD PUSH4 0x1BC2178F PUSH1 0xE0 SHL DUP2 MSTORE PUSH1 0x4 ADD PUSH1 0x40 MLOAD DUP1 SWAP2 SUB SWAP1 REVERT JUMPDEST PUSH1 0x3 SLOAD PUSH1 0x1 PUSH1 0xA0 SHL SWAP1 DIV PUSH1 0xFF AND ISZERO PUSH2 0x1D46 JUMPI PUSH1 0x40 MLOAD PUSH4 0xAB35696F PUSH1 0xE0 SHL DUP2 MSTORE PUSH1 0x4 ADD PUSH1 0x40 MLOAD DUP1 SWAP2 SUB SWAP1 REVERT JUMPDEST PUSH1 0x16 SLOAD PUSH1 0x1 EQ PUSH2 0x1D69 JUMPI PUSH1 0x40 MLOAD PUSH4 0x1762C6F3 PUSH1 0xE0 SHL DUP2 MSTORE PUSH1 0x4 ADD PUSH1 0x40 MLOAD DUP1 SWAP2 SUB SWAP1 REVERT JUMPDEST PUSH1 0x2 PUSH1 0x16 SSTORE PUSH1 0x0 DUP4 DUP2 MSTORE PUSH1 0xE PUSH1 0x20 MSTORE PUSH1 0x40 SWAP1 KECCAK256 SLOAD DUP3 LT PUSH2 0x1D9C JUMPI PUSH1 0x40 MLOAD PUSH4 0x5878AE85 PUSH1 0xE1 SHL DUP2 MSTORE PUSH1 0x4 ADD PUSH1 0x40 MLOAD DUP1 SWAP2 SUB SWAP1 REVERT JUMPDEST PUSH1 0x0 DUP4 DUP2 MSTORE PUSH1 0xE PUSH1 0x20 MSTORE PUSH1 0x40 DUP2 KECCAK256 DUP1 SLOAD DUP5 SWAP1 DUP2 LT PUSH2 0x1DBC JUMPI PUSH2 0x1DBC PUSH2 0x30EA JUMP JUMPDEST PUSH1 0x0 SWAP2 DUP3 MSTORE PUSH1 0x20 SWAP1 SWAP2 KECCAK256 PUSH1 0x5 SWAP1 SWAP2 MUL ADD PUSH1 0x4 DUP2 ADD SLOAD SWAP1 SWAP2 POP PUSH1 0xFF AND ISZERO PUSH2 0x1DF5 JUMPI PUSH1 0x40 MLOAD PUSH4 0x36AB81E1 PUSH1 0xE1 SHL DUP2 MSTORE PUSH1 0x4 ADD PUSH1 0x40 MLOAD DUP1 SWAP2 SUB SWAP1 REVERT JUMPDEST PUSH1 0x4 DUP2 ADD DUP1 SLOAD PUSH1 0x1 DUP4 DUP2 ADD SLOAD PUSH1 0x1 PUSH1 0xA0 SHL SWAP1 DIV PUSH1 0xFF SWAP1 DUP2 AND ISZERO ISZERO DUP7 ISZERO ISZERO EQ PUSH2 0x100 SWAP1 DUP2 MUL PUSH2 0xFFFF NOT SWAP1 SWAP5 AND SWAP4 SWAP1 SWAP4 OR SWAP1 SWAP2 OR SWAP3 DUP4 SWAP1 SSTORE SWAP2 DIV AND ISZERO PUSH2 0x201C JUMPI PUSH1 0x1 DUP2 ADD SLOAD PUSH2 0x1E54 SWAP1 PUSH1 0x1 PUSH1 0x1 PUSH1 0xA0 SHL SUB AND PUSH9 0xAD78EBC5AC6200000 PUSH2 0x29C1 JUMP JUMPDEST PUSH9 0xAD78EBC5AC6200000 PUSH1 0x8 PUSH1 0x0 DUP3 DUP3 SLOAD PUSH2 0x1E6F SWAP2 SWAP1 PUSH2 0x2F5E JUMP JUMPDEST SWAP1 SWAP2 SSTORE POP POP PUSH1 0x1 DUP2 DUP2 ADD SLOAD PUSH1 0x1 PUSH1 0x1 PUSH1 0xA0 SHL SUB AND PUSH1 0x0 SWAP1 DUP2 MSTORE PUSH1 0x15 PUSH1 0x20 MSTORE PUSH1 0x40 DUP2 KECCAK256 DUP1 SLOAD SWAP1 SWAP2 SWAP1 PUSH2 0x1EA1 SWAP1 DUP5 SWAP1 PUSH2 0x2F5E JUMP JUMPDEST SWAP1 SWAP2 SSTORE POP POP PUSH1 0x1 DUP2 DUP2 ADD SLOAD PUSH1 0x1 PUSH1 0x1 PUSH1 0xA0 SHL SUB AND PUSH1 0x0 SWAP1 DUP2 MSTORE PUSH1 0x14 PUSH1 0x20 MSTORE PUSH1 0x40 DUP2 KECCAK256 DUP1 SLOAD SWAP1 SWAP2 SWAP1 PUSH2 0x1ED3 SWAP1 DUP5 SWAP1 PUSH2 0x2F5E JUMP JUMPDEST SWAP1 SWAP2 SSTORE POP POP PUSH1 0x1 DUP2 ADD SLOAD PUSH1 0x40 MLOAD PUSH4 0xAAAC37A1 PUSH1 0xE0 SHL DUP2 MSTORE PUSH1 0x1 PUSH1 0x1 PUSH1 0xA0 SHL SUB SWAP2 DUP3 AND PUSH1 0x4 DUP3 ADD MSTORE PUSH1 0x0 SWAP2 PUSH32 0x0 AND SWAP1 PUSH4 0xAAAC37A1 SWAP1 PUSH1 0x24 ADD PUSH1 0x20 PUSH1 0x40 MLOAD DUP1 DUP4 SUB DUP2 DUP7 GAS STATICCALL ISZERO DUP1 ISZERO PUSH2 0x1F46 JUMPI RETURNDATASIZE PUSH1 0x0 DUP1 RETURNDATACOPY RETURNDATASIZE PUSH1 0x0 REVERT JUMPDEST POP POP POP POP PUSH1 0x40 MLOAD RETURNDATASIZE PUSH1 0x1F NOT PUSH1 0x1F DUP3 ADD AND DUP3 ADD DUP1 PUSH1 0x40 MSTORE POP DUP2 ADD SWAP1 PUSH2 0x1F6A SWAP2 SWAP1 PUSH2 0x3100 JUMP JUMPDEST PUSH1 0x1 DUP4 ADD SLOAD SWAP1 SWAP2 POP PUSH1 0x1 PUSH1 0x1 PUSH1 0xA0 SHL SUB PUSH32 0x0 DUP2 AND SWAP2 PUSH4 0xDE50A795 SWAP2 AND PUSH2 0x1FB8 DUP5 PUSH9 0x56BC75E2D63100000 PUSH2 0x2F5E JUMP JUMPDEST PUSH1 0x40 MLOAD PUSH1 0x1 PUSH1 0x1 PUSH1 0xE0 SHL SUB NOT PUSH1 0xE0 DUP6 SWAP1 SHL AND DUP2 MSTORE PUSH1 0x1 PUSH1 0x1 PUSH1 0xA0 SHL SUB SWAP1 SWAP3 AND PUSH1 0x4 DUP4 ADD MSTORE PUSH1 0x24 DUP3 ADD MSTORE PUSH1 0x44 ADD PUSH1 0x0 PUSH1 0x40 MLOAD DUP1 DUP4 SUB DUP2 PUSH1 0x0 DUP8 DUP1 EXTCODESIZE ISZERO DUP1 ISZERO PUSH2 0x1FFE JUMPI PUSH1 0x0 DUP1 REVERT JUMPDEST POP GAS CALL ISZERO DUP1 ISZERO PUSH2 0x2012 JUMPI RETURNDATASIZE PUSH1 0x0 DUP1 RETURNDATACOPY RETURNDATASIZE PUSH1 0x0 REVERT JUMPDEST POP POP POP POP POP PUSH2 0x2111 JUMP JUMPDEST PUSH1 0x0 PUSH2 0x2027 DUP6 PUSH2 0x2911 JUMP JUMPDEST SWAP1 POP PUSH1 0x0 PUSH2 0x203F PUSH1 0x2 PUSH9 0x56BC75E2D63100000 PUSH2 0x2F3C JUMP JUMPDEST PUSH1 0x1 DUP4 ADD SLOAD SWAP1 SWAP2 POP PUSH2 0x205A SWAP1 PUSH1 0x1 PUSH1 0x1 PUSH1 0xA0 SHL SUB AND DUP3 PUSH2 0x29C1 JUMP JUMPDEST PUSH1 0x40 MLOAD PUSH4 0x2770A7EB PUSH1 0xE2 SHL DUP2 MSTORE ADDRESS PUSH1 0x4 DUP3 ADD MSTORE PUSH1 0x24 DUP2 ADD DUP3 SWAP1 MSTORE PUSH32 0x0 PUSH1 0x1 PUSH1 0x1 PUSH1 0xA0 SHL SUB AND SWAP1 PUSH4 0x9DC29FAC SWAP1 PUSH1 0x44 ADD PUSH1 0x0 PUSH1 0x40 MLOAD DUP1 DUP4 SUB DUP2 PUSH1 0x0 DUP8 DUP1 EXTCODESIZE ISZERO DUP1 ISZERO PUSH2 0x20C2 JUMPI PUSH1 0x0 DUP1 REVERT JUMPDEST POP GAS CALL ISZERO DUP1 ISZERO PUSH2 0x20D6 JUMPI RETURNDATASIZE PUSH1 0x0 DUP1 RETURNDATACOPY RETURNDATASIZE PUSH1 0x0 REVERT JUMPDEST POP POP POP POP DUP1 PUSH1 0x9 PUSH1 0x0 DUP3 DUP3 SLOAD PUSH2 0x20EC SWAP2 SWAP1 PUSH2 0x2F5E JUMP JUMPDEST SWAP1 SWAP2 SSTORE POP POP POP PUSH1 0x1 DUP3 ADD SLOAD PUSH1 0x1 PUSH1 0x1 PUSH1 0xA0 SHL SUB AND PUSH1 0x0 SWAP1 DUP2 MSTORE PUSH1 0x15 PUSH1 0x20 MSTORE PUSH1 0x40 DUP2 KECCAK256 SSTORE POP JUMPDEST PUSH1 0x1 DUP2 ADD SLOAD PUSH1 0x4 DUP3 ADD SLOAD PUSH1 0x1 PUSH1 0x1 PUSH1 0xA0 SHL SUB SWAP1 SWAP2 AND SWAP1 DUP6 SWAP1 PUSH32 0x8AA1336152B005DDD3CCC39B5A66ED207555053DD23BC9CFF1AAB405F6348EA5 SWAP1 PUSH2 0x100 SWAP1 DIV PUSH1 0xFF AND DUP1 PUSH2 0x215F JUMPI PUSH1 0x0 PUSH2 0x216A JUMP JUMPDEST PUSH9 0xAD78EBC5AC6200000 JUMPDEST PUSH1 0x40 DUP1 MLOAD SWAP3 ISZERO ISZERO DUP4 MSTORE PUSH1 0x20 DUP4 ADD SWAP2 SWAP1 SWAP2 MSTORE ADD PUSH1 0x40 MLOAD DUP1 SWAP2 SUB SWAP1 LOG3 POP POP PUSH1 0x1 PUSH1 0x16 SSTORE POP POP JUMP JUMPDEST PUSH1 0x3 SLOAD PUSH1 0x1 PUSH1 0xA0 SHL SWAP1 DIV PUSH1 0xFF AND ISZERO PUSH2 0x21BA JUMPI PUSH1 0x40 MLOAD PUSH4 0xAB35696F PUSH1 0xE0 SHL DUP2 MSTORE PUSH1 0x4 ADD PUSH1 0x40 MLOAD DUP1 SWAP2 SUB SWAP1 REVERT JUMPDEST PUSH1 0x16 SLOAD PUSH1 0x1 EQ PUSH2 0x21DD JUMPI PUSH1 0x40 MLOAD PUSH4 0x1762C6F3 PUSH1 0xE0 SHL DUP2 MSTORE PUSH1 0x4 ADD PUSH1 0x40 MLOAD DUP1 SWAP2 SUB SWAP1 REVERT JUMPDEST PUSH1 0x2 PUSH1 0x16 SSTORE PUSH1 0x0 DUP2 DUP2 MSTORE PUSH1 0xD PUSH1 0x20 MSTORE PUSH1 0x40 DUP2 KECCAK256 SLOAD SWAP1 SUB PUSH2 0x2210 JUMPI PUSH1 0x40 MLOAD PUSH4 0x3D4572D PUSH1 0xE5 SHL DUP2 MSTORE PUSH1 0x4 ADD PUSH1 0x40 MLOAD DUP1 SWAP2 SUB SWAP1 REVERT JUMPDEST PUSH1 0x0 DUP2 DUP2 MSTORE PUSH1 0x12 PUSH1 0x20 SWAP1 DUP2 MSTORE PUSH1 0x40 DUP1 DUP4 KECCAK256 CALLER DUP5 MSTORE SWAP1 SWAP2 MSTORE SWAP1 KECCAK256 SLOAD PUSH1 0xFF AND ISZERO PUSH2 0x224B JUMPI PUSH1 0x40 MLOAD PUSH4 0x28486B63 PUSH1 0xE1 SHL DUP2 MSTORE PUSH1 0x4 ADD PUSH1 0x40 MLOAD DUP1 SWAP2 SUB SWAP1 REVERT JUMPDEST PUSH1 0x0 PUSH2 0x2256 DUP3 PUSH2 0x2911 JUMP JUMPDEST PUSH1 0x5 DUP2 ADD SLOAD SWAP1 SWAP2 POP PUSH1 0xFF AND ISZERO PUSH2 0x227F JUMPI PUSH1 0x40 MLOAD PUSH4 0x2444F8B7 PUSH1 0xE1 SHL DUP2 MSTORE PUSH1 0x4 ADD PUSH1 0x40 MLOAD DUP1 SWAP2 SUB SWAP1 REVERT JUMPDEST PUSH1 0x3 DUP2 ADD SLOAD PUSH1 0x0 PUSH2 0x228F DUP5 PUSH2 0xD90 JUMP JUMPDEST SWAP1 POP DUP1 CALLVALUE LT ISZERO PUSH2 0x22BB JUMPI PUSH1 0x40 MLOAD PUSH4 0x3EBBC337 PUSH1 0xE0 SHL DUP2 MSTORE PUSH1 0x4 DUP2 ADD DUP3 SWAP1 MSTORE CALLVALUE PUSH1 0x24 DUP3 ADD MSTORE PUSH1 0x44 ADD PUSH2 0x10FA JUMP JUMPDEST PUSH1 0x0 DUP5 DUP2 MSTORE PUSH1 0x12 PUSH1 0x20 SWAP1 DUP2 MSTORE PUSH1 0x40 DUP1 DUP4 KECCAK256 CALLER DUP5 MSTORE SWAP1 SWAP2 MSTORE DUP2 KECCAK256 DUP1 SLOAD PUSH1 0xFF NOT AND PUSH1 0x1 SWAP1 DUP2 OR SWAP1 SWAP2 SSTORE PUSH1 0x4 DUP6 ADD DUP1 SLOAD SWAP2 SWAP3 SWAP1 SWAP2 PUSH2 0x22F7 SWAP1 DUP5 SWAP1 PUSH2 0x2F5E JUMP JUMPDEST SWAP1 SWAP2 SSTORE POP POP PUSH1 0x4 DUP4 ADD SLOAD PUSH2 0x3E8 SWAP1 PUSH2 0x230F SWAP1 DUP5 PUSH2 0x2F25 JUMP JUMPDEST PUSH2 0x2319 SWAP2 SWAP1 PUSH2 0x2F3C JUMP JUMPDEST PUSH2 0x2323 SWAP1 DUP4 PUSH2 0x2F5E JUMP JUMPDEST PUSH1 0x3 DUP5 ADD SSTORE PUSH1 0x0 DUP5 DUP2 MSTORE PUSH1 0x13 PUSH1 0x20 MSTORE PUSH1 0x40 DUP2 KECCAK256 DUP1 SLOAD DUP4 SWAP3 SWAP1 PUSH2 0x2346 SWAP1 DUP5 SWAP1 PUSH2 0x2F5E JUMP JUMPDEST SWAP1 SWAP2 SSTORE POP POP PUSH1 0x1 DUP4 ADD SLOAD PUSH2 0x2363 SWAP1 PUSH1 0x1 PUSH1 0x1 PUSH1 0xA0 SHL SUB AND DUP3 PUSH2 0x29F9 JUMP JUMPDEST DUP1 CALLVALUE GT ISZERO PUSH2 0x237E JUMPI PUSH2 0x237E CALLER PUSH2 0x2379 DUP4 CALLVALUE PUSH2 0x2F12 JUMP JUMPDEST PUSH2 0x29F9 JUMP JUMPDEST CALLER PUSH1 0x1 PUSH1 0x1 PUSH1 0xA0 SHL SUB AND DUP5 PUSH32 0x2EE8D21874599264C54876B79BF25EAE1B396C3771A178E683A9E038B634F1D7 DUP5 PUSH1 0x40 MLOAD PUSH2 0x23D5 SWAP2 DUP2 MSTORE PUSH1 0x40 PUSH1 0x20 DUP3 ADD DUP2 SWAP1 MSTORE PUSH1 0x3 SWAP1 DUP3 ADD MSTORE PUSH3 0x8AA89 PUSH1 0xEB SHL PUSH1 0x60 DUP3 ADD MSTORE PUSH1 0x80 ADD SWAP1 JUMP JUMPDEST PUSH1 0x40 MLOAD DUP1 SWAP2 SUB SWAP1 LOG3 DUP4 PUSH32 0x68520CF07E2F785CBA8F9601C758232191B84E9F0A8EC7B3049D2DCC197B67FE DUP5 PUSH1 0x3 ADD SLOAD PUSH1 0x40 MLOAD PUSH2 0x2413 SWAP2 DUP2 MSTORE PUSH1 0x20 ADD SWAP1 JUMP JUMPDEST PUSH1 0x40 MLOAD DUP1 SWAP2 SUB SWAP1 LOG2 POP POP PUSH1 0x1 PUSH1 0x16 SSTORE POP POP JUMP JUMPDEST PUSH1 0x0 SLOAD PUSH1 0x1 PUSH1 0x1 PUSH1 0xA0 SHL SUB AND CALLER EQ PUSH2 0x2451 JUMPI PUSH1 0x40 MLOAD PUSH4 0x30CD7471 PUSH1 0xE0 SHL DUP2 MSTORE PUSH1 0x4 ADD PUSH1 0x40 MLOAD DUP1 SWAP2 SUB SWAP1 REVERT JUMPDEST PUSH1 0x1 PUSH1 0x1 PUSH1 0xA0 SHL SUB DUP2 AND PUSH2 0x2478 JUMPI PUSH1 0x40 MLOAD PUSH4 0xE6C4247B PUSH1 0xE0 SHL DUP2 MSTORE PUSH1 0x4 ADD PUSH1 0x40 MLOAD DUP1 SWAP2 SUB SWAP1 REVERT JUMPDEST PUSH1 0x3 DUP1 SLOAD PUSH1 0x1 PUSH1 0x1 PUSH1 0xA0 SHL SUB DUP4 DUP2 AND PUSH1 0x1 PUSH1 0x1 PUSH1 0xA0 SHL SUB NOT DUP4 AND DUP2 OR SWAP1 SWAP4 SSTORE PUSH1 0x40 MLOAD SWAP2 AND SWAP2 SWAP1 DUP3 SWAP1 PUSH32 0x4AB5BE82436D353E61CA18726E984E561F5C1CC7C6D38B29D2553C790434705A SWAP1 PUSH1 0x0 SWAP1 LOG3 POP POP JUMP JUMPDEST PUSH1 0x0 SLOAD PUSH1 0x1 PUSH1 0x1 PUSH1 0xA0 SHL SUB AND CALLER EQ PUSH2 0x24F5 JUMPI PUSH1 0x40 MLOAD PUSH4 0x30CD7471 PUSH1 0xE0 SHL DUP2 MSTORE PUSH1 0x4 ADD PUSH1 0x40 MLOAD DUP1 SWAP2 SUB SWAP1 REVERT JUMPDEST PUSH1 0x1 PUSH1 0x1 PUSH1 0xA0 SHL SUB DUP2 AND PUSH2 0x251C JUMPI PUSH1 0x40 MLOAD PUSH4 0xE6C4247B PUSH1 0xE0 SHL DUP2 MSTORE PUSH1 0x4 ADD PUSH1 0x40 MLOAD DUP1 SWAP2 SUB SWAP1 REVERT JUMPDEST PUSH1 0x1 DUP1 SLOAD PUSH1 0x1 PUSH1 0x1 PUSH1 0xA0 SHL SUB NOT AND PUSH1 0x1 PUSH1 0x1 PUSH1 0xA0 SHL SUB DUP4 DUP2 AND SWAP2 DUP3 OR SWAP1 SWAP3 SSTORE PUSH1 0x0 DUP1 SLOAD PUSH1 0x40 MLOAD SWAP3 SWAP4 AND SWAP2 PUSH32 0x38D16B8CAC22D99FC7C124B9CD0DE2D3FA1FAEF420BFE791D8C362D765E22700 SWAP2 SWAP1 LOG3 POP JUMP JUMPDEST PUSH1 0x3 SLOAD PUSH1 0x1 PUSH1 0xA0 SHL SWAP1 DIV PUSH1 0xFF AND ISZERO PUSH2 0x2598 JUMPI PUSH1 0x40 MLOAD PUSH4 0xAB35696F PUSH1 0xE0 SHL DUP2 MSTORE PUSH1 0x4 ADD PUSH1 0x40 MLOAD DUP1 SWAP2 SUB SWAP1 REVERT JUMPDEST PUSH1 0x16 SLOAD PUSH1 0x1 EQ PUSH2 0x25BB JUMPI PUSH1 0x40 MLOAD PUSH4 0x1762C6F3 PUSH1 0xE0 SHL DUP2 MSTORE PUSH1 0x4 ADD PUSH1 0x40 MLOAD DUP1 SWAP2 SUB SWAP1 REVERT JUMPDEST PUSH1 0x2 PUSH1 0x16 SSTORE PUSH1 0x0 DUP2 DUP2 MSTORE PUSH1 0xD PUSH1 0x20 MSTORE PUSH1 0x40 DUP2 KECCAK256 SLOAD SWAP1 SUB PUSH2 0x25EE JUMPI PUSH1 0x40 MLOAD PUSH4 0x3D4572D PUSH1 0xE5 SHL DUP2 MSTORE PUSH1 0x4 ADD PUSH1 0x40 MLOAD DUP1 SWAP2 SUB SWAP1 REVERT JUMPDEST PUSH1 0x0 DUP2 DUP2 MSTORE PUSH1 0x12 PUSH1 0x20 SWAP1 DUP2 MSTORE PUSH1 0x40 DUP1 DUP4 KECCAK256 CALLER DUP5 MSTORE SWAP1 SWAP2 MSTORE SWAP1 KECCAK256 SLOAD PUSH1 0xFF AND ISZERO PUSH2 0x2629 JUMPI PUSH1 0x40 MLOAD PUSH4 0x28486B63 PUSH1 0xE1 SHL DUP2 MSTORE PUSH1 0x4 ADD PUSH1 0x40 MLOAD DUP1 SWAP2 SUB SWAP1 REVERT JUMPDEST PUSH1 0x0 PUSH2 0x2634 DUP3 PUSH2 0x2911 JUMP JUMPDEST PUSH1 0x5 DUP2 ADD SLOAD SWAP1 SWAP2 POP PUSH1 0xFF AND ISZERO PUSH2 0x265D JUMPI PUSH1 0x40 MLOAD PUSH4 0x2444F8B7 PUSH1 0xE1 SHL DUP2 MSTORE PUSH1 0x4 ADD PUSH1 0x40 MLOAD DUP1 SWAP2 SUB SWAP1 REVERT JUMPDEST PUSH1 0x3 DUP2 ADD SLOAD PUSH1 0x0 PUSH2 0x266F PUSH1 0x2 DUP4 PUSH2 0x2F3C JUMP JUMPDEST SWAP1 POP PUSH1 0x0 PUSH2 0x267D DUP3 DUP5 PUSH2 0x2F12 JUMP JUMPDEST SWAP1 POP PUSH2 0x268A CALLER ADDRESS DUP6 PUSH2 0x2A72 JUMP JUMPDEST PUSH1 0x40 MLOAD PUSH4 0x2770A7EB PUSH1 0xE2 SHL DUP2 MSTORE ADDRESS PUSH1 0x4 DUP3 ADD MSTORE PUSH1 0x24 DUP2 ADD DUP4 SWAP1 MSTORE PUSH32 0x0 PUSH1 0x1 PUSH1 0x1 PUSH1 0xA0 SHL SUB AND SWAP1 PUSH4 0x9DC29FAC SWAP1 PUSH1 0x44 ADD PUSH1 0x0 PUSH1 0x40 MLOAD DUP1 DUP4 SUB DUP2 PUSH1 0x0 DUP8 DUP1 EXTCODESIZE ISZERO DUP1 ISZERO PUSH2 0x26F2 JUMPI PUSH1 0x0 DUP1 REVERT JUMPDEST POP GAS CALL ISZERO DUP1 ISZERO PUSH2 0x2706 JUMPI RETURNDATASIZE PUSH1 0x0 DUP1 RETURNDATACOPY RETURNDATASIZE PUSH1 0x0 REVERT JUMPDEST POP POP POP POP DUP2 PUSH1 0x9 PUSH1 0x0 DUP3 DUP3 SLOAD PUSH2 0x271C SWAP2 SWAP1 PUSH2 0x2F5E JUMP JUMPDEST SWAP1 SWAP2 SSTORE POP POP PUSH1 0x1 DUP5 ADD SLOAD PUSH2 0x2739 SWAP1 PUSH1 0x1 PUSH1 0x1 PUSH1 0xA0 SHL SUB AND DUP3 PUSH2 0x29C1 JUMP JUMPDEST PUSH1 0x0 DUP6 DUP2 MSTORE PUSH1 0x12 PUSH1 0x20 SWAP1 DUP2 MSTORE PUSH1 0x40 DUP1 DUP4 KECCAK256 CALLER DUP5 MSTORE SWAP1 SWAP2 MSTORE DUP2 KECCAK256 DUP1 SLOAD PUSH1 0xFF NOT AND PUSH1 0x1 SWAP1 DUP2 OR SWAP1 SWAP2 SSTORE PUSH1 0x4 DUP7 ADD DUP1 SLOAD SWAP2 SWAP3 SWAP1 SWAP2 PUSH2 0x2775 SWAP1 DUP5 SWAP1 PUSH2 0x2F5E JUMP JUMPDEST SWAP3 POP POP DUP2 SWAP1 SSTORE POP DUP1 DUP5 PUSH1 0x6 ADD PUSH1 0x0 DUP3 DUP3 SLOAD PUSH2 0x2790 SWAP2 SWAP1 PUSH2 0x2F5E JUMP JUMPDEST SWAP1 SWAP2 SSTORE POP POP PUSH1 0x4 DUP5 ADD SLOAD PUSH2 0x3E8 SWAP1 PUSH2 0x27A8 SWAP1 DUP6 PUSH2 0x2F25 JUMP JUMPDEST PUSH2 0x27B2 SWAP2 SWAP1 PUSH2 0x2F3C JUMP JUMPDEST PUSH2 0x27BC SWAP1 DUP5 PUSH2 0x2F5E JUMP JUMPDEST PUSH1 0x3 DUP6 ADD SSTORE PUSH1 0x40 MLOAD CALLER SWAP1 DUP7 SWAP1 PUSH32 0x2EE8D21874599264C54876B79BF25EAE1B396C3771A178E683A9E038B634F1D7 SWAP1 PUSH2 0x2813 SWAP1 DUP8 DUP2 MSTORE PUSH1 0x40 PUSH1 0x20 DUP3 ADD DUP2 SWAP1 MSTORE PUSH1 0x4 SWAP1 DUP3 ADD MSTORE PUSH4 0x212AA927 PUSH1 0xE1 SHL PUSH1 0x60 DUP3 ADD MSTORE PUSH1 0x80 ADD SWAP1 JUMP JUMPDEST PUSH1 0x40 MLOAD DUP1 SWAP2 SUB SWAP1 LOG3 DUP5 PUSH32 0x68520CF07E2F785CBA8F9601C758232191B84E9F0A8EC7B3049D2DCC197B67FE DUP6 PUSH1 0x3 ADD SLOAD PUSH1 0x40 MLOAD PUSH2 0x2851 SWAP2 DUP2 MSTORE PUSH1 0x20 ADD SWAP1 JUMP JUMPDEST PUSH1 0x40 MLOAD DUP1 SWAP2 SUB SWAP1 LOG2 POP POP PUSH1 0x1 PUSH1 0x16 SSTORE POP POP POP JUMP JUMPDEST PUSH1 0x0 DUP1 PUSH32 0x0 PUSH1 0x1 PUSH1 0x1 PUSH1 0xA0 SHL SUB AND PUSH4 0x313CE567 PUSH1 0x40 MLOAD DUP2 PUSH4 0xFFFFFFFF AND PUSH1 0xE0 SHL DUP2 MSTORE PUSH1 0x4 ADD PUSH1 0x20 PUSH1 0x40 MLOAD DUP1 DUP4 SUB DUP2 DUP7 GAS STATICCALL ISZERO DUP1 ISZERO PUSH2 0x28C6 JUMPI RETURNDATASIZE PUSH1 0x0 DUP1 RETURNDATACOPY RETURNDATASIZE PUSH1 0x0 REVERT JUMPDEST POP POP POP POP PUSH1 0x40 MLOAD RETURNDATASIZE PUSH1 0x1F NOT PUSH1 0x1F DUP3 ADD AND DUP3 ADD DUP1 PUSH1 0x40 MSTORE POP DUP2 ADD SWAP1 PUSH2 0x28EA SWAP2 SWAP1 PUSH2 0x3119 JUMP JUMPDEST PUSH2 0x28F5 SWAP1 PUSH1 0xA PUSH2 0x3223 JUMP JUMPDEST SWAP1 POP DUP1 PUSH2 0x2907 DUP5 PUSH5 0xE8D4A51000 PUSH2 0x2F25 JUMP JUMPDEST PUSH2 0xE02 SWAP2 SWAP1 PUSH2 0x2F3C JUMP JUMPDEST PUSH1 0x0 DUP2 DUP2 MSTORE PUSH1 0x10 PUSH1 0x20 MSTORE PUSH1 0x40 SWAP1 KECCAK256 PUSH1 0x3 DUP2 ADD SLOAD ISZERO PUSH2 0x292E JUMPI SWAP2 SWAP1 POP JUMP JUMPDEST PUSH1 0x0 DUP3 DUP2 MSTORE PUSH1 0x11 PUSH1 0x20 MSTORE PUSH1 0x40 SWAP1 KECCAK256 SLOAD PUSH1 0x1 PUSH1 0x1 PUSH1 0xA0 SHL SUB AND DUP1 PUSH2 0x2964 JUMPI PUSH1 0x40 MLOAD PUSH4 0x61F2AA01 PUSH1 0xE1 SHL DUP2 MSTORE PUSH1 0x4 ADD PUSH1 0x40 MLOAD DUP1 SWAP2 SUB SWAP1 REVERT JUMPDEST DUP3 DUP3 SSTORE PUSH1 0x1 DUP1 DUP4 ADD DUP1 SLOAD PUSH1 0x1 PUSH1 0x1 PUSH1 0xA0 SHL SUB NOT AND PUSH1 0x1 PUSH1 0x1 PUSH1 0xA0 SHL SUB SWAP4 SWAP1 SWAP4 AND SWAP3 SWAP1 SWAP3 OR SWAP1 SWAP2 SSTORE PUSH1 0x0 SWAP3 DUP4 MSTORE PUSH1 0xD PUSH1 0x20 MSTORE PUSH1 0x40 SWAP1 SWAP3 KECCAK256 SWAP1 SWAP2 ADD SLOAD PUSH1 0x2 DUP3 ADD SSTORE PUSH9 0x1B1AE4D6E2EF500000 PUSH1 0x3 DUP3 ADD SSTORE PUSH1 0x5 DUP2 ADD DUP1 SLOAD PUSH1 0xFF NOT AND SWAP1 SSTORE SWAP1 JUMP JUMPDEST PUSH2 0x29F5 PUSH1 0x1 PUSH1 0x1 PUSH1 0xA0 SHL SUB PUSH32 0x0 AND DUP4 DUP4 PUSH2 0x2AA7 JUMP JUMPDEST POP POP JUMP JUMPDEST PUSH1 0x0 DUP3 PUSH1 0x1 PUSH1 0x1 PUSH1 0xA0 SHL SUB AND DUP3 PUSH1 0x40 MLOAD PUSH1 0x0 PUSH1 0x40 MLOAD DUP1 DUP4 SUB DUP2 DUP6 DUP8 GAS CALL SWAP3 POP POP POP RETURNDATASIZE DUP1 PUSH1 0x0 DUP2 EQ PUSH2 0x2A46 JUMPI PUSH1 0x40 MLOAD SWAP2 POP PUSH1 0x1F NOT PUSH1 0x3F RETURNDATASIZE ADD AND DUP3 ADD PUSH1 0x40 MSTORE RETURNDATASIZE DUP3 MSTORE RETURNDATASIZE PUSH1 0x0 PUSH1 0x20 DUP5 ADD RETURNDATACOPY PUSH2 0x2A4B JUMP JUMPDEST PUSH1 0x60 SWAP2 POP JUMPDEST POP POP SWAP1 POP DUP1 PUSH2 0x2A6D JUMPI PUSH1 0x40 MLOAD PUSH4 0x22E2581 PUSH1 0xE1 SHL DUP2 MSTORE PUSH1 0x4 ADD PUSH1 0x40 MLOAD DUP1 SWAP2 SUB SWAP1 REVERT JUMPDEST POP POP POP JUMP JUMPDEST PUSH2 0x2A6D PUSH1 0x1 PUSH1 0x1 PUSH1 0xA0 SHL SUB PUSH32 0x0 AND DUP5 DUP5 DUP5 PUSH2 0x2ADC JUMP JUMPDEST PUSH2 0x2AB4 DUP4 DUP4 DUP4 PUSH1 0x1 PUSH2 0x2B18 JUMP JUMPDEST PUSH2 0x2A6D JUMPI PUSH1 0x40 MLOAD PUSH4 0x5274AFE7 PUSH1 0xE0 SHL DUP2 MSTORE PUSH1 0x1 PUSH1 0x1 PUSH1 0xA0 SHL SUB DUP5 AND PUSH1 0x4 DUP3 ADD MSTORE PUSH1 0x24 ADD PUSH2 0x10FA JUMP JUMPDEST PUSH2 0x2AEA DUP5 DUP5 DUP5 DUP5 PUSH1 0x1 PUSH2 0x2B7E JUMP JUMPDEST PUSH2 0x2B12 JUMPI PUSH1 0x40 MLOAD PUSH4 0x5274AFE7 PUSH1 0xE0 SHL DUP2 MSTORE PUSH1 0x1 PUSH1 0x1 PUSH1 0xA0 SHL SUB DUP6 AND PUSH1 0x4 DUP3 ADD MSTORE PUSH1 0x24 ADD PUSH2 0x10FA JUMP JUMPDEST POP POP POP POP JUMP JUMPDEST PUSH1 0x40 MLOAD PUSH4 0xA9059CBB PUSH1 0xE0 SHL PUSH1 0x0 DUP2 DUP2 MSTORE PUSH1 0x1 PUSH1 0x1 PUSH1 0xA0 SHL SUB DUP7 AND PUSH1 0x4 MSTORE PUSH1 0x24 DUP6 SWAP1 MSTORE SWAP2 PUSH1 0x20 DUP4 PUSH1 0x44 DUP2 DUP1 DUP12 GAS CALL SWAP3 POP PUSH1 0x1 PUSH1 0x0 MLOAD EQ DUP4 AND PUSH2 0x2B72 JUMPI DUP4 DUP4 ISZERO AND ISZERO PUSH2 0x2B65 JUMPI RETURNDATASIZE PUSH1 0x0 DUP3 RETURNDATACOPY RETURNDATASIZE DUP2 REVERT JUMPDEST PUSH1 0x0 DUP8 EXTCODESIZE GT RETURNDATASIZE ISZERO AND DUP4 AND SWAP3 POP JUMPDEST PUSH1 0x40 MSTORE POP SWAP5 SWAP4 POP POP POP POP JUMP JUMPDEST PUSH1 0x40 MLOAD PUSH4 0x23B872DD PUSH1 0xE0 SHL PUSH1 0x0 DUP2 DUP2 MSTORE PUSH1 0x1 PUSH1 0x1 PUSH1 0xA0 SHL SUB DUP8 DUP2 AND PUSH1 0x4 MSTORE DUP7 AND PUSH1 0x24 MSTORE PUSH1 0x44 DUP6 SWAP1 MSTORE SWAP2 PUSH1 0x20 DUP4 PUSH1 0x64 DUP2 DUP1 DUP13 GAS CALL SWAP3 POP PUSH1 0x1 PUSH1 0x0 MLOAD EQ DUP4 AND PUSH2 0x2BDE JUMPI DUP4 DUP4 ISZERO AND ISZERO PUSH2 0x2BD1 JUMPI RETURNDATASIZE PUSH1 0x0 DUP3 RETURNDATACOPY RETURNDATASIZE DUP2 REVERT JUMPDEST PUSH1 0x0 DUP9 EXTCODESIZE GT RETURNDATASIZE ISZERO AND DUP4 AND SWAP3 POP JUMPDEST PUSH1 0x40 MSTORE POP PUSH1 0x0 PUSH1 0x60 MSTORE SWAP6 SWAP5 POP POP POP POP POP JUMP JUMPDEST PUSH1 0x0 PUSH1 0x20 DUP3 DUP5 SUB SLT ISZERO PUSH2 0x2C02 JUMPI PUSH1 0x0 DUP1 REVERT JUMPDEST POP CALLDATALOAD SWAP2 SWAP1 POP JUMP JUMPDEST DUP1 CALLDATALOAD PUSH1 0x1 PUSH1 0x1 PUSH1 0xA0 SHL SUB DUP2 AND DUP2 EQ PUSH2 0x2C20 JUMPI PUSH1 0x0 DUP1 REVERT JUMPDEST SWAP2 SWAP1 POP JUMP JUMPDEST PUSH1 0x0 PUSH1 0x20 DUP3 DUP5 SUB SLT ISZERO PUSH2 0x2C37 JUMPI PUSH1 0x0 DUP1 REVERT JUMPDEST PUSH2 0xE02 DUP3 PUSH2 0x2C09 JUMP JUMPDEST DUP1 CALLDATALOAD DUP1 ISZERO ISZERO DUP2 EQ PUSH2 0x2C20 JUMPI PUSH1 0x0 DUP1 REVERT JUMPDEST PUSH1 0x0 PUSH1 0x20 DUP3 DUP5 SUB SLT ISZERO PUSH2 0x2C62 JUMPI PUSH1 0x0 DUP1 REVERT JUMPDEST PUSH2 0xE02 DUP3 PUSH2 0x2C40 JUMP JUMPDEST DUP8 DUP2 MSTORE DUP7 PUSH1 0x20 DUP3 ADD MSTORE DUP6 ISZERO ISZERO PUSH1 0x40 DUP3 ADD MSTORE DUP5 PUSH1 0x60 DUP3 ADD MSTORE PUSH1 0xE0 PUSH1 0x80 DUP3 ADD MSTORE PUSH1 0x0 DUP5 MLOAD DUP1 PUSH1 0xE0 DUP5 ADD MSTORE PUSH1 0x0 JUMPDEST DUP2 DUP2 LT ISZERO PUSH2 0x2CB4 JUMPI PUSH1 0x20 DUP2 DUP9 ADD DUP2 ADD MLOAD PUSH2 0x100 DUP7 DUP5 ADD ADD MSTORE ADD PUSH2 0x2C96 JUMP JUMPDEST POP PUSH1 0x0 PUSH2 0x100 DUP3 DUP6 ADD ADD MSTORE PUSH2 0x100 PUSH1 0x1F NOT PUSH1 0x1F DUP4 ADD AND DUP5 ADD ADD SWAP2 POP POP PUSH2 0x2CE5 PUSH1 0xA0 DUP4 ADD DUP6 PUSH1 0x1 PUSH1 0x1 PUSH1 0xA0 SHL SUB AND SWAP1 MSTORE JUMP JUMPDEST DUP3 PUSH1 0xC0 DUP4 ADD MSTORE SWAP9 SWAP8 POP POP POP POP POP POP POP POP JUMP JUMPDEST PUSH1 0x0 DUP1 DUP4 PUSH1 0x1F DUP5 ADD SLT PUSH2 0x2D09 JUMPI PUSH1 0x0 DUP1 REVERT JUMPDEST POP DUP2 CALLDATALOAD PUSH8 0xFFFFFFFFFFFFFFFF DUP2 GT ISZERO PUSH2 0x2D21 JUMPI PUSH1 0x0 DUP1 REVERT JUMPDEST PUSH1 0x20 DUP4 ADD SWAP2 POP DUP4 PUSH1 0x20 DUP3 DUP6 ADD ADD GT ISZERO PUSH2 0x2D39 JUMPI PUSH1 0x0 DUP1 REVERT JUMPDEST SWAP3 POP SWAP3 SWAP1 POP JUMP JUMPDEST PUSH1 0x0 DUP1 PUSH1 0x0 DUP1 PUSH1 0x0 DUP1 PUSH1 0x0 PUSH1 0xA0 DUP9 DUP11 SUB SLT ISZERO PUSH2 0x2D5B JUMPI PUSH1 0x0 DUP1 REVERT JUMPDEST DUP8 CALLDATALOAD SWAP7 POP PUSH1 0x20 DUP9 ADD CALLDATALOAD SWAP6 POP PUSH1 0x40 DUP9 ADD CALLDATALOAD PUSH8 0xFFFFFFFFFFFFFFFF DUP2 GT ISZERO PUSH2 0x2D80 JUMPI PUSH1 0x0 DUP1 REVERT JUMPDEST PUSH2 0x2D8C DUP11 DUP3 DUP12 ADD PUSH2 0x2CF7 JUMP JUMPDEST SWAP1 SWAP7 POP SWAP5 POP POP PUSH1 0x60 DUP9 ADD CALLDATALOAD PUSH8 0xFFFFFFFFFFFFFFFF DUP2 GT ISZERO PUSH2 0x2DAC JUMPI PUSH1 0x0 DUP1 REVERT JUMPDEST PUSH2 0x2DB8 DUP11 DUP3 DUP12 ADD PUSH2 0x2CF7 JUMP JUMPDEST SWAP1 SWAP5 POP SWAP3 POP PUSH2 0x2DCB SWAP1 POP PUSH1 0x80 DUP10 ADD PUSH2 0x2C40 JUMP JUMPDEST SWAP1 POP SWAP3 SWAP6 SWAP9 SWAP2 SWAP5 SWAP8 POP SWAP3 SWAP6 POP JUMP JUMPDEST PUSH1 0x0 DUP1 PUSH1 0x40 DUP4 DUP6 SUB SLT ISZERO PUSH2 0x2DEC JUMPI PUSH1 0x0 DUP1 REVERT JUMPDEST DUP3 CALLDATALOAD SWAP2 POP PUSH2 0x2DFC PUSH1 0x20 DUP5 ADD PUSH2 0x2C09 JUMP JUMPDEST SWAP1 POP SWAP3 POP SWAP3 SWAP1 POP JUMP JUMPDEST PUSH1 0x0 DUP1 PUSH1 0x40 DUP4 DUP6 SUB SLT ISZERO PUSH2 0x2E18 JUMPI PUSH1 0x0 DUP1 REVERT JUMPDEST POP POP DUP1 CALLDATALOAD SWAP3 PUSH1 0x20 SWAP1 SWAP2 ADD CALLDATALOAD SWAP2 POP JUMP JUMPDEST PUSH1 0x0 DUP1 PUSH1 0x40 DUP4 DUP6 SUB SLT ISZERO PUSH2 0x2E3A JUMPI PUSH1 0x0 DUP1 REVERT JUMPDEST DUP3 CALLDATALOAD SWAP2 POP PUSH2 0x2DFC PUSH1 0x20 DUP5 ADD PUSH2 0x2C40 JUMP JUMPDEST PUSH1 0x20 DUP1 DUP3 MSTORE DUP3 MLOAD DUP3 DUP3 ADD DUP2 SWAP1 MSTORE PUSH1 0x0 SWAP2 DUP5 ADD SWAP1 PUSH1 0x40 DUP5 ADD SWAP1 DUP4 JUMPDEST DUP2 DUP2 LT ISZERO PUSH2 0x2E82 JUMPI DUP4 MLOAD DUP4 MSTORE PUSH1 0x20 SWAP4 DUP5 ADD SWAP4 SWAP1 SWAP3 ADD SWAP2 PUSH1 0x1 ADD PUSH2 0x2E64 JUMP JUMPDEST POP SWAP1 SWAP6 SWAP5 POP POP POP POP POP JUMP JUMPDEST PUSH1 0x0 DUP1 PUSH1 0x0 PUSH1 0x60 DUP5 DUP7 SUB SLT ISZERO PUSH2 0x2EA2 JUMPI PUSH1 0x0 DUP1 REVERT JUMPDEST DUP4 CALLDATALOAD SWAP3 POP PUSH1 0x20 DUP5 ADD CALLDATALOAD SWAP2 POP PUSH2 0x2EB9 PUSH1 0x40 DUP6 ADD PUSH2 0x2C40 JUMP JUMPDEST SWAP1 POP SWAP3 POP SWAP3 POP SWAP3 JUMP JUMPDEST PUSH1 0x1 DUP2 DUP2 SHR SWAP1 DUP3 AND DUP1 PUSH2 0x2ED6 JUMPI PUSH1 0x7F DUP3 AND SWAP2 POP JUMPDEST PUSH1 0x20 DUP3 LT DUP2 SUB PUSH2 0x2EF6 JUMPI PUSH4 0x4E487B71 PUSH1 0xE0 SHL PUSH1 0x0 MSTORE PUSH1 0x22 PUSH1 0x4 MSTORE PUSH1 0x24 PUSH1 0x0 REVERT JUMPDEST POP SWAP2 SWAP1 POP JUMP JUMPDEST PUSH4 0x4E487B71 PUSH1 0xE0 SHL PUSH1 0x0 MSTORE PUSH1 0x11 PUSH1 0x4 MSTORE PUSH1 0x24 PUSH1 0x0 REVERT JUMPDEST DUP2 DUP2 SUB DUP2 DUP2 GT ISZERO PUSH2 0x14C7 JUMPI PUSH2 0x14C7 PUSH2 0x2EFC JUMP JUMPDEST DUP1 DUP3 MUL DUP2 ISZERO DUP3 DUP3 DIV DUP5 EQ OR PUSH2 0x14C7 JUMPI PUSH2 0x14C7 PUSH2 0x2EFC JUMP JUMPDEST PUSH1 0x0 DUP3 PUSH2 0x2F59 JUMPI PUSH4 0x4E487B71 PUSH1 0xE0 SHL PUSH1 0x0 MSTORE PUSH1 0x12 PUSH1 0x4 MSTORE PUSH1 0x24 PUSH1 0x0 REVERT JUMPDEST POP DIV SWAP1 JUMP JUMPDEST DUP1 DUP3 ADD DUP1 DUP3 GT ISZERO PUSH2 0x14C7 JUMPI PUSH2 0x14C7 PUSH2 0x2EFC JUMP JUMPDEST DUP2 DUP4 DUP3 CALLDATACOPY PUSH1 0x0 SWAP2 ADD SWAP1 DUP2 MSTORE SWAP2 SWAP1 POP JUMP JUMPDEST PUSH4 0x4E487B71 PUSH1 0xE0 SHL PUSH1 0x0 MSTORE PUSH1 0x41 PUSH1 0x4 MSTORE PUSH1 0x24 PUSH1 0x0 REVERT JUMPDEST PUSH1 0x1F DUP3 GT ISZERO PUSH2 0x2A6D JUMPI DUP1 PUSH1 0x0 MSTORE PUSH1 0x20 PUSH1 0x0 KECCAK256 PUSH1 0x1F DUP5 ADD PUSH1 0x5 SHR DUP2 ADD PUSH1 0x20 DUP6 LT ISZERO PUSH2 0x2FBE JUMPI POP DUP1 JUMPDEST PUSH1 0x1F DUP5 ADD PUSH1 0x5 SHR DUP3 ADD SWAP2 POP JUMPDEST DUP2 DUP2 LT ISZERO PUSH2 0x2FDE JUMPI PUSH1 0x0 DUP2 SSTORE PUSH1 0x1 ADD PUSH2 0x2FCA JUMP JUMPDEST POP POP POP POP POP JUMP JUMPDEST DUP2 MLOAD PUSH8 0xFFFFFFFFFFFFFFFF DUP2 GT ISZERO PUSH2 0x2FFF JUMPI PUSH2 0x2FFF PUSH2 0x2F81 JUMP JUMPDEST PUSH2 0x3013 DUP2 PUSH2 0x300D DUP5 SLOAD PUSH2 0x2EC2 JUMP JUMPDEST DUP5 PUSH2 0x2F97 JUMP JUMPDEST PUSH1 0x20 PUSH1 0x1F DUP3 GT PUSH1 0x1 DUP2 EQ PUSH2 0x3047 JUMPI PUSH1 0x0 DUP4 ISZERO PUSH2 0x302F JUMPI POP DUP5 DUP3 ADD MLOAD JUMPDEST PUSH1 0x0 NOT PUSH1 0x3 DUP6 SWAP1 SHL SHR NOT AND PUSH1 0x1 DUP5 SWAP1 SHL OR DUP5 SSTORE PUSH2 0x2FDE JUMP JUMPDEST PUSH1 0x0 DUP5 DUP2 MSTORE PUSH1 0x20 DUP2 KECCAK256 PUSH1 0x1F NOT DUP6 AND SWAP2 JUMPDEST DUP3 DUP2 LT ISZERO PUSH2 0x3077 JUMPI DUP8 DUP6 ADD MLOAD DUP3 SSTORE PUSH1 0x20 SWAP5 DUP6 ADD SWAP5 PUSH1 0x1 SWAP1 SWAP3 ADD SWAP2 ADD PUSH2 0x3057 JUMP JUMPDEST POP DUP5 DUP3 LT ISZERO PUSH2 0x3095 JUMPI DUP7 DUP5 ADD MLOAD PUSH1 0x0 NOT PUSH1 0x3 DUP8 SWAP1 SHL PUSH1 0xF8 AND SHR NOT AND DUP2 SSTORE JUMPDEST POP POP POP POP PUSH1 0x1 SWAP1 DUP2 SHL ADD SWAP1 SSTORE POP JUMP JUMPDEST DUP6 DUP2 MSTORE DUP5 ISZERO ISZERO PUSH1 0x20 DUP3 ADD MSTORE DUP4 PUSH1 0x40 DUP3 ADD MSTORE PUSH1 0x80 PUSH1 0x60 DUP3 ADD MSTORE DUP2 PUSH1 0x80 DUP3 ADD MSTORE DUP2 DUP4 PUSH1 0xA0 DUP4 ADD CALLDATACOPY PUSH1 0x0 DUP2 DUP4 ADD PUSH1 0xA0 SWAP1 DUP2 ADD SWAP2 SWAP1 SWAP2 MSTORE PUSH1 0x1F SWAP1 SWAP3 ADD PUSH1 0x1F NOT AND ADD ADD SWAP5 SWAP4 POP POP POP POP JUMP JUMPDEST PUSH4 0x4E487B71 PUSH1 0xE0 SHL PUSH1 0x0 MSTORE PUSH1 0x32 PUSH1 0x4 MSTORE PUSH1 0x24 PUSH1 0x0 REVERT JUMPDEST PUSH1 0x0 PUSH1 0x20 DUP3 DUP5 SUB SLT ISZERO PUSH2 0x3112 JUMPI PUSH1 0x0 DUP1 REVERT JUMPDEST POP MLOAD SWAP2 SWAP1 POP JUMP JUMPDEST PUSH1 0x0 PUSH1 0x20 DUP3 DUP5 SUB SLT ISZERO PUSH2 0x312B JUMPI PUSH1 0x0 DUP1 REVERT JUMPDEST DUP2 MLOAD PUSH1 0xFF DUP2 AND DUP2 EQ PUSH2 0xE02 JUMPI PUSH1 0x0 DUP1 REVERT JUMPDEST PUSH1 0x1 DUP2 JUMPDEST PUSH1 0x1 DUP5 GT ISZERO PUSH2 0x3177 JUMPI DUP1 DUP6 DIV DUP2 GT ISZERO PUSH2 0x315B JUMPI PUSH2 0x315B PUSH2 0x2EFC JUMP JUMPDEST PUSH1 0x1 DUP5 AND ISZERO PUSH2 0x3169 JUMPI SWAP1 DUP2 MUL SWAP1 JUMPDEST PUSH1 0x1 SWAP4 SWAP1 SWAP4 SHR SWAP3 DUP1 MUL PUSH2 0x3140 JUMP JUMPDEST SWAP4 POP SWAP4 SWAP2 POP POP JUMP JUMPDEST PUSH1 0x0 DUP3 PUSH2 0x318E JUMPI POP PUSH1 0x1 PUSH2 0x14C7 JUMP JUMPDEST DUP2 PUSH2 0x319B JUMPI POP PUSH1 0x0 PUSH2 0x14C7 JUMP JUMPDEST DUP2 PUSH1 0x1 DUP2 EQ PUSH2 0x31B1 JUMPI PUSH1 0x2 DUP2 EQ PUSH2 0x31BB JUMPI PUSH2 0x31D7 JUMP JUMPDEST PUSH1 0x1 SWAP2 POP POP PUSH2 0x14C7 JUMP JUMPDEST PUSH1 0xFF DUP5 GT ISZERO PUSH2 0x31CC JUMPI PUSH2 0x31CC PUSH2 0x2EFC JUMP JUMPDEST POP POP PUSH1 0x1 DUP3 SHL PUSH2 0x14C7 JUMP JUMPDEST POP PUSH1 0x20 DUP4 LT PUSH2 0x133 DUP4 LT AND PUSH1 0x4E DUP5 LT PUSH1 0xB DUP5 LT AND OR ISZERO PUSH2 0x31FA JUMPI POP DUP2 DUP2 EXP PUSH2 0x14C7 JUMP JUMPDEST PUSH2 0x3207 PUSH1 0x0 NOT DUP5 DUP5 PUSH2 0x313C JUMP JUMPDEST DUP1 PUSH1 0x0 NOT DIV DUP3 GT ISZERO PUSH2 0x321B JUMPI PUSH2 0x321B PUSH2 0x2EFC JUMP JUMPDEST MUL SWAP4 SWAP3 POP POP POP JUMP JUMPDEST PUSH1 0x0 PUSH2 0xE02 PUSH1 0xFF DUP5 AND DUP4 PUSH2 0x317F JUMP INVALID LOG2 PUSH5 0x6970667358 0x22 SLT KECCAK256 SWAP3 MCOPY 0xB3 DUP16 OR XOR 0xB5 0xDA 0x4D SWAP10 DATALOADN 0x543C 0xBF LOG4 0xC1 SWAP6 0xC7 CALLF 0x4A1A 0xC0 CALLER SSTORE 0x2E PUSH22 0xCA112F2BE09F64736F6C634300081E00330000000000 "},"methodIdentifiers":{"BASE_UNLOCK_PRICE()":"78f88d67","BPS_DENOMINATOR()":"e1a45218","CREDIBILITY_UNLOCK_THRESHOLD()":"c69ab501","GHOSTING_RECEIPT_FEE()":"af414d41","MAX_GHOSTED_PER_SUBMISSION()":"924d3f56","TREASURY_SPLIT_BPS()":"a60051ae","TRUTH_ASSERTION_STAKE()":"d73848cc","TRUTH_WIN_REWARD()":"8c1a60b2","acceptOwnership()":"79ba5097","assertTruth(bytes32,bool)":"8748c6b9","canUserAccessStory(bytes32,address)":"c9ab7130","directEvidenceCount()":"6a65eaa6","evidenceCounter()":"b87c1114","evidenceSubmitter(bytes32)":"6a01a775","getEvidence(bytes32)":"4a7221a0","getProtocolStats()":"771aceef","getStoryPayoutInfo(bytes32)":"056962c3","getStoryUnlockInfo(bytes32)":"19b881e4","getSubmittedProofHashes(uint256,uint256)":"a4fa95bf","getTruthAssertion(bytes32,uint256)":"65137dd0","getTruthAssertionCount(bytes32)":"d365d094","ghostedToken()":"6bccc753","hasUnlockedStory(bytes32,address)":"67310b5a","hasUserUnlockedStory(bytes32,address)":"53093093","lockedStories(bytes32)":"9e33bb86","makeStoryPublic(bytes32)":"2cad2f65","oracle()":"7dc0d1d0","owner()":"8da5cb5b","paused()":"5c975abb","pendingOwner()":"e30c3978","previewUnlockPriceInEth(bytes32)":"21026950","proxyEvidenceCount()":"b3dfbcf8","resolveTruth(bytes32,uint256,bool)":"cb3399e8","setOracle(address)":"7adbf973","setPaused(bool)":"16c38b3c","setTreasury(address)":"f0f44260","storyEthEarnings(bytes32)":"1433219c","submitEvidence(bytes32,uint256,string,string,bool)":"5191e467","submittedProofHashesCount()":"08104069","totalGhostedBurned()":"f99156cb","totalGhostedRewarded()":"38902fdb","totalProtocolRevenue()":"8c37f11d","totalRevenueCollected()":"dbd8c057","totalTreasuryDistributed()":"938a8bca","totalTruthWins(address)":"a6d2fcd9","transferOwnership(address)":"f2fde38b","treasury()":"61d027b3","truthAssertionCount()":"b9fa45da","truthWinStreak(address)":"0efd66e2","unlockStoryByBurn(bytes32)":"f4dceacd","unlockStoryByCredibility(bytes32)":"68f5c663","unlockStoryWithETH(bytes32)":"d4ade875"}}}}}