{
  "_format": "hh-sol-artifact-1",
  "contractName": "GhostProtocol",
  "sourceName": "contracts/GhostProtocol.sol",
  "abi": [
    {
      "inputs": [
        {
          "internalType": "address",
          "name": "ghostedTokenAddress",
          "type": "address"
        },
        {
          "internalType": "address",
          "name": "treasuryAddress",
          "type": "address"
        },
        {
          "internalType": "address",
          "name": "oracleAddress",
          "type": "address"
        }
      ],
      "stateMutability": "nonpayable",
      "type": "constructor"
    },
    {
      "inputs": [],
      "name": "AlreadyResolved",
      "type": "error"
    },
    {
      "inputs": [],
      "name": "AlreadyUnlocked",
      "type": "error"
    },
    {
      "inputs": [],
      "name": "ContractPaused",
      "type": "error"
    },
    {
      "inputs": [],
      "name": "EvidenceAlreadyExists",
      "type": "error"
    },
    {
      "inputs": [
        {
          "internalType": "uint256",
          "name": "currentCredibility",
          "type": "uint256"
        },
        {
          "internalType": "uint256",
          "name": "requiredCredibility",
          "type": "uint256"
        }
      ],
      "name": "InsufficientCredibility",
      "type": "error"
    },
    {
      "inputs": [
        {
          "internalType": "uint256",
          "name": "requiredAmount",
          "type": "uint256"
        },
        {
          "internalType": "uint256",
          "name": "receivedAmount",
          "type": "uint256"
        }
      ],
      "name": "InsufficientEth",
      "type": "error"
    },
    {
      "inputs": [
        {
          "internalType": "uint256",
          "name": "availableAmount",
          "type": "uint256"
        },
        {
          "internalType": "uint256",
          "name": "requestedAmount",
          "type": "uint256"
        }
      ],
      "name": "InsufficientProtocolEth",
      "type": "error"
    },
    {
      "inputs": [],
      "name": "InvalidAddress",
      "type": "error"
    },
    {
      "inputs": [],
      "name": "InvalidAssertionIndex",
      "type": "error"
    },
    {
      "inputs": [],
      "name": "InvalidProofHash",
      "type": "error"
    },
    {
      "inputs": [],
      "name": "InvalidQuoteAmount",
      "type": "error"
    },
    {
      "inputs": [],
      "name": "InvalidSeverity",
      "type": "error"
    },
    {
      "inputs": [],
      "name": "NotOracle",
      "type": "error"
    },
    {
      "inputs": [],
      "name": "NotOwner",
      "type": "error"
    },
    {
      "inputs": [],
      "name": "NotPendingOwner",
      "type": "error"
    },
    {
      "inputs": [],
      "name": "NotPricingOracle",
      "type": "error"
    },
    {
      "inputs": [],
      "name": "OnlySubmitter",
      "type": "error"
    },
    {
      "inputs": [],
      "name": "ReentrancyGuardReentrantCall",
      "type": "error"
    },
    {
      "inputs": [
        {
          "internalType": "address",
          "name": "token",
          "type": "address"
        }
      ],
      "name": "SafeERC20FailedOperation",
      "type": "error"
    },
    {
      "inputs": [
        {
          "internalType": "uint256",
          "name": "lastUpdatedAt",
          "type": "uint256"
        },
        {
          "internalType": "uint256",
          "name": "maxAge",
          "type": "uint256"
        }
      ],
      "name": "StaleUnlockPriceQuote",
      "type": "error"
    },
    {
      "inputs": [],
      "name": "StoryAlreadyPublic",
      "type": "error"
    },
    {
      "inputs": [],
      "name": "StoryDoesNotExist",
      "type": "error"
    },
    {
      "inputs": [],
      "name": "StoryIsPublic",
      "type": "error"
    },
    {
      "inputs": [],
      "name": "SubmitterNotRecorded",
      "type": "error"
    },
    {
      "inputs": [],
      "name": "TokenTransferFailed",
      "type": "error"
    },
    {
      "inputs": [],
      "name": "UnlockPriceQuoteNotSet",
      "type": "error"
    },
    {
      "anonymous": false,
      "inputs": [
        {
          "indexed": true,
          "internalType": "bytes32",
          "name": "proofHash",
          "type": "bytes32"
        },
        {
          "indexed": true,
          "internalType": "address",
          "name": "submitter",
          "type": "address"
        },
        {
          "indexed": false,
          "internalType": "uint256",
          "name": "severity",
          "type": "uint256"
        },
        {
          "indexed": false,
          "internalType": "bool",
          "name": "isProxy",
          "type": "bool"
        },
        {
          "indexed": false,
          "internalType": "uint256",
          "name": "ghostedRewarded",
          "type": "uint256"
        },
        {
          "indexed": false,
          "internalType": "string",
          "name": "dramaType",
          "type": "string"
        }
      ],
      "name": "EvidenceSubmitted",
      "type": "event"
    },
    {
      "anonymous": false,
      "inputs": [
        {
          "indexed": true,
          "internalType": "address",
          "name": "submitter",
          "type": "address"
        },
        {
          "indexed": true,
          "internalType": "bytes32",
          "name": "proofHash",
          "type": "bytes32"
        },
        {
          "indexed": false,
          "internalType": "uint256",
          "name": "feePaid",
          "type": "uint256"
        },
        {
          "indexed": false,
          "internalType": "uint256",
          "name": "treasuryCut",
          "type": "uint256"
        },
        {
          "indexed": false,
          "internalType": "uint256",
          "name": "protocolCut",
          "type": "uint256"
        }
      ],
      "name": "GhostingReceiptSubmitted",
      "type": "event"
    },
    {
      "anonymous": false,
      "inputs": [
        {
          "indexed": true,
          "internalType": "address",
          "name": "previousOracle",
          "type": "address"
        },
        {
          "indexed": true,
          "internalType": "address",
          "name": "newOracle",
          "type": "address"
        }
      ],
      "name": "OracleUpdated",
      "type": "event"
    },
    {
      "anonymous": false,
      "inputs": [
        {
          "indexed": true,
          "internalType": "address",
          "name": "previousOwner",
          "type": "address"
        },
        {
          "indexed": true,
          "internalType": "address",
          "name": "pendingOwner",
          "type": "address"
        }
      ],
      "name": "OwnershipTransferStarted",
      "type": "event"
    },
    {
      "anonymous": false,
      "inputs": [
        {
          "indexed": true,
          "internalType": "address",
          "name": "previousOwner",
          "type": "address"
        },
        {
          "indexed": true,
          "internalType": "address",
          "name": "newOwner",
          "type": "address"
        }
      ],
      "name": "OwnershipTransferred",
      "type": "event"
    },
    {
      "anonymous": false,
      "inputs": [
        {
          "indexed": false,
          "internalType": "bool",
          "name": "paused",
          "type": "bool"
        }
      ],
      "name": "PauseStateUpdated",
      "type": "event"
    },
    {
      "anonymous": false,
      "inputs": [
        {
          "indexed": true,
          "internalType": "address",
          "name": "previousPricingOracle",
          "type": "address"
        },
        {
          "indexed": true,
          "internalType": "address",
          "name": "newPricingOracle",
          "type": "address"
        }
      ],
      "name": "PricingOracleUpdated",
      "type": "event"
    },
    {
      "anonymous": false,
      "inputs": [
        {
          "indexed": true,
          "internalType": "address",
          "name": "account",
          "type": "address"
        },
        {
          "indexed": false,
          "internalType": "uint256",
          "name": "previousScore",
          "type": "uint256"
        },
        {
          "indexed": false,
          "internalType": "uint256",
          "name": "newScore",
          "type": "uint256"
        },
        {
          "indexed": false,
          "internalType": "string",
          "name": "reason",
          "type": "string"
        }
      ],
      "name": "ProtocolCredibilityUpdated",
      "type": "event"
    },
    {
      "anonymous": false,
      "inputs": [
        {
          "indexed": true,
          "internalType": "address",
          "name": "sender",
          "type": "address"
        },
        {
          "indexed": false,
          "internalType": "uint256",
          "name": "amount",
          "type": "uint256"
        }
      ],
      "name": "ProtocolFunded",
      "type": "event"
    },
    {
      "anonymous": false,
      "inputs": [
        {
          "indexed": true,
          "internalType": "address",
          "name": "treasury",
          "type": "address"
        },
        {
          "indexed": false,
          "internalType": "uint256",
          "name": "amount",
          "type": "uint256"
        }
      ],
      "name": "ProtocolRevenueWithdrawn",
      "type": "event"
    },
    {
      "anonymous": false,
      "inputs": [
        {
          "indexed": true,
          "internalType": "bytes32",
          "name": "proofHash",
          "type": "bytes32"
        },
        {
          "indexed": true,
          "internalType": "address",
          "name": "submitter",
          "type": "address"
        }
      ],
      "name": "StoryMadePublic",
      "type": "event"
    },
    {
      "anonymous": false,
      "inputs": [
        {
          "indexed": true,
          "internalType": "bytes32",
          "name": "proofHash",
          "type": "bytes32"
        },
        {
          "indexed": true,
          "internalType": "address",
          "name": "unlocker",
          "type": "address"
        },
        {
          "indexed": false,
          "internalType": "uint256",
          "name": "cost",
          "type": "uint256"
        },
        {
          "indexed": false,
          "internalType": "string",
          "name": "method",
          "type": "string"
        }
      ],
      "name": "StoryUnlocked",
      "type": "event"
    },
    {
      "anonymous": false,
      "inputs": [
        {
          "indexed": true,
          "internalType": "address",
          "name": "previousTreasury",
          "type": "address"
        },
        {
          "indexed": true,
          "internalType": "address",
          "name": "newTreasury",
          "type": "address"
        }
      ],
      "name": "TreasuryUpdated",
      "type": "event"
    },
    {
      "anonymous": false,
      "inputs": [
        {
          "indexed": true,
          "internalType": "bytes32",
          "name": "proofHash",
          "type": "bytes32"
        },
        {
          "indexed": true,
          "internalType": "address",
          "name": "assertor",
          "type": "address"
        },
        {
          "indexed": false,
          "internalType": "bool",
          "name": "believesReal",
          "type": "bool"
        },
        {
          "indexed": false,
          "internalType": "uint256",
          "name": "stake",
          "type": "uint256"
        }
      ],
      "name": "TruthAsserted",
      "type": "event"
    },
    {
      "anonymous": false,
      "inputs": [
        {
          "indexed": true,
          "internalType": "bytes32",
          "name": "proofHash",
          "type": "bytes32"
        },
        {
          "indexed": true,
          "internalType": "address",
          "name": "assertor",
          "type": "address"
        },
        {
          "indexed": false,
          "internalType": "bool",
          "name": "wasCorrect",
          "type": "bool"
        },
        {
          "indexed": false,
          "internalType": "uint256",
          "name": "reward",
          "type": "uint256"
        }
      ],
      "name": "TruthResolved",
      "type": "event"
    },
    {
      "anonymous": false,
      "inputs": [
        {
          "indexed": false,
          "internalType": "uint256",
          "name": "previousQuoteWeiPerToken",
          "type": "uint256"
        },
        {
          "indexed": false,
          "internalType": "uint256",
          "name": "newQuoteWeiPerToken",
          "type": "uint256"
        },
        {
          "indexed": false,
          "internalType": "uint256",
          "name": "updatedAt",
          "type": "uint256"
        }
      ],
      "name": "UnlockPriceQuoteUpdated",
      "type": "event"
    },
    {
      "anonymous": false,
      "inputs": [
        {
          "indexed": true,
          "internalType": "bytes32",
          "name": "proofHash",
          "type": "bytes32"
        },
        {
          "indexed": false,
          "internalType": "uint256",
          "name": "newPrice",
          "type": "uint256"
        }
      ],
      "name": "UnlockPriceUpdated",
      "type": "event"
    },
    {
      "inputs": [],
      "name": "BASE_UNLOCK_PRICE",
      "outputs": [
        {
          "internalType": "uint256",
          "name": "",
          "type": "uint256"
        }
      ],
      "stateMutability": "view",
      "type": "function"
    },
    {
      "inputs": [],
      "name": "BPS_DENOMINATOR",
      "outputs": [
        {
          "internalType": "uint256",
          "name": "",
          "type": "uint256"
        }
      ],
      "stateMutability": "view",
      "type": "function"
    },
    {
      "inputs": [],
      "name": "CREDIBILITY_UNLOCK_THRESHOLD",
      "outputs": [
        {
          "internalType": "uint256",
          "name": "",
          "type": "uint256"
        }
      ],
      "stateMutability": "view",
      "type": "function"
    },
    {
      "inputs": [],
      "name": "GHOSTING_RECEIPT_FEE",
      "outputs": [
        {
          "internalType": "uint256",
          "name": "",
          "type": "uint256"
        }
      ],
      "stateMutability": "view",
      "type": "function"
    },
    {
      "inputs": [],
      "name": "MAX_GHOSTED_PER_SUBMISSION",
      "outputs": [
        {
          "internalType": "uint256",
          "name": "",
          "type": "uint256"
        }
      ],
      "stateMutability": "view",
      "type": "function"
    },
    {
      "inputs": [],
      "name": "MAX_UNLOCK_PRICE",
      "outputs": [
        {
          "internalType": "uint256",
          "name": "",
          "type": "uint256"
        }
      ],
      "stateMutability": "view",
      "type": "function"
    },
    {
      "inputs": [],
      "name": "MAX_UNLOCK_PRICE_QUOTE_AGE",
      "outputs": [
        {
          "internalType": "uint256",
          "name": "",
          "type": "uint256"
        }
      ],
      "stateMutability": "view",
      "type": "function"
    },
    {
      "inputs": [],
      "name": "TREASURY_SPLIT_BPS",
      "outputs": [
        {
          "internalType": "uint256",
          "name": "",
          "type": "uint256"
        }
      ],
      "stateMutability": "view",
      "type": "function"
    },
    {
      "inputs": [],
      "name": "TRUTH_ASSERTION_STAKE",
      "outputs": [
        {
          "internalType": "uint256",
          "name": "",
          "type": "uint256"
        }
      ],
      "stateMutability": "view",
      "type": "function"
    },
    {
      "inputs": [],
      "name": "TRUTH_WIN_REWARD",
      "outputs": [
        {
          "internalType": "uint256",
          "name": "",
          "type": "uint256"
        }
      ],
      "stateMutability": "view",
      "type": "function"
    },
    {
      "inputs": [],
      "name": "UNLOCK_PRICE_STEP",
      "outputs": [
        {
          "internalType": "uint256",
          "name": "",
          "type": "uint256"
        }
      ],
      "stateMutability": "view",
      "type": "function"
    },
    {
      "inputs": [],
      "name": "acceptOwnership",
      "outputs": [],
      "stateMutability": "nonpayable",
      "type": "function"
    },
    {
      "inputs": [
        {
          "internalType": "bytes32",
          "name": "proofHash",
          "type": "bytes32"
        },
        {
          "internalType": "bool",
          "name": "believesReal",
          "type": "bool"
        }
      ],
      "name": "assertTruth",
      "outputs": [],
      "stateMutability": "nonpayable",
      "type": "function"
    },
    {
      "inputs": [
        {
          "internalType": "bytes32",
          "name": "proofHash",
          "type": "bytes32"
        },
        {
          "internalType": "address",
          "name": "user",
          "type": "address"
        }
      ],
      "name": "canUserAccessStory",
      "outputs": [
        {
          "internalType": "bool",
          "name": "",
          "type": "bool"
        }
      ],
      "stateMutability": "view",
      "type": "function"
    },
    {
      "inputs": [],
      "name": "directEvidenceCount",
      "outputs": [
        {
          "internalType": "uint256",
          "name": "",
          "type": "uint256"
        }
      ],
      "stateMutability": "view",
      "type": "function"
    },
    {
      "inputs": [],
      "name": "evidenceCounter",
      "outputs": [
        {
          "internalType": "uint256",
          "name": "",
          "type": "uint256"
        }
      ],
      "stateMutability": "view",
      "type": "function"
    },
    {
      "inputs": [
        {
          "internalType": "bytes32",
          "name": "",
          "type": "bytes32"
        }
      ],
      "name": "evidenceSubmitter",
      "outputs": [
        {
          "internalType": "address",
          "name": "",
          "type": "address"
        }
      ],
      "stateMutability": "view",
      "type": "function"
    },
    {
      "inputs": [
        {
          "internalType": "bytes32",
          "name": "proofHash",
          "type": "bytes32"
        }
      ],
      "name": "getEvidence",
      "outputs": [
        {
          "internalType": "uint256",
          "name": "timestamp",
          "type": "uint256"
        },
        {
          "internalType": "uint256",
          "name": "weight",
          "type": "uint256"
        },
        {
          "internalType": "bool",
          "name": "isProxy",
          "type": "bool"
        },
        {
          "internalType": "bytes32",
          "name": "descriptionHash",
          "type": "bytes32"
        },
        {
          "internalType": "string",
          "name": "dramaType",
          "type": "string"
        },
        {
          "internalType": "string",
          "name": "contentCid",
          "type": "string"
        },
        {
          "internalType": "address",
          "name": "submitter",
          "type": "address"
        },
        {
          "internalType": "uint256",
          "name": "ghostedRewarded",
          "type": "uint256"
        }
      ],
      "stateMutability": "view",
      "type": "function"
    },
    {
      "inputs": [],
      "name": "getProtocolStats",
      "outputs": [
        {
          "internalType": "uint256",
          "name": "totalEvidence",
          "type": "uint256"
        },
        {
          "internalType": "uint256",
          "name": "directEvidence",
          "type": "uint256"
        },
        {
          "internalType": "uint256",
          "name": "proxyEvidence",
          "type": "uint256"
        },
        {
          "internalType": "uint256",
          "name": "totalTruthAssertions",
          "type": "uint256"
        },
        {
          "internalType": "uint256",
          "name": "rewardedGhosted",
          "type": "uint256"
        },
        {
          "internalType": "uint256",
          "name": "burnedGhosted",
          "type": "uint256"
        },
        {
          "internalType": "uint256",
          "name": "revenueCollected",
          "type": "uint256"
        },
        {
          "internalType": "uint256",
          "name": "treasuryDistributed",
          "type": "uint256"
        },
        {
          "internalType": "uint256",
          "name": "protocolRetainedRevenue",
          "type": "uint256"
        },
        {
          "internalType": "uint256",
          "name": "protocolWithdrawn",
          "type": "uint256"
        },
        {
          "internalType": "uint256",
          "name": "protocolBalance",
          "type": "uint256"
        },
        {
          "internalType": "bool",
          "name": "gaslightUnlocked",
          "type": "bool"
        },
        {
          "internalType": "bool",
          "name": "isPaused",
          "type": "bool"
        }
      ],
      "stateMutability": "view",
      "type": "function"
    },
    {
      "inputs": [
        {
          "internalType": "bytes32",
          "name": "proofHash",
          "type": "bytes32"
        }
      ],
      "name": "getStoryPayoutInfo",
      "outputs": [
        {
          "internalType": "uint256",
          "name": "tokenPayouts",
          "type": "uint256"
        },
        {
          "internalType": "uint256",
          "name": "ethPayouts",
          "type": "uint256"
        },
        {
          "internalType": "uint256",
          "name": "currentEthUnlockPrice",
          "type": "uint256"
        }
      ],
      "stateMutability": "view",
      "type": "function"
    },
    {
      "inputs": [
        {
          "internalType": "bytes32",
          "name": "proofHash",
          "type": "bytes32"
        }
      ],
      "name": "getStoryUnlockInfo",
      "outputs": [
        {
          "internalType": "uint256",
          "name": "unlockPriceTokens",
          "type": "uint256"
        },
        {
          "internalType": "uint256",
          "name": "timesUnlocked",
          "type": "uint256"
        },
        {
          "internalType": "bool",
          "name": "isPublic",
          "type": "bool"
        },
        {
          "internalType": "uint256",
          "name": "totalEarned",
          "type": "uint256"
        },
        {
          "internalType": "address",
          "name": "submitter",
          "type": "address"
        },
        {
          "internalType": "uint256",
          "name": "severity",
          "type": "uint256"
        }
      ],
      "stateMutability": "view",
      "type": "function"
    },
    {
      "inputs": [
        {
          "internalType": "uint256",
          "name": "cursor",
          "type": "uint256"
        },
        {
          "internalType": "uint256",
          "name": "limit",
          "type": "uint256"
        }
      ],
      "name": "getSubmittedProofHashes",
      "outputs": [
        {
          "internalType": "bytes32[]",
          "name": "proofHashes",
          "type": "bytes32[]"
        }
      ],
      "stateMutability": "view",
      "type": "function"
    },
    {
      "inputs": [
        {
          "internalType": "bytes32",
          "name": "proofHash",
          "type": "bytes32"
        },
        {
          "internalType": "uint256",
          "name": "assertionIndex",
          "type": "uint256"
        }
      ],
      "name": "getTruthAssertion",
      "outputs": [
        {
          "internalType": "bytes32",
          "name": "assertionProofHash",
          "type": "bytes32"
        },
        {
          "internalType": "address",
          "name": "assertor",
          "type": "address"
        },
        {
          "internalType": "bool",
          "name": "believesReal",
          "type": "bool"
        },
        {
          "internalType": "uint256",
          "name": "stakeAmount",
          "type": "uint256"
        },
        {
          "internalType": "uint256",
          "name": "timestamp",
          "type": "uint256"
        },
        {
          "internalType": "bool",
          "name": "resolved",
          "type": "bool"
        },
        {
          "internalType": "bool",
          "name": "wasCorrect",
          "type": "bool"
        }
      ],
      "stateMutability": "view",
      "type": "function"
    },
    {
      "inputs": [
        {
          "internalType": "bytes32",
          "name": "proofHash",
          "type": "bytes32"
        }
      ],
      "name": "getTruthAssertionCount",
      "outputs": [
        {
          "internalType": "uint256",
          "name": "",
          "type": "uint256"
        }
      ],
      "stateMutability": "view",
      "type": "function"
    },
    {
      "inputs": [
        {
          "internalType": "address",
          "name": "account",
          "type": "address"
        }
      ],
      "name": "getUserCredibility",
      "outputs": [
        {
          "internalType": "uint256",
          "name": "tokenCredibility",
          "type": "uint256"
        },
        {
          "internalType": "uint256",
          "name": "protocolCredibility",
          "type": "uint256"
        },
        {
          "internalType": "uint256",
          "name": "effectiveCredibility",
          "type": "uint256"
        }
      ],
      "stateMutability": "view",
      "type": "function"
    },
    {
      "inputs": [],
      "name": "ghostedToken",
      "outputs": [
        {
          "internalType": "contract IGhostedToken",
          "name": "",
          "type": "address"
        }
      ],
      "stateMutability": "view",
      "type": "function"
    },
    {
      "inputs": [
        {
          "internalType": "bytes32",
          "name": "",
          "type": "bytes32"
        },
        {
          "internalType": "address",
          "name": "",
          "type": "address"
        }
      ],
      "name": "hasUnlockedStory",
      "outputs": [
        {
          "internalType": "bool",
          "name": "",
          "type": "bool"
        }
      ],
      "stateMutability": "view",
      "type": "function"
    },
    {
      "inputs": [
        {
          "internalType": "bytes32",
          "name": "proofHash",
          "type": "bytes32"
        },
        {
          "internalType": "address",
          "name": "user",
          "type": "address"
        }
      ],
      "name": "hasUserUnlockedStory",
      "outputs": [
        {
          "internalType": "bool",
          "name": "",
          "type": "bool"
        }
      ],
      "stateMutability": "view",
      "type": "function"
    },
    {
      "inputs": [
        {
          "internalType": "bytes32",
          "name": "",
          "type": "bytes32"
        }
      ],
      "name": "lockedStories",
      "outputs": [
        {
          "internalType": "bytes32",
          "name": "proofHash",
          "type": "bytes32"
        },
        {
          "internalType": "address",
          "name": "submitter",
          "type": "address"
        },
        {
          "internalType": "uint256",
          "name": "severity",
          "type": "uint256"
        },
        {
          "internalType": "uint256",
          "name": "unlockPrice",
          "type": "uint256"
        },
        {
          "internalType": "uint256",
          "name": "timesUnlocked",
          "type": "uint256"
        },
        {
          "internalType": "bool",
          "name": "isPublic",
          "type": "bool"
        },
        {
          "internalType": "uint256",
          "name": "totalEarnedFromUnlocks",
          "type": "uint256"
        }
      ],
      "stateMutability": "view",
      "type": "function"
    },
    {
      "inputs": [
        {
          "internalType": "bytes32",
          "name": "proofHash",
          "type": "bytes32"
        }
      ],
      "name": "makeStoryPublic",
      "outputs": [],
      "stateMutability": "nonpayable",
      "type": "function"
    },
    {
      "inputs": [],
      "name": "oracle",
      "outputs": [
        {
          "internalType": "address",
          "name": "",
          "type": "address"
        }
      ],
      "stateMutability": "view",
      "type": "function"
    },
    {
      "inputs": [],
      "name": "owner",
      "outputs": [
        {
          "internalType": "address",
          "name": "",
          "type": "address"
        }
      ],
      "stateMutability": "view",
      "type": "function"
    },
    {
      "inputs": [],
      "name": "paused",
      "outputs": [
        {
          "internalType": "bool",
          "name": "",
          "type": "bool"
        }
      ],
      "stateMutability": "view",
      "type": "function"
    },
    {
      "inputs": [],
      "name": "pendingOwner",
      "outputs": [
        {
          "internalType": "address",
          "name": "",
          "type": "address"
        }
      ],
      "stateMutability": "view",
      "type": "function"
    },
    {
      "inputs": [
        {
          "internalType": "bytes32",
          "name": "proofHash",
          "type": "bytes32"
        }
      ],
      "name": "previewUnlockPriceInEth",
      "outputs": [
        {
          "internalType": "uint256",
          "name": "",
          "type": "uint256"
        }
      ],
      "stateMutability": "view",
      "type": "function"
    },
    {
      "inputs": [],
      "name": "pricingOracle",
      "outputs": [
        {
          "internalType": "address",
          "name": "",
          "type": "address"
        }
      ],
      "stateMutability": "view",
      "type": "function"
    },
    {
      "inputs": [
        {
          "internalType": "address",
          "name": "",
          "type": "address"
        }
      ],
      "name": "protocolCredibilityScore",
      "outputs": [
        {
          "internalType": "uint256",
          "name": "",
          "type": "uint256"
        }
      ],
      "stateMutability": "view",
      "type": "function"
    },
    {
      "inputs": [],
      "name": "proxyEvidenceCount",
      "outputs": [
        {
          "internalType": "uint256",
          "name": "",
          "type": "uint256"
        }
      ],
      "stateMutability": "view",
      "type": "function"
    },
    {
      "inputs": [
        {
          "internalType": "bytes32",
          "name": "proofHash",
          "type": "bytes32"
        },
        {
          "internalType": "uint256",
          "name": "assertionIndex",
          "type": "uint256"
        },
        {
          "internalType": "bool",
          "name": "isActuallyReal",
          "type": "bool"
        }
      ],
      "name": "resolveTruth",
      "outputs": [],
      "stateMutability": "nonpayable",
      "type": "function"
    },
    {
      "inputs": [
        {
          "internalType": "address",
          "name": "newOracle",
          "type": "address"
        }
      ],
      "name": "setOracle",
      "outputs": [],
      "stateMutability": "nonpayable",
      "type": "function"
    },
    {
      "inputs": [
        {
          "internalType": "bool",
          "name": "nextPaused",
          "type": "bool"
        }
      ],
      "name": "setPaused",
      "outputs": [],
      "stateMutability": "nonpayable",
      "type": "function"
    },
    {
      "inputs": [
        {
          "internalType": "address",
          "name": "newPricingOracle",
          "type": "address"
        }
      ],
      "name": "setPricingOracle",
      "outputs": [],
      "stateMutability": "nonpayable",
      "type": "function"
    },
    {
      "inputs": [
        {
          "internalType": "address",
          "name": "newTreasury",
          "type": "address"
        }
      ],
      "name": "setTreasury",
      "outputs": [],
      "stateMutability": "nonpayable",
      "type": "function"
    },
    {
      "inputs": [
        {
          "internalType": "uint256",
          "name": "quoteWeiPerToken",
          "type": "uint256"
        }
      ],
      "name": "setUnlockPriceQuote",
      "outputs": [],
      "stateMutability": "nonpayable",
      "type": "function"
    },
    {
      "inputs": [
        {
          "internalType": "bytes32",
          "name": "",
          "type": "bytes32"
        }
      ],
      "name": "storyEthEarnings",
      "outputs": [
        {
          "internalType": "uint256",
          "name": "",
          "type": "uint256"
        }
      ],
      "stateMutability": "view",
      "type": "function"
    },
    {
      "inputs": [
        {
          "internalType": "bytes32",
          "name": "proofHash",
          "type": "bytes32"
        },
        {
          "internalType": "uint256",
          "name": "severity",
          "type": "uint256"
        },
        {
          "internalType": "string",
          "name": "description",
          "type": "string"
        },
        {
          "internalType": "string",
          "name": "dramaType",
          "type": "string"
        },
        {
          "internalType": "string",
          "name": "contentCid",
          "type": "string"
        },
        {
          "internalType": "bool",
          "name": "isProxy",
          "type": "bool"
        }
      ],
      "name": "submitEvidence",
      "outputs": [],
      "stateMutability": "payable",
      "type": "function"
    },
    {
      "inputs": [],
      "name": "submittedProofHashesCount",
      "outputs": [
        {
          "internalType": "uint256",
          "name": "",
          "type": "uint256"
        }
      ],
      "stateMutability": "view",
      "type": "function"
    },
    {
      "inputs": [],
      "name": "totalGhostedBurned",
      "outputs": [
        {
          "internalType": "uint256",
          "name": "",
          "type": "uint256"
        }
      ],
      "stateMutability": "view",
      "type": "function"
    },
    {
      "inputs": [],
      "name": "totalGhostedRewarded",
      "outputs": [
        {
          "internalType": "uint256",
          "name": "",
          "type": "uint256"
        }
      ],
      "stateMutability": "view",
      "type": "function"
    },
    {
      "inputs": [],
      "name": "totalProtocolRevenue",
      "outputs": [
        {
          "internalType": "uint256",
          "name": "",
          "type": "uint256"
        }
      ],
      "stateMutability": "view",
      "type": "function"
    },
    {
      "inputs": [],
      "name": "totalProtocolWithdrawn",
      "outputs": [
        {
          "internalType": "uint256",
          "name": "",
          "type": "uint256"
        }
      ],
      "stateMutability": "view",
      "type": "function"
    },
    {
      "inputs": [],
      "name": "totalRevenueCollected",
      "outputs": [
        {
          "internalType": "uint256",
          "name": "",
          "type": "uint256"
        }
      ],
      "stateMutability": "view",
      "type": "function"
    },
    {
      "inputs": [],
      "name": "totalTreasuryDistributed",
      "outputs": [
        {
          "internalType": "uint256",
          "name": "",
          "type": "uint256"
        }
      ],
      "stateMutability": "view",
      "type": "function"
    },
    {
      "inputs": [
        {
          "internalType": "address",
          "name": "",
          "type": "address"
        }
      ],
      "name": "totalTruthWins",
      "outputs": [
        {
          "internalType": "uint256",
          "name": "",
          "type": "uint256"
        }
      ],
      "stateMutability": "view",
      "type": "function"
    },
    {
      "inputs": [
        {
          "internalType": "address",
          "name": "newOwner",
          "type": "address"
        }
      ],
      "name": "transferOwnership",
      "outputs": [],
      "stateMutability": "nonpayable",
      "type": "function"
    },
    {
      "inputs": [],
      "name": "treasury",
      "outputs": [
        {
          "internalType": "address",
          "name": "",
          "type": "address"
        }
      ],
      "stateMutability": "view",
      "type": "function"
    },
    {
      "inputs": [],
      "name": "truthAssertionCount",
      "outputs": [
        {
          "internalType": "uint256",
          "name": "",
          "type": "uint256"
        }
      ],
      "stateMutability": "view",
      "type": "function"
    },
    {
      "inputs": [
        {
          "internalType": "address",
          "name": "",
          "type": "address"
        }
      ],
      "name": "truthWinStreak",
      "outputs": [
        {
          "internalType": "uint256",
          "name": "",
          "type": "uint256"
        }
      ],
      "stateMutability": "view",
      "type": "function"
    },
    {
      "inputs": [],
      "name": "unlockPriceQuoteUpdatedAt",
      "outputs": [
        {
          "internalType": "uint256",
          "name": "",
          "type": "uint256"
        }
      ],
      "stateMutability": "view",
      "type": "function"
    },
    {
      "inputs": [],
      "name": "unlockPriceQuoteWeiPerToken",
      "outputs": [
        {
          "internalType": "uint256",
          "name": "",
          "type": "uint256"
        }
      ],
      "stateMutability": "view",
      "type": "function"
    },
    {
      "inputs": [
        {
          "internalType": "bytes32",
          "name": "proofHash",
          "type": "bytes32"
        }
      ],
      "name": "unlockStoryByBurn",
      "outputs": [],
      "stateMutability": "nonpayable",
      "type": "function"
    },
    {
      "inputs": [
        {
          "internalType": "bytes32",
          "name": "proofHash",
          "type": "bytes32"
        }
      ],
      "name": "unlockStoryByCredibility",
      "outputs": [],
      "stateMutability": "nonpayable",
      "type": "function"
    },
    {
      "inputs": [
        {
          "internalType": "bytes32",
          "name": "proofHash",
          "type": "bytes32"
        }
      ],
      "name": "unlockStoryWithETH",
      "outputs": [],
      "stateMutability": "payable",
      "type": "function"
    },
    {
      "inputs": [
        {
          "internalType": "uint256",
          "name": "amount",
          "type": "uint256"
        }
      ],
      "name": "withdrawProtocolETH",
      "outputs": [],
      "stateMutability": "nonpayable",
      "type": "function"
    },
    {
      "stateMutability": "payable",
      "type": "receive"
    }
  ],
  "bytecode": "0x60a060405234801561001057600080fd5b50604051613ada380380613ada83398101604081905261002f91610110565b60017f9b779b17422d0df92223018b32b4d1fa46e071723d6817e2486d003becc55f00556001600160a01b038316158061007057506001600160a01b038216155b8061008257506001600160a01b038116155b156100a05760405163e6c4247b60e01b815260040160405180910390fd5b6001600160a01b0392831660805260008054336001600160a01b0319918216179091556004805482169385169390931790925560028054831691909316908117909255600380549091169091179055610153565b80516001600160a01b038116811461010b57600080fd5b919050565b60008060006060848603121561012557600080fd5b61012e846100f4565b925061013c602085016100f4565b915061014a604085016100f4565b90509250925092565b60805161393b61019f60003960008181610822015281816114ac0152818161247d01528181612a7101528181612c8501528181612ea801528181612ff8015261302d015261393b6000f3fe6080604052600436106103c75760003560e01c80638c37f11d116101f2578063c89e74fb1161010d578063e1a45218116100a0578063f0f442601161006f578063f0f4426014610d33578063f2fde38b14610d53578063f4dceacd14610d73578063f99156cb14610d9357600080fd5b8063e1a4521814610cca578063e30c397814610ce0578063e319c8d114610d00578063e332305d14610d1657600080fd5b8063d365d094116100dc578063d365d09414610c57578063d4ade87514610c84578063d73848cc14610c97578063dbd8c05714610cb457600080fd5b8063c89e74fb14610bd3578063c9ab713014610c00578063cb3399e814610c20578063d0f6581b14610c4057600080fd5b8063a6d2fcd911610185578063b87c111411610154578063b87c111414610b6a578063b9fa45da14610b80578063bf813d8214610b96578063c69ab50114610bb657600080fd5b8063a6d2fcd914610af6578063af414d4114610b23578063b3dfbcf814610b3e578063b690d8a114610b5457600080fd5b806398933e3a116101c157806398933e3a146109fc5780639e33bb8614610a0f578063a4fa95bf14610ab3578063a60051ae14610ae057600080fd5b80638c37f11d146109925780638da5cb5b146109a8578063924d3f56146109c8578063938a8bca146109e657600080fd5b80635bdf5621116102e25780636bccc753116102755780637adbf973116102445780637adbf973146109155780637dc0d1d0146109355780638748c6b9146109555780638c1a60b21461097557600080fd5b80636bccc75314610810578063771aceef1461084457806378f88d67146108e357806379ba50971461090057600080fd5b806367310b5a116102b157806367310b5a1461076957806368f5c663146107a45780636a01a775146107c45780636a65eaa6146107fa57600080fd5b80635bdf5621146106a35780635c975abb146106c357806361d027b3146106e457806365137dd01461070457600080fd5b80631a868c401161035a5780632ce13a03116103295780632ce13a031461060c57806338902fdb146106295780634a7221a01461063f578063530930931461067357600080fd5b80631a868c401461059657806321026950146105b657806329ff0d93146105d65780632cad2f65146105ec57600080fd5b806313b781ab1161039657806313b781ab146104cc5780631433219c146104ee57806316c38b3c1461051b57806319b881e41461053b57600080fd5b8063056962c31461040857806308104069146104485780630efd66e214610467578063139ab0e71461049457600080fd5b366104035760405134815233907f719feb717c187001672aa98b85a51988a7fab410c32ed1d724838c8377bf90af9060200160405180910390a2005b600080fd5b34801561041457600080fd5b5061042861042336600461322f565b610da9565b604080519384526020840192909252908201526060015b60405180910390f35b34801561045457600080fd5b506013545b60405190815260200161043f565b34801561047357600080fd5b50610459610482366004613264565b601a6020526000908152604090205481565b3480156104a057600080fd5b506003546104b4906001600160a01b031681565b6040516001600160a01b03909116815260200161043f565b3480156104d857600080fd5b506104ec6104e736600461322f565b610e3b565b005b3480156104fa57600080fd5b5061045961050936600461322f565b60176020526000908152604090205481565b34801561052757600080fd5b506104ec61053636600461328f565b610ed9565b34801561054757600080fd5b5061055b61055636600461322f565b610f5c565b6040805196875260208701959095529215159385019390935260608401526001600160a01b03909116608083015260a082015260c00161043f565b3480156105a257600080fd5b506104ec6105b136600461322f565b61105b565b3480156105c257600080fd5b506104596105d136600461322f565b611149565b3480156105e257600080fd5b5061045960065481565b3480156105f857600080fd5b506104ec61060736600461322f565b6111c2565b34801561061857600080fd5b5061045968878678326eac90000081565b34801561063557600080fd5b50610459600b5481565b34801561064b57600080fd5b5061065f61065a36600461322f565b6112bc565b60405161043f9897969594939291906132f0565b34801561067f57600080fd5b5061069361068e366004613352565b611459565b604051901515815260200161043f565b3480156106af57600080fd5b506104286106be366004613264565b611486565b3480156106cf57600080fd5b5060045461069390600160a01b900460ff1681565b3480156106f057600080fd5b506004546104b4906001600160a01b031681565b34801561071057600080fd5b5061072461071f36600461337e565b611549565b604080519788526001600160a01b039096166020880152931515948601949094526060850191909152608084015290151560a0830152151560c082015260e00161043f565b34801561077557600080fd5b50610693610784366004613352565b601660209081526000928352604080842090915290825290205460ff1681565b3480156107b057600080fd5b506104ec6107bf36600461322f565b611601565b3480156107d057600080fd5b506104b46107df36600461322f565b6015602052600090815260409020546001600160a01b031681565b34801561080657600080fd5b5061045960085481565b34801561081c57600080fd5b506104b47f000000000000000000000000000000000000000000000000000000000000000081565b34801561085057600080fd5b50600754600854600954600a8054600b54600c54600d54600e54600f54601054600454604080518d8152602081019c909c528b019990995260608a0196909652608089019490945260a088019290925260c087015260e08601526101008501526101208401524761014084015290921015610160820152600160a01b90910460ff1615156101808201526101a00161043f565b3480156108ef57600080fd5b50610459681b1ae4d6e2ef50000081565b34801561090c57600080fd5b506104ec61182b565b34801561092157600080fd5b506104ec610930366004613264565b6118ad565b34801561094157600080fd5b506002546104b4906001600160a01b031681565b34801561096157600080fd5b506104ec6109703660046133a0565b611951565b34801561098157600080fd5b50610459680ad78ebc5ac620000081565b34801561099e57600080fd5b50610459600f5481565b3480156109b457600080fd5b506000546104b4906001600160a01b031681565b3480156109d457600080fd5b5061045969010f0cf064dd5920000081565b3480156109f257600080fd5b50610459600e5481565b6104ec610a0a36600461340c565b611af7565b348015610a1b57600080fd5b50610a74610a2a36600461322f565b601460205260009081526040902080546001820154600283015460038401546004850154600586015460069096015494956001600160a01b039094169492939192909160ff169087565b604080519788526001600160a01b0390961660208801529486019390935260608501919091526080840152151560a083015260c082015260e00161043f565b348015610abf57600080fd5b50610ad3610ace36600461337e565b612005565b60405161043f91906134d5565b348015610aec57600080fd5b50610459610bb881565b348015610b0257600080fd5b50610459610b11366004613264565b60196020526000908152604090205481565b348015610b2f57600080fd5b506104596621c0331d5dc00081565b348015610b4a57600080fd5b5061045960095481565b348015610b6057600080fd5b5061045960055481565b348015610b7657600080fd5b5061045960075481565b348015610b8c57600080fd5b50610459600a5481565b348015610ba257600080fd5b506104ec610bb1366004613264565b6120fa565b348015610bc257600080fd5b50610459683635c9adc5dea0000081565b348015610bdf57600080fd5b50610459610bee366004613264565b60186020526000908152604090205481565b348015610c0c57600080fd5b50610693610c1b366004613352565b61219e565b348015610c2c57600080fd5b506104ec610c3b366004613518565b612213565b348015610c4c57600080fd5b506104596201518081565b348015610c6357600080fd5b50610459610c7236600461322f565b60009081526012602052604090205490565b6104ec610c9236600461322f565b6125a8565b348015610ca357600080fd5b5061045968056bc75e2d6310000081565b348015610cc057600080fd5b50610459600d5481565b348015610cd657600080fd5b5061045961271081565b348015610cec57600080fd5b506001546104b4906001600160a01b031681565b348015610d0c57600080fd5b5061045960105481565b348015610d2257600080fd5b506104596802b5e3af16b188000081565b348015610d3f57600080fd5b506104ec610d4e366004613264565b612811565b348015610d5f57600080fd5b506104ec610d6e366004613264565b6128b5565b348015610d7f57600080fd5b506104ec610d8e36600461322f565b612958565b348015610d9f57600080fd5b50610459600c5481565b600081815260116020526040812054819081908103610ddb576040516303d4572d60e51b815260040160405180910390fd5b6000848152601460205260408120600381015490919015610e00578160030154610e0b565b681b1ae4d6e2ef5000005b600683015460008881526017602052604090205491925090610e2c83612c22565b94509450945050509193909250565b6003546001600160a01b03163314610e6657604051631dc610a960e21b815260040160405180910390fd5b80600003610e8757604051637f1402d560e11b815260040160405180910390fd5b6006805490829055426005819055604080518381526020810185905280820192909252517fd9c9c767abc8174b594a5a15dd708b5629ab3a49044a597f8f3c8510dec766899181900360600190a15050565b6000546001600160a01b03163314610f04576040516330cd747160e01b815260040160405180910390fd5b60048054821515600160a01b0260ff60a01b199091161790556040517fb31006682779d0ac02864bee834675baf4592a679bfe75edd5e5847b52ef6f6e90610f5190831515815260200190565b60405180910390a150565b600081815260116020526040812054819081908190819081908103610f94576040516303d4572d60e51b815260040160405180910390fd5b600087815260146020526040812060018101549091906001600160a01b0316610fd4576000898152601560205260409020546001600160a01b0316610fe3565b60018201546001600160a01b03165b90506000826002015460000361100a5760008a815260116020526040902060010154611010565b82600201545b90508260030154600014611028578260030154611033565b681b1ae4d6e2ef5000005b60048401546005850154600690950154919c909b5060ff909416995097509095509350915050565b6000546001600160a01b03163314611086576040516330cd747160e01b815260040160405180910390fd5b61108e612d33565b47808211156110bf5760405163f8db689560e01b815260048101829052602481018390526044015b60405180910390fd5b81601060008282546110d19190613563565b90915550506004546110ec906001600160a01b031683612d4f565b6004546040518381526001600160a01b03909116907ff7595c4fd7fa675e456dd9520ac8266c06d237d52900fc573bccc85b7c177c9e9060200160405180910390a25061114660016000805160206138e683398151915255565b50565b6000818152601160205260408120548103611177576040516303d4572d60e51b815260040160405180910390fd5b600082815260146020526040812060030154156111a5576000838152601460205260409020600301546111b0565b681b1ae4d6e2ef5000005b90506111bb81612c22565b9392505050565b600454600160a01b900460ff16156111ed5760405163ab35696f60e01b815260040160405180910390fd5b600081815260116020526040812054900361121b576040516303d4572d60e51b815260040160405180910390fd5b600061122682612dc3565b60018101549091506001600160a01b0316331461125657604051632731809760e11b815260040160405180910390fd5b600581015460ff161561127c57604051635d51ae1160e11b815260040160405180910390fd5b60058101805460ff19166001179055604051339083907f4fc8ba7f4f3c695895c779eb7fde668149b9eed94bfc8e5dda5899c40eca973b90600090a35050565b6000806000806060806000806000601160008b81526020019081526020016000209050806000015481600101548260020160009054906101000a900460ff16836003015484600401856005018660060160009054906101000a90046001600160a01b0316876007015483805461133190613576565b80601f016020809104026020016040519081016040528092919081815260200182805461135d90613576565b80156113aa5780601f1061137f576101008083540402835291602001916113aa565b820191906000526020600020905b81548152906001019060200180831161138d57829003601f168201915b505050505093508280546113bd90613576565b80601f01602080910402602001604051908101604052809291908181526020018280546113e990613576565b80156114365780601f1061140b57610100808354040283529160200191611436565b820191906000526020600020905b81548152906001019060200180831161141957829003601f168201915b505050505092509850985098509850985098509850985050919395975091939597565b60008281526016602090815260408083206001600160a01b038516845290915290205460ff165b92915050565b60405163aaac37a160e01b81526001600160a01b038281166004830152600091829182917f00000000000000000000000000000000000000000000000000000000000000009091169063aaac37a190602401602060405180830381865afa1580156114f5573d6000803e3d6000fd5b505050506040513d601f19601f8201168201806040525081019061151991906135b0565b6001600160a01b03851660009081526018602052604090205490935091506115418284613563565b929491935050565b600082815260126020526040812054819081908190819081908190881061158357604051635878ae8560e11b815260040160405180910390fd5b600089815260126020526040812080548a9081106115a3576115a36135c9565b600091825260209091206005909102018054600182015460028301546003840154600490940154929e6001600160a01b0383169e5060ff600160a01b90930483169d50909b5092995080821698506101009091041695509350505050565b600454600160a01b900460ff161561162c5760405163ab35696f60e01b815260040160405180910390fd5b600081815260116020526040812054900361165a576040516303d4572d60e51b815260040160405180910390fd5b600081815260166020908152604080832033845290915290205460ff1615611695576040516328486b6360e11b815260040160405180910390fd5b60006116a082612dc3565b600581015490915060ff16156116c957604051632444f8b760e11b815260040160405180910390fd5b60006116d433612e73565b905060006116e184612f1f565b90508082101561170e576040516320200bc560e01b815260048101839052602481018290526044016110b6565b683635c9adc5dea0000082101561174a576040516320200bc560e01b815260048101839052683635c9adc5dea0000060248201526044016110b6565b60008481526016602090815260408083203384529091528120805460ff19166001179055606461177b8360056135df565b61178591906135f6565b90506117bc338260405180604001604052806012815260200171435245444942494c4954595f554e4c4f434b60701b815250612f65565b336001600160a01b0316857f2ee8d21874599264c54876b79bf25eae1b396c3771a178e683a9e038b634f1d7600060405161181c918152604060208201819052600b908201526a435245444942494c49545960a81b606082015260800190565b60405180910390a35050505050565b6001546001600160a01b0316331461185657604051630614e5c760e21b815260040160405180910390fd5b60008054336001600160a01b0319808316821784556001805490911690556040516001600160a01b0390921692909183917f8be0079c531659141344cd1fd0a4f28419497f9722a3daafe3b4186f6b6457e091a350565b6000546001600160a01b031633146118d8576040516330cd747160e01b815260040160405180910390fd5b6001600160a01b0381166118ff5760405163e6c4247b60e01b815260040160405180910390fd5b600280546001600160a01b038381166001600160a01b0319831681179093556040519116919082907f078c3b417dadf69374a59793b829c52001247130433427049317bde56607b1b790600090a35050565b600454600160a01b900460ff161561197c5760405163ab35696f60e01b815260040160405180910390fd5b611984612d33565b60008281526011602052604081205490036119b2576040516303d4572d60e51b815260040160405180910390fd5b6119c6333068056bc75e2d63100000612feb565b6000828152601260209081526040808320815160e0810183528681523381850181815287151583860181815268056bc75e2d6310000060608601818152426080880190815260a088018c815260c089018d81528a5460018082018d559b8f529d8d902099516005909e029099019c8d559551988c01805494511515600160a01b026001600160a81b03199095166001600160a01b03909a169990991793909317909755955160028a0155516003890155905160049097018054935115156101000261ff00199815159890981661ffff199094169390931796909617909155825194855292840152909184917fa04181c550a5111ebee021519f1381f122b78eb4e9b9194a64cd6c9de7737351910160405180910390a3611af360016000805160206138e683398151915255565b5050565b600454600160a01b900460ff1615611b225760405163ab35696f60e01b815260040160405180910390fd5b611b2a612d33565b88611b485760405163b780d61f60e01b815260040160405180910390fd5b871580611b555750606488115b15611b7357604051630f7fcb2960e21b815260040160405180910390fd5b60008981526011602052604090205415611ba057604051635665e77960e11b815260040160405180910390fd5b6621c0331d5dc000341015611bd757604051633ebbc33760e01b81526621c0331d5dc00060048201523460248201526044016110b6565b6000611bea6621c0331d5dc00034613618565b90506000612710611c04610bb86621c0331d5dc0006135df565b611c0e91906135f6565b90506000611c23826621c0331d5dc000613618565b905060006621c0331d5dc000600d6000828254611c409190613563565b9250508190555082600e6000828254611c599190613563565b9250508190555081600f6000828254611c729190613563565b92505081905550600160076000828254611c8c9190613563565b90915550859050611d2f57600160086000828254611caa9190613563565b925050819055506001600a6000828254611cc49190613563565b90915550611cd590508c60326135df565b611ce790670de0b6b3a76400006135df565b905069010f0cf064dd59200000811115611d08575069010f0cf064dd592000005b80600b6000828254611d1a9190613563565b90915550611d2a90503382613020565b611d48565b600160096000828254611d429190613563565b90915550505b6040518061010001604052804281526020018d815260200186151581526020018c8c604051611d7892919061362b565b604051809103902081526020018a8a8080601f016020809104026020016040519081016040528093929190818152602001838380828437600092019190915250505090825250604080516020601f8b0181900481028201810190925289815291810191908a908a9081908401838280828437600081840152601f19601f820116905080830192505050505050508152602001336001600160a01b0316815260200182815250601160008f8152602001908152602001600020600082015181600001556020820151816001015560408201518160020160006101000a81548160ff021916908315150217905550606082015181600301556080820151816004019081611e83919061369f565b5060a08201516005820190611e98908261369f565b5060c08201516006820180546001600160a01b039092166001600160a01b031992831617905560e09092015160079091015560008e8152601560205260408120805490921633179091556013805460018101825591527f66de8ffda797e3de9c05e8fc57b3bf0ec28a930d40b0d285d93c06501cf6a090018d9055611f1c8d612dc3565b508215611f3957600454611f39906001600160a01b031684612d4f565b8315611f4957611f493385612d4f565b336001600160a01b03168d7f356e37b4b3a3dbbf61e05450c7d74955350550a659bd8792d406b6c27133a0e18e88858e8e604051611f8b95949392919061375e565b60405180910390a3604080516621c0331d5dc0008152602081018590529081018390528d9033907fd381803faab74092aedc8de24231e595cfd3af1a0997ead17e7bcd54d9777c109060600160405180910390a350505050611ffa60016000805160206138e683398151915255565b505050505050505050565b6013546060908084101580612018575082155b15612033575050604080516000815260208101909152611480565b600061203f8583613618565b905060008482106120505784612052565b815b90508067ffffffffffffffff81111561206d5761206d61363b565b604051908082528060200260200182016040528015612096578160200160208202803683370190505b50935060005b818110156120f05760136120b08289613563565b815481106120c0576120c06135c9565b90600052602060002001548582815181106120dd576120dd6135c9565b602090810291909101015260010161209c565b5050505092915050565b6000546001600160a01b03163314612125576040516330cd747160e01b815260040160405180910390fd5b6001600160a01b03811661214c5760405163e6c4247b60e01b815260040160405180910390fd5b600380546001600160a01b038381166001600160a01b0319831681179093556040519116919082907f038f89ec725a3bc1b18bf38a625bf2ff0407764bd3489886a60cf1d506c7e3a290600090a35050565b60008281526011602052604081205481036121cc576040516303d4572d60e51b815260040160405180910390fd5b60008381526014602052604090206005015460ff16806111bb57505060009182526016602090815260408084206001600160a01b0393909316845291905290205460ff1690565b6002546001600160a01b0316331461223e57604051631bc2178f60e01b815260040160405180910390fd5b600454600160a01b900460ff16156122695760405163ab35696f60e01b815260040160405180910390fd5b612271612d33565b600083815260126020526040902054821061229f57604051635878ae8560e11b815260040160405180910390fd5b60008381526012602052604081208054849081106122bf576122bf6135c9565b60009182526020909120600590910201600481015490915060ff16156122f8576040516336ab81e160e11b815260040160405180910390fd5b600481018054600183810154600160a01b900460ff90811615158615151461010090810261ffff19909416939093179091179283905591041615612423576001810154612357906001600160a01b0316680ad78ebc5ac6200000613020565b680ad78ebc5ac6200000600b60008282546123729190613563565b90915550506001818101546001600160a01b03166000908152601a6020526040812080549091906123a4908490613563565b90915550506001818101546001600160a01b0316600090815260196020526040812080549091906123d6908490613563565b909155505060018101546040805180820190915260098152682a292aaa242faba4a760b91b602082015261241e916001600160a01b03169068056bc75e2d6310000090612f65565b612518565b600061242e85612dc3565b90506000612446600268056bc75e2d631000006135f6565b6001830154909150612461906001600160a01b031682613020565b604051632770a7eb60e21b8152306004820152602481018290527f00000000000000000000000000000000000000000000000000000000000000006001600160a01b031690639dc29fac90604401600060405180830381600087803b1580156124c957600080fd5b505af11580156124dd573d6000803e3d6000fd5b5050505080600c60008282546124f39190613563565b90915550505060018201546001600160a01b03166000908152601a6020526040812055505b600181015460048201546001600160a01b039091169085907f8aa1336152b005ddd3ccc39b5a66ed207555053dd23bc9cff1aab405f6348ea590610100900460ff1680612566576000612571565b680ad78ebc5ac62000005b60408051921515835260208301919091520160405180910390a3506125a360016000805160206138e683398151915255565b505050565b600454600160a01b900460ff16156125d35760405163ab35696f60e01b815260040160405180910390fd5b6125db612d33565b6000818152601160205260408120549003612609576040516303d4572d60e51b815260040160405180910390fd5b600081815260166020908152604080832033845290915290205460ff1615612644576040516328486b6360e11b815260040160405180910390fd5b600061264f82612dc3565b600581015490915060ff161561267857604051632444f8b760e11b815260040160405180910390fd5b6003810154600061268884611149565b9050803410156126b457604051633ebbc33760e01b8152600481018290523460248201526044016110b6565b60008481526016602090815260408083203384529091528120805460ff19166001908117909155600485018054919290916126f0908490613563565b909155506126ff905082613054565b600384015560008481526017602052604081208054839290612722908490613563565b9091555050600183015461273f906001600160a01b031682612d4f565b8034111561275a5761275a336127558334613618565b612d4f565b336001600160a01b0316847f2ee8d21874599264c54876b79bf25eae1b396c3771a178e683a9e038b634f1d7846040516127b19181526040602082018190526003908201526208aa8960eb1b606082015260800190565b60405180910390a3837f68520cf07e2f785cba8f9601c758232191b84e9f0a8ec7b3049d2dcc197b67fe84600301546040516127ef91815260200190565b60405180910390a250505061114660016000805160206138e683398151915255565b6000546001600160a01b0316331461283c576040516330cd747160e01b815260040160405180910390fd5b6001600160a01b0381166128635760405163e6c4247b60e01b815260040160405180910390fd5b600480546001600160a01b038381166001600160a01b0319831681179093556040519116919082907f4ab5be82436d353e61ca18726e984e561f5c1cc7c6d38b29d2553c790434705a90600090a35050565b6000546001600160a01b031633146128e0576040516330cd747160e01b815260040160405180910390fd5b6001600160a01b0381166129075760405163e6c4247b60e01b815260040160405180910390fd5b600180546001600160a01b0319166001600160a01b0383811691821790925560008054604051929316917f38d16b8cac22d99fc7c124b9cd0de2d3fa1faef420bfe791d8c362d765e227009190a350565b600454600160a01b900460ff16156129835760405163ab35696f60e01b815260040160405180910390fd5b61298b612d33565b60008181526011602052604081205490036129b9576040516303d4572d60e51b815260040160405180910390fd5b600081815260166020908152604080832033845290915290205460ff16156129f4576040516328486b6360e11b815260040160405180910390fd5b60006129ff82612dc3565b600581015490915060ff1615612a2857604051632444f8b760e11b815260040160405180910390fd5b60038101546000612a3a6002836135f6565b90506000612a488284613618565b9050612a55333085612feb565b604051632770a7eb60e21b8152306004820152602481018390527f00000000000000000000000000000000000000000000000000000000000000006001600160a01b031690639dc29fac90604401600060405180830381600087803b158015612abd57600080fd5b505af1158015612ad1573d6000803e3d6000fd5b5050505081600c6000828254612ae79190613563565b90915550506001840154612b04906001600160a01b031682613020565b60008581526016602090815260408083203384529091528120805460ff1916600190811790915560048601805491929091612b40908490613563565b9250508190555080846006016000828254612b5b9190613563565b90915550612b6a905083613054565b6003850155604051339086907f2ee8d21874599264c54876b79bf25eae1b396c3771a178e683a9e038b634f1d790612bc19087815260406020820181905260049082015263212aa92760e11b606082015260800190565b60405180910390a3847f68520cf07e2f785cba8f9601c758232191b84e9f0a8ec7b3049d2dcc197b67fe8560030154604051612bff91815260200190565b60405180910390a25050505061114660016000805160206138e683398151915255565b600554600090808203612c4857604051630b73274760e11b815260040160405180910390fd5b612c556201518082613563565b421115612c8157604051634487756760e11b8152600481018290526201518060248201526044016110b6565b60007f00000000000000000000000000000000000000000000000000000000000000006001600160a01b031663313ce5676040518163ffffffff1660e01b8152600401602060405180830381865afa158015612ce1573d6000803e3d6000fd5b505050506040513d601f19601f82011682018060405250810190612d0591906137a4565b612d1090600a6138ae565b90508060065485612d2191906135df565b612d2b91906135f6565b949350505050565b612d3b6130b4565b60026000805160206138e683398151915255565b6000826001600160a01b03168260405160006040518083038185875af1925050503d8060008114612d9c576040519150601f19603f3d011682016040523d82523d6000602084013e612da1565b606091505b50509050806125a35760405163022e258160e11b815260040160405180910390fd5b6000818152601460205260409020600381015415612de057919050565b6000828152601560205260409020546001600160a01b031680612e16576040516361f2aa0160e11b815260040160405180910390fd5b828255600180830180546001600160a01b0319166001600160a01b039390931692909217909155600092835260116020526040909220909101546002820155681b1ae4d6e2ef500000600382015560058101805460ff1916905590565b6001600160a01b0381811660008181526018602052604080822054905163aaac37a160e01b81526004810193909352909290917f00000000000000000000000000000000000000000000000000000000000000009091169063aaac37a190602401602060405180830381865afa158015612ef1573d6000803e3d6000fd5b505050506040513d601f19601f82011682018060405250810190612f1591906135b0565b6114809190613563565b6000818152601160205260408120600101548190612f4490662386f26fc100006135df565b9050683635c9adc5dea00000811161148057683635c9adc5dea000006111bb565b6001600160a01b03831660009081526018602052604081205490612f898483613563565b6001600160a01b0386166000818152601860205260409081902083905551919250907f7b750b6736ccb837fea530571f55e8e43f7eeb7bf7f2aadca5b698bd6be22d7a90612fdc908590859088906138bd565b60405180910390a25050505050565b6125a36001600160a01b037f0000000000000000000000000000000000000000000000000000000000000000168484846130e6565b611af36001600160a01b037f0000000000000000000000000000000000000000000000000000000000000000168383613122565b600068878678326eac9000008210613076575068878678326eac900000919050565b600061308b6802b5e3af16b188000084613563565b905068878678326eac90000081116130a357806111bb565b68878678326eac9000009392505050565b6000805160206138e6833981519152546002036130e457604051633ee5aeb560e01b815260040160405180910390fd5b565b6130f4848484846001613157565b61311c57604051635274afe760e01b81526001600160a01b03851660048201526024016110b6565b50505050565b61312f83838360016131c9565b6125a357604051635274afe760e01b81526001600160a01b03841660048201526024016110b6565b6040516323b872dd60e01b60008181526001600160a01b038781166004528616602452604485905291602083606481808c5af1925060016000511483166131b75783831516156131aa573d6000823e3d81fd5b6000883b113d1516831692505b60405250600060605295945050505050565b60405163a9059cbb60e01b60008181526001600160a01b038616600452602485905291602083604481808b5af192506001600051148316613223578383151615613216573d6000823e3d81fd5b6000873b113d1516831692505b60405250949350505050565b60006020828403121561324157600080fd5b5035919050565b80356001600160a01b038116811461325f57600080fd5b919050565b60006020828403121561327657600080fd5b6111bb82613248565b8035801515811461325f57600080fd5b6000602082840312156132a157600080fd5b6111bb8261327f565b6000815180845260005b818110156132d0576020818501810151868301820152016132b4565b506000602082860101526020601f19601f83011685010191505092915050565b88815287602082015286151560408201528560608201526101006080820152600061331f6101008301876132aa565b82810360a084015261333181876132aa565b6001600160a01b039590951660c0840152505060e001529695505050505050565b6000806040838503121561336557600080fd5b8235915061337560208401613248565b90509250929050565b6000806040838503121561339157600080fd5b50508035926020909101359150565b600080604083850312156133b357600080fd5b823591506133756020840161327f565b60008083601f8401126133d557600080fd5b50813567ffffffffffffffff8111156133ed57600080fd5b60208301915083602082850101111561340557600080fd5b9250929050565b600080600080600080600080600060c08a8c03121561342a57600080fd5b8935985060208a0135975060408a013567ffffffffffffffff81111561344f57600080fd5b61345b8c828d016133c3565b90985096505060608a013567ffffffffffffffff81111561347b57600080fd5b6134878c828d016133c3565b90965094505060808a013567ffffffffffffffff8111156134a757600080fd5b6134b38c828d016133c3565b90945092506134c6905060a08b0161327f565b90509295985092959850929598565b602080825282518282018190526000918401906040840190835b8181101561350d5783518352602093840193909201916001016134ef565b509095945050505050565b60008060006060848603121561352d57600080fd5b83359250602084013591506135446040850161327f565b90509250925092565b634e487b7160e01b600052601160045260246000fd5b808201808211156114805761148061354d565b600181811c9082168061358a57607f821691505b6020821081036135aa57634e487b7160e01b600052602260045260246000fd5b50919050565b6000602082840312156135c257600080fd5b5051919050565b634e487b7160e01b600052603260045260246000fd5b80820281158282048414176114805761148061354d565b60008261361357634e487b7160e01b600052601260045260246000fd5b500490565b818103818111156114805761148061354d565b8183823760009101908152919050565b634e487b7160e01b600052604160045260246000fd5b601f8211156125a357806000526020600020601f840160051c810160208510156136785750805b601f840160051c820191505b818110156136985760008155600101613684565b5050505050565b815167ffffffffffffffff8111156136b9576136b961363b565b6136cd816136c78454613576565b84613651565b6020601f82116001811461370157600083156136e95750848201515b600019600385901b1c1916600184901b178455613698565b600084815260208120601f198516915b828110156137315787850151825560209485019460019092019101613711565b508482101561374f5786840151600019600387901b60f8161c191681555b50505050600190811b01905550565b858152841515602082015283604082015260806060820152816080820152818360a0830137600081830160a090810191909152601f909201601f19160101949350505050565b6000602082840312156137b657600080fd5b815160ff811681146111bb57600080fd5b6001815b6001841115613802578085048111156137e6576137e661354d565b60018416156137f457908102905b60019390931c9280026137cb565b935093915050565b60008261381957506001611480565b8161382657506000611480565b816001811461383c576002811461384657613862565b6001915050611480565b60ff8411156138575761385761354d565b50506001821b611480565b5060208310610133831016604e8410600b8410161715613885575081810a611480565b61389260001984846137c7565b80600019048211156138a6576138a661354d565b029392505050565b60006111bb60ff84168361380a565b8381528260208201526060604082015260006138dc60608301846132aa565b9594505050505056fe9b779b17422d0df92223018b32b4d1fa46e071723d6817e2486d003becc55f00a2646970667358221220fab2ab227ce948a2d6b9a3f53304320452042bbd5752afe883ff5dff052f096464736f6c634300081e0033",
  "linkReferences": {},
  "deployedLinkReferences": {}
}