{
  "_format": "hh-sol-artifact-1",
  "contractName": "GhostProtocol",
  "sourceName": "contracts/GhostProtocol.sol",
  "abi": [
    {
      "inputs": [
        {
          "internalType": "address",
          "name": "ghostedTokenAddress",
          "type": "address"
        },
        {
          "internalType": "address",
          "name": "treasuryAddress",
          "type": "address"
        },
        {
          "internalType": "address",
          "name": "oracleAddress",
          "type": "address"
        }
      ],
      "stateMutability": "nonpayable",
      "type": "constructor"
    },
    {
      "inputs": [],
      "name": "AlreadyResolved",
      "type": "error"
    },
    {
      "inputs": [],
      "name": "AlreadyUnlocked",
      "type": "error"
    },
    {
      "inputs": [],
      "name": "ContractPaused",
      "type": "error"
    },
    {
      "inputs": [],
      "name": "EvidenceAlreadyExists",
      "type": "error"
    },
    {
      "inputs": [
        {
          "internalType": "uint256",
          "name": "currentCredibility",
          "type": "uint256"
        },
        {
          "internalType": "uint256",
          "name": "requiredCredibility",
          "type": "uint256"
        }
      ],
      "name": "InsufficientCredibility",
      "type": "error"
    },
    {
      "inputs": [
        {
          "internalType": "uint256",
          "name": "requiredAmount",
          "type": "uint256"
        },
        {
          "internalType": "uint256",
          "name": "receivedAmount",
          "type": "uint256"
        }
      ],
      "name": "InsufficientEth",
      "type": "error"
    },
    {
      "inputs": [
        {
          "internalType": "uint256",
          "name": "availableAmount",
          "type": "uint256"
        },
        {
          "internalType": "uint256",
          "name": "requestedAmount",
          "type": "uint256"
        }
      ],
      "name": "InsufficientProtocolEth",
      "type": "error"
    },
    {
      "inputs": [],
      "name": "InvalidAddress",
      "type": "error"
    },
    {
      "inputs": [],
      "name": "InvalidAssertionIndex",
      "type": "error"
    },
    {
      "inputs": [],
      "name": "InvalidProofHash",
      "type": "error"
    },
    {
      "inputs": [],
      "name": "InvalidQuoteAmount",
      "type": "error"
    },
    {
      "inputs": [],
      "name": "InvalidSeverity",
      "type": "error"
    },
    {
      "inputs": [],
      "name": "NotOracle",
      "type": "error"
    },
    {
      "inputs": [],
      "name": "NotOwner",
      "type": "error"
    },
    {
      "inputs": [],
      "name": "NotPendingOwner",
      "type": "error"
    },
    {
      "inputs": [],
      "name": "NotPricingOracle",
      "type": "error"
    },
    {
      "inputs": [],
      "name": "OnlySubmitter",
      "type": "error"
    },
    {
      "inputs": [],
      "name": "ReentrancyGuardActive",
      "type": "error"
    },
    {
      "inputs": [
        {
          "internalType": "address",
          "name": "token",
          "type": "address"
        }
      ],
      "name": "SafeERC20FailedOperation",
      "type": "error"
    },
    {
      "inputs": [
        {
          "internalType": "uint256",
          "name": "lastUpdatedAt",
          "type": "uint256"
        },
        {
          "internalType": "uint256",
          "name": "maxAge",
          "type": "uint256"
        }
      ],
      "name": "StaleUnlockPriceQuote",
      "type": "error"
    },
    {
      "inputs": [],
      "name": "StoryAlreadyPublic",
      "type": "error"
    },
    {
      "inputs": [],
      "name": "StoryDoesNotExist",
      "type": "error"
    },
    {
      "inputs": [],
      "name": "StoryIsPublic",
      "type": "error"
    },
    {
      "inputs": [],
      "name": "SubmitterNotRecorded",
      "type": "error"
    },
    {
      "inputs": [],
      "name": "TokenTransferFailed",
      "type": "error"
    },
    {
      "inputs": [],
      "name": "UnlockPriceQuoteNotSet",
      "type": "error"
    },
    {
      "anonymous": false,
      "inputs": [
        {
          "indexed": true,
          "internalType": "bytes32",
          "name": "proofHash",
          "type": "bytes32"
        },
        {
          "indexed": true,
          "internalType": "address",
          "name": "submitter",
          "type": "address"
        },
        {
          "indexed": false,
          "internalType": "uint256",
          "name": "severity",
          "type": "uint256"
        },
        {
          "indexed": false,
          "internalType": "bool",
          "name": "isProxy",
          "type": "bool"
        },
        {
          "indexed": false,
          "internalType": "uint256",
          "name": "ghostedRewarded",
          "type": "uint256"
        },
        {
          "indexed": false,
          "internalType": "string",
          "name": "dramaType",
          "type": "string"
        }
      ],
      "name": "EvidenceSubmitted",
      "type": "event"
    },
    {
      "anonymous": false,
      "inputs": [
        {
          "indexed": true,
          "internalType": "address",
          "name": "submitter",
          "type": "address"
        },
        {
          "indexed": true,
          "internalType": "bytes32",
          "name": "proofHash",
          "type": "bytes32"
        },
        {
          "indexed": false,
          "internalType": "uint256",
          "name": "feePaid",
          "type": "uint256"
        },
        {
          "indexed": false,
          "internalType": "uint256",
          "name": "treasuryCut",
          "type": "uint256"
        },
        {
          "indexed": false,
          "internalType": "uint256",
          "name": "protocolCut",
          "type": "uint256"
        }
      ],
      "name": "GhostingReceiptSubmitted",
      "type": "event"
    },
    {
      "anonymous": false,
      "inputs": [
        {
          "indexed": true,
          "internalType": "address",
          "name": "previousOracle",
          "type": "address"
        },
        {
          "indexed": true,
          "internalType": "address",
          "name": "newOracle",
          "type": "address"
        }
      ],
      "name": "OracleUpdated",
      "type": "event"
    },
    {
      "anonymous": false,
      "inputs": [
        {
          "indexed": true,
          "internalType": "address",
          "name": "previousOwner",
          "type": "address"
        },
        {
          "indexed": true,
          "internalType": "address",
          "name": "pendingOwner",
          "type": "address"
        }
      ],
      "name": "OwnershipTransferStarted",
      "type": "event"
    },
    {
      "anonymous": false,
      "inputs": [
        {
          "indexed": true,
          "internalType": "address",
          "name": "previousOwner",
          "type": "address"
        },
        {
          "indexed": true,
          "internalType": "address",
          "name": "newOwner",
          "type": "address"
        }
      ],
      "name": "OwnershipTransferred",
      "type": "event"
    },
    {
      "anonymous": false,
      "inputs": [
        {
          "indexed": false,
          "internalType": "bool",
          "name": "paused",
          "type": "bool"
        }
      ],
      "name": "PauseStateUpdated",
      "type": "event"
    },
    {
      "anonymous": false,
      "inputs": [
        {
          "indexed": true,
          "internalType": "address",
          "name": "previousPricingOracle",
          "type": "address"
        },
        {
          "indexed": true,
          "internalType": "address",
          "name": "newPricingOracle",
          "type": "address"
        }
      ],
      "name": "PricingOracleUpdated",
      "type": "event"
    },
    {
      "anonymous": false,
      "inputs": [
        {
          "indexed": true,
          "internalType": "address",
          "name": "account",
          "type": "address"
        },
        {
          "indexed": false,
          "internalType": "uint256",
          "name": "previousScore",
          "type": "uint256"
        },
        {
          "indexed": false,
          "internalType": "uint256",
          "name": "newScore",
          "type": "uint256"
        },
        {
          "indexed": false,
          "internalType": "string",
          "name": "reason",
          "type": "string"
        }
      ],
      "name": "ProtocolCredibilityUpdated",
      "type": "event"
    },
    {
      "anonymous": false,
      "inputs": [
        {
          "indexed": true,
          "internalType": "address",
          "name": "sender",
          "type": "address"
        },
        {
          "indexed": false,
          "internalType": "uint256",
          "name": "amount",
          "type": "uint256"
        }
      ],
      "name": "ProtocolFunded",
      "type": "event"
    },
    {
      "anonymous": false,
      "inputs": [
        {
          "indexed": true,
          "internalType": "address",
          "name": "treasury",
          "type": "address"
        },
        {
          "indexed": false,
          "internalType": "uint256",
          "name": "amount",
          "type": "uint256"
        }
      ],
      "name": "ProtocolRevenueWithdrawn",
      "type": "event"
    },
    {
      "anonymous": false,
      "inputs": [
        {
          "indexed": true,
          "internalType": "bytes32",
          "name": "proofHash",
          "type": "bytes32"
        },
        {
          "indexed": true,
          "internalType": "address",
          "name": "submitter",
          "type": "address"
        }
      ],
      "name": "StoryMadePublic",
      "type": "event"
    },
    {
      "anonymous": false,
      "inputs": [
        {
          "indexed": true,
          "internalType": "bytes32",
          "name": "proofHash",
          "type": "bytes32"
        },
        {
          "indexed": true,
          "internalType": "address",
          "name": "unlocker",
          "type": "address"
        },
        {
          "indexed": false,
          "internalType": "uint256",
          "name": "cost",
          "type": "uint256"
        },
        {
          "indexed": false,
          "internalType": "string",
          "name": "method",
          "type": "string"
        }
      ],
      "name": "StoryUnlocked",
      "type": "event"
    },
    {
      "anonymous": false,
      "inputs": [
        {
          "indexed": true,
          "internalType": "address",
          "name": "previousTreasury",
          "type": "address"
        },
        {
          "indexed": true,
          "internalType": "address",
          "name": "newTreasury",
          "type": "address"
        }
      ],
      "name": "TreasuryUpdated",
      "type": "event"
    },
    {
      "anonymous": false,
      "inputs": [
        {
          "indexed": true,
          "internalType": "bytes32",
          "name": "proofHash",
          "type": "bytes32"
        },
        {
          "indexed": true,
          "internalType": "address",
          "name": "assertor",
          "type": "address"
        },
        {
          "indexed": false,
          "internalType": "bool",
          "name": "believesReal",
          "type": "bool"
        },
        {
          "indexed": false,
          "internalType": "uint256",
          "name": "stake",
          "type": "uint256"
        }
      ],
      "name": "TruthAsserted",
      "type": "event"
    },
    {
      "anonymous": false,
      "inputs": [
        {
          "indexed": true,
          "internalType": "bytes32",
          "name": "proofHash",
          "type": "bytes32"
        },
        {
          "indexed": true,
          "internalType": "address",
          "name": "assertor",
          "type": "address"
        },
        {
          "indexed": false,
          "internalType": "bool",
          "name": "wasCorrect",
          "type": "bool"
        },
        {
          "indexed": false,
          "internalType": "uint256",
          "name": "reward",
          "type": "uint256"
        }
      ],
      "name": "TruthResolved",
      "type": "event"
    },
    {
      "anonymous": false,
      "inputs": [
        {
          "indexed": false,
          "internalType": "uint256",
          "name": "previousQuoteWeiPerToken",
          "type": "uint256"
        },
        {
          "indexed": false,
          "internalType": "uint256",
          "name": "newQuoteWeiPerToken",
          "type": "uint256"
        },
        {
          "indexed": false,
          "internalType": "uint256",
          "name": "updatedAt",
          "type": "uint256"
        }
      ],
      "name": "UnlockPriceQuoteUpdated",
      "type": "event"
    },
    {
      "anonymous": false,
      "inputs": [
        {
          "indexed": true,
          "internalType": "bytes32",
          "name": "proofHash",
          "type": "bytes32"
        },
        {
          "indexed": false,
          "internalType": "uint256",
          "name": "newPrice",
          "type": "uint256"
        }
      ],
      "name": "UnlockPriceUpdated",
      "type": "event"
    },
    {
      "inputs": [],
      "name": "BASE_UNLOCK_PRICE",
      "outputs": [
        {
          "internalType": "uint256",
          "name": "",
          "type": "uint256"
        }
      ],
      "stateMutability": "view",
      "type": "function"
    },
    {
      "inputs": [],
      "name": "BPS_DENOMINATOR",
      "outputs": [
        {
          "internalType": "uint256",
          "name": "",
          "type": "uint256"
        }
      ],
      "stateMutability": "view",
      "type": "function"
    },
    {
      "inputs": [],
      "name": "CREDIBILITY_UNLOCK_THRESHOLD",
      "outputs": [
        {
          "internalType": "uint256",
          "name": "",
          "type": "uint256"
        }
      ],
      "stateMutability": "view",
      "type": "function"
    },
    {
      "inputs": [],
      "name": "GHOSTING_RECEIPT_FEE",
      "outputs": [
        {
          "internalType": "uint256",
          "name": "",
          "type": "uint256"
        }
      ],
      "stateMutability": "view",
      "type": "function"
    },
    {
      "inputs": [],
      "name": "MAX_GHOSTED_PER_SUBMISSION",
      "outputs": [
        {
          "internalType": "uint256",
          "name": "",
          "type": "uint256"
        }
      ],
      "stateMutability": "view",
      "type": "function"
    },
    {
      "inputs": [],
      "name": "MAX_UNLOCK_PRICE",
      "outputs": [
        {
          "internalType": "uint256",
          "name": "",
          "type": "uint256"
        }
      ],
      "stateMutability": "view",
      "type": "function"
    },
    {
      "inputs": [],
      "name": "MAX_UNLOCK_PRICE_QUOTE_AGE",
      "outputs": [
        {
          "internalType": "uint256",
          "name": "",
          "type": "uint256"
        }
      ],
      "stateMutability": "view",
      "type": "function"
    },
    {
      "inputs": [],
      "name": "TREASURY_SPLIT_BPS",
      "outputs": [
        {
          "internalType": "uint256",
          "name": "",
          "type": "uint256"
        }
      ],
      "stateMutability": "view",
      "type": "function"
    },
    {
      "inputs": [],
      "name": "TRUTH_ASSERTION_STAKE",
      "outputs": [
        {
          "internalType": "uint256",
          "name": "",
          "type": "uint256"
        }
      ],
      "stateMutability": "view",
      "type": "function"
    },
    {
      "inputs": [],
      "name": "TRUTH_WIN_REWARD",
      "outputs": [
        {
          "internalType": "uint256",
          "name": "",
          "type": "uint256"
        }
      ],
      "stateMutability": "view",
      "type": "function"
    },
    {
      "inputs": [],
      "name": "UNLOCK_PRICE_STEP",
      "outputs": [
        {
          "internalType": "uint256",
          "name": "",
          "type": "uint256"
        }
      ],
      "stateMutability": "view",
      "type": "function"
    },
    {
      "inputs": [],
      "name": "acceptOwnership",
      "outputs": [],
      "stateMutability": "nonpayable",
      "type": "function"
    },
    {
      "inputs": [
        {
          "internalType": "bytes32",
          "name": "proofHash",
          "type": "bytes32"
        },
        {
          "internalType": "bool",
          "name": "believesReal",
          "type": "bool"
        }
      ],
      "name": "assertTruth",
      "outputs": [],
      "stateMutability": "nonpayable",
      "type": "function"
    },
    {
      "inputs": [
        {
          "internalType": "bytes32",
          "name": "proofHash",
          "type": "bytes32"
        },
        {
          "internalType": "address",
          "name": "user",
          "type": "address"
        }
      ],
      "name": "canUserAccessStory",
      "outputs": [
        {
          "internalType": "bool",
          "name": "",
          "type": "bool"
        }
      ],
      "stateMutability": "view",
      "type": "function"
    },
    {
      "inputs": [],
      "name": "directEvidenceCount",
      "outputs": [
        {
          "internalType": "uint256",
          "name": "",
          "type": "uint256"
        }
      ],
      "stateMutability": "view",
      "type": "function"
    },
    {
      "inputs": [],
      "name": "evidenceCounter",
      "outputs": [
        {
          "internalType": "uint256",
          "name": "",
          "type": "uint256"
        }
      ],
      "stateMutability": "view",
      "type": "function"
    },
    {
      "inputs": [
        {
          "internalType": "bytes32",
          "name": "",
          "type": "bytes32"
        }
      ],
      "name": "evidenceSubmitter",
      "outputs": [
        {
          "internalType": "address",
          "name": "",
          "type": "address"
        }
      ],
      "stateMutability": "view",
      "type": "function"
    },
    {
      "inputs": [
        {
          "internalType": "bytes32",
          "name": "proofHash",
          "type": "bytes32"
        }
      ],
      "name": "getEvidence",
      "outputs": [
        {
          "internalType": "uint256",
          "name": "timestamp",
          "type": "uint256"
        },
        {
          "internalType": "uint256",
          "name": "weight",
          "type": "uint256"
        },
        {
          "internalType": "bool",
          "name": "isProxy",
          "type": "bool"
        },
        {
          "internalType": "bytes32",
          "name": "descriptionHash",
          "type": "bytes32"
        },
        {
          "internalType": "string",
          "name": "dramaType",
          "type": "string"
        },
        {
          "internalType": "address",
          "name": "submitter",
          "type": "address"
        },
        {
          "internalType": "uint256",
          "name": "ghostedRewarded",
          "type": "uint256"
        }
      ],
      "stateMutability": "view",
      "type": "function"
    },
    {
      "inputs": [],
      "name": "getProtocolStats",
      "outputs": [
        {
          "internalType": "uint256",
          "name": "totalEvidence",
          "type": "uint256"
        },
        {
          "internalType": "uint256",
          "name": "directEvidence",
          "type": "uint256"
        },
        {
          "internalType": "uint256",
          "name": "proxyEvidence",
          "type": "uint256"
        },
        {
          "internalType": "uint256",
          "name": "totalTruthAssertions",
          "type": "uint256"
        },
        {
          "internalType": "uint256",
          "name": "rewardedGhosted",
          "type": "uint256"
        },
        {
          "internalType": "uint256",
          "name": "burnedGhosted",
          "type": "uint256"
        },
        {
          "internalType": "uint256",
          "name": "revenueCollected",
          "type": "uint256"
        },
        {
          "internalType": "uint256",
          "name": "treasuryDistributed",
          "type": "uint256"
        },
        {
          "internalType": "uint256",
          "name": "protocolRetainedRevenue",
          "type": "uint256"
        },
        {
          "internalType": "uint256",
          "name": "protocolWithdrawn",
          "type": "uint256"
        },
        {
          "internalType": "uint256",
          "name": "protocolBalance",
          "type": "uint256"
        },
        {
          "internalType": "bool",
          "name": "gaslightUnlocked",
          "type": "bool"
        },
        {
          "internalType": "bool",
          "name": "isPaused",
          "type": "bool"
        }
      ],
      "stateMutability": "view",
      "type": "function"
    },
    {
      "inputs": [
        {
          "internalType": "bytes32",
          "name": "proofHash",
          "type": "bytes32"
        }
      ],
      "name": "getStoryPayoutInfo",
      "outputs": [
        {
          "internalType": "uint256",
          "name": "tokenPayouts",
          "type": "uint256"
        },
        {
          "internalType": "uint256",
          "name": "ethPayouts",
          "type": "uint256"
        },
        {
          "internalType": "uint256",
          "name": "currentEthUnlockPrice",
          "type": "uint256"
        }
      ],
      "stateMutability": "view",
      "type": "function"
    },
    {
      "inputs": [
        {
          "internalType": "bytes32",
          "name": "proofHash",
          "type": "bytes32"
        }
      ],
      "name": "getStoryUnlockInfo",
      "outputs": [
        {
          "internalType": "uint256",
          "name": "unlockPriceTokens",
          "type": "uint256"
        },
        {
          "internalType": "uint256",
          "name": "timesUnlocked",
          "type": "uint256"
        },
        {
          "internalType": "bool",
          "name": "isPublic",
          "type": "bool"
        },
        {
          "internalType": "uint256",
          "name": "totalEarned",
          "type": "uint256"
        },
        {
          "internalType": "address",
          "name": "submitter",
          "type": "address"
        },
        {
          "internalType": "uint256",
          "name": "severity",
          "type": "uint256"
        }
      ],
      "stateMutability": "view",
      "type": "function"
    },
    {
      "inputs": [
        {
          "internalType": "uint256",
          "name": "cursor",
          "type": "uint256"
        },
        {
          "internalType": "uint256",
          "name": "limit",
          "type": "uint256"
        }
      ],
      "name": "getSubmittedProofHashes",
      "outputs": [
        {
          "internalType": "bytes32[]",
          "name": "proofHashes",
          "type": "bytes32[]"
        }
      ],
      "stateMutability": "view",
      "type": "function"
    },
    {
      "inputs": [
        {
          "internalType": "bytes32",
          "name": "proofHash",
          "type": "bytes32"
        },
        {
          "internalType": "uint256",
          "name": "assertionIndex",
          "type": "uint256"
        }
      ],
      "name": "getTruthAssertion",
      "outputs": [
        {
          "internalType": "bytes32",
          "name": "assertionProofHash",
          "type": "bytes32"
        },
        {
          "internalType": "address",
          "name": "assertor",
          "type": "address"
        },
        {
          "internalType": "bool",
          "name": "believesReal",
          "type": "bool"
        },
        {
          "internalType": "uint256",
          "name": "stakeAmount",
          "type": "uint256"
        },
        {
          "internalType": "uint256",
          "name": "timestamp",
          "type": "uint256"
        },
        {
          "internalType": "bool",
          "name": "resolved",
          "type": "bool"
        },
        {
          "internalType": "bool",
          "name": "wasCorrect",
          "type": "bool"
        }
      ],
      "stateMutability": "view",
      "type": "function"
    },
    {
      "inputs": [
        {
          "internalType": "bytes32",
          "name": "proofHash",
          "type": "bytes32"
        }
      ],
      "name": "getTruthAssertionCount",
      "outputs": [
        {
          "internalType": "uint256",
          "name": "",
          "type": "uint256"
        }
      ],
      "stateMutability": "view",
      "type": "function"
    },
    {
      "inputs": [
        {
          "internalType": "address",
          "name": "account",
          "type": "address"
        }
      ],
      "name": "getUserCredibility",
      "outputs": [
        {
          "internalType": "uint256",
          "name": "tokenCredibility",
          "type": "uint256"
        },
        {
          "internalType": "uint256",
          "name": "protocolCredibility",
          "type": "uint256"
        },
        {
          "internalType": "uint256",
          "name": "effectiveCredibility",
          "type": "uint256"
        }
      ],
      "stateMutability": "view",
      "type": "function"
    },
    {
      "inputs": [],
      "name": "ghostedToken",
      "outputs": [
        {
          "internalType": "contract IGhostedToken",
          "name": "",
          "type": "address"
        }
      ],
      "stateMutability": "view",
      "type": "function"
    },
    {
      "inputs": [
        {
          "internalType": "bytes32",
          "name": "",
          "type": "bytes32"
        },
        {
          "internalType": "address",
          "name": "",
          "type": "address"
        }
      ],
      "name": "hasUnlockedStory",
      "outputs": [
        {
          "internalType": "bool",
          "name": "",
          "type": "bool"
        }
      ],
      "stateMutability": "view",
      "type": "function"
    },
    {
      "inputs": [
        {
          "internalType": "bytes32",
          "name": "proofHash",
          "type": "bytes32"
        },
        {
          "internalType": "address",
          "name": "user",
          "type": "address"
        }
      ],
      "name": "hasUserUnlockedStory",
      "outputs": [
        {
          "internalType": "bool",
          "name": "",
          "type": "bool"
        }
      ],
      "stateMutability": "view",
      "type": "function"
    },
    {
      "inputs": [
        {
          "internalType": "bytes32",
          "name": "",
          "type": "bytes32"
        }
      ],
      "name": "lockedStories",
      "outputs": [
        {
          "internalType": "bytes32",
          "name": "proofHash",
          "type": "bytes32"
        },
        {
          "internalType": "address",
          "name": "submitter",
          "type": "address"
        },
        {
          "internalType": "uint256",
          "name": "severity",
          "type": "uint256"
        },
        {
          "internalType": "uint256",
          "name": "unlockPrice",
          "type": "uint256"
        },
        {
          "internalType": "uint256",
          "name": "timesUnlocked",
          "type": "uint256"
        },
        {
          "internalType": "bool",
          "name": "isPublic",
          "type": "bool"
        },
        {
          "internalType": "uint256",
          "name": "totalEarnedFromUnlocks",
          "type": "uint256"
        }
      ],
      "stateMutability": "view",
      "type": "function"
    },
    {
      "inputs": [
        {
          "internalType": "bytes32",
          "name": "proofHash",
          "type": "bytes32"
        }
      ],
      "name": "makeStoryPublic",
      "outputs": [],
      "stateMutability": "nonpayable",
      "type": "function"
    },
    {
      "inputs": [],
      "name": "oracle",
      "outputs": [
        {
          "internalType": "address",
          "name": "",
          "type": "address"
        }
      ],
      "stateMutability": "view",
      "type": "function"
    },
    {
      "inputs": [],
      "name": "owner",
      "outputs": [
        {
          "internalType": "address",
          "name": "",
          "type": "address"
        }
      ],
      "stateMutability": "view",
      "type": "function"
    },
    {
      "inputs": [],
      "name": "paused",
      "outputs": [
        {
          "internalType": "bool",
          "name": "",
          "type": "bool"
        }
      ],
      "stateMutability": "view",
      "type": "function"
    },
    {
      "inputs": [],
      "name": "pendingOwner",
      "outputs": [
        {
          "internalType": "address",
          "name": "",
          "type": "address"
        }
      ],
      "stateMutability": "view",
      "type": "function"
    },
    {
      "inputs": [
        {
          "internalType": "bytes32",
          "name": "proofHash",
          "type": "bytes32"
        }
      ],
      "name": "previewUnlockPriceInEth",
      "outputs": [
        {
          "internalType": "uint256",
          "name": "",
          "type": "uint256"
        }
      ],
      "stateMutability": "view",
      "type": "function"
    },
    {
      "inputs": [],
      "name": "pricingOracle",
      "outputs": [
        {
          "internalType": "address",
          "name": "",
          "type": "address"
        }
      ],
      "stateMutability": "view",
      "type": "function"
    },
    {
      "inputs": [
        {
          "internalType": "address",
          "name": "",
          "type": "address"
        }
      ],
      "name": "protocolCredibilityScore",
      "outputs": [
        {
          "internalType": "uint256",
          "name": "",
          "type": "uint256"
        }
      ],
      "stateMutability": "view",
      "type": "function"
    },
    {
      "inputs": [],
      "name": "proxyEvidenceCount",
      "outputs": [
        {
          "internalType": "uint256",
          "name": "",
          "type": "uint256"
        }
      ],
      "stateMutability": "view",
      "type": "function"
    },
    {
      "inputs": [
        {
          "internalType": "bytes32",
          "name": "proofHash",
          "type": "bytes32"
        },
        {
          "internalType": "uint256",
          "name": "assertionIndex",
          "type": "uint256"
        },
        {
          "internalType": "bool",
          "name": "isActuallyReal",
          "type": "bool"
        }
      ],
      "name": "resolveTruth",
      "outputs": [],
      "stateMutability": "nonpayable",
      "type": "function"
    },
    {
      "inputs": [
        {
          "internalType": "address",
          "name": "newOracle",
          "type": "address"
        }
      ],
      "name": "setOracle",
      "outputs": [],
      "stateMutability": "nonpayable",
      "type": "function"
    },
    {
      "inputs": [
        {
          "internalType": "bool",
          "name": "nextPaused",
          "type": "bool"
        }
      ],
      "name": "setPaused",
      "outputs": [],
      "stateMutability": "nonpayable",
      "type": "function"
    },
    {
      "inputs": [
        {
          "internalType": "address",
          "name": "newPricingOracle",
          "type": "address"
        }
      ],
      "name": "setPricingOracle",
      "outputs": [],
      "stateMutability": "nonpayable",
      "type": "function"
    },
    {
      "inputs": [
        {
          "internalType": "address",
          "name": "newTreasury",
          "type": "address"
        }
      ],
      "name": "setTreasury",
      "outputs": [],
      "stateMutability": "nonpayable",
      "type": "function"
    },
    {
      "inputs": [
        {
          "internalType": "uint256",
          "name": "quoteWeiPerToken",
          "type": "uint256"
        }
      ],
      "name": "setUnlockPriceQuote",
      "outputs": [],
      "stateMutability": "nonpayable",
      "type": "function"
    },
    {
      "inputs": [
        {
          "internalType": "bytes32",
          "name": "",
          "type": "bytes32"
        }
      ],
      "name": "storyEthEarnings",
      "outputs": [
        {
          "internalType": "uint256",
          "name": "",
          "type": "uint256"
        }
      ],
      "stateMutability": "view",
      "type": "function"
    },
    {
      "inputs": [
        {
          "internalType": "bytes32",
          "name": "proofHash",
          "type": "bytes32"
        },
        {
          "internalType": "uint256",
          "name": "severity",
          "type": "uint256"
        },
        {
          "internalType": "string",
          "name": "description",
          "type": "string"
        },
        {
          "internalType": "string",
          "name": "dramaType",
          "type": "string"
        },
        {
          "internalType": "bool",
          "name": "isProxy",
          "type": "bool"
        }
      ],
      "name": "submitEvidence",
      "outputs": [],
      "stateMutability": "payable",
      "type": "function"
    },
    {
      "inputs": [],
      "name": "submittedProofHashesCount",
      "outputs": [
        {
          "internalType": "uint256",
          "name": "",
          "type": "uint256"
        }
      ],
      "stateMutability": "view",
      "type": "function"
    },
    {
      "inputs": [],
      "name": "totalGhostedBurned",
      "outputs": [
        {
          "internalType": "uint256",
          "name": "",
          "type": "uint256"
        }
      ],
      "stateMutability": "view",
      "type": "function"
    },
    {
      "inputs": [],
      "name": "totalGhostedRewarded",
      "outputs": [
        {
          "internalType": "uint256",
          "name": "",
          "type": "uint256"
        }
      ],
      "stateMutability": "view",
      "type": "function"
    },
    {
      "inputs": [],
      "name": "totalProtocolRevenue",
      "outputs": [
        {
          "internalType": "uint256",
          "name": "",
          "type": "uint256"
        }
      ],
      "stateMutability": "view",
      "type": "function"
    },
    {
      "inputs": [],
      "name": "totalProtocolWithdrawn",
      "outputs": [
        {
          "internalType": "uint256",
          "name": "",
          "type": "uint256"
        }
      ],
      "stateMutability": "view",
      "type": "function"
    },
    {
      "inputs": [],
      "name": "totalRevenueCollected",
      "outputs": [
        {
          "internalType": "uint256",
          "name": "",
          "type": "uint256"
        }
      ],
      "stateMutability": "view",
      "type": "function"
    },
    {
      "inputs": [],
      "name": "totalTreasuryDistributed",
      "outputs": [
        {
          "internalType": "uint256",
          "name": "",
          "type": "uint256"
        }
      ],
      "stateMutability": "view",
      "type": "function"
    },
    {
      "inputs": [
        {
          "internalType": "address",
          "name": "",
          "type": "address"
        }
      ],
      "name": "totalTruthWins",
      "outputs": [
        {
          "internalType": "uint256",
          "name": "",
          "type": "uint256"
        }
      ],
      "stateMutability": "view",
      "type": "function"
    },
    {
      "inputs": [
        {
          "internalType": "address",
          "name": "newOwner",
          "type": "address"
        }
      ],
      "name": "transferOwnership",
      "outputs": [],
      "stateMutability": "nonpayable",
      "type": "function"
    },
    {
      "inputs": [],
      "name": "treasury",
      "outputs": [
        {
          "internalType": "address",
          "name": "",
          "type": "address"
        }
      ],
      "stateMutability": "view",
      "type": "function"
    },
    {
      "inputs": [],
      "name": "truthAssertionCount",
      "outputs": [
        {
          "internalType": "uint256",
          "name": "",
          "type": "uint256"
        }
      ],
      "stateMutability": "view",
      "type": "function"
    },
    {
      "inputs": [
        {
          "internalType": "address",
          "name": "",
          "type": "address"
        }
      ],
      "name": "truthWinStreak",
      "outputs": [
        {
          "internalType": "uint256",
          "name": "",
          "type": "uint256"
        }
      ],
      "stateMutability": "view",
      "type": "function"
    },
    {
      "inputs": [],
      "name": "unlockPriceQuoteUpdatedAt",
      "outputs": [
        {
          "internalType": "uint256",
          "name": "",
          "type": "uint256"
        }
      ],
      "stateMutability": "view",
      "type": "function"
    },
    {
      "inputs": [],
      "name": "unlockPriceQuoteWeiPerToken",
      "outputs": [
        {
          "internalType": "uint256",
          "name": "",
          "type": "uint256"
        }
      ],
      "stateMutability": "view",
      "type": "function"
    },
    {
      "inputs": [
        {
          "internalType": "bytes32",
          "name": "proofHash",
          "type": "bytes32"
        }
      ],
      "name": "unlockStoryByBurn",
      "outputs": [],
      "stateMutability": "nonpayable",
      "type": "function"
    },
    {
      "inputs": [
        {
          "internalType": "bytes32",
          "name": "proofHash",
          "type": "bytes32"
        }
      ],
      "name": "unlockStoryByCredibility",
      "outputs": [],
      "stateMutability": "nonpayable",
      "type": "function"
    },
    {
      "inputs": [
        {
          "internalType": "bytes32",
          "name": "proofHash",
          "type": "bytes32"
        }
      ],
      "name": "unlockStoryWithETH",
      "outputs": [],
      "stateMutability": "payable",
      "type": "function"
    },
    {
      "inputs": [
        {
          "internalType": "uint256",
          "name": "amount",
          "type": "uint256"
        }
      ],
      "name": "withdrawProtocolETH",
      "outputs": [],
      "stateMutability": "nonpayable",
      "type": "function"
    },
    {
      "stateMutability": "payable",
      "type": "receive"
    }
  ],
  "bytecode": "0x60a06040526001601b5534801561001557600080fd5b50604051613948380380613948833981016040819052610034916100f1565b6001600160a01b038316158061005157506001600160a01b038216155b8061006357506001600160a01b038116155b156100815760405163e6c4247b60e01b815260040160405180910390fd5b6001600160a01b0392831660805260008054336001600160a01b0319918216179091556004805482169385169390931790925560028054831691909316908117909255600380549091169091179055610134565b80516001600160a01b03811681146100ec57600080fd5b919050565b60008060006060848603121561010657600080fd5b61010f846100d5565b925061011d602085016100d5565b915061012b604085016100d5565b90509250925092565b6080516137c861018060003960008181610834015281816118b4015281816123a5015281816129b801528181612bbd01528181612da101528181612e010152612f5101526137c86000f3fe6080604052600436106103c75760003560e01c80638c1a60b2116101f2578063c89e74fb1161010d578063e1a45218116100a0578063f0f442601161006f578063f0f4426014610d32578063f2fde38b14610d52578063f4dceacd14610d72578063f99156cb14610d9257600080fd5b8063e1a4521814610cc9578063e30c397814610cdf578063e319c8d114610cff578063e332305d14610d1557600080fd5b8063d365d094116100dc578063d365d09414610c56578063d4ade87514610c83578063d73848cc14610c96578063dbd8c05714610cb357600080fd5b8063c89e74fb14610bd2578063c9ab713014610bff578063cb3399e814610c1f578063d0f6581b14610c3f57600080fd5b8063a6d2fcd911610185578063b87c111411610154578063b87c111414610b69578063b9fa45da14610b7f578063bf813d8214610b95578063c69ab50114610bb557600080fd5b8063a6d2fcd914610af5578063af414d4114610b22578063b3dfbcf814610b3d578063b690d8a114610b5357600080fd5b8063938a8bca116101c1578063938a8bca146109f85780639e33bb8614610a0e578063a4fa95bf14610ab2578063a60051ae14610adf57600080fd5b80638c1a60b2146109875780638c37f11d146109a45780638da5cb5b146109ba578063924d3f56146109da57600080fd5b806353093093116102e25780636a65eaa61161027557806379ba50971161024457806379ba5097146109125780637adbf973146109275780637dc0d1d0146109475780638748c6b91461096757600080fd5b80636a65eaa61461080c5780636bccc75314610822578063771aceef1461085657806378f88d67146108f557600080fd5b806365137dd0116102b157806365137dd01461071657806367310b5a1461077b57806368f5c663146107b65780636a01a775146107d657600080fd5b806353093093146106855780635bdf5621146106b55780635c975abb146106d557806361d027b3146106f657600080fd5b80631a868c401161035a5780632ce13a03116103295780632ce13a031461060c57806338902fdb146106295780634a7221a01461063f5780635191e4671461067257600080fd5b80631a868c401461059657806321026950146105b657806329ff0d93146105d65780632cad2f65146105ec57600080fd5b806313b781ab1161039657806313b781ab146104cc5780631433219c146104ee57806316c38b3c1461051b57806319b881e41461053b57600080fd5b8063056962c31461040857806308104069146104485780630efd66e214610467578063139ab0e71461049457600080fd5b366104035760405134815233907f719feb717c187001672aa98b85a51988a7fab410c32ed1d724838c8377bf90af9060200160405180910390a2005b600080fd5b34801561041457600080fd5b50610428610423366004613122565b610da8565b604080519384526020840192909252908201526060015b60405180910390f35b34801561045457600080fd5b506013545b60405190815260200161043f565b34801561047357600080fd5b50610459610482366004613157565b601a6020526000908152604090205481565b3480156104a057600080fd5b506003546104b4906001600160a01b031681565b6040516001600160a01b03909116815260200161043f565b3480156104d857600080fd5b506104ec6104e7366004613122565b610e3a565b005b3480156104fa57600080fd5b50610459610509366004613122565b60176020526000908152604090205481565b34801561052757600080fd5b506104ec610536366004613182565b610ed8565b34801561054757600080fd5b5061055b610556366004613122565b610f5b565b6040805196875260208701959095529215159385019390935260608401526001600160a01b03909116608083015260a082015260c00161043f565b3480156105a257600080fd5b506104ec6105b1366004613122565b61105a565b3480156105c257600080fd5b506104596105d1366004613122565b611156565b3480156105e257600080fd5b5061045960065481565b3480156105f857600080fd5b506104ec610607366004613122565b6111cf565b34801561061857600080fd5b5061045968878678326eac90000081565b34801561063557600080fd5b50610459600b5481565b34801561064b57600080fd5b5061065f61065a366004613122565b6112c9565b60405161043f97969594939291906131e3565b6104ec610680366004613278565b6113c4565b34801561069157600080fd5b506106a56106a0366004613311565b611861565b604051901515815260200161043f565b3480156106c157600080fd5b506104286106d0366004613157565b61188e565b3480156106e157600080fd5b506004546106a590600160a01b900460ff1681565b34801561070257600080fd5b506004546104b4906001600160a01b031681565b34801561072257600080fd5b5061073661073136600461333d565b611951565b604080519788526001600160a01b039096166020880152931515948601949094526060850191909152608084015290151560a0830152151560c082015260e00161043f565b34801561078757600080fd5b506106a5610796366004613311565b601660209081526000928352604080842090915290825290205460ff1681565b3480156107c257600080fd5b506104ec6107d1366004613122565b611a09565b3480156107e257600080fd5b506104b46107f1366004613122565b6015602052600090815260409020546001600160a01b031681565b34801561081857600080fd5b5061045960085481565b34801561082e57600080fd5b506104b47f000000000000000000000000000000000000000000000000000000000000000081565b34801561086257600080fd5b50600754600854600954600a8054600b54600c54600d54600e54600f54601054600454604080518d8152602081019c909c528b019990995260608a0196909652608089019490945260a088019290925260c087015260e08601526101008501526101208401524761014084015290921015610160820152600160a01b90910460ff1615156101808201526101a00161043f565b34801561090157600080fd5b50610459681b1ae4d6e2ef50000081565b34801561091e57600080fd5b506104ec611c33565b34801561093357600080fd5b506104ec610942366004613157565b611cb5565b34801561095357600080fd5b506002546104b4906001600160a01b031681565b34801561097357600080fd5b506104ec61098236600461335f565b611d59565b34801561099357600080fd5b50610459680ad78ebc5ac620000081565b3480156109b057600080fd5b50610459600f5481565b3480156109c657600080fd5b506000546104b4906001600160a01b031681565b3480156109e657600080fd5b5061045969010f0cf064dd5920000081565b348015610a0457600080fd5b50610459600e5481565b348015610a1a57600080fd5b50610a73610a29366004613122565b601460205260009081526040902080546001820154600283015460038401546004850154600586015460069096015494956001600160a01b039094169492939192909160ff169087565b604080519788526001600160a01b0390961660208801529486019390935260608501919091526080840152151560a083015260c082015260e00161043f565b348015610abe57600080fd5b50610ad2610acd36600461333d565b611f0d565b60405161043f9190613382565b348015610aeb57600080fd5b50610459610bb881565b348015610b0157600080fd5b50610459610b10366004613157565b60196020526000908152604090205481565b348015610b2e57600080fd5b506104596621c0331d5dc00081565b348015610b4957600080fd5b5061045960095481565b348015610b5f57600080fd5b5061045960055481565b348015610b7557600080fd5b5061045960075481565b348015610b8b57600080fd5b50610459600a5481565b348015610ba157600080fd5b506104ec610bb0366004613157565b612002565b348015610bc157600080fd5b50610459683635c9adc5dea0000081565b348015610bde57600080fd5b50610459610bed366004613157565b60186020526000908152604090205481565b348015610c0b57600080fd5b506106a5610c1a366004613311565b6120a6565b348015610c2b57600080fd5b506104ec610c3a3660046133c5565b61211b565b348015610c4b57600080fd5b506104596201518081565b348015610c6257600080fd5b50610459610c71366004613122565b60009081526012602052604090205490565b6104ec610c91366004613122565b6124be565b348015610ca257600080fd5b5061045968056bc75e2d6310000081565b348015610cbf57600080fd5b50610459600d5481565b348015610cd557600080fd5b5061045961271081565b348015610ceb57600080fd5b506001546104b4906001600160a01b031681565b348015610d0b57600080fd5b5061045960105481565b348015610d2157600080fd5b506104596802b5e3af16b188000081565b348015610d3e57600080fd5b506104ec610d4d366004613157565b612738565b348015610d5e57600080fd5b506104ec610d6d366004613157565b6127dc565b348015610d7e57600080fd5b506104ec610d8d366004613122565b61287f565b348015610d9e57600080fd5b50610459600c5481565b600081815260116020526040812054819081908103610dda576040516303d4572d60e51b815260040160405180910390fd5b6000848152601460205260408120600381015490919015610dff578160030154610e0a565b681b1ae4d6e2ef5000005b600683015460008881526017602052604090205491925090610e2b83612b5a565b94509450945050509193909250565b6003546001600160a01b03163314610e6557604051631dc610a960e21b815260040160405180910390fd5b80600003610e8657604051637f1402d560e11b815260040160405180910390fd5b6006805490829055426005819055604080518381526020810185905280820192909252517fd9c9c767abc8174b594a5a15dd708b5629ab3a49044a597f8f3c8510dec766899181900360600190a15050565b6000546001600160a01b03163314610f03576040516330cd747160e01b815260040160405180910390fd5b60048054821515600160a01b0260ff60a01b199091161790556040517fb31006682779d0ac02864bee834675baf4592a679bfe75edd5e5847b52ef6f6e90610f5090831515815260200190565b60405180910390a150565b600081815260116020526040812054819081908190819081908103610f93576040516303d4572d60e51b815260040160405180910390fd5b600087815260146020526040812060018101549091906001600160a01b0316610fd3576000898152601560205260409020546001600160a01b0316610fe2565b60018201546001600160a01b03165b9050600082600201546000036110095760008a81526011602052604090206001015461100f565b82600201545b90508260030154600014611027578260030154611032565b681b1ae4d6e2ef5000005b60048401546005850154600690950154919c909b5060ff909416995097509095509350915050565b6000546001600160a01b03163314611085576040516330cd747160e01b815260040160405180910390fd5b601b546001146110a857604051631762c6f360e01b815260040160405180910390fd5b6002601b5547808211156110de5760405163f8db689560e01b815260048101829052602481018390526044015b60405180910390fd5b81601060008282546110f09190613410565b909155505060045461110b906001600160a01b031683612c6b565b6004546040518381526001600160a01b03909116907ff7595c4fd7fa675e456dd9520ac8266c06d237d52900fc573bccc85b7c177c9e9060200160405180910390a250506001601b55565b6000818152601160205260408120548103611184576040516303d4572d60e51b815260040160405180910390fd5b600082815260146020526040812060030154156111b2576000838152601460205260409020600301546111bd565b681b1ae4d6e2ef5000005b90506111c881612b5a565b9392505050565b600454600160a01b900460ff16156111fa5760405163ab35696f60e01b815260040160405180910390fd5b6000818152601160205260408120549003611228576040516303d4572d60e51b815260040160405180910390fd5b600061123382612ce4565b60018101549091506001600160a01b0316331461126357604051632731809760e11b815260040160405180910390fd5b600581015460ff161561128957604051635d51ae1160e11b815260040160405180910390fd5b60058101805460ff19166001179055604051339083907f4fc8ba7f4f3c695895c779eb7fde668149b9eed94bfc8e5dda5899c40eca973b90600090a35050565b60008181526011602052604081208054600182015460028301546003840154600585015460068601546004870180548998899889986060988a98899894979396929560ff9092169490936001600160a01b0390911691839061132a90613423565b80601f016020809104026020016040519081016040528092919081815260200182805461135690613423565b80156113a35780601f10611378576101008083540402835291602001916113a3565b820191906000526020600020905b81548152906001019060200180831161138657829003601f168201915b50505050509250975097509750975097509750975050919395979092949650565b600454600160a01b900460ff16156113ef5760405163ab35696f60e01b815260040160405180910390fd5b601b5460011461141257604051631762c6f360e01b815260040160405180910390fd5b6002601b55866114355760405163b780d61f60e01b815260040160405180910390fd5b8515806114425750606486115b1561146057604051630f7fcb2960e21b815260040160405180910390fd5b6000878152601160205260409020541561148d57604051635665e77960e11b815260040160405180910390fd5b6621c0331d5dc0003410156114c457604051633ebbc33760e01b81526621c0331d5dc00060048201523460248201526044016110d5565b60006114d76621c0331d5dc0003461345d565b905060006127106114f1610bb86621c0331d5dc000613470565b6114fb9190613487565b90506000611510826621c0331d5dc00061345d565b905060006621c0331d5dc000600d600082825461152d9190613410565b9250508190555082600e60008282546115469190613410565b9250508190555081600f600082825461155f9190613410565b925050819055506001600760008282546115799190613410565b9091555085905061161c576001600860008282546115979190613410565b925050819055506001600a60008282546115b19190613410565b909155506115c290508a6032613470565b6115d490670de0b6b3a7640000613470565b905069010f0cf064dd592000008111156115f5575069010f0cf064dd592000005b80600b60008282546116079190613410565b9091555061161790503382612d94565b611635565b60016009600082825461162f9190613410565b90915550505b6040518060e001604052804281526020018b815260200186151581526020018a8a6040516116649291906134a9565b6040518091039020815260200188888080601f016020809104026020016040519081016040528093929190818152602001838380828437600092018290525093855250503360208085019190915260409384018690528f8352601181529183902084518155918401516001830155509082015160028201805460ff19169115159190911790556060820151600382015560808201516004820190611708908261351d565b5060a08201516005820180546001600160a01b039092166001600160a01b031992831617905560c09092015160069091015560008c8152601560205260408120805490921633179091556013805460018101825591527f66de8ffda797e3de9c05e8fc57b3bf0ec28a930d40b0d285d93c06501cf6a090018b905561178c8b612ce4565b5082156117a9576004546117a9906001600160a01b031684612c6b565b83156117b9576117b93385612c6b565b336001600160a01b03168b7f356e37b4b3a3dbbf61e05450c7d74955350550a659bd8792d406b6c27133a0e18c88858c8c6040516117fb9594939291906135dc565b60405180910390a3604080516621c0331d5dc0008152602081018590529081018390528b9033907fd381803faab74092aedc8de24231e595cfd3af1a0997ead17e7bcd54d9777c109060600160405180910390a350506001601b55505050505050505050565b60008281526016602090815260408083206001600160a01b038516845290915290205460ff165b92915050565b60405163aaac37a160e01b81526001600160a01b038281166004830152600091829182917f00000000000000000000000000000000000000000000000000000000000000009091169063aaac37a190602401602060405180830381865afa1580156118fd573d6000803e3d6000fd5b505050506040513d601f19601f820116820180604052508101906119219190613622565b6001600160a01b03851660009081526018602052604090205490935091506119498284613410565b929491935050565b600082815260126020526040812054819081908190819081908190881061198b57604051635878ae8560e11b815260040160405180910390fd5b600089815260126020526040812080548a9081106119ab576119ab61363b565b600091825260209091206005909102018054600182015460028301546003840154600490940154929e6001600160a01b0383169e5060ff600160a01b90930483169d50909b5092995080821698506101009091041695509350505050565b600454600160a01b900460ff1615611a345760405163ab35696f60e01b815260040160405180910390fd5b6000818152601160205260408120549003611a62576040516303d4572d60e51b815260040160405180910390fd5b600081815260166020908152604080832033845290915290205460ff1615611a9d576040516328486b6360e11b815260040160405180910390fd5b6000611aa882612ce4565b600581015490915060ff1615611ad157604051632444f8b760e11b815260040160405180910390fd5b6000611adc33612dcc565b90506000611ae984612e78565b905080821015611b16576040516320200bc560e01b815260048101839052602481018290526044016110d5565b683635c9adc5dea00000821015611b52576040516320200bc560e01b815260048101839052683635c9adc5dea0000060248201526044016110d5565b60008481526016602090815260408083203384529091528120805460ff191660011790556064611b83836005613470565b611b8d9190613487565b9050611bc4338260405180604001604052806012815260200171435245444942494c4954595f554e4c4f434b60701b815250612ebe565b336001600160a01b0316857f2ee8d21874599264c54876b79bf25eae1b396c3771a178e683a9e038b634f1d76000604051611c24918152604060208201819052600b908201526a435245444942494c49545960a81b606082015260800190565b60405180910390a35050505050565b6001546001600160a01b03163314611c5e57604051630614e5c760e21b815260040160405180910390fd5b60008054336001600160a01b0319808316821784556001805490911690556040516001600160a01b0390921692909183917f8be0079c531659141344cd1fd0a4f28419497f9722a3daafe3b4186f6b6457e091a350565b6000546001600160a01b03163314611ce0576040516330cd747160e01b815260040160405180910390fd5b6001600160a01b038116611d075760405163e6c4247b60e01b815260040160405180910390fd5b600280546001600160a01b038381166001600160a01b0319831681179093556040519116919082907f078c3b417dadf69374a59793b829c52001247130433427049317bde56607b1b790600090a35050565b600454600160a01b900460ff1615611d845760405163ab35696f60e01b815260040160405180910390fd5b601b54600114611da757604051631762c6f360e01b815260040160405180910390fd5b6002601b556000828152601160205260408120549003611dda576040516303d4572d60e51b815260040160405180910390fd5b611dee333068056bc75e2d63100000612f44565b6000828152601260209081526040808320815160e0810183528681523381850181815287151583860181815268056bc75e2d6310000060608601818152426080880190815260a088018c815260c089018d81528a5460018082018d559b8f529d8d902099516005909e029099019c8d559551988c01805494511515600160a01b026001600160a81b03199095166001600160a01b03909a169990991793909317909755955160028a0155516003890155905160049097018054935115156101000261ff00199815159890981661ffff199094169390931796909617909155825194855292840152909184917fa04181c550a5111ebee021519f1381f122b78eb4e9b9194a64cd6c9de7737351910160405180910390a350506001601b55565b6013546060908084101580611f20575082155b15611f3b575050604080516000815260208101909152611888565b6000611f47858361345d565b90506000848210611f585784611f5a565b815b90508067ffffffffffffffff811115611f7557611f756134b9565b604051908082528060200260200182016040528015611f9e578160200160208202803683370190505b50935060005b81811015611ff8576013611fb88289613410565b81548110611fc857611fc861363b565b9060005260206000200154858281518110611fe557611fe561363b565b6020908102919091010152600101611fa4565b5050505092915050565b6000546001600160a01b0316331461202d576040516330cd747160e01b815260040160405180910390fd5b6001600160a01b0381166120545760405163e6c4247b60e01b815260040160405180910390fd5b600380546001600160a01b038381166001600160a01b0319831681179093556040519116919082907f038f89ec725a3bc1b18bf38a625bf2ff0407764bd3489886a60cf1d506c7e3a290600090a35050565b60008281526011602052604081205481036120d4576040516303d4572d60e51b815260040160405180910390fd5b60008381526014602052604090206005015460ff16806111c857505060009182526016602090815260408084206001600160a01b0393909316845291905290205460ff1690565b6002546001600160a01b0316331461214657604051631bc2178f60e01b815260040160405180910390fd5b600454600160a01b900460ff16156121715760405163ab35696f60e01b815260040160405180910390fd5b601b5460011461219457604051631762c6f360e01b815260040160405180910390fd5b6002601b5560008381526012602052604090205482106121c757604051635878ae8560e11b815260040160405180910390fd5b60008381526012602052604081208054849081106121e7576121e761363b565b60009182526020909120600590910201600481015490915060ff1615612220576040516336ab81e160e11b815260040160405180910390fd5b600481018054600183810154600160a01b900460ff90811615158615151461010090810261ffff1990941693909317909117928390559104161561234b57600181015461227f906001600160a01b0316680ad78ebc5ac6200000612d94565b680ad78ebc5ac6200000600b600082825461229a9190613410565b90915550506001818101546001600160a01b03166000908152601a6020526040812080549091906122cc908490613410565b90915550506001818101546001600160a01b0316600090815260196020526040812080549091906122fe908490613410565b909155505060018101546040805180820190915260098152682a292aaa242faba4a760b91b6020820152612346916001600160a01b03169068056bc75e2d6310000090612ebe565b612440565b600061235685612ce4565b9050600061236e600268056bc75e2d63100000613487565b6001830154909150612389906001600160a01b031682612d94565b604051632770a7eb60e21b8152306004820152602481018290527f00000000000000000000000000000000000000000000000000000000000000006001600160a01b031690639dc29fac90604401600060405180830381600087803b1580156123f157600080fd5b505af1158015612405573d6000803e3d6000fd5b5050505080600c600082825461241b9190613410565b90915550505060018201546001600160a01b03166000908152601a6020526040812055505b600181015460048201546001600160a01b039091169085907f8aa1336152b005ddd3ccc39b5a66ed207555053dd23bc9cff1aab405f6348ea590610100900460ff168061248e576000612499565b680ad78ebc5ac62000005b60408051921515835260208301919091520160405180910390a350506001601b555050565b600454600160a01b900460ff16156124e95760405163ab35696f60e01b815260040160405180910390fd5b601b5460011461250c57604051631762c6f360e01b815260040160405180910390fd5b6002601b55600081815260116020526040812054900361253f576040516303d4572d60e51b815260040160405180910390fd5b600081815260166020908152604080832033845290915290205460ff161561257a576040516328486b6360e11b815260040160405180910390fd5b600061258582612ce4565b600581015490915060ff16156125ae57604051632444f8b760e11b815260040160405180910390fd5b600381015460006125be84611156565b9050803410156125ea57604051633ebbc33760e01b8152600481018290523460248201526044016110d5565b60008481526016602090815260408083203384529091528120805460ff1916600190811790915560048501805491929091612626908490613410565b90915550612635905082612f79565b600384015560008481526017602052604081208054839290612658908490613410565b90915550506001830154612675906001600160a01b031682612c6b565b80341115612690576126903361268b833461345d565b612c6b565b336001600160a01b0316847f2ee8d21874599264c54876b79bf25eae1b396c3771a178e683a9e038b634f1d7846040516126e79181526040602082018190526003908201526208aa8960eb1b606082015260800190565b60405180910390a3837f68520cf07e2f785cba8f9601c758232191b84e9f0a8ec7b3049d2dcc197b67fe846003015460405161272591815260200190565b60405180910390a250506001601b555050565b6000546001600160a01b03163314612763576040516330cd747160e01b815260040160405180910390fd5b6001600160a01b03811661278a5760405163e6c4247b60e01b815260040160405180910390fd5b600480546001600160a01b038381166001600160a01b0319831681179093556040519116919082907f4ab5be82436d353e61ca18726e984e561f5c1cc7c6d38b29d2553c790434705a90600090a35050565b6000546001600160a01b03163314612807576040516330cd747160e01b815260040160405180910390fd5b6001600160a01b03811661282e5760405163e6c4247b60e01b815260040160405180910390fd5b600180546001600160a01b0319166001600160a01b0383811691821790925560008054604051929316917f38d16b8cac22d99fc7c124b9cd0de2d3fa1faef420bfe791d8c362d765e227009190a350565b600454600160a01b900460ff16156128aa5760405163ab35696f60e01b815260040160405180910390fd5b601b546001146128cd57604051631762c6f360e01b815260040160405180910390fd5b6002601b556000818152601160205260408120549003612900576040516303d4572d60e51b815260040160405180910390fd5b600081815260166020908152604080832033845290915290205460ff161561293b576040516328486b6360e11b815260040160405180910390fd5b600061294682612ce4565b600581015490915060ff161561296f57604051632444f8b760e11b815260040160405180910390fd5b60038101546000612981600283613487565b9050600061298f828461345d565b905061299c333085612f44565b604051632770a7eb60e21b8152306004820152602481018390527f00000000000000000000000000000000000000000000000000000000000000006001600160a01b031690639dc29fac90604401600060405180830381600087803b158015612a0457600080fd5b505af1158015612a18573d6000803e3d6000fd5b5050505081600c6000828254612a2e9190613410565b90915550506001840154612a4b906001600160a01b031682612d94565b60008581526016602090815260408083203384529091528120805460ff1916600190811790915560048601805491929091612a87908490613410565b9250508190555080846006016000828254612aa29190613410565b90915550612ab1905083612f79565b6003850155604051339086907f2ee8d21874599264c54876b79bf25eae1b396c3771a178e683a9e038b634f1d790612b089087815260406020820181905260049082015263212aa92760e11b606082015260800190565b60405180910390a3847f68520cf07e2f785cba8f9601c758232191b84e9f0a8ec7b3049d2dcc197b67fe8560030154604051612b4691815260200190565b60405180910390a250506001601b55505050565b600554600090808203612b8057604051630b73274760e11b815260040160405180910390fd5b612b8d6201518082613410565b421115612bb957604051634487756760e11b8152600481018290526201518060248201526044016110d5565b60007f00000000000000000000000000000000000000000000000000000000000000006001600160a01b031663313ce5676040518163ffffffff1660e01b8152600401602060405180830381865afa158015612c19573d6000803e3d6000fd5b505050506040513d601f19601f82011682018060405250810190612c3d9190613651565b612c4890600a61375b565b90508060065485612c599190613470565b612c639190613487565b949350505050565b6000826001600160a01b03168260405160006040518083038185875af1925050503d8060008114612cb8576040519150601f19603f3d011682016040523d82523d6000602084013e612cbd565b606091505b5050905080612cdf5760405163022e258160e11b815260040160405180910390fd5b505050565b6000818152601460205260409020600381015415612d0157919050565b6000828152601560205260409020546001600160a01b031680612d37576040516361f2aa0160e11b815260040160405180910390fd5b828255600180830180546001600160a01b0319166001600160a01b039390931692909217909155600092835260116020526040909220909101546002820155681b1ae4d6e2ef500000600382015560058101805460ff1916905590565b612dc86001600160a01b037f0000000000000000000000000000000000000000000000000000000000000000168383612fd9565b5050565b6001600160a01b0381811660008181526018602052604080822054905163aaac37a160e01b81526004810193909352909290917f00000000000000000000000000000000000000000000000000000000000000009091169063aaac37a190602401602060405180830381865afa158015612e4a573d6000803e3d6000fd5b505050506040513d601f19601f82011682018060405250810190612e6e9190613622565b6118889190613410565b6000818152601160205260408120600101548190612e9d90662386f26fc10000613470565b9050683635c9adc5dea00000811161188857683635c9adc5dea000006111c8565b6001600160a01b03831660009081526018602052604081205490612ee28483613410565b6001600160a01b0386166000818152601860205260409081902083905551919250907f7b750b6736ccb837fea530571f55e8e43f7eeb7bf7f2aadca5b698bd6be22d7a90612f359085908590889061376a565b60405180910390a25050505050565b612cdf6001600160a01b037f00000000000000000000000000000000000000000000000000000000000000001684848461300e565b600068878678326eac9000008210612f9b575068878678326eac900000919050565b6000612fb06802b5e3af16b188000084613410565b905068878678326eac9000008111612fc857806111c8565b68878678326eac9000009392505050565b612fe6838383600161304a565b612cdf57604051635274afe760e01b81526001600160a01b03841660048201526024016110d5565b61301c8484848460016130b0565b61304457604051635274afe760e01b81526001600160a01b03851660048201526024016110d5565b50505050565b60405163a9059cbb60e01b60008181526001600160a01b038616600452602485905291602083604481808b5af1925060016000511483166130a4578383151615613097573d6000823e3d81fd5b6000873b113d1516831692505b60405250949350505050565b6040516323b872dd60e01b60008181526001600160a01b038781166004528616602452604485905291602083606481808c5af192506001600051148316613110578383151615613103573d6000823e3d81fd5b6000883b113d1516831692505b60405250600060605295945050505050565b60006020828403121561313457600080fd5b5035919050565b80356001600160a01b038116811461315257600080fd5b919050565b60006020828403121561316957600080fd5b6111c88261313b565b8035801515811461315257600080fd5b60006020828403121561319457600080fd5b6111c882613172565b6000815180845260005b818110156131c3576020818501810151868301820152016131a7565b506000602082860101526020601f19601f83011685010191505092915050565b878152866020820152851515604082015284606082015260e06080820152600061321060e083018661319d565b6001600160a01b039490941660a08301525060c0015295945050505050565b60008083601f84011261324157600080fd5b50813567ffffffffffffffff81111561325957600080fd5b60208301915083602082850101111561327157600080fd5b9250929050565b600080600080600080600060a0888a03121561329357600080fd5b8735965060208801359550604088013567ffffffffffffffff8111156132b857600080fd5b6132c48a828b0161322f565b909650945050606088013567ffffffffffffffff8111156132e457600080fd5b6132f08a828b0161322f565b9094509250613303905060808901613172565b905092959891949750929550565b6000806040838503121561332457600080fd5b823591506133346020840161313b565b90509250929050565b6000806040838503121561335057600080fd5b50508035926020909101359150565b6000806040838503121561337257600080fd5b8235915061333460208401613172565b602080825282518282018190526000918401906040840190835b818110156133ba57835183526020938401939092019160010161339c565b509095945050505050565b6000806000606084860312156133da57600080fd5b83359250602084013591506133f160408501613172565b90509250925092565b634e487b7160e01b600052601160045260246000fd5b80820180821115611888576118886133fa565b600181811c9082168061343757607f821691505b60208210810361345757634e487b7160e01b600052602260045260246000fd5b50919050565b81810381811115611888576118886133fa565b8082028115828204841417611888576118886133fa565b6000826134a457634e487b7160e01b600052601260045260246000fd5b500490565b8183823760009101908152919050565b634e487b7160e01b600052604160045260246000fd5b601f821115612cdf57806000526020600020601f840160051c810160208510156134f65750805b601f840160051c820191505b818110156135165760008155600101613502565b5050505050565b815167ffffffffffffffff811115613537576135376134b9565b61354b816135458454613423565b846134cf565b6020601f82116001811461357f57600083156135675750848201515b600019600385901b1c1916600184901b178455613516565b600084815260208120601f198516915b828110156135af578785015182556020948501946001909201910161358f565b50848210156135cd5786840151600019600387901b60f8161c191681555b50505050600190811b01905550565b858152841515602082015283604082015260806060820152816080820152818360a0830137600081830160a090810191909152601f909201601f19160101949350505050565b60006020828403121561363457600080fd5b5051919050565b634e487b7160e01b600052603260045260246000fd5b60006020828403121561366357600080fd5b815160ff811681146111c857600080fd5b6001815b60018411156136af57808504811115613693576136936133fa565b60018416156136a157908102905b60019390931c928002613678565b935093915050565b6000826136c657506001611888565b816136d357506000611888565b81600181146136e957600281146136f35761370f565b6001915050611888565b60ff841115613704576137046133fa565b50506001821b611888565b5060208310610133831016604e8410600b8410161715613732575081810a611888565b61373f6000198484613674565b8060001904821115613753576137536133fa565b029392505050565b60006111c860ff8416836136b7565b838152826020820152606060408201526000613789606083018461319d565b9594505050505056fea2646970667358221220fdb1080444fdaae198162468a748e40846fd2bb2df455dcc9ccd21702514968064736f6c634300081e0033",
  "linkReferences": {},
  "deployedLinkReferences": {}
}