{
  "_format": "hh-sol-artifact-1",
  "contractName": "GhostProtocol",
  "sourceName": "contracts/GhostProtocol.sol",
  "abi": [
    {
      "inputs": [
        {
          "internalType": "address",
          "name": "ghostedTokenAddress",
          "type": "address"
        },
        {
          "internalType": "address",
          "name": "treasuryAddress",
          "type": "address"
        },
        {
          "internalType": "address",
          "name": "oracleAddress",
          "type": "address"
        }
      ],
      "stateMutability": "nonpayable",
      "type": "constructor"
    },
    {
      "inputs": [],
      "name": "AlreadyResolved",
      "type": "error"
    },
    {
      "inputs": [],
      "name": "AlreadyUnlocked",
      "type": "error"
    },
    {
      "inputs": [],
      "name": "ContractPaused",
      "type": "error"
    },
    {
      "inputs": [],
      "name": "EvidenceAlreadyExists",
      "type": "error"
    },
    {
      "inputs": [
        {
          "internalType": "uint256",
          "name": "currentCredibility",
          "type": "uint256"
        },
        {
          "internalType": "uint256",
          "name": "requiredCredibility",
          "type": "uint256"
        }
      ],
      "name": "InsufficientCredibility",
      "type": "error"
    },
    {
      "inputs": [
        {
          "internalType": "uint256",
          "name": "requiredAmount",
          "type": "uint256"
        },
        {
          "internalType": "uint256",
          "name": "receivedAmount",
          "type": "uint256"
        }
      ],
      "name": "InsufficientEth",
      "type": "error"
    },
    {
      "inputs": [],
      "name": "InvalidAddress",
      "type": "error"
    },
    {
      "inputs": [],
      "name": "InvalidAssertionIndex",
      "type": "error"
    },
    {
      "inputs": [],
      "name": "InvalidProofHash",
      "type": "error"
    },
    {
      "inputs": [],
      "name": "InvalidSeverity",
      "type": "error"
    },
    {
      "inputs": [],
      "name": "NotOracle",
      "type": "error"
    },
    {
      "inputs": [],
      "name": "NotOwner",
      "type": "error"
    },
    {
      "inputs": [],
      "name": "NotPendingOwner",
      "type": "error"
    },
    {
      "inputs": [],
      "name": "OnlySubmitter",
      "type": "error"
    },
    {
      "inputs": [],
      "name": "ReentrancyGuardActive",
      "type": "error"
    },
    {
      "inputs": [
        {
          "internalType": "address",
          "name": "token",
          "type": "address"
        }
      ],
      "name": "SafeERC20FailedOperation",
      "type": "error"
    },
    {
      "inputs": [],
      "name": "StoryAlreadyPublic",
      "type": "error"
    },
    {
      "inputs": [],
      "name": "StoryDoesNotExist",
      "type": "error"
    },
    {
      "inputs": [],
      "name": "StoryIsPublic",
      "type": "error"
    },
    {
      "inputs": [],
      "name": "SubmitterNotRecorded",
      "type": "error"
    },
    {
      "inputs": [],
      "name": "TokenTransferFailed",
      "type": "error"
    },
    {
      "anonymous": false,
      "inputs": [
        {
          "indexed": true,
          "internalType": "bytes32",
          "name": "proofHash",
          "type": "bytes32"
        },
        {
          "indexed": true,
          "internalType": "address",
          "name": "submitter",
          "type": "address"
        },
        {
          "indexed": false,
          "internalType": "uint256",
          "name": "severity",
          "type": "uint256"
        },
        {
          "indexed": false,
          "internalType": "bool",
          "name": "isProxy",
          "type": "bool"
        },
        {
          "indexed": false,
          "internalType": "uint256",
          "name": "ghostedRewarded",
          "type": "uint256"
        },
        {
          "indexed": false,
          "internalType": "string",
          "name": "dramaType",
          "type": "string"
        }
      ],
      "name": "EvidenceSubmitted",
      "type": "event"
    },
    {
      "anonymous": false,
      "inputs": [
        {
          "indexed": true,
          "internalType": "address",
          "name": "submitter",
          "type": "address"
        },
        {
          "indexed": true,
          "internalType": "bytes32",
          "name": "proofHash",
          "type": "bytes32"
        },
        {
          "indexed": false,
          "internalType": "uint256",
          "name": "feePaid",
          "type": "uint256"
        },
        {
          "indexed": false,
          "internalType": "uint256",
          "name": "treasuryCut",
          "type": "uint256"
        },
        {
          "indexed": false,
          "internalType": "uint256",
          "name": "protocolCut",
          "type": "uint256"
        }
      ],
      "name": "GhostingReceiptSubmitted",
      "type": "event"
    },
    {
      "anonymous": false,
      "inputs": [
        {
          "indexed": true,
          "internalType": "address",
          "name": "previousOracle",
          "type": "address"
        },
        {
          "indexed": true,
          "internalType": "address",
          "name": "newOracle",
          "type": "address"
        }
      ],
      "name": "OracleUpdated",
      "type": "event"
    },
    {
      "anonymous": false,
      "inputs": [
        {
          "indexed": true,
          "internalType": "address",
          "name": "previousOwner",
          "type": "address"
        },
        {
          "indexed": true,
          "internalType": "address",
          "name": "pendingOwner",
          "type": "address"
        }
      ],
      "name": "OwnershipTransferStarted",
      "type": "event"
    },
    {
      "anonymous": false,
      "inputs": [
        {
          "indexed": true,
          "internalType": "address",
          "name": "previousOwner",
          "type": "address"
        },
        {
          "indexed": true,
          "internalType": "address",
          "name": "newOwner",
          "type": "address"
        }
      ],
      "name": "OwnershipTransferred",
      "type": "event"
    },
    {
      "anonymous": false,
      "inputs": [
        {
          "indexed": false,
          "internalType": "bool",
          "name": "paused",
          "type": "bool"
        }
      ],
      "name": "PauseStateUpdated",
      "type": "event"
    },
    {
      "anonymous": false,
      "inputs": [
        {
          "indexed": true,
          "internalType": "address",
          "name": "sender",
          "type": "address"
        },
        {
          "indexed": false,
          "internalType": "uint256",
          "name": "amount",
          "type": "uint256"
        }
      ],
      "name": "ProtocolFunded",
      "type": "event"
    },
    {
      "anonymous": false,
      "inputs": [
        {
          "indexed": true,
          "internalType": "bytes32",
          "name": "proofHash",
          "type": "bytes32"
        },
        {
          "indexed": true,
          "internalType": "address",
          "name": "submitter",
          "type": "address"
        }
      ],
      "name": "StoryMadePublic",
      "type": "event"
    },
    {
      "anonymous": false,
      "inputs": [
        {
          "indexed": true,
          "internalType": "bytes32",
          "name": "proofHash",
          "type": "bytes32"
        },
        {
          "indexed": true,
          "internalType": "address",
          "name": "unlocker",
          "type": "address"
        },
        {
          "indexed": false,
          "internalType": "uint256",
          "name": "cost",
          "type": "uint256"
        },
        {
          "indexed": false,
          "internalType": "string",
          "name": "method",
          "type": "string"
        }
      ],
      "name": "StoryUnlocked",
      "type": "event"
    },
    {
      "anonymous": false,
      "inputs": [
        {
          "indexed": true,
          "internalType": "address",
          "name": "previousTreasury",
          "type": "address"
        },
        {
          "indexed": true,
          "internalType": "address",
          "name": "newTreasury",
          "type": "address"
        }
      ],
      "name": "TreasuryUpdated",
      "type": "event"
    },
    {
      "anonymous": false,
      "inputs": [
        {
          "indexed": true,
          "internalType": "bytes32",
          "name": "proofHash",
          "type": "bytes32"
        },
        {
          "indexed": true,
          "internalType": "address",
          "name": "assertor",
          "type": "address"
        },
        {
          "indexed": false,
          "internalType": "bool",
          "name": "believesReal",
          "type": "bool"
        },
        {
          "indexed": false,
          "internalType": "uint256",
          "name": "stake",
          "type": "uint256"
        }
      ],
      "name": "TruthAsserted",
      "type": "event"
    },
    {
      "anonymous": false,
      "inputs": [
        {
          "indexed": true,
          "internalType": "bytes32",
          "name": "proofHash",
          "type": "bytes32"
        },
        {
          "indexed": true,
          "internalType": "address",
          "name": "assertor",
          "type": "address"
        },
        {
          "indexed": false,
          "internalType": "bool",
          "name": "wasCorrect",
          "type": "bool"
        },
        {
          "indexed": false,
          "internalType": "uint256",
          "name": "reward",
          "type": "uint256"
        }
      ],
      "name": "TruthResolved",
      "type": "event"
    },
    {
      "anonymous": false,
      "inputs": [
        {
          "indexed": true,
          "internalType": "bytes32",
          "name": "proofHash",
          "type": "bytes32"
        },
        {
          "indexed": false,
          "internalType": "uint256",
          "name": "newPrice",
          "type": "uint256"
        }
      ],
      "name": "UnlockPriceUpdated",
      "type": "event"
    },
    {
      "inputs": [],
      "name": "BASE_UNLOCK_PRICE",
      "outputs": [
        {
          "internalType": "uint256",
          "name": "",
          "type": "uint256"
        }
      ],
      "stateMutability": "view",
      "type": "function"
    },
    {
      "inputs": [],
      "name": "BPS_DENOMINATOR",
      "outputs": [
        {
          "internalType": "uint256",
          "name": "",
          "type": "uint256"
        }
      ],
      "stateMutability": "view",
      "type": "function"
    },
    {
      "inputs": [],
      "name": "CREDIBILITY_UNLOCK_THRESHOLD",
      "outputs": [
        {
          "internalType": "uint256",
          "name": "",
          "type": "uint256"
        }
      ],
      "stateMutability": "view",
      "type": "function"
    },
    {
      "inputs": [],
      "name": "GHOSTING_RECEIPT_FEE",
      "outputs": [
        {
          "internalType": "uint256",
          "name": "",
          "type": "uint256"
        }
      ],
      "stateMutability": "view",
      "type": "function"
    },
    {
      "inputs": [],
      "name": "MAX_GHOSTED_PER_SUBMISSION",
      "outputs": [
        {
          "internalType": "uint256",
          "name": "",
          "type": "uint256"
        }
      ],
      "stateMutability": "view",
      "type": "function"
    },
    {
      "inputs": [],
      "name": "TREASURY_SPLIT_BPS",
      "outputs": [
        {
          "internalType": "uint256",
          "name": "",
          "type": "uint256"
        }
      ],
      "stateMutability": "view",
      "type": "function"
    },
    {
      "inputs": [],
      "name": "TRUTH_ASSERTION_STAKE",
      "outputs": [
        {
          "internalType": "uint256",
          "name": "",
          "type": "uint256"
        }
      ],
      "stateMutability": "view",
      "type": "function"
    },
    {
      "inputs": [],
      "name": "TRUTH_WIN_REWARD",
      "outputs": [
        {
          "internalType": "uint256",
          "name": "",
          "type": "uint256"
        }
      ],
      "stateMutability": "view",
      "type": "function"
    },
    {
      "inputs": [],
      "name": "acceptOwnership",
      "outputs": [],
      "stateMutability": "nonpayable",
      "type": "function"
    },
    {
      "inputs": [
        {
          "internalType": "bytes32",
          "name": "proofHash",
          "type": "bytes32"
        },
        {
          "internalType": "bool",
          "name": "believesReal",
          "type": "bool"
        }
      ],
      "name": "assertTruth",
      "outputs": [],
      "stateMutability": "nonpayable",
      "type": "function"
    },
    {
      "inputs": [
        {
          "internalType": "bytes32",
          "name": "proofHash",
          "type": "bytes32"
        },
        {
          "internalType": "address",
          "name": "user",
          "type": "address"
        }
      ],
      "name": "canUserAccessStory",
      "outputs": [
        {
          "internalType": "bool",
          "name": "",
          "type": "bool"
        }
      ],
      "stateMutability": "view",
      "type": "function"
    },
    {
      "inputs": [],
      "name": "directEvidenceCount",
      "outputs": [
        {
          "internalType": "uint256",
          "name": "",
          "type": "uint256"
        }
      ],
      "stateMutability": "view",
      "type": "function"
    },
    {
      "inputs": [],
      "name": "evidenceCounter",
      "outputs": [
        {
          "internalType": "uint256",
          "name": "",
          "type": "uint256"
        }
      ],
      "stateMutability": "view",
      "type": "function"
    },
    {
      "inputs": [
        {
          "internalType": "bytes32",
          "name": "",
          "type": "bytes32"
        }
      ],
      "name": "evidenceSubmitter",
      "outputs": [
        {
          "internalType": "address",
          "name": "",
          "type": "address"
        }
      ],
      "stateMutability": "view",
      "type": "function"
    },
    {
      "inputs": [
        {
          "internalType": "bytes32",
          "name": "proofHash",
          "type": "bytes32"
        }
      ],
      "name": "getEvidence",
      "outputs": [
        {
          "internalType": "uint256",
          "name": "timestamp",
          "type": "uint256"
        },
        {
          "internalType": "uint256",
          "name": "weight",
          "type": "uint256"
        },
        {
          "internalType": "bool",
          "name": "isProxy",
          "type": "bool"
        },
        {
          "internalType": "bytes32",
          "name": "descriptionHash",
          "type": "bytes32"
        },
        {
          "internalType": "string",
          "name": "dramaType",
          "type": "string"
        },
        {
          "internalType": "address",
          "name": "submitter",
          "type": "address"
        },
        {
          "internalType": "uint256",
          "name": "ghostedRewarded",
          "type": "uint256"
        }
      ],
      "stateMutability": "view",
      "type": "function"
    },
    {
      "inputs": [],
      "name": "getProtocolStats",
      "outputs": [
        {
          "internalType": "uint256",
          "name": "totalEvidence",
          "type": "uint256"
        },
        {
          "internalType": "uint256",
          "name": "directEvidence",
          "type": "uint256"
        },
        {
          "internalType": "uint256",
          "name": "proxyEvidence",
          "type": "uint256"
        },
        {
          "internalType": "uint256",
          "name": "totalTruthAssertions",
          "type": "uint256"
        },
        {
          "internalType": "uint256",
          "name": "rewardedGhosted",
          "type": "uint256"
        },
        {
          "internalType": "uint256",
          "name": "burnedGhosted",
          "type": "uint256"
        },
        {
          "internalType": "uint256",
          "name": "revenueCollected",
          "type": "uint256"
        },
        {
          "internalType": "uint256",
          "name": "treasuryDistributed",
          "type": "uint256"
        },
        {
          "internalType": "uint256",
          "name": "protocolRevenue",
          "type": "uint256"
        },
        {
          "internalType": "bool",
          "name": "gaslightUnlocked",
          "type": "bool"
        },
        {
          "internalType": "bool",
          "name": "isPaused",
          "type": "bool"
        }
      ],
      "stateMutability": "view",
      "type": "function"
    },
    {
      "inputs": [
        {
          "internalType": "bytes32",
          "name": "proofHash",
          "type": "bytes32"
        }
      ],
      "name": "getStoryPayoutInfo",
      "outputs": [
        {
          "internalType": "uint256",
          "name": "tokenPayouts",
          "type": "uint256"
        },
        {
          "internalType": "uint256",
          "name": "ethPayouts",
          "type": "uint256"
        },
        {
          "internalType": "uint256",
          "name": "currentEthUnlockPrice",
          "type": "uint256"
        }
      ],
      "stateMutability": "view",
      "type": "function"
    },
    {
      "inputs": [
        {
          "internalType": "bytes32",
          "name": "proofHash",
          "type": "bytes32"
        }
      ],
      "name": "getStoryUnlockInfo",
      "outputs": [
        {
          "internalType": "uint256",
          "name": "unlockPriceTokens",
          "type": "uint256"
        },
        {
          "internalType": "uint256",
          "name": "timesUnlocked",
          "type": "uint256"
        },
        {
          "internalType": "bool",
          "name": "isPublic",
          "type": "bool"
        },
        {
          "internalType": "uint256",
          "name": "totalEarned",
          "type": "uint256"
        },
        {
          "internalType": "address",
          "name": "submitter",
          "type": "address"
        },
        {
          "internalType": "uint256",
          "name": "severity",
          "type": "uint256"
        }
      ],
      "stateMutability": "view",
      "type": "function"
    },
    {
      "inputs": [
        {
          "internalType": "uint256",
          "name": "cursor",
          "type": "uint256"
        },
        {
          "internalType": "uint256",
          "name": "limit",
          "type": "uint256"
        }
      ],
      "name": "getSubmittedProofHashes",
      "outputs": [
        {
          "internalType": "bytes32[]",
          "name": "proofHashes",
          "type": "bytes32[]"
        }
      ],
      "stateMutability": "view",
      "type": "function"
    },
    {
      "inputs": [
        {
          "internalType": "bytes32",
          "name": "proofHash",
          "type": "bytes32"
        },
        {
          "internalType": "uint256",
          "name": "assertionIndex",
          "type": "uint256"
        }
      ],
      "name": "getTruthAssertion",
      "outputs": [
        {
          "internalType": "bytes32",
          "name": "assertionProofHash",
          "type": "bytes32"
        },
        {
          "internalType": "address",
          "name": "assertor",
          "type": "address"
        },
        {
          "internalType": "bool",
          "name": "believesReal",
          "type": "bool"
        },
        {
          "internalType": "uint256",
          "name": "stakeAmount",
          "type": "uint256"
        },
        {
          "internalType": "uint256",
          "name": "timestamp",
          "type": "uint256"
        },
        {
          "internalType": "bool",
          "name": "resolved",
          "type": "bool"
        },
        {
          "internalType": "bool",
          "name": "wasCorrect",
          "type": "bool"
        }
      ],
      "stateMutability": "view",
      "type": "function"
    },
    {
      "inputs": [
        {
          "internalType": "bytes32",
          "name": "proofHash",
          "type": "bytes32"
        }
      ],
      "name": "getTruthAssertionCount",
      "outputs": [
        {
          "internalType": "uint256",
          "name": "",
          "type": "uint256"
        }
      ],
      "stateMutability": "view",
      "type": "function"
    },
    {
      "inputs": [],
      "name": "ghostedToken",
      "outputs": [
        {
          "internalType": "contract IGhostedToken",
          "name": "",
          "type": "address"
        }
      ],
      "stateMutability": "view",
      "type": "function"
    },
    {
      "inputs": [
        {
          "internalType": "bytes32",
          "name": "",
          "type": "bytes32"
        },
        {
          "internalType": "address",
          "name": "",
          "type": "address"
        }
      ],
      "name": "hasUnlockedStory",
      "outputs": [
        {
          "internalType": "bool",
          "name": "",
          "type": "bool"
        }
      ],
      "stateMutability": "view",
      "type": "function"
    },
    {
      "inputs": [
        {
          "internalType": "bytes32",
          "name": "proofHash",
          "type": "bytes32"
        },
        {
          "internalType": "address",
          "name": "user",
          "type": "address"
        }
      ],
      "name": "hasUserUnlockedStory",
      "outputs": [
        {
          "internalType": "bool",
          "name": "",
          "type": "bool"
        }
      ],
      "stateMutability": "view",
      "type": "function"
    },
    {
      "inputs": [
        {
          "internalType": "bytes32",
          "name": "",
          "type": "bytes32"
        }
      ],
      "name": "lockedStories",
      "outputs": [
        {
          "internalType": "bytes32",
          "name": "proofHash",
          "type": "bytes32"
        },
        {
          "internalType": "address",
          "name": "submitter",
          "type": "address"
        },
        {
          "internalType": "uint256",
          "name": "severity",
          "type": "uint256"
        },
        {
          "internalType": "uint256",
          "name": "unlockPrice",
          "type": "uint256"
        },
        {
          "internalType": "uint256",
          "name": "timesUnlocked",
          "type": "uint256"
        },
        {
          "internalType": "bool",
          "name": "isPublic",
          "type": "bool"
        },
        {
          "internalType": "uint256",
          "name": "totalEarnedFromUnlocks",
          "type": "uint256"
        }
      ],
      "stateMutability": "view",
      "type": "function"
    },
    {
      "inputs": [
        {
          "internalType": "bytes32",
          "name": "proofHash",
          "type": "bytes32"
        }
      ],
      "name": "makeStoryPublic",
      "outputs": [],
      "stateMutability": "nonpayable",
      "type": "function"
    },
    {
      "inputs": [],
      "name": "oracle",
      "outputs": [
        {
          "internalType": "address",
          "name": "",
          "type": "address"
        }
      ],
      "stateMutability": "view",
      "type": "function"
    },
    {
      "inputs": [],
      "name": "owner",
      "outputs": [
        {
          "internalType": "address",
          "name": "",
          "type": "address"
        }
      ],
      "stateMutability": "view",
      "type": "function"
    },
    {
      "inputs": [],
      "name": "paused",
      "outputs": [
        {
          "internalType": "bool",
          "name": "",
          "type": "bool"
        }
      ],
      "stateMutability": "view",
      "type": "function"
    },
    {
      "inputs": [],
      "name": "pendingOwner",
      "outputs": [
        {
          "internalType": "address",
          "name": "",
          "type": "address"
        }
      ],
      "stateMutability": "view",
      "type": "function"
    },
    {
      "inputs": [
        {
          "internalType": "bytes32",
          "name": "proofHash",
          "type": "bytes32"
        }
      ],
      "name": "previewUnlockPriceInEth",
      "outputs": [
        {
          "internalType": "uint256",
          "name": "",
          "type": "uint256"
        }
      ],
      "stateMutability": "view",
      "type": "function"
    },
    {
      "inputs": [],
      "name": "proxyEvidenceCount",
      "outputs": [
        {
          "internalType": "uint256",
          "name": "",
          "type": "uint256"
        }
      ],
      "stateMutability": "view",
      "type": "function"
    },
    {
      "inputs": [
        {
          "internalType": "bytes32",
          "name": "proofHash",
          "type": "bytes32"
        },
        {
          "internalType": "uint256",
          "name": "assertionIndex",
          "type": "uint256"
        },
        {
          "internalType": "bool",
          "name": "isActuallyReal",
          "type": "bool"
        }
      ],
      "name": "resolveTruth",
      "outputs": [],
      "stateMutability": "nonpayable",
      "type": "function"
    },
    {
      "inputs": [
        {
          "internalType": "address",
          "name": "newOracle",
          "type": "address"
        }
      ],
      "name": "setOracle",
      "outputs": [],
      "stateMutability": "nonpayable",
      "type": "function"
    },
    {
      "inputs": [
        {
          "internalType": "bool",
          "name": "nextPaused",
          "type": "bool"
        }
      ],
      "name": "setPaused",
      "outputs": [],
      "stateMutability": "nonpayable",
      "type": "function"
    },
    {
      "inputs": [
        {
          "internalType": "address",
          "name": "newTreasury",
          "type": "address"
        }
      ],
      "name": "setTreasury",
      "outputs": [],
      "stateMutability": "nonpayable",
      "type": "function"
    },
    {
      "inputs": [
        {
          "internalType": "bytes32",
          "name": "",
          "type": "bytes32"
        }
      ],
      "name": "storyEthEarnings",
      "outputs": [
        {
          "internalType": "uint256",
          "name": "",
          "type": "uint256"
        }
      ],
      "stateMutability": "view",
      "type": "function"
    },
    {
      "inputs": [
        {
          "internalType": "bytes32",
          "name": "proofHash",
          "type": "bytes32"
        },
        {
          "internalType": "uint256",
          "name": "severity",
          "type": "uint256"
        },
        {
          "internalType": "string",
          "name": "description",
          "type": "string"
        },
        {
          "internalType": "string",
          "name": "dramaType",
          "type": "string"
        },
        {
          "internalType": "bool",
          "name": "isProxy",
          "type": "bool"
        }
      ],
      "name": "submitEvidence",
      "outputs": [],
      "stateMutability": "payable",
      "type": "function"
    },
    {
      "inputs": [],
      "name": "submittedProofHashesCount",
      "outputs": [
        {
          "internalType": "uint256",
          "name": "",
          "type": "uint256"
        }
      ],
      "stateMutability": "view",
      "type": "function"
    },
    {
      "inputs": [],
      "name": "totalGhostedBurned",
      "outputs": [
        {
          "internalType": "uint256",
          "name": "",
          "type": "uint256"
        }
      ],
      "stateMutability": "view",
      "type": "function"
    },
    {
      "inputs": [],
      "name": "totalGhostedRewarded",
      "outputs": [
        {
          "internalType": "uint256",
          "name": "",
          "type": "uint256"
        }
      ],
      "stateMutability": "view",
      "type": "function"
    },
    {
      "inputs": [],
      "name": "totalProtocolRevenue",
      "outputs": [
        {
          "internalType": "uint256",
          "name": "",
          "type": "uint256"
        }
      ],
      "stateMutability": "view",
      "type": "function"
    },
    {
      "inputs": [],
      "name": "totalRevenueCollected",
      "outputs": [
        {
          "internalType": "uint256",
          "name": "",
          "type": "uint256"
        }
      ],
      "stateMutability": "view",
      "type": "function"
    },
    {
      "inputs": [],
      "name": "totalTreasuryDistributed",
      "outputs": [
        {
          "internalType": "uint256",
          "name": "",
          "type": "uint256"
        }
      ],
      "stateMutability": "view",
      "type": "function"
    },
    {
      "inputs": [
        {
          "internalType": "address",
          "name": "",
          "type": "address"
        }
      ],
      "name": "totalTruthWins",
      "outputs": [
        {
          "internalType": "uint256",
          "name": "",
          "type": "uint256"
        }
      ],
      "stateMutability": "view",
      "type": "function"
    },
    {
      "inputs": [
        {
          "internalType": "address",
          "name": "newOwner",
          "type": "address"
        }
      ],
      "name": "transferOwnership",
      "outputs": [],
      "stateMutability": "nonpayable",
      "type": "function"
    },
    {
      "inputs": [],
      "name": "treasury",
      "outputs": [
        {
          "internalType": "address",
          "name": "",
          "type": "address"
        }
      ],
      "stateMutability": "view",
      "type": "function"
    },
    {
      "inputs": [],
      "name": "truthAssertionCount",
      "outputs": [
        {
          "internalType": "uint256",
          "name": "",
          "type": "uint256"
        }
      ],
      "stateMutability": "view",
      "type": "function"
    },
    {
      "inputs": [
        {
          "internalType": "address",
          "name": "",
          "type": "address"
        }
      ],
      "name": "truthWinStreak",
      "outputs": [
        {
          "internalType": "uint256",
          "name": "",
          "type": "uint256"
        }
      ],
      "stateMutability": "view",
      "type": "function"
    },
    {
      "inputs": [
        {
          "internalType": "bytes32",
          "name": "proofHash",
          "type": "bytes32"
        }
      ],
      "name": "unlockStoryByBurn",
      "outputs": [],
      "stateMutability": "nonpayable",
      "type": "function"
    },
    {
      "inputs": [
        {
          "internalType": "bytes32",
          "name": "proofHash",
          "type": "bytes32"
        }
      ],
      "name": "unlockStoryByCredibility",
      "outputs": [],
      "stateMutability": "nonpayable",
      "type": "function"
    },
    {
      "inputs": [
        {
          "internalType": "bytes32",
          "name": "proofHash",
          "type": "bytes32"
        }
      ],
      "name": "unlockStoryWithETH",
      "outputs": [],
      "stateMutability": "payable",
      "type": "function"
    },
    {
      "stateMutability": "payable",
      "type": "receive"
    }
  ],
  "bytecode": "0x60a0604052600160165534801561001557600080fd5b506040516133e83803806133e8833981016040819052610034916100e3565b6001600160a01b038316158061005157506001600160a01b038216155b8061006357506001600160a01b038116155b156100815760405163e6c4247b60e01b815260040160405180910390fd5b6001600160a01b03928316608052600080546001600160a01b03199081163317909155600380549385169382169390931790925560028054919093169116179055610126565b80516001600160a01b03811681146100de57600080fd5b919050565b6000806000606084860312156100f857600080fd5b610101846100c7565b925061010f602085016100c7565b915061011d604085016100c7565b90509250925092565b608051613268610180600039600081816106bd01528181611665015281816117af01528181611eff01528181611f7c01528181612076015281816126a60152818161286a015281816129ce0152612a7f01526132686000f3fe6080604052600436106103035760003560e01c80638c1a60b211610190578063c69ab501116100dc578063dbd8c05711610095578063f0f442601161006f578063f0f4426014610b06578063f2fde38b14610b26578063f4dceacd14610b46578063f99156cb14610b6657600080fd5b8063dbd8c05714610aba578063e1a4521814610ad0578063e30c397814610ae657600080fd5b8063c69ab50114610a00578063c9ab713014610a1d578063cb3399e814610a3d578063d365d09414610a5d578063d4ade87514610a8a578063d73848cc14610a9d57600080fd5b8063a4fa95bf11610149578063af414d4111610123578063af414d41146109a3578063b3dfbcf8146109be578063b87c1114146109d4578063b9fa45da146109ea57600080fd5b8063a4fa95bf14610933578063a60051ae14610960578063a6d2fcd91461097657600080fd5b80638c1a60b2146108085780638c37f11d146108255780638da5cb5b1461083b578063924d3f561461085b578063938a8bca146108795780639e33bb861461088f57600080fd5b806361d027b31161024f5780636bccc7531161020857806379ba5097116101e257806379ba5097146107935780637adbf973146107a85780637dc0d1d0146107c85780638748c6b9146107e857600080fd5b80636bccc753146106ab578063771aceef146106df57806378f88d671461077657600080fd5b806361d027b31461056757806365137dd01461059f57806367310b5a1461060457806368f5c6631461063f5780636a01a7751461065f5780636a65eaa61461069557600080fd5b806321026950116102bc5780634a7221a0116102965780634a7221a0146104d05780635191e4671461050357806353093093146105165780635c975abb1461054657600080fd5b8063210269501461047a5780632cad2f651461049a57806338902fdb146104ba57600080fd5b8063056962c31461034457806308104069146103845780630efd66e2146103a35780631433219c146103d057806316c38b3c146103fd57806319b881e41461041f57600080fd5b3661033f5760405134815233907f719feb717c187001672aa98b85a51988a7fab410c32ed1d724838c8377bf90af9060200160405180910390a2005b600080fd5b34801561035057600080fd5b5061036461035f366004612bf0565b610b7c565b604080519384526020840192909252908201526060015b60405180910390f35b34801561039057600080fd5b50600f545b60405190815260200161037b565b3480156103af57600080fd5b506103956103be366004612c25565b60156020526000908152604090205481565b3480156103dc57600080fd5b506103956103eb366004612bf0565b60136020526000908152604090205481565b34801561040957600080fd5b5061041d610418366004612c50565b610c0e565b005b34801561042b57600080fd5b5061043f61043a366004612bf0565b610c91565b6040805196875260208701959095529215159385019390935260608401526001600160a01b03909116608083015260a082015260c00161037b565b34801561048657600080fd5b50610395610495366004612bf0565b610d90565b3480156104a657600080fd5b5061041d6104b5366004612bf0565b610e09565b3480156104c657600080fd5b5061039560085481565b3480156104dc57600080fd5b506104f06104eb366004612bf0565b610f03565b60405161037b9796959493929190612c6b565b61041d610511366004612d40565b610ffe565b34801561052257600080fd5b50610536610531366004612dd9565b6114a0565b604051901515815260200161037b565b34801561055257600080fd5b5060035461053690600160a01b900460ff1681565b34801561057357600080fd5b50600354610587906001600160a01b031681565b6040516001600160a01b03909116815260200161037b565b3480156105ab57600080fd5b506105bf6105ba366004612e05565b6114cd565b604080519788526001600160a01b039096166020880152931515948601949094526060850191909152608084015290151560a0830152151560c082015260e00161037b565b34801561061057600080fd5b5061053661061f366004612dd9565b601260209081526000928352604080842090915290825290205460ff1681565b34801561064b57600080fd5b5061041d61065a366004612bf0565b611585565b34801561066b57600080fd5b5061058761067a366004612bf0565b6011602052600090815260409020546001600160a01b031681565b3480156106a157600080fd5b5061039560055481565b3480156106b757600080fd5b506105877f000000000000000000000000000000000000000000000000000000000000000081565b3480156106eb57600080fd5b50600454600554600654600754600854600954600a8054600b54600c546003549293919290918a101590600160a01b900460ff16604080519b8c5260208c019a909a52988a01979097526060890195909552608088019390935260a087019190915260c086015260e0850152610100840152151561012083015215156101408201526101600161037b565b34801561078257600080fd5b50610395681b1ae4d6e2ef50000081565b34801561079f57600080fd5b5061041d6118ac565b3480156107b457600080fd5b5061041d6107c3366004612c25565b61192e565b3480156107d457600080fd5b50600254610587906001600160a01b031681565b3480156107f457600080fd5b5061041d610803366004612e27565b6119d2565b34801561081457600080fd5b50610395680ad78ebc5ac620000081565b34801561083157600080fd5b50610395600c5481565b34801561084757600080fd5b50600054610587906001600160a01b031681565b34801561086757600080fd5b5061039569010f0cf064dd5920000081565b34801561088557600080fd5b50610395600b5481565b34801561089b57600080fd5b506108f46108aa366004612bf0565b601060205260009081526040902080546001820154600283015460038401546004850154600586015460069096015494956001600160a01b039094169492939192909160ff169087565b604080519788526001600160a01b0390961660208801529486019390935260608501919091526080840152151560a083015260c082015260e00161037b565b34801561093f57600080fd5b5061095361094e366004612e05565b611b86565b60405161037b9190612e4a565b34801561096c57600080fd5b50610395610bb881565b34801561098257600080fd5b50610395610991366004612c25565b60146020526000908152604090205481565b3480156109af57600080fd5b506103956621c0331d5dc00081565b3480156109ca57600080fd5b5061039560065481565b3480156109e057600080fd5b5061039560045481565b3480156109f657600080fd5b5061039560075481565b348015610a0c57600080fd5b50610395683635c9adc5dea0000081565b348015610a2957600080fd5b50610536610a38366004612dd9565b611c7b565b348015610a4957600080fd5b5061041d610a58366004612e8d565b611cf0565b348015610a6957600080fd5b50610395610a78366004612bf0565b6000908152600e602052604090205490565b61041d610a98366004612bf0565b61218f565b348015610aa957600080fd5b5061039568056bc75e2d6310000081565b348015610ac657600080fd5b50610395600a5481565b348015610adc57600080fd5b5061039561271081565b348015610af257600080fd5b50600154610587906001600160a01b031681565b348015610b1257600080fd5b5061041d610b21366004612c25565b612426565b348015610b3257600080fd5b5061041d610b41366004612c25565b6124ca565b348015610b5257600080fd5b5061041d610b61366004612bf0565b61256d565b348015610b7257600080fd5b5061039560095481565b6000818152600d6020526040812054819081908103610bae576040516303d4572d60e51b815260040160405180910390fd5b6000848152601060205260408120600381015490919015610bd3578160030154610bde565b681b1ae4d6e2ef5000005b600683015460008881526013602052604090205491925090610bff83612865565b94509450945050509193909250565b6000546001600160a01b03163314610c39576040516330cd747160e01b815260040160405180910390fd5b60038054821515600160a01b0260ff60a01b199091161790556040517fb31006682779d0ac02864bee834675baf4592a679bfe75edd5e5847b52ef6f6e90610c8690831515815260200190565b60405180910390a150565b6000818152600d6020526040812054819081908190819081908103610cc9576040516303d4572d60e51b815260040160405180910390fd5b600087815260106020526040812060018101549091906001600160a01b0316610d09576000898152601160205260409020546001600160a01b0316610d18565b60018201546001600160a01b03165b905060008260020154600003610d3f5760008a8152600d6020526040902060010154610d45565b82600201545b90508260030154600014610d5d578260030154610d68565b681b1ae4d6e2ef5000005b60048401546005850154600690950154919c909b5060ff909416995097509095509350915050565b6000818152600d60205260408120548103610dbe576040516303d4572d60e51b815260040160405180910390fd5b60008281526010602052604081206003015415610dec57600083815260106020526040902060030154610df7565b681b1ae4d6e2ef5000005b9050610e0281612865565b9392505050565b600354600160a01b900460ff1615610e345760405163ab35696f60e01b815260040160405180910390fd5b6000818152600d60205260408120549003610e62576040516303d4572d60e51b815260040160405180910390fd5b6000610e6d82612911565b60018101549091506001600160a01b03163314610e9d57604051632731809760e11b815260040160405180910390fd5b600581015460ff1615610ec357604051635d51ae1160e11b815260040160405180910390fd5b60058101805460ff19166001179055604051339083907f4fc8ba7f4f3c695895c779eb7fde668149b9eed94bfc8e5dda5899c40eca973b90600090a35050565b6000818152600d602052604081208054600182015460028301546003840154600585015460068601546004870180548998899889986060988a98899894979396929560ff9092169490936001600160a01b03909116918390610f6490612ec2565b80601f0160208091040260200160405190810160405280929190818152602001828054610f9090612ec2565b8015610fdd5780601f10610fb257610100808354040283529160200191610fdd565b820191906000526020600020905b815481529060010190602001808311610fc057829003601f168201915b50505050509250975097509750975097509750975050919395979092949650565b600354600160a01b900460ff16156110295760405163ab35696f60e01b815260040160405180910390fd5b60165460011461104c57604051631762c6f360e01b815260040160405180910390fd5b60026016558661106f5760405163b780d61f60e01b815260040160405180910390fd5b85158061107c5750606486115b1561109a57604051630f7fcb2960e21b815260040160405180910390fd5b6000878152600d6020526040902054156110c757604051635665e77960e11b815260040160405180910390fd5b6621c0331d5dc00034101561110357604051633ebbc33760e01b81526621c0331d5dc00060048201523460248201526044015b60405180910390fd5b60006111166621c0331d5dc00034612f12565b90506000612710611130610bb86621c0331d5dc000612f25565b61113a9190612f3c565b9050600061114f826621c0331d5dc000612f12565b905060006621c0331d5dc000600a600082825461116c9190612f5e565b9250508190555082600b60008282546111859190612f5e565b9250508190555081600c600082825461119e9190612f5e565b925050819055506001600460008282546111b89190612f5e565b9091555085905061125b576001600560008282546111d69190612f5e565b925050819055506001600760008282546111f09190612f5e565b9091555061120190508a6032612f25565b61121390670de0b6b3a7640000612f25565b905069010f0cf064dd59200000811115611234575069010f0cf064dd592000005b80600860008282546112469190612f5e565b90915550611256905033826129c1565b611274565b60016006600082825461126e9190612f5e565b90915550505b6040518060e001604052804281526020018b815260200186151581526020018a8a6040516112a3929190612f71565b6040518091039020815260200188888080601f016020809104026020016040519081016040528093929190818152602001838380828437600092018290525093855250503360208085019190915260409384018690528f8352600d81529183902084518155918401516001830155509082015160028201805460ff191691151591909117905560608201516003820155608082015160048201906113479082612fe5565b5060a08201516005820180546001600160a01b039092166001600160a01b031992831617905560c09092015160069091015560008c815260116020526040812080549092163317909155600f805460018101825591527f8d1108e10bcb7c27dddfc02ed9d693a074039d026cf4ea4240b40f7d581ac802018b90556113cb8b612911565b5082156113e8576003546113e8906001600160a01b0316846129f9565b83156113f8576113f833856129f9565b336001600160a01b03168b7f356e37b4b3a3dbbf61e05450c7d74955350550a659bd8792d406b6c27133a0e18c88858c8c60405161143a9594939291906130a4565b60405180910390a3604080516621c0331d5dc0008152602081018590529081018390528b9033907fd381803faab74092aedc8de24231e595cfd3af1a0997ead17e7bcd54d9777c109060600160405180910390a350506001601655505050505050505050565b60008281526012602090815260408083206001600160a01b038516845290915290205460ff165b92915050565b6000828152600e6020526040812054819081908190819081908190881061150757604051635878ae8560e11b815260040160405180910390fd5b6000898152600e6020526040812080548a908110611527576115276130ea565b600091825260209091206005909102018054600182015460028301546003840154600490940154929e6001600160a01b0383169e5060ff600160a01b90930483169d50909b5092995080821698506101009091041695509350505050565b600354600160a01b900460ff16156115b05760405163ab35696f60e01b815260040160405180910390fd5b6000818152600d602052604081205490036115de576040516303d4572d60e51b815260040160405180910390fd5b600081815260126020908152604080832033845290915290205460ff1615611619576040516328486b6360e11b815260040160405180910390fd5b600061162482612911565b600581015490915060ff161561164d57604051632444f8b760e11b815260040160405180910390fd5b60405163aaac37a160e01b81523360048201526000907f00000000000000000000000000000000000000000000000000000000000000006001600160a01b03169063aaac37a190602401602060405180830381865afa1580156116b4573d6000803e3d6000fd5b505050506040513d601f19601f820116820180604052508101906116d89190613100565b6000848152600d6020526040812060010154919250906116ff90662386f26fc10000612f25565b90508082101561172c576040516320200bc560e01b815260048101839052602481018290526044016110fa565b683635c9adc5dea00000821015611768576040516320200bc560e01b815260048101839052683635c9adc5dea0000060248201526044016110fa565b60008481526012602090815260408083203384529091528120805460ff191660011790556064611799836005612f25565b6117a39190612f3c565b90506001600160a01b037f00000000000000000000000000000000000000000000000000000000000000001663de50a795336117df8487612f5e565b6040516001600160e01b031960e085901b1681526001600160a01b0390921660048301526024820152604401600060405180830381600087803b15801561182557600080fd5b505af1158015611839573d6000803e3d6000fd5b50505050336001600160a01b0316857f2ee8d21874599264c54876b79bf25eae1b396c3771a178e683a9e038b634f1d7600060405161189d918152604060208201819052600b908201526a435245444942494c49545960a81b606082015260800190565b60405180910390a35050505050565b6001546001600160a01b031633146118d757604051630614e5c760e21b815260040160405180910390fd5b60008054336001600160a01b0319808316821784556001805490911690556040516001600160a01b0390921692909183917f8be0079c531659141344cd1fd0a4f28419497f9722a3daafe3b4186f6b6457e091a350565b6000546001600160a01b03163314611959576040516330cd747160e01b815260040160405180910390fd5b6001600160a01b0381166119805760405163e6c4247b60e01b815260040160405180910390fd5b600280546001600160a01b038381166001600160a01b0319831681179093556040519116919082907f078c3b417dadf69374a59793b829c52001247130433427049317bde56607b1b790600090a35050565b600354600160a01b900460ff16156119fd5760405163ab35696f60e01b815260040160405180910390fd5b601654600114611a2057604051631762c6f360e01b815260040160405180910390fd5b60026016556000828152600d60205260408120549003611a53576040516303d4572d60e51b815260040160405180910390fd5b611a67333068056bc75e2d63100000612a72565b6000828152600e60209081526040808320815160e0810183528681523381850181815287151583860181815268056bc75e2d6310000060608601818152426080880190815260a088018c815260c089018d81528a5460018082018d559b8f529d8d902099516005909e029099019c8d559551988c01805494511515600160a01b026001600160a81b03199095166001600160a01b03909a169990991793909317909755955160028a0155516003890155905160049097018054935115156101000261ff00199815159890981661ffff199094169390931796909617909155825194855292840152909184917fa04181c550a5111ebee021519f1381f122b78eb4e9b9194a64cd6c9de7737351910160405180910390a350506001601655565b600f546060908084101580611b99575082155b15611bb45750506040805160008152602081019091526114c7565b6000611bc08583612f12565b90506000848210611bd15784611bd3565b815b90508067ffffffffffffffff811115611bee57611bee612f81565b604051908082528060200260200182016040528015611c17578160200160208202803683370190505b50935060005b81811015611c7157600f611c318289612f5e565b81548110611c4157611c416130ea565b9060005260206000200154858281518110611c5e57611c5e6130ea565b6020908102919091010152600101611c1d565b5050505092915050565b6000828152600d60205260408120548103611ca9576040516303d4572d60e51b815260040160405180910390fd5b60008381526010602052604090206005015460ff1680610e0257505060009182526012602090815260408084206001600160a01b0393909316845291905290205460ff1690565b6002546001600160a01b03163314611d1b57604051631bc2178f60e01b815260040160405180910390fd5b600354600160a01b900460ff1615611d465760405163ab35696f60e01b815260040160405180910390fd5b601654600114611d6957604051631762c6f360e01b815260040160405180910390fd5b60026016556000838152600e60205260409020548210611d9c57604051635878ae8560e11b815260040160405180910390fd5b6000838152600e60205260408120805484908110611dbc57611dbc6130ea565b60009182526020909120600590910201600481015490915060ff1615611df5576040516336ab81e160e11b815260040160405180910390fd5b600481018054600183810154600160a01b900460ff90811615158615151461010090810261ffff1990941693909317909117928390559104161561201c576001810154611e54906001600160a01b0316680ad78ebc5ac62000006129c1565b680ad78ebc5ac620000060086000828254611e6f9190612f5e565b90915550506001818101546001600160a01b031660009081526015602052604081208054909190611ea1908490612f5e565b90915550506001818101546001600160a01b031660009081526014602052604081208054909190611ed3908490612f5e565b9091555050600181015460405163aaac37a160e01b81526001600160a01b0391821660048201526000917f0000000000000000000000000000000000000000000000000000000000000000169063aaac37a190602401602060405180830381865afa158015611f46573d6000803e3d6000fd5b505050506040513d601f19601f82011682018060405250810190611f6a9190613100565b60018301549091506001600160a01b037f000000000000000000000000000000000000000000000000000000000000000081169163de50a7959116611fb88468056bc75e2d63100000612f5e565b6040516001600160e01b031960e085901b1681526001600160a01b0390921660048301526024820152604401600060405180830381600087803b158015611ffe57600080fd5b505af1158015612012573d6000803e3d6000fd5b5050505050612111565b600061202785612911565b9050600061203f600268056bc75e2d63100000612f3c565b600183015490915061205a906001600160a01b0316826129c1565b604051632770a7eb60e21b8152306004820152602481018290527f00000000000000000000000000000000000000000000000000000000000000006001600160a01b031690639dc29fac90604401600060405180830381600087803b1580156120c257600080fd5b505af11580156120d6573d6000803e3d6000fd5b5050505080600960008282546120ec9190612f5e565b90915550505060018201546001600160a01b0316600090815260156020526040812055505b600181015460048201546001600160a01b039091169085907f8aa1336152b005ddd3ccc39b5a66ed207555053dd23bc9cff1aab405f6348ea590610100900460ff168061215f57600061216a565b680ad78ebc5ac62000005b60408051921515835260208301919091520160405180910390a3505060016016555050565b600354600160a01b900460ff16156121ba5760405163ab35696f60e01b815260040160405180910390fd5b6016546001146121dd57604051631762c6f360e01b815260040160405180910390fd5b60026016556000818152600d60205260408120549003612210576040516303d4572d60e51b815260040160405180910390fd5b600081815260126020908152604080832033845290915290205460ff161561224b576040516328486b6360e11b815260040160405180910390fd5b600061225682612911565b600581015490915060ff161561227f57604051632444f8b760e11b815260040160405180910390fd5b6003810154600061228f84610d90565b9050803410156122bb57604051633ebbc33760e01b8152600481018290523460248201526044016110fa565b60008481526012602090815260408083203384529091528120805460ff19166001908117909155600485018054919290916122f7908490612f5e565b909155505060048301546103e89061230f9084612f25565b6123199190612f3c565b6123239083612f5e565b600384015560008481526013602052604081208054839290612346908490612f5e565b90915550506001830154612363906001600160a01b0316826129f9565b8034111561237e5761237e336123798334612f12565b6129f9565b336001600160a01b0316847f2ee8d21874599264c54876b79bf25eae1b396c3771a178e683a9e038b634f1d7846040516123d59181526040602082018190526003908201526208aa8960eb1b606082015260800190565b60405180910390a3837f68520cf07e2f785cba8f9601c758232191b84e9f0a8ec7b3049d2dcc197b67fe846003015460405161241391815260200190565b60405180910390a2505060016016555050565b6000546001600160a01b03163314612451576040516330cd747160e01b815260040160405180910390fd5b6001600160a01b0381166124785760405163e6c4247b60e01b815260040160405180910390fd5b600380546001600160a01b038381166001600160a01b0319831681179093556040519116919082907f4ab5be82436d353e61ca18726e984e561f5c1cc7c6d38b29d2553c790434705a90600090a35050565b6000546001600160a01b031633146124f5576040516330cd747160e01b815260040160405180910390fd5b6001600160a01b03811661251c5760405163e6c4247b60e01b815260040160405180910390fd5b600180546001600160a01b0319166001600160a01b0383811691821790925560008054604051929316917f38d16b8cac22d99fc7c124b9cd0de2d3fa1faef420bfe791d8c362d765e227009190a350565b600354600160a01b900460ff16156125985760405163ab35696f60e01b815260040160405180910390fd5b6016546001146125bb57604051631762c6f360e01b815260040160405180910390fd5b60026016556000818152600d602052604081205490036125ee576040516303d4572d60e51b815260040160405180910390fd5b600081815260126020908152604080832033845290915290205460ff1615612629576040516328486b6360e11b815260040160405180910390fd5b600061263482612911565b600581015490915060ff161561265d57604051632444f8b760e11b815260040160405180910390fd5b6003810154600061266f600283612f3c565b9050600061267d8284612f12565b905061268a333085612a72565b604051632770a7eb60e21b8152306004820152602481018390527f00000000000000000000000000000000000000000000000000000000000000006001600160a01b031690639dc29fac90604401600060405180830381600087803b1580156126f257600080fd5b505af1158015612706573d6000803e3d6000fd5b50505050816009600082825461271c9190612f5e565b90915550506001840154612739906001600160a01b0316826129c1565b60008581526012602090815260408083203384529091528120805460ff1916600190811790915560048601805491929091612775908490612f5e565b92505081905550808460060160008282546127909190612f5e565b909155505060048401546103e8906127a89085612f25565b6127b29190612f3c565b6127bc9084612f5e565b6003850155604051339086907f2ee8d21874599264c54876b79bf25eae1b396c3771a178e683a9e038b634f1d7906128139087815260406020820181905260049082015263212aa92760e11b606082015260800190565b60405180910390a3847f68520cf07e2f785cba8f9601c758232191b84e9f0a8ec7b3049d2dcc197b67fe856003015460405161285191815260200190565b60405180910390a250506001601655505050565b6000807f00000000000000000000000000000000000000000000000000000000000000006001600160a01b031663313ce5676040518163ffffffff1660e01b8152600401602060405180830381865afa1580156128c6573d6000803e3d6000fd5b505050506040513d601f19601f820116820180604052508101906128ea9190613119565b6128f590600a613223565b9050806129078464e8d4a51000612f25565b610e029190612f3c565b600081815260106020526040902060038101541561292e57919050565b6000828152601160205260409020546001600160a01b031680612964576040516361f2aa0160e11b815260040160405180910390fd5b828255600180830180546001600160a01b0319166001600160a01b0393909316929092179091556000928352600d6020526040909220909101546002820155681b1ae4d6e2ef500000600382015560058101805460ff1916905590565b6129f56001600160a01b037f0000000000000000000000000000000000000000000000000000000000000000168383612aa7565b5050565b6000826001600160a01b03168260405160006040518083038185875af1925050503d8060008114612a46576040519150601f19603f3d011682016040523d82523d6000602084013e612a4b565b606091505b5050905080612a6d5760405163022e258160e11b815260040160405180910390fd5b505050565b612a6d6001600160a01b037f000000000000000000000000000000000000000000000000000000000000000016848484612adc565b612ab48383836001612b18565b612a6d57604051635274afe760e01b81526001600160a01b03841660048201526024016110fa565b612aea848484846001612b7e565b612b1257604051635274afe760e01b81526001600160a01b03851660048201526024016110fa565b50505050565b60405163a9059cbb60e01b60008181526001600160a01b038616600452602485905291602083604481808b5af192506001600051148316612b72578383151615612b65573d6000823e3d81fd5b6000873b113d1516831692505b60405250949350505050565b6040516323b872dd60e01b60008181526001600160a01b038781166004528616602452604485905291602083606481808c5af192506001600051148316612bde578383151615612bd1573d6000823e3d81fd5b6000883b113d1516831692505b60405250600060605295945050505050565b600060208284031215612c0257600080fd5b5035919050565b80356001600160a01b0381168114612c2057600080fd5b919050565b600060208284031215612c3757600080fd5b610e0282612c09565b80358015158114612c2057600080fd5b600060208284031215612c6257600080fd5b610e0282612c40565b878152866020820152851515604082015284606082015260e06080820152600084518060e084015260005b81811015612cb4576020818801810151610100868401015201612c96565b5060006101008285010152610100601f19601f830116840101915050612ce560a08301856001600160a01b03169052565b8260c083015298975050505050505050565b60008083601f840112612d0957600080fd5b50813567ffffffffffffffff811115612d2157600080fd5b602083019150836020828501011115612d3957600080fd5b9250929050565b600080600080600080600060a0888a031215612d5b57600080fd5b8735965060208801359550604088013567ffffffffffffffff811115612d8057600080fd5b612d8c8a828b01612cf7565b909650945050606088013567ffffffffffffffff811115612dac57600080fd5b612db88a828b01612cf7565b9094509250612dcb905060808901612c40565b905092959891949750929550565b60008060408385031215612dec57600080fd5b82359150612dfc60208401612c09565b90509250929050565b60008060408385031215612e1857600080fd5b50508035926020909101359150565b60008060408385031215612e3a57600080fd5b82359150612dfc60208401612c40565b602080825282518282018190526000918401906040840190835b81811015612e82578351835260209384019390920191600101612e64565b509095945050505050565b600080600060608486031215612ea257600080fd5b8335925060208401359150612eb960408501612c40565b90509250925092565b600181811c90821680612ed657607f821691505b602082108103612ef657634e487b7160e01b600052602260045260246000fd5b50919050565b634e487b7160e01b600052601160045260246000fd5b818103818111156114c7576114c7612efc565b80820281158282048414176114c7576114c7612efc565b600082612f5957634e487b7160e01b600052601260045260246000fd5b500490565b808201808211156114c7576114c7612efc565b8183823760009101908152919050565b634e487b7160e01b600052604160045260246000fd5b601f821115612a6d57806000526020600020601f840160051c81016020851015612fbe5750805b601f840160051c820191505b81811015612fde5760008155600101612fca565b5050505050565b815167ffffffffffffffff811115612fff57612fff612f81565b6130138161300d8454612ec2565b84612f97565b6020601f821160018114613047576000831561302f5750848201515b600019600385901b1c1916600184901b178455612fde565b600084815260208120601f198516915b828110156130775787850151825560209485019460019092019101613057565b50848210156130955786840151600019600387901b60f8161c191681555b50505050600190811b01905550565b858152841515602082015283604082015260806060820152816080820152818360a0830137600081830160a090810191909152601f909201601f19160101949350505050565b634e487b7160e01b600052603260045260246000fd5b60006020828403121561311257600080fd5b5051919050565b60006020828403121561312b57600080fd5b815160ff81168114610e0257600080fd5b6001815b60018411156131775780850481111561315b5761315b612efc565b600184161561316957908102905b60019390931c928002613140565b935093915050565b60008261318e575060016114c7565b8161319b575060006114c7565b81600181146131b157600281146131bb576131d7565b60019150506114c7565b60ff8411156131cc576131cc612efc565b50506001821b6114c7565b5060208310610133831016604e8410600b84101617156131fa575081810a6114c7565b613207600019848461313c565b806000190482111561321b5761321b612efc565b029392505050565b6000610e0260ff84168361317f56fea2646970667358221220925eb38f1718b5da4d99d1543cbfa4c195c7e34a1ac033552e75ca112f2be09f64736f6c634300081e0033",
  "linkReferences": {},
  "deployedLinkReferences": {}
}